:100000006F40B03513000000130000001300000023
:100010001300000013000000130000001300000094
:100020001300000013000000130000001300000084
:08003000130000007300100032
:100038000000000000000000CA450000EA4500007A
:1000480000000000A04A00000000000000000000BE
:10005800A24A0000A44A00000000000000000000BE
:10006800C82F000000000000D002000000000000BF
:10007800AA4A0000AC4A0000AE4A0000B04A00009C
:10008800B24A0000B44A0000BE330000E633000064
:100098000E340000363400005E340000C04A000010
:1000A800C24A0000C44A0000C64A0000C84A00000C
:1000B800CA4A0000CC4A0000CE4A0000D04A0000DC
:1000C800D24A0000D44A0000D64A00008634000014
:1000D800DA4A0000DC4A0000DE4A0000E04A00007C
:1000E800E24A0000E44A0000E64A0000E84A00004C
:1000F800EA4A0000EC4A0000EE4A0000F04A00001C
:10010800F24A0000B4370000F64A0000CA3F000077
:10011800FE340000FC4A0000FE4A0000004B0000CC
:10012800024B0000044B0000064B0000084B000087
:100138000A4B00000C4B00000E4B0000104B000057
:10014800124B0000144B0000164B0000184B000027
:100158001A4B00001C4B00001E4B0000204B0000F7
:10016800224B0000244B0000264B0000284B0000C7
:100178002A4B00002C4B00002E4B0000304B000097
:10018800324B0000344B0000364B0000384B000067
:100198003A4B00003C4B00003E4B0000404B000037
:1001A800424B0000444B0000464B0000484B000007
:1001B8004A4B00004C4B00004E4B0000504B0000D7
:1001C800524B0000544B0000564B0000584B0000A7
:1001D8000000000000000000000000000000000017
:1001E8000000000000000000000000000000000007
:0801F8000000000000000000FF
:1002000097020120938202E0938202E0739002340D
:1002100003210500224573100530B1A81971232070
:10022000250006C006C216CAF322003093F28200EF
:10023000638402009302000816C412C81ACC1ECEB2
:1002400022D026D22AD42ED632D836DA3ADC3EDE76
:10025000C2C0C6C2CAC4CEC6D2C8D6CADACCDECEE6
:10026000E2D0E6D2EAD4EED6F2D8F6DAFADCFEDE56
:1002700003A1050009A0024573101534924037858B
:1002800000001305058073200530224573200530DA
:100290004242D2426243F243025492542255B25532
:1002A0004256D2566257F257064896482649B649F2
:1002B000464AD64A664BF64B065C965C265DB65DB2
:1002C000465ED65E665FF65F09617300203000000F
:1002D000197116CA9302000816C49302000273A093
:1002E000428006C212C81ACC1ECE22D026D22AD4F0
:1002F0002ED632D836DA3ADC3EDEC2C0C6C2CAC416
:10030000CEC6D2C8D6CADACCDECEE2D0E6D2EAD4A5
:10031000EED6F2D8F6DAFADCFEDE73110134EF0025
:100320008061EF103009EF00C06373110134138452
:10033000C18D0329040063040902232004007325EE
:1003400010342AC01384418D044023A02400138458
:10035000818D044003A104000245731015349240BE
:10036000B78200009382028073A00230A24273A081
:1003700002304242D2426243F24302549254225526
:10038000B2554256D2566257F25706489648264909
:10039000B649464AD64A664BF64B065C965C265DE5
:1003A000B65D465ED65E665FF65F0961730020301B
:1003B0000000397101436EC619A0397141536AC8F2
:1003C00066CA62CC5ECE19A0397101535AD056D29A
:1003D00052D44ED64AD826DA22DC06DE33016140FA
:1003E000828241114AC026C222C406C68282B24D10
:1003F0004101024D924C224CB24B4101024B924AB8
:10040000224AB2494101024992442244B240410188
:1004100082803D432A876373C3029377F700BDEF61
:10042000ADE5937606FF3D8ABA960CC34CC30CC764
:100430004CC74107E36BD7FE11E28280B306C3408D
:100440008A069702000096966780A6002307B700E9
:10045000A306B7002306B700A305B7002305B7001E
:10046000A304B7002304B700A303B7002303B70016
:10047000A302B7002302B700A301B7002301B7000E
:10048000A300B7002300B700828093F5F50F939681
:100490008500D58D93960501D58D61B7939627007C
:1004A0009702000096968682E78086FA9680C117AA
:1004B0001D8F3E96E374C3F8A5B703A5C18482805F
:1004C000EFF23FF29387C1849843050798C3EF107A
:1004D000C0313C45FD173CC589E77C413CC5EF1068
:1004E0008035EF10806005B7634205029307803EB8
:1004F0003347F5023365F5023305F5021305753E02
:100500003345F5023307F7023A9582807D558280A4
:1005100001458280014582800145828001458280BB
:10052000EFF23FEC2964A9641304842B9384442CD8
:1005300063639400C9BD1C4011048297D5BFEFF2DC
:100540005FEA2964A9641304442C9384C42C636374
:10055000940055BD1C4011048297D5BFEFF27FE88F
:10056000F93FEF40403A45B5EFF2BFE7B70500006D
:1005700037750000D1471547930600200146938543
:10058000C55513058513EF10A026EF10203EA5BD1D
:10059000EFF23FE5EF10E062EF20F01BEF00B02B31
:1005A000EF10205CEF005078C137EF10205C012C79
:1005B000EF00707A014581BDEFF2BFE2D13F014506
:1005C00099B5EFF27FE0AA89EF10202219C1EF1050
:1005D000800A2545EF00F06044411304450063960E
:1005E0008400EF108020014911A8138944FF21469F
:1005F000CE854A851D2D01E9EF10201F19C1EF108E
:10060000E0084A85E5BB8440D9BF09E57D55828075
:100610007D55D5BBEFF2FFDC2A842E853289AE846E
:100620004D377DF522852686A545EF00305E0145D4
:10063000231C2401230E0400231D0400D9BFEFF264
:100640005FDA1E2D41112A84C18B9DE71C558DC395
:100650002EC68297AA84B24501CD2A86377500003E
:10066000A28513050514EF0090182685410161BB92
:100670001E2C93E707011EAC1E2CA18B89C73E2CB4
:10068000E554A18BFDF35C5489CF22858297AA841F
:1006900005E13E2C93E787003EAC5C2C85075CAC03
:1006A000E9B785679387F7F0FD8D2EAC8144D5B708
:1006B000E957E31CF5FAF1BF5C2D85CBEFF27FD251
:1006C000FD1793F7F70F5CAD2A84014789EF1C599A
:1006D00089E70147231D040039A082972A8775D92D
:1006E000E957E309F5FE3A8539BB7D573A858280A3
:1006F000EFF23FCF582D09E77D552129014521A073
:100700005C5999C3829701B36955C5BFEFF27FCD9C
:10071000582D09E77D55F52E014521A01C5D99C393
:100720008297D5B16955C5BF0CD101458280EFF2E2
:10073000BFC99389818A854A83A7818A63863705E1
:10074000EF10204883A7818A2A8A638D370303A488
:10075000818A5C4018401309C4FE5CC398C340C042
:1007600000C0EF0050717C5099C34A8582974A853A
:10077000EF00105B631B55014A85EF00104FEF003F
:10078000F0705285EF10A04495B9EF00307052859B
:10079000EF10E0434848EF00303A4A85EF0030550B
:1007A00061BFEFF21FC41384019C130904011C40B4
:1007B00091C382971104E31C24FF953FEDB7EFF23C
:1007C0005FC237060000B7750000930800023D487D
:1007D000930700201387019D81461306267A93858F
:1007E000851713850194EF00307D13850194EF1078
:1007F000E01711B9EFF2FFBE41112A842E8532C6EF
:100800002EC4EF1060083246A24519C68547630D15
:10081000F60001454101C5BE5840938745011CC300
:1008200098CD5CC0C0C9F5B71C406388870083C6FB
:10083000550303C7170263FAE600D4431387450143
:1008400098C294CDD8C3DCC9E9B79C43F9BFEFF295
:100850005FB94111B2842E8689452A8436C6EF00DD
:10086000F03AB246930744011CCC5CC846AC14B4C1
:100870000145410149BEEFF23FB583A741894111CE
:100880002EC62A8491C38297EF10A0335E2CAA89CA
:1008900089CFFD175EACEF10803383A70189014536
:1008A00091CB22858297014531A0B24791E7EF10A5
:1008B00000327955410199B6EF00307323280502C3
:1008C0001034AA85AA84130544012D37B247635C0E
:1008D000F0001389C404700081454A85EF10601D43
:1008E0004A85EF1000124E85EF10602EEF00704920
:1008F000885845D5C1B7EFF2DFAE83A7C1882A84F7
:1009000091C38297EF10E02BAA84484893074401D3
:10091000630EF5003115EF10A00005442685EF1099
:10092000002B19C0EF00F0450145F1BC5E2C850796
:100930005EAC0144E5B7EFF2DFAA4111EF10602889
:10094000138781851C23850793F7F70F1CA383A7C3
:10095000018581C72AC682973245EF1040274101A1
:100960005DB4EFF21FA84111EF10A0251387818518
:100970001C23FD1793F7F70F1CA383A7418581C79D
:100980002AC682973245EF1080244101ADBC03C5D1
:1009900081858280937808044111639E08009D68D8
:1009A0009388483293730801638B03001378E8FF40
:1009B000930E000219A89D6893880828E5B7137361
:1009C0001800930E0003E30503FE13732800630E63
:1009D0000306635806023306C0409302D0020A8E13
:1009E000814F294F6395E6073373D6023356D602FB
:1009F000469303430300850F050EA30F6EFE7DF2A1
:100A00000DA0137348009302B002631703009372A2
:100A10008800B3325000960279F2930600035480A6
:100A2000854FFE8663D3FF00BE8613781801158FAD
:100A300063130804638502006353E0007D172A8670
:100A4000B308E5001303000221A88142F1B7137334
:100A5000F600118271BF6374B600230066000506BC
:100A60003388C840E34900FF3A86635307000146D4
:100A70007D173295118F638802006374B5002300DF
:100A800055007D17050563870302AA961308000326
:100A90001DA86374B6002300D60105063388C8403C
:100AA000E34900FF3A866353070001467D173295FC
:100AB000118FE1BF2A86B308E500CDB76374B50096
:100AC0002300050105053386A640E3C9CFFEFD5688
:100AD000FD1F6383DF0099E7AA873306E50013084B
:100AE000000231A86376B5003306F101102210A18F
:100AF0000505F9BF63F4B700238007018507B30636
:100B0000F640E349D0FE6353070001473A9541019F
:100B10008280EFF21F8D2A849D3D09C523AE81841A
:100B20006FF07F8EEF00704C75D900D9D5BF0D479F
:100B3000AA876376C7009377350091C7AA873E9648
:100B40006397C706828093F7F50F13978700D98FB5
:100B5000139707015D8FB308C500AA87BD46338888
:100B6000F84063EB060393574600C156B386D7029D
:100B70009207AA970D4836963383C700BE86B308FE
:100B8000D3406362180313572600F156B306D70209
:100B90000A07BA97369665B798C3D8C398C7C107EE
:100BA00023AEE7FE6DBF910623AEE6FEC9BF850703
:100BB000A38FB7FE71B763F2A504B386C500637E49
:100BC000D5029345F6FF8147FD176393F5008280B8
:100BD0003387F600030807003387C7002A972300EE
:100BE0000701DDB73387F500830607003307F500FB
:100BF000850714A3E318F6FE82808147E5BF0DC682
:100C0000AA8785050387F5FF85079306F6FFA38F5F
:100C1000E7FE09EB3E9685076393C7008280A38FAA
:100C200007FED5BF3686F1FE828001476314E600D9
:100C3000814739A8B307E50083860700B387E5003D
:100C40009C23B387F640E207E18799E30507F9FEA5
:100C50003E858280AA870387070001E73385A74086
:100C600082808507CDBFEFF24FF52E89B30B2501AA
:100C700041112A8CB68563F5AB001349F5FFFD5B86
:100C8000C169377A00006284930AB002130B000234
:100C9000FD19130ACA3131A8130750026389E7020C
:100CA000637374011CA013051400B284138614002E
:100CB0002A8483070600EDF363060900637B742F23
:100CC000230004003305844141016FF08FF2014895
:100CD0001307D002930630021305000331A0639E70
:100CE00057011368480026868307160093041600F0
:100CF000E397E7FE13680801FDB763956701136882
:100D00008800D5B76395D70013680802E9BF6395DB
:100D1000A70013681800C1BF138707FDA54663E647
:100D2000E6040147A546294539A03307A7028504F3
:100D30003E97130707FD83870400138607FDE3F63C
:100D4000C6FE038604009306E002FD57631FD60427
:100D500083871400254693861400138507FD636579
:100D6000A60A8147254529433DA09306A0027D5749
:100D7000E399D7FC9841930426009105E35307FCBF
:100D80003307E040136808016DBFB387670285062B
:100D9000B297938707FD03860600930806FDE37666
:100DA00015FF63D307008147B684838604001306CA
:100DB0008006014593F8B6FF6395C80013F5F60F5A
:100DC000850403860400930690066303D60663C574
:100DD000C606930680056303D61C63C3C604930747
:100DE00050026307F61A63757401930750021CA042
:100DF00083870400130514006386071A6373750163
:100E00001CB0130524005DB51306A0026397C7004C
:100E10009C4193862400910569B7B684814771B7D8
:100E2000930630066302D60893064006E31DD6FA01
:100E300013682800A94699A0930630076303D60CCF
:100E400063C5C6029306F0066300D6169306000734
:100E5000E31BD6F8FD566315D70013681800214729
:100E6000938C4500C14690411DA893065007E303AB
:100E7000D6FC93088007C146E31716F71306C00691
:100E8000938C4500E301C5FE13068006E31DC5FCF7
:100E9000904193752800639B051033763601DE85FB
:100EA0002285CD3CE68519B5137808016315080243
:100EB000BA879306000229A06373740114A0050485
:100EC000FD17E34BF0FE9307F7FF6343E000054790
:100ED0003387E740050793874500637474019441A5
:100EE00014A013051400229713060002B306A740AE
:100EF0006344D000BE855DBB6373750110A1050519
:100F0000F5B783AC0500138D450063930C00D28CBC
:100F100066853EC63AC442C2353BB247AA861248ED
:100F200022476355F00063D3A700BE8613780801FB
:100F3000631E0800BA871306000231A063737401B0
:100F400010A00504BA877D17E3CAF6FE814763C186
:100F5000D702B68763D3060081473305F4002A978A
:100F600013060002B307A74063CFF600EA853DBB36
:100F70003306F40063777601B385FC0083850500B2
:100F80000CA28507E9B76373750110A10505D9BFE8
:100F90006373740110A01305140009BB13680804DF
:100FA000C146E9BDFD1419B3A146C9BD420641863B
:100FB000FDB5A38F0BFE39B303A501868280EFF246
:100FC0004FC203A90186EFF0CFDF11CD1384018654
:100FD000AA84084019C1EFF02FEE9305300426854E
:100FE000EFF0EFE504C04A856FF0EFC18280397100
:100FF00026CA2ED232D436D62A8654109305F0074C
:10100000138501BD3EDA36C606CE22CC3AD842DC84
:1010100046DE9139AA8603A5018609E9138501BD3B
:10102000F137F2406244D244216182802686262D27
:101030001384018693E704043EAD9307F00763F43D
:10104000D7009306F007138601BD8145EFF00FEC42
:101050001C40A6AFF9B7EFF2CFB837750000130503
:1010600045297137377500001305052A4937377749
:101070000000377500001307472C8D4605468D4547
:101080001305052DAD37377500001305052F85377E
:101090006FF06FB731C59D661377F50F938606180D
:1010A00009C7BA96882205058280C167938707F031
:1010B000E98F81CB21851377F50F36970823250516
:1010C0008280B707FF00E98F81CB41859377F50FC9
:1010D000B69788234505828061813695082165058C
:1010E000828003A781865C41BA976305F502B62327
:1010F00095E283A64186638FF6009386C18690426F
:101100006313F60088C2D44354C1DC43B306E54000
:10111000BA9794C71045B307C700630FF500B6230D
:1011200081EE9386C1868C426393A5009CC2544194
:10113000D4C35C413E9710C78280EFF28FAA83A58B
:1011400041873775000013058533553583A5018820
:10115000377500001305C534593D83A501873775E0
:1011600000001305053661356FF0EFA9EFF26FA7A8
:1011700013F7C5FFE1462E8663F1E60693073500B7
:10118000F19B930687FE63EAF6041D8F130687FE24
:1011900023AAC1868966511713848186938606EA3D
:1011A000D8C394C323A407001CC0BA9723A2F18616
:1011B000C966938606EAB775000094C3D8C398C77A
:1011C000814605469385853F138501C5EFF02FE8DD
:1011D000184023A6E1866FF00FA3AA85377500009B
:1011E000130505402935C5BFEFF2AF9F39C503A7E9
:1011F00041871304350071981389418781446366E0
:10120000870EB1476373F4003144FD55138501C562
:10121000EFF06FE683A7C18683A581868328090046
:1012200026853386B740B38688401388C1866368B5
:10123000D600138501C5EFF00FEC81447DA0B38487
:10124000C500BA2003AE440061E73307CE40930FD8
:1012500047FF63EF8F0A138F0188938E0187130373
:10126000840183260F0083A30E00138901889382D3
:10127000018763EF6F061307C4003297896E3383CB
:10128000E500938E0EEA2322C3012324C30023200A
:10129000D3010546D8C0B2A003264300B1086304B9
:1012A00016012E9618C61387C60022972320E90040
:1012B00063F4E30023A0E2000967130707EA9AA09A
:1012C000639A970083A641860147B22305EE19C3AE
:1012D0002320F800138501C5EFF0EFE183A7C18754
:1012E000B10481C7A2852685829726856FF0AF91CC
:1012F00005463697B2A02320EF00E3FFE3FA23A0D0
:10130000EE005DBFE385D7FCDC430547AE9775BFB4
:10131000728631BFEFF2EF8C3306B5024111328590
:1013200032C6D9352A8409C532468145EFF03F805F
:10133000228541016FF02F8D45C5EFF2EF8883A71D
:1013400081872A8491C3829783A7818613898186A6
:101350006366F40883A741866372F408FD5513851C
:1013600001C5EFF04FD1835764FF930944FF81CB50
:10137000035744FF8967938707EA6301F7023775CC
:1013800000001305C53AA531835644FF035664FF98
:1013900037750000CE851305853C913989679387A1
:1013A00007EA231AF4FE9387C1869843231B04FEA1
:1013B00063F4E90023A03701138701881C438326C7
:1013C00084FF4E85958F83260900B386D940B69752
:1013D0001CC3013B138501C5EFF0EFD16FF00F8205
:1013E0008280B70700209386070001479387070094
:1013F00021468C426396A500131547003E958280D6
:101400000507C106E317C7FE01458280EFE2DFFB57
:101410002A842E85AE89328AE9372A89A92C832429
:101420004900930749006390F4048D2493E909F877
:10143000230434012146D2852285EFF04FFC83A797
:10144000418899C322858297EF00A077032749003E
:101450009307C4005CC358C42322F90004C8EF00FA
:1014600000776FE0BFF984407DBFEFE29FF783A76D
:1014700081882A8491C3829723040400EF0060745A
:10148000544418489307C400D8C214C31CC85CC491
:10149000EF00E0736FE03FF7EFE21FF32E89AA89B8
:1014A0008937AA84484589332A841DCDD044814593
:1014B000EFF0EFE7214623043401A3040400CA85BA
:1014C0002285EFF0CFF383A7418899C322858297C5
:1014D000EF00206FD8409307C40091045CC358C448
:1014E0009CC004C8EF00A06E22856FE03FF1EFE2E0
:1014F0005FEF83A781882A8491C382972304040025
:10150000EF00206C544418489307C400D8C214C399
:101510001CC85CC4EF00A06B2285393D6FE0BFEEB4
:10152000030585007D8182802392018A938701C70C
:1015300013870708DCC39CC3A107E39DE7FE3D4773
:10154000238CE18823AE018823A8018A9387818AAE
:10155000DCC39CC38280EFE2DFE803A5018BEFF0E0
:101560007FB37D1593173500138501C73E9508415C
:101570001307C5FE210523AEE188EFE07FC86FE0C9
:101580009FE8EFE21FE6EF00C0638397418A2A8954
:10159000B1E703A5018BEFF0FFAF7D151317350001
:1015A000938701C7BA9784439387C1898043938502
:1015B000C4FE6305B4028CC383A7018A238CA1886F
:1015C00099C32285829783C781851305C4019385BA
:1015D000840093F7F70F81EBEFE05FC44A85EF00DB
:1015E000005F6FE05FE2EF00E05ECDBFEFE27FDF24
:1015F0002A84EF00005D8347440393064401C19BA6
:1016000093E71700230AF402834754031397370024
:10161000938701C7BA97D84314C318CCD4C35CC806
:101620009387018B9443185C558F98C3EF00205A21
:101630006FE07FDDEFE2FFDA2A846123184C544823
:1016400093074401D8C214C35CC81CCC834754031D
:1016500013973700938701C7BA979843631AF70027
:101660001387018B1C5C144393C7F7FFF58F1CC3D2
:10167000B92B6FE05FD9EFE2DFD6A1239387418AD0
:101680009A2305079AA3A1236FE0FFD7EFE27FD546
:101690000D2B1387418A1E23FD17C207C1871EA386
:1016A000634BF000231007001D2383A7C18991C35A
:1016B000C93D6FE05FD5212BEDBFEFE29FD203A4C0
:1016C000C1890123AA842285B5379147230AF402F0
:1016D0001305C404012E2285A1358547631BF5003F
:1016E0003C5C81EB228551332685D521593D6FE045
:1016F0009FD183A6818A1307440123A4E18AD8C21B
:101700009387818A54C81CCCC5B7EFE29FCD2A8449
:101710005105411108CC48C80CD050D014D43A8699
:1017200058D49305300236853EC642C4EFF02FC030
:10173000585410544C5008507117B71600003A9680
:101740009386A66B2D21B24722483716000048CC5D
:10175000230BF402A30AF402232C04028147232260
:1017600004052324040523280402230A0402232C4D
:101770000406232E04060147A28613068679A28555
:101780001305C4041D2483A7418B99C32285829726
:10179000014541016FE03FC7EFE2BFC45049144D1E
:1017A000795718D954C21307450190C218CD58C9AA
:1017B000353DC13B6FE03FC5EFE2BFC24111B2848E
:1017C0002E8685452A84368946C03AC63EC442C222
:1017D000EFF0DFC3024892472247B2464A86A68509
:1017E0002285253741016FE01FC203A5C189828090
:1017F000EFE29FBD41112E89AA85054532C6B68408
:10180000BA893E8AEFF05FC92A8411C92685EFF0B4
:10181000BF9D324609E92285EFF07FCD0144228544
:1018200041016FE0BFBDAA865288CE872687CA8550
:101830002285E13DEDB7EFE2DFBA612683A7C189DA
:101840000546AA8603C747033D8B631CC702D04BDE
:10185000984F6308E60258C210C303C65703938625
:1018600047010E06138701C794CF3297504314C225
:1018700090CF54C3D8CBA12EEFF0BFD001456FE07D
:101880009FB83685A926DDBF834745030547BD8B35
:10189000639FE702EFE2FFB42A84252683474403CF
:1018A000AA842285C19B93E72700230AF402EFF064
:1018B0007FD81305C404F1222685112E83A7C18B7E
:1018C000014581C72285829701456FE0DFB37D55D1
:1018D0008280EFE21FB141112AC6E52403A4C18929
:1018E0002A89228555379304C404700081452685D2
:1018F000C922268539224A85D92CEFF09FC818586D
:10190000F9576314F70023280402014541016FE0F1
:101910009FAFEFE21FADEFE03FBD653F6FE0BFAEB1
:10192000834745030947BD8B6390E704EFE27FAB34
:101930002A84412C5448184C93074401AA84D8C2E5
:1019400014C31CCC5CC81305C404252A2685412475
:101950002285EFF0BFC983A7818B014581C722850E
:10196000829701456FE03FAA7D558280EFE27FA715
:101970008346650305473317D70018DD0947A30AD7
:10198000D502230AE502693F83A7C18999C3EFF015
:101990005FBF01456FE03FA75449184D93074501CC
:1019A000D8C214C31CCD5CC98280EFE29FA3411151
:1019B000B2842E86A9452A8436C63AC43EC2EFF0C8
:1019C000FFA49247B2462247F99B1CB493074401F7
:1019D00044CC14D02324040258D01CCC5CC8410150
:1019E0006FE07FA2EFE2FF9F2A84E12AAA8422858A
:1019F00065372685E92A2285EFF03FA701456FE08C
:101A00009FA0EFE21F9E2A846D2AAA84228569374F
:101A10001C342685F99B1CB45D2A83A7018999C3D0
:101A200022858297EFE07FA95C503E9508D4512A29
:101A30001387C18C03284700370600809387C18C29
:101A40001346E6FF98436315F8029386018C904293
:101A5000050690C29306440154C358C894C31CCCD5
:101A60001C3493E717001CB49D2201456FE0BF9919
:101A7000544B0C546385B6008D8EE378D6FCBA8740
:101A8000D1B71C35858B85C7EFE2BF9583A7C18889
:101A90002A8491C382973522AA842285F53D268522
:101AA0003D221C340145F99B1CB46FE0DF957D5548
:101AB000828085476381F50263C5B70085C1014512
:101AC00082808947638FF5008D47E39AF5FE1C35C8
:101AD00093E7270009A85C511CC2D5B71C425CD112
:101AE000F9BF1C35F59B1CB5D9BFEFE21F8DEFE0A8
:101AF000DF9C2A8CF920B70900802A8A9384C18C44
:101B000093C9E9FF8D4B8040631694005285C12034
:101B10006FE03F8E48481309C4FE3305AC40E3E74D
:101B2000A9FE83A7418C99C34A8582974A85EFF025
:101B3000BFE61C4448448297EFE03F9883A7818C1E
:101B40002A8C99C34A858297834754FF13F7E70F7E
:101B5000A30AE4FE8D8BE39877FB4A85EFF07FEADA
:101B60005DB79387C18CDCC39CC3828082801106E1
:101B7000719A2A8837C7ADDE130506F8AA871307BE
:101B8000F7EE631EF600A167938707882322D6F835
:101B90002324B6FA232006F92324F6F8828098C37A
:101BA0009107C5B737F700E01C43B7060080D58F13
:101BB0001CC3828037F700E01C43860785831CC363
:101BC00082802165130505807315053082807310AE
:101BD00005308280EFE2FF801387C18D1843938721
:101BE000C18D19E323AAA18C23ACB18C054798C3FE
:101BF000553F6FE05F812A87814718436314A70030
:101C00003E8582808507D5BFB707EFBE37E700E086
:101C1000938707083CC701458280EFE28FFC377548
:101C200000001305C543EFF08FBC01456FE0AFFD29
:101C3000EFE22FFB2A84FD54378900007D146314E2
:101C400094006FE04FFC130549BAEFF04FBAFDB7AF
:101C5000EFE28FF70041AA8437890000B7890000BE
:101C6000631494006FE08FF99305C4FE130589BADD
:101C7000EFF0EFB71C40638697001385C9BAEFF009
:101C80000FB70040F1BFEFE2CFF52E89EFE09FFCE8
:101C90002A84EFF05F9E83240900639C2401EFF007
:101CA000FF9EA14763C3870011E0214422856FE0B6
:101CB0008FF5138544FFEFE0FFF96353A4002A84F6
:101CC0008440E1BFEFE26FEF0545EFF08FF1B779A8
:101CD0000000130945002A84CA851385096F6537FA
:101CE000AA85AA84377500001386096F1305856FCE
:101CF000EFF0EFAF2685EFF0BFF337750000130567
:101D0000C573EFF0CFAE4040B7790000054A894A6D
:101D1000377B0000B77B0000377C0000B77C0000F9
:101D2000377D00006315890001456FE08FEC0347A4
:101D300094021385C977930644FF2146A685EFF0E8
:101D40000FAB8347840213858C78BD8B638E47016C
:101D500013054C79638A570113850B7A91C7114794
:101D60006396E7001305CB7AEFF06FA84C4C93070E
:101D70003002AE8698226306F702105093074006A1
:101D80000848B295B386D540B386F602585C5C50DD
:101D9000898D13058D7BB3D6C602EFF04FA50040A9
:101DA00051B78506C1BFEFE22FE241110945EFF0BF
:101DB0004FE393094500377900002A84CE85130547
:101DC0000969EFF05FECAA85AA8437750000130655
:101DD00009691305C569EFF08FA12685EFF05FE56E
:101DE000377500001305856BEFF06FA04040377A20
:101DF0000000B77A000037AB000063968900014508
:101E000041016FE0AFDF1A281C44930644FF130919
:101E1000840036C63AC44A856306F902EFF0BFDD96
:101E20002247B246AA872146A68513850A6DEFF0A0
:101E30000F9C4A85EFF0DFE113054BB6EFF02F9BC7
:101E4000004065BFEFF03FDB2247B246AA8721463C
:101E5000A68513050A6EEFF08F99DDB7EFE2CFD6B6
:101E600041111145EFF0EFD7930945003779000094
:101E70002A84CE851305494DEFF0FFE0AA85AA8498
:101E8000377500001306494D1305C54DEFF02F9629
:101E90002685EFF0FFD93775000013050550EFF0E8
:101EA0000F954040377A0000B77A000037AB00004A
:101EB00063968900014541016FE04FD41C4413092A
:101EC0008400930644FF18486309F9024A8536C620
:101ED0003AC4EFF05FD22247B246AA872146A685D0
:101EE00013850A52EFF0AF904A85EFF07FD61305C5
:101EF0004BB6EFF0CF8F004065BF2146A685130596
:101F00008A53EFF0CF8EC5BFEFE20FCC41110D45E4
:101F1000EFF02FCDB7790000130945002A84CA8558
:101F20001385C962EFF03FD6AA85AA8437750000F1
:101F30001386C96213054563EFF06F8B2685EFF0BA
:101F40003FCF3775000013058565EFF04F8A40409D
:101F5000B779000063168900014541016FE00FCA9F
:101F6000930644FF1305840036C6EFF0DFC803482C
:101F700034015C48B246AA8821472146A6851385CC
:101F80008967EFF0CF860040F1B7EFE2EFC3411170
:101F90001545EFF00FC593094500377900002A84F5
:101FA000CE851305C954EFF01FCEAA85AA843775D4
:101FB00000001306C95413054555EFF04F832685DD
:101FC000EFF01FC73775000013058557EFF02F821C
:101FD0004040377A0000B77A000037AB00006396C4
:101FE0008900014541016FE06FC17A285E281044E5
:101FF000930644FF1309840036C63AC43EC24A859C
:102000006307C902EFF03FBF92472247B2462A88D2
:102010002146A68513854A59EFE07FFD4A85EFF0FA
:102020003FC313054BB6EFE09FFC00404DBFEFF000
:102030009FBC92472247B2462A882146A6851305AF
:10204000CA5AEFE0DFFAD5B7EFE20FB841111945F0
:10205000EFF02FB993094500377900002A84CE8527
:102060001305495CEFF03FC2AA85AA8437750000CA
:102070001306495C1305055DEFE07FF72685EFF059
:102080003FBB377500001305C55EEFE05FF64040CB
:10209000377A0000B77A000037AB000063968900FA
:1020A000014541016FE08FB51A2C1C44930644FF93
:1020B0001309840036C63AC44A856306F902EFF074
:1020C0009FB32247B246AA872146A68513854A6058
:1020D000EFE0FFF14A85EFF0BFB713054BB6EFE035
:1020E0001FF1004065BFEFF01FB12247B246AA873B
:1020F0002146A68513058A61EFE07FEFDDB7EFE2A9
:10210000AFAC5D712545EFF0CFAD9D6513060005C1
:102110002A84130945009385850C0A85EF30103217
:10212000B7790000CA851385C946EFF0DFB5AA85E7
:10213000AA84377500001386C94613054547EFE0AA
:102140001FEB2685EFF0DFAE377500001305C5499C
:10215000EFE0FFE94040D149377A0000631689007B
:10216000014561616FE08FA91C44930644FF63E061
:10217000F90298088A07BA9703A707FB1C2821468B
:10218000A68513050A4CEFE09FE60040C1BF464715
:10219000F5B7EFE26FA32945EFF0AFA4B7790000E0
:1021A000130945002A84CA851385097EEFF0BFAD67
:1021B000AA85AA84377500001386097E1305857EDB
:1021C000EFE0FFE22685EFF0BFA63785000013059C
:1021D0000581EFE0DFE14040B7890000378A000069
:1021E000B78A0000631E8900EFE02FADAA8537850E
:1021F000000013058586EFE09FDF01456FE00FA02B
:102200005C4C184C13854983930644FF2146A685F0
:10221000EFE0FFDD8347D4FF1385CA84858B99E304
:1022200013058A85EFE0BFDC00406DBFEFE2CF9978
:102230003775000013054544EFE07FDB03A4418EB2
:10224000B7790000377A000083A7818E6365F400B8
:1022500001456FE0AF9A044009469385894526857C
:10226000EF30F03019C55040A6851305CA45EFE0A0
:102270001FD83104D1BFEFE22F9537850000130539
:1022800085D0EFE0DFD603A4418EB7890000378AFE
:10229000000083A7818E636BF40037A5000013054F
:1022A00045B6EFE0DFD401456FE04F950440194695
:1022B000938549D22685EF30902B01E950409385D4
:1022C00064001305CAD2EFE09FD23104D9B70545A7
:1022D0008280EFE26F8F79712A84AA9593060002BB
:1022E000254783070400B38485406385D70A638349
:1022F000E70A0145638B0410014913070002A54654
:10230000B307240183870700638AE7086388D70837
:102310006314990883A9418E83AA818E378B0000AC
:1023200063F0590903AA0900194693054BD2528557
:10233000EF30F02359E54A86A28513056A00EF3095
:10234000102341E14A9A83076A00A5EF83A9890017
:10235000638809041306800281452800EFE06F8B33
:1023600013098100CA86A2870145014713080002AC
:10237000A548294313062002130EC00583850700D4
:102380006384050163961505631F9702A9476303DC
:10239000F50469A80504B1B705099DB7E31C09F662
:1023A000A287038707001377F7FD79E737850000D9
:1023B000130505CF23800700A285EFE05FC37D559D
:1023C000A9A0B109B1BF23800700050785077DB724
:1023D00063106504378500001305C5CCEFE03FC1ED
:1023E0000018B7840000832509001385C4CE1109A5
:1023F000EFE0FFBFE31989FE37A50000130545B6DE
:10240000EFE0FFBE29452C00829945616FD01FFF88
:10241000637E970005056392C504850705079CC286
:10242000838507006381C5026364970069FD8DBFE2
:10243000838E17006396C5016394CE008507050758
:1024400085070507F1BFE37397FE238007000507A3
:1024500085079106E36497F2D1BF9CC2838507008C
:102460006389050163871501E30297FC850705076A
:10247000F5B7E36097FE5DBF850725B7EFD2FFF3A1
:102480008307050099E781450145EFF0DFDE6FD056
:102490005FF603AA418EAA8981440149378B000067
:1024A000B78B000083A7818E6369FA00EDD04A865E
:1024B000A6854E85EFE0AFF4D9BF03240A00194684
:1024C00093054BD22285EF30900A21E14E85EF3003
:1024D000F00819042A86A2854E85EF30500915E5CB
:1024E000631709002285EF3070072A89A284A68726
:1024F00022870386070001EE858F63D327013E897B
:10250000A28513854BD3EFE09FAE310A61BF8306EE
:102510000700FDD2E312D6FE85070507D9BFEFD22B
:102520005FECEFF02FFA01456FD0FFEDEFD27FEBBC
:10253000EFE0BFC001456FD01FEDEFD29FEA03A5CA
:10254000018EEFE04FBB01456FD0FFEBEFD27FE98B
:10255000B7A700009387071123A2F18EB7A7000049
:102560009387472B23A4F18EB7A700009387472BAF
:1025700023A6F18EB7A700009387472B9305002170
:10258000054523A8F18E1384018EEFE0BFD808C063
:1025900019E937850000130585DEEFE05FA57D545E
:1025A00022856FD05FE6B725000037850000A94778
:1025B0002D479306004001469385C56C130505E041
:1025C000EFF00FA3AA840840B785000081460146BA
:1025D000938585E0EFE0AFA70144F9D02685EFF0C1
:1025E000EFB87DBFEFD2FFDFEFF07FCE0DC5B7852F
:1025F0000000938545DB138501CFEF302075B7854B
:102600000000938545DC138501CFEF3040721385C0
:1026100001CF6FD05FDFB78500009385C5DBE1BFD9
:10262000EFD23FDC2A8437850000130545E2EFE056
:102630001F9CEFF03FFBAA85378500001306A41B03
:102640001305C5E2EFE0BF9A01456FD0DFDBEFD2A3
:102650005FD941112AC6EFD0DFF6B24511E93785BF
:102660000000130585DCEFE09F9841016FD0BFD9D2
:1026700083A7018EAA841384018E83A7C720E386D3
:10268000A7FE93053014EFD09FFB65F11C4003A516
:10269000C72009C9EFE04F821C40814503A5C72030
:1026A000EFE08F8800401306000581451305A41B49
:1026B000EFD03FD6B7250000231504202326942011
:1026C0009385A5532685EFE02F8645B7EFD27FCEC1
:1026D00083A7018E41119384018E03C747021367BC
:1026E00017002382E70283A7C72091E7EFE0DF8C82
:1026F00019C1EFF0DFF5EFF0FFEEEFE05F8F378B02
:102700000000B78B0000B789000037AA0000B78A25
:102710000000378C0000B78C00009C4085461306F3
:10272000F10003A5C720FD55EFD09FFC8547631A34
:10273000F5000309F100ED4780406319F90008D066
:10274000E9BF8840FD55EFE00F93C1BF1C50639275
:10275000A7029307B0056315F90089471CD075BF20
:1027600023200402E30B09FAA5476314F912014977
:10277000D1A80947E398E7FE232004029307100439
:102780006312F9046E30D1D9FD15C205C1816EB056
:102790009307A41B13070005B385E5021306000584
:1027A0003E859385A502A295EF304049EF30005B4E
:1027B0001375F50F2305A420A305A4202285EFF0AF
:1027C0003FE6A1BF930720046311F90216347E305F
:1027D0001387F6FF63D8E70085077EB09307A41B35
:1027E0006E304DBF9DDA7AB0D5BF930740046310B9
:1027F000F9028347B42095D3138509E1EFE02FFF59
:1028000098408347B720FD17A305F72039B79307F2
:102810003004E319F9F48347B4200347A420E3FE0E
:10282000E7EE3E948305A41B13854AE1EFE02FFCFD
:1028300098408347B7208507C1BF138509E1EFE0C2
:102840000FFB050980408347B420E348F9FE1305D8
:102850004AB6EFE0CFF9EFF09FA785471304A41B1A
:102860006315F5002285EFF07FC1EFF0BFD7228618
:10287000AA851385CCE2EFE08FF780401305A41BF7
:10288000EF30C04D1375F50F2305A420A305A42038
:1028900069B59307F0076305F900A1476315F908C7
:1028A0008347B420E38B07E60346A420FD1793F784
:1028B000F70F7D161376F60F2305C420A305F42029
:1028C00063F8C7049385B71B1385A71B1D8EA295BC
:1028D0002295EFE04FAE9C4013858BE103C7A72004
:1028E0003E97230D071A83C5B7209385A51BBE9578
:1028F000EFE0EFEF9C4003C4B7209C4083C7A720C4
:10290000E3CD87E0138509E1EFE06FEE0504F5B74D
:1029100013050BE2EFE0AFED9C4003C7A720BA9789
:10292000238D071ADDBB35478347A4206305E900E3
:102930002947631EE90EB9CB035984029147130D51
:10294000A41B63FB2709930DA41613060005EA8553
:102950006E85EF30602C1DC91309A4024A85130946
:10296000090513060005CA85EF30402DE3982DFFB9
:102970001306000581456E85EFD0BFA90346A4204C
:10298000EA856E85EF30802B95471EB41E347EB0ED
:10299000EFF0FF9385476312F5029C4083C747021F
:1029A000858B89C713054AB6EFE06FE488408345FD
:1029B000A5201305A51BEFF0DF91EFF0BFC2EFE0FC
:1029C0000FE380401306000581451305A41BEFD0DB
:1029D0005FA42315042091B3630109021305F9FFD5
:1029E000930700053305F50213060005EA85130574
:1029F000A5022295EF30402251D9930D00053305F1
:102A0000B9031306000581451305A5022295EFD0F1
:102A10005FA00A340346A420EA853305B5031305F5
:102A2000A5022295EF3080211E348507B9BF130718
:102A3000F0046374F700230504200346B4208347A1
:102A4000A4206370F6089305A61B1305B61BA29578
:102A50003386C7402295EFE00F968C4083C7B520A0
:102A60003387F500230D271B03C74502058B01CBD8
:102A70009387A71BBE9513058CBAEFE04FD79C40F8
:102A800003C4B7209C4083C7A7206346F402984044
:102A90008347A7208346B7208507850693F7F70F5E
:102AA000A305D7202305F7209306F004E3F7F6C625
:102AB000231507209DB1138509E1EFE04FD30504ED
:102AC000D1B7A297238D271B83474402858BE1D37F
:102AD000CA8513854AE1EFE08FD155BF7C41232899
:102AE0000504232A05049C4381CBEFD29F8F9305D5
:102AF000850482976FD03F9101458280EFD2DF8CB1
:102B000036899DCAAA843284B309D600294A1C207A
:102B1000639B4701BE2C93F7070491C7FC40B54562
:102B200026859C478297FC408305040026859C47A8
:102B300005048297E31D34FD4A856FD03F8CEFD2A8
:102B40005F8A93F705102A8491C71A2D6155137770
:102B5000071035CF13F7054011C71A2C61551377AD
:102B6000074035C713F705049304000401E7262C3A
:102B700093F40404384893F5F50F2EAC39EBA1C754
:102B800068442981420541813105EFE0EFE5704459
:102B90002A89310529824206418281452320A900E4
:102BA000EFD0FFF8232209003E2C2324090023281C
:102BB000240593E707103EAC7C4013060010C14586
:102BC000DC43228582973E2C0145DD8C26AC6FD0FC
:102BD0009F83F5DB93E505102EACF5B70948AA876E
:102BE00063810503EFD2EFFF0D48638205030547BC
:102BF0006399E5041A2D1377F7FD1AAD01456FD0DF
:102C00009F801A2D136707021AAD01458280328713
:102C100075D6504274454C2D2982A9824206C206BF
:102C20004182C1826304D6001D45F1F91443B4C743
:102C30005443F4C7E1D5F443BA853E859442829665
:102C400075BF7C41DC4382975DBFEFD2EFF73684DE
:102C5000B1CA3E2DAA89328993F70710B6849DE345
:102C60007D5AA94A83A749044E85DC4782976309A8
:102C700045012300A900FD14050963035501FDF07A
:102C8000058C0DA02449368A854AEFE09FF3FE208B
:102C9000DA202A869444631AF70081EAEFE03FF3D2
:102CA0003304444122856FD06FF598403E97034B23
:102CB000070003A7C9048507C2072983C183420708
:102CC000FEA0418363E4E70023930400639456016C
:102CD00023A404003285EFE09FEF7D1A23006901F1
:102CE0000509E3140AFA6DBF582D854763ECE70226
:102CF0003E2D93F707109DC7EFD2AFEE2A842849E7
:102D0000EFE08FE33E2C232804041306001093F712
:102D1000F7EF3EAC7C40C5452285DC4382970145F8
:102D20006FD06FEE01458280EFD2AFEB37370000F6
:102D30001307C7AD18D5373700001307E7B358D5C9
:102D400037370000130787CE18D93737000013072D
:102D5000A7C458D9373700001307C7AF18DD373776
:102D600000001307C7BD420658DD34C14182232A43
:102D700005002320050223220502EFD01F896FD012
:102D80008FE893F5F50F85476391F50AEFD2CFE30E
:102D900020494111AA847D598549FC402685DC479C
:102DA00082972A8A63072505EFE0BFE15A201C407D
:102DB000BA97238047015E20F8448507C20729831C
:102DC000C18342075EA0418363E4E700231204004D
:102DD00076205E20639CD7008507C207C1837EA052
:102DE0002324340163E4E70023130400EFE03FDE13
:102DF0006DB79C5085C3EFE0DFDC5A206E20636E18
:102E0000B700B305B7402EC6EFE07FDC9C50B2455B
:102E10002685829741016FD06FDEFC44998DA9838E
:102E2000C207C183B385B740F9BF828001CEEFD21C
:102E30004FDB7841B2878E23184332220297014537
:102E40006FD06FDC7D558280EFD2AFD9138741D729
:102E500078432E86AA851843138541D702976FD0F1
:102E60008FDAEFD20FD8138741D778432E86AA8501
:102E70005843138541D702976FD0EFD8EFD26FD662
:102E8000138741D77843AA85138541D718470297FE
:102E90006FD06FD705C611476392E602EFD26FD4A9
:102EA0007C410E2241119C4736C632C4829722468D
:102EB000B2462AA2368541016FD0EFD481463685CD
:102EC00082801DC2B28711466390C602EFD26FD1D5
:102ED0007841B2238E235843411136C60297B24639
:102EE000410136856FD02FD2814636858280EFD260
:102EF0004FCF938741D74947D8CB373700001307C7
:102F000047E9D8DB37370000130727EC98DF37375E
:102F100000001307C7E2ECC3B0C3AA850D461385B2
:102F200041D723A0070223A2070223A4070223A656
:102F3000070223A80702D8DFEFD02FED01456FD09D
:102F40008FCC371500201305C58D828037250020D2
:102F50001305C58D8280EFD2CFC803A7C181930727
:102F6000803EC1563357F702B7E700E02386D740CB
:102F70002387D740856623A0D710916623A0D7105A
:102F8000B7F700E023A0070023A20700014690C77F
:102F90008146D4C781461306F7FF90CBD4CB3D477B
:102FA00098C3EFD0EFD7EFF0DFF92A84EFF01FFAE4
:102FB000AA852285EFE08F9B37850000130545EA3F
:102FC000EFD0FFFF6FD02FC473110134EFD0BF9645
:102FD000B7F700E023A20700EFD08FCEEFD07F98A5
:102FE00073110134730020308147854613070002B6
:102FF0003396F6006306A6008507E39BE7FEFD57C0
:103000003E858280EFD2EFBD854513050002EF209B
:1030100060246FD04FBFEFD2CFBC85452145EF2054
:1030200060236FD04FBEEFD2CFBB85451145EF2057
:1030300060226FD04FBDEFD2CFBA85454145EF201A
:1030400060216FD04FBCEFD2CFB985451305000486
:10305000EF2040206FD02FBBEFD2AFB8A1653785EE
:10306000000001469385C5EA13054559EFF03FE896
:103070006FD06FB99307400663ECA7009317450024
:103080002165130545F43E951841FD576313F7007C
:1030900001458280EFD2EFB4411113F5F50F32C62E
:1030A000EFF05FFD11C54E2532460845EF10F07A6E
:1030B00041016FD04FB5EFD2CFB213F5F50FEFF05E
:1030C0007FFBAA87014589C7CE278847EF10D077B5
:1030D0006FD06FB3EFD2EFB0011113F5F50F32845B
:1030E000EFF05FF905C55C412AC6829732455C4521
:1030F000FC82C1473ECE8D473ECC09C41547631ABA
:10310000E40002CE08454C08EF10106805616FD04E
:103110008FAF05476315E40091473ECEE5B76315D1
:10312000F40093078002D5BF89476315F400930725
:103130008004E5B791476314F400D147F9BF99477C
:103140006314F400F147D1BF9D47E31DF4FAE14752
:10315000E9B7EFD26FA713F5F50FAE84B289368ABF
:103160003A89EFF03FF1994731CD4845EFF0DFE77D
:103170003D472A8499476367A704EFE09FA4B146BF
:10318000B306D402B7070020138707082A8693875F
:103190000708369783160700639F96004C43639C8D
:1031A00045012E2363993501184763162701EFE087
:1031B0001FA2814701A87D576389E6003285EFE0B1
:1031C0001FA19D473E856FD06FA331453305A402F3
:1031D0003E9506A123224501231135012324250113
:1031E0003285F1B7EFD2EF9F13F5F50FEFF09FE8BF
:1031F00019471DC94845EFF03FDFBD472A841947ED
:1032000063E4A702EFE0FF9BB1473304F402B70782
:103210000020938707087D57A2978396070063983D
:10322000E600EFE0DF9A01473A856FD0CF9D416716
:103230007D1798C323A2070023A40700DDB7EFD2B0
:10324000AF98011113F5F50F328AEFF0BFE29947FD
:1032500021C185442A8463159A104845EFF0DFD8D0
:103260003D47AA8499476365A702EFE09F95B14A5D
:10327000B38754033709002013090908AA893E9926
:1032800003170900FD576319F700EFE05F949947B2
:103290003E8505616FD08F965C40829785450545D8
:1032A000EF10507B5C440D473AC47C823EC8835784
:1032B000290002CA52CE638C4709C1C70947638DF2
:1032C000E70808444C00EF10304C1844B717014091
:1032D000938607C005456302D7020945630FF700CF
:1032E000938707400D45630AF700B727014093878E
:1032F000078001456313F700114593F5F40FEF10B4
:1033000070560808EF10303FA167938747EC8E0492
:10331000BE94D04037E700E093060005B307C7002E
:103320002380D740935756009387070485468A0722
:10333000B396C600BA9794C34E85EFE05F89814784
:1033400081BF930780023EC6A1473ECC9DBF930735
:1033500080043EC656CCB5B791473EC6C147F5B7C7
:103360009947E3170AF24845EFF01FC83D479947D0
:10337000E360A7F2931735002165130545EC3E95F0
:1033800058419357570093870706B394E4008A0780
:1033900037E700E0BA9784C35DB7EFD28F84EFF0D0
:1033A000BFC4B1473305F502B7070020938707086C
:1033B0003E955C4199C3084582976FD0CF847311C5
:1033C0000134EFD04FD70545EF10903919C50545A9
:1033D000EFF0BFFC0545EF10903AEFD08FD8731196
:1033E00001347300203073110134EFD0CFD409457C
:1033F000EF10103719C50945EFF03FFA0945EF10F6
:103400001038EFD00FD673110134730020307311D0
:103410000134EFD04FD21145EF10903419C511454A
:10342000EFF0BFF71145EF109035EFD08FD3731148
:1034300001347300203073110134EFD0CFCF214518
:10344000EF10103219C52145EFF03FF52145EF107F
:103450001033EFD00FD1731101347300203073118A
:103460000134EFD04FCD4145EF10902F19C54145A4
:10347000EFF0BFF24145EF109030EFD08FCE7311D7
:1034800001347300203073110134EFD0CFCA13051B
:103490000002EF10F02C1DCD13050002EFF0FFEF3E
:1034A00013050004EFF07FEF13050008EFF0FFEEC7
:1034B00013050010EFF07FEE13050020EFF0FFED95
:1034C0001305003EEF10B02BEFD0AFC973110134DC
:1034D0007300203013050004EF10902855FD1305EC
:1034E0000008EF10F0274DF913050010EF105027DA
:1034F00045F513050020EF10B02659FDF1B7731103
:103500000134EFD04FC313050040EF10702529C1DF
:1035100013050040EFF07FE8056513050580EFF027
:10352000DFE70565EFF07FE70965EFF01FE711655D
:10353000EFF0BFE62165EFF05FE64165130505C0DA
:10354000EF10F023EFD0EFC173110134730020307E
:10355000056513050580EF10B0205DF90565EF10D6
:1035600030205DF50965EF10B01F5DF11165EF10BA
:10357000301F59FD2165EF10B01E59F9E1B7014523
:103580008280EFC21FE69C412041A14641111CC030
:10359000B1473EA4DC412316040013F7F700630192
:1035A000D702A546631ED70005675AA013D7470068
:1035B0000D8B01C785466308D7002313040031A093
:1035C00023120400E5B709677AA099838D8B05471C
:1035D0006389E70081C709476389E706231404006C
:1035E00021A0930700601EA41848B74701409387A5
:1035F00007806318F704116585451105EF109045A4
:1036000093070020B71401407C820D49E1474C002C
:10361000138504803EC64AC4EF101017930700407C
:103620007C824C009147138504803EC64AC4EF104B
:10363000B0150848A285EF10F04D08488545EF10F9
:103640003059014541016FC01FDC9307004061BF45
:10365000EFC29FD7B72400201384449393075003ED
:103660005CC837290020B74701401306C98D9387EE
:10367000078074461CC8A167938787597CC2B70727
:1036800000C0F58FC166A106716713070720D58FAB
:103690001165411138C67CC68545B7070C00110578
:1036A00018C01CC42322040023160400EF10903A13
:1036B000B7190140930700207C820D4AE1474C0076
:1036C0001385098052C43EC6EF10100C93070040CA
:1036D0007C824C009147138509803EC652C4EF108E
:1036E000B00A084893854493EF10D04208488545B6
:1036F000EF10104EB78500009386449313063010E8
:10370000938545EA1305C98DEFF00FE201454101AC
:103710006FC0DFCEEFC2FFCC204193050002084806
:10372000EF10D05019C51C48CA231375F50F6FC090
:103730009FCD7D55EDBFEFC2DFCA24412E8488485E
:1037400093050004EF10904E7DD99C4842044180BF
:10375000C2A305456FC03FCBEFC2BFC8C1473841C8
:10376000638BF502C5476395F502544B054693D725
:103770005600938707063316D6008A07B7E600E09F
:10378000B69790C30146084B93055052EF10B045D1
:1037900001456FC05FC7544B054693D756009387CA
:1037A00007043316D6008A07B7E600E0B69790C341
:1037B0000546D1BF411122C626C473110134B72476
:1037C0000020EFD04F979387C48DA04393055052AC
:1037D0000848EF10504619C985451385C48DEFF090
:1037E0004FDA084893055052EF10B048EFD06F976A
:1037F000731101343244A244410173002030EFC2FE
:103800005FBE37150140A14513050580EF10B004D8
:103810006FC07FBFEFC2FFBC411185451145371412
:10382000014002C202C402C6EF10D0228D444149B9
:10383000930700104C00130504807C8226C44AC6FE
:10384000EF108074A1474C00130504807C8226C4CD
:103850004AC6EF1060734C00130504802312210147
:1038600026C44AC6EF10407291474C0013050480ED
:103870007C8226C44AC6EF1020719307000261497A
:103880004C00130504807C824AC626C4EF10C06F2A
:10389000930700047C824C009147130504803EC6C8
:1038A000EF10806E930700084C00130504807C82A3
:1038B0004AC626C4EF10406D41016FC0DFB4EFC2AD
:1038C0005FB201118545056502C602C802CA02CC75
:1038D000231E0100EF101018B70704013EC6B707FA
:1038E00000023ECAC1473ECC6C009D4737350140BF
:1038F000FC8602C8EF10B01B854537350140EF103C
:10390000F01E05616FC03FB0EFC2BFAD2E89B2841B
:10391000014493170401C18363E497006FC0BFAEF5
:10392000894537350140EF10501E7DD9B307890016
:103930008C2337350140EF10101DA9470100FD17FA
:10394000C207C183E5FF0504E9B7EFC29FA9411192
:10395000C88737150140C14513050580EF10A06FDA
:1039600083D6418F9305F10005461385618FEFF0F3
:10397000BFF941016FC03FA9EFC2BFA641112A8420
:10398000371501402EC613050580C145EF10606C48
:10399000324683D6418FA2851385618FEFF0DFF623
:1039A00041016FC05FA6EFC2DFA30111AA84130516
:1039B000A00236C42E8432C6EFF03FF93246939708
:1039C0008400A180DD8C9317860021825D8E914555
:1039D0006808F087E486EFF03FFA1305B002EFF0D5
:1039E000DFF6A2469317840021805D8C93978600B2
:1039F000A182DD8E91456808F487E086EFF0DFF75D
:103A00001305C002EFF07FF405616FC0DF9FEFC2C6
:103A10005F9D37150140A14513050580EF106063D8
:103A20006FC07F9EEFC25F9A368493070014B3067F
:103A3000C5000111B28463D7D70093040014898CA8
:103A4000C204C180B38785009306000F63D7F600D8
:103A50001304000F0D8C420441803AC62EC42AC2C2
:103A6000EFF0FFD9A24512459386F5FF1306F5FF47
:103A7000A2962696C2064206C1824182EFF0BFF2AC
:103A8000324737150140C1459317870021835D8F69
:103A900013050580F886EF10C05B05E8EFF03FF7EF
:103AA00005616FC0BF9583D6418F7D1909466C08AB
:103AB0001385618F4209EFF03FE513590901E314C3
:103AC00009FE7D1442044180C9BF2689CDBFEFC2E3
:103AD0005F9137150140914513050580EF10A05700
:103AE0006FC07F92EFC2FF8F3715014091451305DC
:103AF0000580EF1000566FC01F91EFC29F8E4111DD
:103B0000EFF0FFCF37140140930500101305048038
:103B1000EF1060541545EFD0DFDF9305001013055B
:103B20000480EF1000530545EFF03FE21305803E9F
:103B3000EFD03FDE1305F00CEFF03FE103D7018338
:103B400093870183BC238D450A8578805C81EFF0E3
:103B5000BFE21305D00EEFF05FDF83A741839145ED
:103B60000A853EC0EFF05FE11305800EEFF0FFDD48
:103B700003D7818393878183BC238D450A85788011
:103B80005C81EFF07FDF1305B00CEFF01FDC03A7C3
:103B9000C1839387C183DC2395450A853AC05C8243
:103BA000EFF09FDD1305700FEFF03FDA930700028F
:103BB00085450A855C80EFF03FDC1305A00EEFF031
:103BC000DFD889450A8523100100EFF0FFDA1305DD
:103BD000000CEFF09FD7C54785450A855C80EFF064
:103BE000BFD91305100CEFF05FD6054485450A8553
:103BF0004080EFF07FD81305500CEFF01FD58D6794
:103C00009387070389450A857C80EFF0FFD613056B
:103C1000700CEFF09FD3930770FB85450A855C809D
:103C2000EFF09FD513056003EFF03FD293078004B8
:103C300085450A855C80EFF03FD41305A003EFF0C3
:103C4000DFD09307500585450A855C80EFF0DFD211
:103C50001305100BEFF07FCF8967938707808945A5
:103C60000A857C80EFF05FD11305600BEFF0FFCD8C
:103C700003D7418493874184BC238D450A8578808E
:103C80005C81EFF07FCF1305200FEFF01FCC85454F
:103C90000A8523000100EFF03FCE13056002EFF02C
:103CA000DFCA85450A854080EFF01FCD1305000E61
:103CB000EFF0BFC99D65138485113D46938585113D
:103CC0000A85EF10B077BD450A85EFF0FFCA1305EE
:103CD000100EEFF09FC73D46930504010A85EF10D3
:103CE000F075BD450A85EFF03FC94545EFF0FFC5CA
:103CF00013058007EFD0FFC113059002EFF0FFC45A
:103D000013056003EFF07FC4930780020A858545A1
:103D10005C80EFF07FC6EFF09FCF41016FC0AFEE48
:103D2000EFC2AFE901113E89C2892AC213DA8600C7
:103D30002E84B28436C43AC613FBF60FEFF03FACC4
:103D40001245939B8900131C890093D9890013594C
:103D50008900137AFA0FB3EB3B01336C2C01838794
:103D6000040091E7EFF0BFCA05616FC08FE89319B7
:103D70000A01294793D90901639BE70437850000AD
:103D80001305C55A4E94EFD08FA642044180850496
:103D9000014503890400B30A6501C20A0119330908
:103DA000490393DA0A019386F9FFB24CA29613866F
:103DB000FAFFC2064206C1824182A28506096699BF
:103DC000EFF07FBE814C63EC4C0385043DA03307CC
:103DD00065019306F013E3DEE6FA4E944204418057
:103DE000B30644011307F00EE34ED7F613070002A3
:103DF0000145E390E7FA8504814A56858DB7035D56
:103E00000900814963E56901850C09096DBFB31794
:103E10003D0113970701635A0700231E810189455D
:103E20006808EFF07FB58509F1BF231E7101C5BF9A
:103E3000EFC22FDB2A879306000F1306001481457B
:103E40000145EFF03FBE6FC00FDCEFC28FD92E8669
:103E5000AA8537A50000130505A9EFD04F996FC0BB
:103E60008FDAEFC20FD8AA8537A50000130505A881
:103E7000EFD0EF976FC02FD9EFC2AFD679718545DC
:103E80003705040002C602C802CA02CC02CE02D024
:103E900002D202D402D6EF10C03D85452145EF1075
:103EA000603B93070040FC82371401408D473ECCB5
:103EB0004C08E147130504C03ECEEF10E00C8567C7
:103EC00093870780FC824C0893078004130504C085
:103ED0003ECEEF10600BA16737540040938727A1B7
:103EE00005463ED093055052B7070C0013050480D9
:103EF0003ED402D223160102EF10E04E9307702346
:103F00007C8689475C87680085473EC8EF10A0180B
:103F10000C1013050480EF10E03F85451305048065
:103F2000EF10004BB74700009387A7E423AEF18E54
:103F3000B7470000938727E623ACF18E45616FC039
:103F40008FCC1316850161861387018193870190B9
:103F500093863190635C060413060009630AC5006A
:103F60001306000D6302C504130600086314C500A0
:103F70000D4610A3054688A390A29422182363E55A
:103F8000E604EFC20FC69823930600086309D70220
:103F9000930600096318D700AC23883389CD83A723
:103FA000C18F82976FC02FC60946E1B790223E9617
:103FB000A30FA6FED9B783A7818F8297E5B703A782
:103FC000818F88330297F9BF8280411122C637540E
:103FD00000409305000213050480EF10204511CD29
:103FE00013050480EF1000441375F50FEFF07FF513
:103FF000938731909823050798A3324441017300B9
:104000002030EFC20FBE411185451305000437294A
:10401000014002C202C402C6EF10C02341448944D9
:1040200085474C00130509807C8226C422C6EF0018
:10403000B075854513050004EF10C0214C00130531
:104040000980648226C422C6EF00107485451305DA
:104050000004EF10202091474C00130509807C825A
:1040600026C422C6EF005072854513050004EF10E8
:10407000601EA1474C00130509807C8226C422C61D
:10408000EF009070854513050004EF10A01C4C0054
:1040900013050980608226C422C6EF00F06E41013C
:1040A0006FC06FB6EFC24FB2AE84AA8AB6852685BE
:1040B000328A36891D44EF00107AFD5933D68A4082
:1040C000058AD2852685EF005079CA852685EF00BE
:1040D0005078CA8526857D14EF00F077E31034FF11
:1040E0006FC0CFB1EFC2EFAFC841EF10102EB725B0
:1040F000014089460546938505801375F50FEFF05D
:104100007FFA6FC04FB0EFC2CFAD797113060002D6
:1041100081450808EFC0EFAF8545114502C202C4D2
:1041200002C6EF102013854513050020EF10801202
:104130003165EF10A0003715014089474C00130589
:104140000580372401407C8202C6EF00F06313052E
:104150000440EF00B029B7070E003ECE0C0885479B
:10416000130504402302F10202C802CA02CC02D0A5
:10417000EF00D02B9D460546854513050440EF0012
:104180003036854513050440EF007034854513052E
:104190000440EF00102F814513050440EF00F0406C
:1041A00013050440EF00F02E930404402685EF0031
:1041B000F02E6DFD1305044037240140EF00902ED2
:1041C000930404402685EF00902E6DFD13050440F6
:1041D000EF00303F2392A190854513050440EF0086
:1041E000D03C45616FC02FA283974190AA9763CDC1
:1041F000070085661387F6FF63DAD7006309E500D9
:104200001395070141818280014582803A85828031
:10421000EFC22F9D37240140AA859D460546130510
:104220000440EF00F02B854513050440EF00B02853
:104230009304044089452685EF00903665DD13051B
:104240000440EF007035EFF03FFA6FC0CF9BEFC234
:104250004F99411132C42EC6EF107003B2452A8423
:104260002E85EF10D002AA852285EF104028224625
:104270002A843285EF10B001AA852285EF10005202
:10428000EF10C07A41016FC00F98EFC28F9537A52C
:104290000000130505ABEFC09FD56FC0CF96EFC2EE
:1042A0004F9413844181084093050002EF00705A37
:1042B0000840A145EF00305A0840C145EF00B05911
:1042C0000545EFF0FFF42391A1920840A145EF00CE
:1042D00090580840C145EF00D0570545EFF05FF317
:1042E0002393A1920840A145EF00B0560840C14574
:1042F000EF0030560545EFF0BFF12395A19208403D
:10430000A145EF0010550840C145EF00D0540545C8
:10431000EFF01FF02397A1926FC0EF8EEFC26F8C6A
:1043200041118545130500021384418102C202C474
:1043300002C6EF00307208408944A14741494C0051
:104340007C8226C44AC6EF0030448545130500022E
:10435000EF00507008404C002312210126C44AC6C9
:10436000EF009042854513050002EF00B06E084053
:10437000930700024C007C8226C44AC6EF00D0405E
:10438000854513050002EF00F06C08401309800416
:104390004C00648226C44AC6EF00103F85451305D1
:1043A0000002EF00306B08404C0091477C8226C42D
:1043B0004AC6EF00703DB74700009387A72823A89F
:1043C000F19023AAF19023ACF19023AEF19023A4B5
:1043D000F19023A6F190EFF09FEC03D72192239068
:1043E000E19203D761922392E19203D7A1922394A1
:1043F000E19203D7E1922396E19241016FC0AF8031
:10440000EFB23FFE1384418108408945EF00D0435D
:10441000238CA18008409145EF001043238DA1809B
:104420006FB07FFEEFB25FFAEFF07FE783D52192A6
:1044300083D601926546938421923385D5401384B7
:1044400001926345A6008D8E6357D60083A7019124
:1044500082979E201EA083D5619283D641926546A5
:10446000938461923385D540138441926345A600BD
:104470008D8E6357D60083A7419182979E201EA000
:1044800083D5A19283D6819265469384A192338588
:10449000D540138481926345A6008D8E6357D60064
:1044A00083A7819182979E201EA083D5E19283D617
:1044B000C19265469384E1923385D5401384C192BD
:1044C0006345A6008D8E6357D60083A7C19182975E
:1044D0009E201EA0EFF0DFF283C6918105479389ED
:1044E0009181138981816398E6008347090081E700
:1044F00083A78190829783C6B18105471384B181D8
:104500009384A1816397E6009C2081E783A7C190F3
:104510008297834709002380F9009C201CA06FB07C
:10452000FFED8280EFB2FFEB83A7818441116C0025
:104530003EC603C511932946EF10C06D3707002012
:10454000832687321307873258432A861308605917
:1045500081479305400613054006EFF06FFC4101CB
:104560006FB07FEA83C7019313974700B7270020F6
:104570009387C794BA97374700001307275298C309
:10458000D8C398C7D8C78280EFB2BFE503C70193ED
:1045900085459387019301C77D179375F70F37A55D
:1045A00000001305C5AC8CA3EFC07FA46FB0BFE5BE
:1045B00003C7019305469387019381466305C700AE
:1045C00005079376F70F94A3828073110134EFC02F
:1045D0008FB637A50000130545AFEFC05FA1EFC050
:1045E0004FB8731101347300203073110134EFC0E0
:1045F0008FB437A50000130585AEEFC05F9FEFC0F5
:104600004FB67311013473002030EFB29FDD03D534
:10461000219241468565EFF09FC3A388A1929375CF
:10462000F50F37A50000130545B0EFC05F9CEFF014
:104630007FEF6FB05FDDEFB2DFDAEFF05FC683D5FB
:10464000219237A50000130505B5EF10406A83D508
:10465000619237A50000130585B6EF10406983D538
:10466000A19237A50000130505B8EF10406883D567
:10467000E19237A50000130585B9EF1040676FB0D0
:104680009FD8EFB21FD683C5818137A500001305DF
:10469000C5B1EF10C06583C5A18137A50000130522
:1046A00045B3EF10C0646FB01FD6EFB29FD3014582
:1046B000EFF00FF837070020832607321307073281
:1046C000584337A60000014893076017130606BB3E
:1046D00081450145EFF0CFE437070020832687327C
:1046E00013078732584337A60000014893076059E3
:1046F000130606BD930520030145EFF06FE26FB08E
:104700009FD0EFB21FCEEFF07FC1B7470000938775
:10471000875823A4F190B74700009387075B23A62F
:10472000F190B74700009387A76023A8F1906FB07E
:104730009FCDEFB21FCB2A84AE84EF00D011054588
:10474000EFD02F9DA6852285EF00B0106FB0BFCBB4
:10475000EFB29FC7AA8A2E8B3285BE85BE84BA89E6
:10476000428A32843689EF00D00ED2852285EF004E
:10477000900ECE864A86A2855A85EFF0BF92A68516
:104780002285EF00500D0545EFD0AF98A685228514
:10479000EF00300C0545EFD0CF97D2852285EF0092
:1047A000500BCE864A86A2855685EFF0BF8FA68530
:1047B0002285EF00500A0545EFD0AF95A6852285EA
:1047C000EF0030090545EFD0CF946FB03FC3EFB293
:1047D0005FC1C84141112EC6EF10203FB2452A8467
:1047E0008845EF10803E372601409375F50F21482C
:1047F000914709478546130606801375F40FEFF0BD
:104800003FF541016FB03FC0EFB2BFBD372401405B
:1048100013050480C145EFF0DFF113060480214841
:10482000914709478546930500020545EFF05FF281
:1048300013060480214891470947854693050004E3
:104840004145EFF0FFF013060480214891470947E6
:104850008546930500061305000FEFF07FEF130662
:1048600004802148914709478546930500081305B0
:104870007007EFF0FFED13060480214891470947C8
:1048800085469305000A13058009EFF07FEC1306B7
:104890000480214891470947854693053002054524
:1048A000EFF01FEB13060480214891470947854626
:1048B000930530040145EFF0BFE913060480214859
:1048C000914709478546930530061305000FEFF021
:1048D0003FE8130604802148914709478546930520
:1048E000300813057007EFF0BFE6214891470947EC
:1048F0008546130604809305000B13051003EFF0A3
:104900003FE56FB05FB0EFB2DFAD0945EF00407833
:1049100037A50000130585BFEFC06FED83A5C181EA
:1049200037A500001305C5C0EFC06FEC37A5000028
:104930001305C5C1EFC0AFEBEFE0DFEDEFF08F9AED
:10494000EFF0EF8CEFE0BFF7EFF02F9B0145EFF0BA
:104950002FCEEFF0CF97EFF05FD5EFF0CFFAEFF07B
:104960004FEAEFF01FDAEFF02FD13724002037465F
:104970000000B7A500001305C49689471307400639
:104980008146130646429385C5C2EFD00F821305B8
:10499000C496EFD00F871305803EEFC09FF7EFF06E
:1049A0007FBCD5BFB71702409843B706FFF8411147
:1049B0001367170098C3D84337060200758FD8C312
:1049C0009843B706F7FEFD16758F98C39843B70650
:1049D000FCFFFD16758F98C3D843B70681FFFD16FF
:1049E000758FD8C39843B70600ECFD16758F98C332
:1049F0003707FF0098C723A6070202C402C69843E0
:104A0000C166558F98C3B716024005679C42F18F67
:104A10003EC6A24785073EC4B24781E7A247E39757
:104A2000E7FEB71702409C431397E700635607065B
:104A300085473EC632478547631EF704B7170240D5
:104A4000D843B706C1FFFD16D8C3D843D8C3D8434F
:104A500013670740D8C3D843758FD8C3D843C166FE
:104A6000558FD8C39843B7060001558F98C3984314
:104A700093166700E3DD06FED843B7160240719B2C
:104A8000D8C3D84313672700D8C32147DC42B18B72
:104A9000E39EE7FE4101828002C669BF01A001A03A
:104AA00001A001A001A001A001A001A001A001A0FE
:104AB00001A001A001A001A001A001A001A001A0EE
:104AC00001A001A001A001A001A001A001A001A0DE
:104AD00001A001A001A001A001A001A001A001A0CE
:104AE00001A001A001A001A001A001A001A001A0BE
:104AF00001A001A001A001A001A001A001A001A0AE
:104B000001A001A001A001A001A001A001A001A09D
:104B100001A001A001A001A001A001A001A001A08D
:104B200001A001A001A001A001A001A001A001A07D
:104B300001A001A001A001A001A001A001A001A06D
:104B400001A001A001A001A001A001A001A001A05D
:104B500001A001A001A001A001A07390123497C18F
:104B6000FF1F938121FC17B100201301A1491755A4
:104B700000001305257697B5FF1F9385A54813867A
:104B8000C18463FAC5008322050023A055001105E6
:104B90009105E3EAC5FE1385C18497D5FF1F938570
:104BA00025E06377B500232005001105E36DB5FE10
:104BB000FD42739002BCFD4273904280B7820000B8
:104BC0009382028073A0023097B2FFFF9382024764
:104BD00093E2320073905230EFF0DFDC97C2FFFFB8
:104BE0009382C29D7390123473002030EFB26FFF36
:104BF000B727014093870740631CF50085451305DF
:104C00000020792581451305002059256FB0AFFF9D
:104C1000B737014093870780E31AF5FE85451305F2
:104C20000040BD25814513050040C5B75C413707ED
:104C3000F1E01307F7EF944D7D8F9C41D58FD44D54
:104C4000D58FD441A206D58FD98F5CC11C4537F7CB
:104C5000F1FF1307D77FD4457D8F9C49D58F9445AD
:104C60008606D58FD98F1CC55C55370710FF7D1779
:104C70007D8FDC29FD1793F7F70FD207D98F5CD50D
:104C800082801C4589C593E717001CC58280F99B6B
:104C9000EDBF1C4593E787001CC5828008450D8148
:104CA000058982801C4593E747001CC58280084522
:104CB0000981058982801C4591C537075000D98F2D
:104CC0001CC582803707B0FF7D17F98FD5BF5C41C7
:104CD00049777D17FD15F98FB605DD8D4CC18280B2
:104CE000A54763F7B7048D47138765FF3307F702BE
:104CF0000328C5009D47B397E70093C7F7FFB3F7B5
:104D00000701B396E600DD8E54C5994763E3C704F7
:104D100095477D163306F6025859FD47B397C700ED
:104D200093C7F7FFF98F3396C5005D8E50D9828007
:104D30000D473387E502032805019D47B397E70038
:104D400093C7F7FFB3F70701B396E600DD8E14C9EA
:104D50006DBFB14763E2C702954765163306F60299
:104D60001859FD47B397C70093C7F7FFF98F3396DC
:104D7000C5005D8E10D9828095474D163306F60228
:104D80005855FD47B397C70093C7F7FFF98FB39501
:104D9000C500DD8D4CD58280684542054181828009
:104DA00008416D8D3335A00082805C4191C5370785
:104DB0000004D98F5CC18280370700FC7D17F98F12
:104DC000D5BFEFB20FE201112A8423040100A544EC
:104DD0001C8463F9F40423040100A54621461C84C5
:104DE00063FFF606231501002304010095461C8489
:104DF00063F1F60E38853C8599460D46B3F7D70228
:104E0000056513050580B3D7C7023357D702BA9794
:104E1000C207C1837C853C8505611D8D42054185A6
:104E20006FB06FDE1C4493E787001CC42285EFF04F
:104E3000FFE66DFD1C4493E747001CC42285EFF09C
:104E40001FE76DFD78441C8414108607B6972396DF
:104E5000E7FE1C84850793F7F70F5C8495BFA304D6
:104E600001009C846378F6001C84850793F7F70F94
:104E70005C84B5B798849C840C1006078507860768
:104E80002E97AE970357C7FE83D7C7FE63FDE70291
:104E90009C848607AE9783D7C7FE7C859C849884C4
:104EA00085078607AE9783D5C7FE9317170018109E
:104EB000BA972396B7FE9C8438850C108507860721
:104EC000AE972396E7FE9C84850793F7F70FDC8463
:104ED00049BF1C841010388589078607B29783D78D
:104EE000C7FEBA97C207C1837C851C84850793F7E8
:104EF000F70F5C84EDBD5841032805004C4537068B
:104F00000140930706403E979346F8FFB1C58325BD
:104F10000640F58D2320B640D043F18ED4C3144310
:104F2000B3E6060114C3184190479346F7FF758E08
:104F300090C7D047F18ED4C7144541466399C60047
:104F40009447D98E94C7D447558FD8C78280B697D7
:104F50009443558F98C382801C43F58F1CC3828075
:104F6000B70701401387074083A70740584B698F55
:104F700009C77D8D3335A000828001458280B70747
:104F8000014023AAA74082809C4513F7070113F82C
:104F9000F70001C7D8413368E8008E2113F7F50FF9
:104FA00039C318418146854E3D4F930F80029302CD
:104FB0008004214E3396DE00B3F8C500631116035A
:104FC0009398260033131F011343F3FF3377E30055
:104FD000B318180133E7E800639FF70550C9850649
:104FE000E39AC6FD18C11307F00F6375B704544167
:104FF0002146854E3D4F930F800293028004414E1F
:10500000B398CE0033F715016392E8021317260018
:1050100001173313EF001343F3FFB376D3003317B5
:10502000E800D98E639DF701232A15010506E319CF
:10503000C6FD54C18280E39457FA10C94DB7E39777
:1050400057FE23281501DDB708456D8D3335A000C7
:1050500082800CC982804CC9828019C20CC98280AE
:105060004CC9828013F7C50F93F73500B70501408F
:10507000BA9594458A073D473317F7001347F7FF62
:10508000758F98C598453315F500598D88C5828070
:1050900023AAA1928280938741939443182181E6A9
:1050A0003C21920721A894430546639FC6023C21F8
:1050B000103192076314D60093E707F8B7E600E0D3
:1050C00093F7F70FBA962380F6408546935757001B
:1050D0003397E6005441A5C2938707048A07B7E6D1
:1050E00000E0B69798C382808C4389466391D502CD
:1050F00014313C216365D6008A06B6975DB7938666
:10510000E6038A06B69793F7F70F920775B79043B1
:105110008D46631CD60014313C216364D60086069C
:10512000E9BF9386C6078606F1BF94439147E39E85
:10513000F6F81C31BDB7938707064DB7B716024086
:10514000DC4251777D17F98F5D8DC8C28280371799
:1051500002405C439146B18B6385D700A1466382D0
:10516000D706B7177A00938707201CC1371602406D
:105170005C4237070020130707149183BD8BBA9751
:1051800094231C41B3D7D7005CC15442A1829D8AAD
:10519000BA969422B3D6D70014C55442AD829D8AE4
:1051A00036971823B3D7E7005CC558423983937606
:1051B00037001387018236971823B3D7E7021CC93B
:1051C00082805C4354434167C983F98E37F7FF1FE0
:1051D0000327C770BD8B89071316170163480600A4
:1051E000454601476392C702C94739A80947638901
:1051F000E7023D476388E70241476388E702454687
:1052000001476393C700C14785E6B746024083A6BE
:105210000680C18A8DC6B7167A009386062025A01F
:105220000147D9B70547B547C5B70147BD47E9BFEE
:10523000B7160240D4421396E600E35E06FCB716AA
:105240003D0093860690B387D7021CC105D31C414D
:10525000858321BF99C5371702401C4F5D8D08CF4C
:105260008280B7170240984F1345F5FF798D88CF9C
:10527000828099C5371702405C4F5D8D48CF828090
:10528000B7170240D84F1345F5FF798DC8CF8280FC
:1052900099C5371702405C475D8D48C78280B717B4
:1052A0000240D8471345F5FF798DC8C782801A217F
:1052B0008D6793870704B6217D8F9E21D58FD621D8
:1052C000D58FF621D58F9625D58FB625D58FD625A6
:1052D000D58FF625D58FD98F1EA15A2DFD779387AF
:1052E000F77FF98F5EAD9E291EA982801E2189C598
:1052F00093E707041EA18280C207C18393F7F7FBDF
:10530000C207C183C5BF4EA582800A256D8D333586
:10531000A0008280EFB2EF8C1629F577FD17F58F8C
:10532000F621DA257971D58F1EA95625FD77938749
:10533000379FF58FD6212A842EC6D58F9625D58FF7
:10534000B625D58F5EA55E29C207C18393F7F7CF37
:10535000D98F5EA96808EFF09FDFB74701409387B8
:105360000780B245631AF404A25756246547B387F1
:10537000E702C206C186984163D20604060752249A
:105380004206B3D7E702130740064186B3D6E702C9
:10539000B3F7E7029206635506028E079387270349
:1053A000B3D7E70213F77700B367D700C207C1830B
:1053B0001EA445616FB02F85925745BF0A07C1B73C
:1053C000920793872703B3D7E702BD8BD58FF9BF29
:1053D00091C55E250967D98F5EA582805A25F97728
:1053E000FD17F98FD5BF13F7F50F85471583B395D3
:1053F000B7006319F7009307C500984301CED98D14
:105400008CC38280894693074501E318D7FE930732
:105410000501E5B793C5F5FFF98DDDB793F5F51FE8
:105420004EA182804A211375F51F82800A216D8D5D
:105430003335A000828013F7F50F85461583B397A7
:10544000B6006311D7025A25F98F1A210145420788
:10545000418381CB0545A181B315B5006D8F3335EF
:10546000E000828089466314D7001A29F1BF5A29C7
:10547000E1BFA1818547B397B70093C7F7FFC20784
:10548000C1831EA18280EFA23FF4B7440140AE89E0
:105490003289014493840480634524014A856FA0C6
:1054A000FFF5930500042685EFF05FF87DD9B387FB
:1054B00089008385070026850504C205C181EFF0B8
:1054C000FFF5D9BF138741821C43B726002093867E
:1054D000C6993E95636BD500B7060120938606807A
:1054E00063E5A60008C33E858280FD57EDBF397194
:1054F000935775014AD856D25ECE931A9500135928
:10550000F50106DE22DC26DA4ED652D45AD093F7C5
:10551000F70F93DA9A00CA8B638207121307F00F12
:105520006384E7128E0A37070004B3EAEA00138A9D
:1055300017F80144014B93D775019394950093F7A5
:10554000F70FA58093D9F501FDC71307F00F638707
:10555000E7028E04938717F837070004D98C330AC3
:10556000FA408146558C17570000130727810A041B
:105570003A941C4033493901BA978287130A1AF0CA
:10558000F9E88946558C17570000130727830A044A
:105590003A941C4033493901BA978287014913076D
:1055A000F00FB707400013959700F250625493171D
:1055B000770125817E095D8D33652501D2544259DD
:1055C000B259225A925A025BF24B21618280130730
:1055D000F00F8147C9BFA68ACE8B368B89476309F6
:1055E000FB1A8D47E30CFBFA85476308FB0A130798
:1055F000FA0713F91B006355E01293F77A0099C775
:1056000093F7FA0091466383D700910A93974A0073
:1056100063D90700B70700F8FD17B3FAFA001307BC
:105620000A089307E00FE3C4E7FA93976A00A5839B
:105630001377F70F8DBFB1E48546A9B763940A02CB
:105640001144014A054BC5BD63990A002144130A60
:10565000F00F094BCDB58D4631B73144130AF00F29
:105660000D4BD1BD56852EC6D5299307B5FFB39AEC
:10567000FA009307A0F8338AA7400144014BB245D2
:105680005DBD2685E1291307B5FFB307AA00B394D2
:10569000E400138A67078146F1B513F91B0001473F
:1056A000814711B74166139554007D169357050144
:1056B000698E63FA9A0AB3D5FA027D1AD686014733
:1056C0003388C502B3F6F602C206558F637B070125
:1056D0002A979386F5FF6368A70A6376070BF91587
:1056E0002A9733070741B356F7023377F702B38A95
:1056F000C6029317070163FB5701AA971387F6FFAA
:1057000063E1A70863FF5707F916AA97C205B38A92
:105710005741D58DB33A5001B3EA5501CA8BC1BD8B
:105720008546998E11C76D4601478147E34DD6E600
:10573000130AEA09339A4A01B3D7DA00B33A4001AF
:10574000B3E7570113F7770019C713F7F70091462E
:105750006303D700910713975700634807029A071E
:10576000A583014789B593D61A00B3D5F6021397DE
:10577000FA0141833388C502B1B7CE8B368B814A9B
:10578000B1BDBA8661B7B685A9BF0547814721BDBE
:1057900013F91B001307F00F814731B5797122D43B
:1057A000135475014ECE52CC9319950006D626D2CD
:1057B0004AD056CA5AC81374F40F93D99900135A91
:1057C000F50169C49307F00F6308F40E939739004D
:1057D00037070004B3E9E700130414F88144014BD0
:1057E00013D77501939A95001377F70F93DA9A0000
:1057F00013D9F50145CF9307F00F630CF7028E0A1A
:10580000130717F8B7070004B3EAFA003A94014601
:1058100033452A01BD47AA869305140063E097101B
:10582000174700001307875D8A04BA949C40BA9713
:1058300082871304F40F63960A0C93E4240009464C
:10584000C1BF01451307F00FB7074000B250225403
:10585000A6075E07A5837E05D98F92540259F249A7
:10586000624AD24A424B5D8D45618280CA86D689A2
:10587000328B8947630FFB088D47E304FBFC8547A8
:1058800036856310FB1A01478147C9B7639D090438
:1058900013D77501939A95001377F70F914401443C
:1058A000054B93DA9A0013D9F50131F7639D0A008D
:1058B00093E414000546A9BF63920902A1441304AE
:1058C000F00F094B31BF5685512C9307B5FF098C5A
:1058D000B39AFA001304A4F801461DBFB14413049F
:1058E000F00F0D4BF5BD4E852EC68D2C9307B5FFE1
:1058F0001304A0F8B399F900098C8144014BB24517
:10590000C5B593E434000D4621B78947D286E31527
:10591000FBF636851307F00F81470DBF41639306F1
:10592000F3FF13D6090193D80A01B3F7D900B3FAEC
:10593000DA0033885703B389F80213570801B30A12
:105940005603D6994E9733061603637357011A967A
:10595000C167FD17B376F7003378F800C206C29628
:105960009399660093570701B3393001E982B297E2
:105970009A07B3E6D900B3E9D7009397490063D9F2
:10598000070013D7190093F71900B369F7002E84A5
:105990001307F4076350E00493F7790099C793F76E
:1059A000F90091466383D70091099397490063D921
:1059B0000700B70700F8FD17B3F9F900130704084B
:1059C0009307E00F63CBE70493976900A5831377F0
:1059D000F70FADBD8547B386E74011C76D46014758
:1059E0008147E345D6E61307E4093397E9003337E7
:1059F000E000B3D7D900D98F13F7770019C713F791
:105A0000F70091466303D700910713975700634C43
:105A100007009A07A583014715BD1307F00F8147BB
:105A200035B52E84B5B7054781470DB537068000DB
:105A3000135775019307F6FF1377F70F9305E007E8
:105A4000B3F6A7009357F50163FCE5009305D00971
:105A500063FAE500370500801345F5FF3E95828027
:105A60000145828093055009D18E63CDE500130670
:105A700060093307E64033D7E6003305E040F5F32D
:105A80003A8582801307A7F63397E600FDB74111E8
:105A900006C622C415CD2A84D1209307E009338796
:105AA000A7409307600963C0E704A1469377F70F07
:105AB00063D5A60061153314A400260425802604AE
:105AC00013559400B2402244DE075D8D410182806F
:105AD0000144260413559400B24022448147DE0756
