:100000006F503027130000001300000013000000A1
:100010001300000013000000130000001300000094
:100020001300000013000000130000001300000084
:08003000130000007300100032
:1000380000000000000000001650000036500000CC
:1000480000000000B8590000000000000000000097
:10005800BA590000BC590000000000000000000070
:10006800C82F000000000000D002000000000000BF
:10007800C2590000C4590000C6590000C859000000
:10008800CA590000CC590000BE330000E633000016
:100098000E340000363400005E340000D8590000E9
:1000A800DA590000DC590000DE590000E059000070
:1000B800E2590000E4590000E6590000E859000040
:1000C800EA590000EC590000EE590000863400009F
:1000D800F2590000F4590000F6590000F8590000E0
:1000E800FA590000FC590000FE590000005A0000AF
:1000F800025A0000045A0000065A0000085A00007C
:100108000A5A0000B43700000E5A0000264A0000C0
:10011800FE340000145A0000165A0000185A000055
:100128001A5A00001C5A00001E5A0000205A0000EB
:10013800225A0000245A0000265A0000285A0000BB
:100148002A5A00002C5A00002E5A0000305A00008B
:10015800325A0000345A0000365A0000385A00005B
:100168003A5A00003C5A00003E5A0000405A00002B
:10017800425A0000445A0000465A0000485A0000FB
:100188004A5A00004C5A00004E5A0000505A0000CB
:10019800525A0000545A0000565A0000585A00009B
:1001A8005A5A00005C5A00005E5A0000605A00006B
:1001B800625A0000645A0000665A0000685A00003B
:1001C8006A5A00006C5A00006E5A0000705A00000B
:1001D8000000000000000000000000000000000017
:1001E8000000000000000000000000000000000007
:0801F8000000000000000000FF
:1002000097020120938202E0938202E0739002340D
:1002100003210500224573100530B1A81971232070
:10022000250006C006C216CAF322003093F28200EF
:10023000638402009302000816C412C81ACC1ECEB2
:1002400022D026D22AD42ED632D836DA3ADC3EDE76
:10025000C2C0C6C2CAC4CEC6D2C8D6CADACCDECEE6
:10026000E2D0E6D2EAD4EED6F2D8F6DAFADCFEDE56
:1002700003A1050009A0024573101534924037858B
:1002800000001305058073200530224573200530DA
:100290004242D2426243F243025492542255B25532
:1002A0004256D2566257F257064896482649B649F2
:1002B000464AD64A664BF64B065C965C265DB65DB2
:1002C000465ED65E665FF65F09617300203000000F
:1002D000197116CA9302000816C49302000273A093
:1002E000428006C212C81ACC1ECE22D026D22AD4F0
:1002F0002ED632D836DA3ADC3EDEC2C0C6C2CAC416
:10030000CEC6D2C8D6CADACCDECEE2D0E6D2EAD4A5
:10031000EED6F2D8F6DAFADCFEDE73110134EF0025
:100320008061EF103009EF00C06373110134138452
:10033000818D03290400630409022320040073252E
:1003400010342AC01384018D044023A02400138498
:10035000418D044003A104000245731015349240FE
:10036000B78200009382028073A00230A24273A081
:1003700002304242D2426243F24302549254225526
:10038000B2554256D2566257F25706489648264909
:10039000B649464AD64A664BF64B065C965C265DE5
:1003A000B65D465ED65E665FF65F0961730020301B
:1003B0000000397101436EC619A0397141536AC8F2
:1003C00066CA62CC5ECE19A0397101535AD056D29A
:1003D00052D44ED64AD826DA22DC06DE33016140FA
:1003E000828241114AC026C222C406C68282B24D10
:1003F0004101024D924C224CB24B4101024B924AB8
:10040000224AB2494101024992442244B240410188
:1004100082803D432A876373C3029377F700BDEF61
:10042000ADE5937606FF3D8ABA960CC34CC30CC764
:100430004CC74107E36BD7FE11E28280B306C3408D
:100440008A069702000096966780A6002307B700E9
:10045000A306B7002306B700A305B7002305B7001E
:10046000A304B7002304B700A303B7002303B70016
:10047000A302B7002302B700A301B7002301B7000E
:10048000A300B7002300B700828093F5F50F939681
:100490008500D58D93960501D58D61B7939627007C
:1004A0009702000096968682E78086FA9680C117AA
:1004B0001D8F3E96E374C3F8A5B703A5818482809F
:1004C000EFF23FF2938781849843050798C3EF10BA
:1004D000C0313C45FD173CC589E77C413CC5EF1068
:1004E0008035EF10806005B7634205029307803EB8
:1004F0003347F5023365F5023305F5021305753E02
:100500003345F5023307F7023A9582807D558280A4
:1005100001458280014582800145828001458280BB
:10052000EFF23FEC3164B164130444069384040792
:1005300063639400C9BD1C4011048297D5BFEFF2DC
:100540005FEA3164B164130404079384840763632E
:10055000940055BD1C4011048297D5BFEFF27FE88F
:10056000F93FEF50402A45B5EFF2BFE7B70500006D
:1005700037950000D1471547930600200146938523
:10058000C555130505E6EF10A026EF10203EA5BDCA
:10059000EFF23FE5EF10E062EF20F01BEF00B02B31
:1005A000EF10205CEF005078C137EF10205C012C79
:1005B000EF00707A014581BDEFF2BFE2D13F014506
:1005C00099B5EFF27FE0AA89EF10202219C1EF1050
:1005D000800A2545EF00F06044411304450063960E
:1005E0008400EF108020014911A8138944FF21469F
:1005F000CE854A851D2D01E9EF10201F19C1EF108E
:10060000E0084A85E5BB8440D9BF09E57D55828075
:100610007D55D5BBEFF2FFDC2A842E853289AE846E
:100620004D377DF522852686A545EF00305E0145D4
:10063000231C2401230E0400231D0400D9BFEFF264
:100640005FDA1E2D41112A84C18B9DE71C558DC395
:100650002EC68297AA84B24501CD2A86379500001E
:10066000A285130585E6EF0090182685410161BB40
:100670001E2C93E707011EAC1E2CA18B89C73E2CB4
:10068000E554A18BFDF35C5489CF22858297AA841F
:1006900005E13E2C93E787003EAC5C2C85075CAC03
:1006A000E9B785679387F7F0FD8D2EAC8144D5B708
:1006B000E957E31CF5FAF1BF5C2D85CBEFF27FD251
:1006C000FD1793F7F70F5CAD2A84014789EF1C599A
:1006D00089E70147231D040039A082972A8775D92D
:1006E000E957E309F5FE3A8539BB7D573A858280A3
:1006F000EFF23FCF582D09E77D552129014521A073
:100700005C5999C3829701B36955C5BFEFF27FCD9C
:10071000582D09E77D55F52E014521A01C5D99C393
:100720008297D5B16955C5BF0CD101458280EFF2E2
:10073000BFC99389418A854A83A7418A6386370561
:10074000EF10204883A7418A2A8A638D370303A4C8
:10075000418A5C4018401309C4FE5CC398C340C082
:1007600000C0EF0050717C5099C34A8582974A853A
:10077000EF00105B631B55014A85EF00104FEF003F
:10078000F0705285EF10A04495B9EF00307052859B
:10079000EF10E0434848EF00303A4A85EF0030550B
:1007A00061BFEFF21FC41384019C130904011C40B4
:1007B00091C382971104E31C24FF953FEDB7EFF23C
:1007C0005FC237060000B7950000930800023D485D
:1007D000930700201387019D81461306267A93858F
:1007E00005EA13850194EF00307D13850194EF1025
:1007F000E01711B9EFF2FFBE41112A842E8532C6EF
:100800002EC4EF1060083246A24519C68547630D15
:10081000F60001454101C5BE5840938745011CC300
:1008200098CD5CC0C0C9F5B71C406388870083C6FB
:10083000550303C7170263FAE600D4431387450143
:1008400098C294CDD8C3DCC9E9B79C43F9BFEFF295
:100850005FB94111B2842E8689452A8436C6EF00DD
:10086000F03AB246930744011CCC5CC846AC14B4C1
:100870000145410149BEEFF23FB583A7018941110E
:100880002EC62A8491C38297EF10A0335E2CAA89CA
:1008900089CFFD175EACEF10803383A7C188014577
:1008A00091CB22858297014531A0B24791E7EF10A5
:1008B00000327955410199B6EF00307323280502C3
:1008C0001034AA85AA84130544012D37B247635C0E
:1008D000F0001389C404700081454A85EF10601D43
:1008E0004A85EF1000124E85EF10602EEF00704920
:1008F000885845D5C1B7EFF2DFAE83A781882A8437
:1009000091C38297EF10E02BAA84484893074401D3
:10091000630EF5003115EF10A00005442685EF1099
:10092000002B19C0EF00F0450145F1BC5E2C850796
:100930005EAC0144E5B7EFF2DFAA4111EF10602889
:10094000138741851C23850793F7F70F1CA383A703
:10095000C18481C72AC682973245EF1040274101E2
:100960005DB4EFF21FA84111EF10A0251387418558
:100970001C23FD1793F7F70F1CA383A7018581C7DD
:100980002AC682973245EF1080244101ADBC03C5D1
:1009900041858280937808044111639E0800A56810
:1009A0009388C80493730801638B03001378E8FFEE
:1009B000930E000219A8A568938888FAE5B7137307
:1009C0001800930E0003E30503FE13732800630E63
:1009D0000306635806023306C0409302D0020A8E13
:1009E000814F294F6395E6073373D6023356D602FB
:1009F000469303430300850F050EA30F6EFE7DF2A1
:100A00000DA0137348009302B002631703009372A2
:100A10008800B3325000960279F2930600035480A6
:100A2000854FFE8663D3FF00BE8613781801158FAD
:100A300063130804638502006353E0007D172A8670
:100A4000B308E5001303000221A88142F1B7137334
:100A5000F600118271BF6374B600230066000506BC
:100A60003388C840E34900FF3A86635307000146D4
:100A70007D173295118F638802006374B5002300DF
:100A800055007D17050563870302AA961308000326
:100A90001DA86374B6002300D60105063388C8403C
:100AA000E34900FF3A866353070001467D173295FC
:100AB000118FE1BF2A86B308E500CDB76374B50096
:100AC0002300050105053386A640E3C9CFFEFD5688
:100AD000FD1F6383DF0099E7AA873306E50013084B
:100AE000000231A86376B5003306F101102210A18F
:100AF0000505F9BF63F4B700238007018507B30636
:100B0000F640E349D0FE6353070001473A9541019F
:100B10008280EFF21F8D2A849D3D09C523AC81841C
:100B20006FF07F8EEF00704C75D900D9D5BF0D479F
:100B3000AA876376C7009377350091C7AA873E9648
:100B40006397C706828093F7F50F13978700D98FB5
:100B5000139707015D8FB308C500AA87BD46338888
:100B6000F84063EB060393574600C156B386D7029D
:100B70009207AA970D4836963383C700BE86B308FE
:100B8000D3406362180313572600F156B306D70209
:100B90000A07BA97369665B798C3D8C398C7C107EE
:100BA00023AEE7FE6DBF910623AEE6FEC9BF850703
:100BB000A38FB7FE71B763F2A504B386C500637E49
:100BC000D5029345F6FF8147FD176393F5008280B8
:100BD0003387F600030807003387C7002A972300EE
:100BE0000701DDB73387F500830607003307F500FB
:100BF000850714A3E318F6FE82808147E5BF0DC682
:100C0000AA8785050387F5FF85079306F6FFA38F5F
:100C1000E7FE09EB3E9685076393C7008280A38FAA
:100C200007FED5BF3686F1FE828001476314E600D9
:100C3000814739A8B307E50083860700B387E5003D
:100C40009C23B387F640E207E18799E30507F9FEA5
:100C50003E858280AA870387070001E73385A74086
:100C600082808507CDBFEFF24FF52E89B30B2501AA
:100C700041112A8CB68563F5AB001349F5FFFD5B86
:100C8000C169379A00006284930AB002130B000214
:100C9000FD19130A4A0431A8130750026389E702B9
:100CA000637374011CA013051400B284138614002E
:100CB0002A8483070600EDF363060900637B742F23
:100CC000230004003305844141016FF08FF2014895
:100CD0001307D002930630021305000331A0639E70
:100CE00057011368480026868307160093041600F0
:100CF000E397E7FE13680801FDB763956701136882
:100D00008800D5B76395D70013680802E9BF6395DB
:100D1000A70013681800C1BF138707FDA54663E647
:100D2000E6040147A546294539A03307A7028504F3
:100D30003E97130707FD83870400138607FDE3F63C
:100D4000C6FE038604009306E002FD57631FD60427
:100D500083871400254693861400138507FD636579
:100D6000A60A8147254529433DA09306A0027D5749
:100D7000E399D7FC9841930426009105E35307FCBF
:100D80003307E040136808016DBFB387670285062B
:100D9000B297938707FD03860600930806FDE37666
:100DA00015FF63D307008147B684838604001306CA
:100DB0008006014593F8B6FF6395C80013F5F60F5A
:100DC000850403860400930690066303D60663C574
:100DD000C606930680056303D61C63C3C604930747
:100DE00050026307F61A63757401930750021CA042
:100DF00083870400130514006386071A6373750163
:100E00001CB0130524005DB51306A0026397C7004C
:100E10009C4193862400910569B7B684814771B7D8
:100E2000930630066302D60893064006E31DD6FA01
:100E300013682800A94699A0930630076303D60CCF
:100E400063C5C6029306F0066300D6169306000734
:100E5000E31BD6F8FD566315D70013681800214729
:100E6000938C4500C14690411DA893065007E303AB
:100E7000D6FC93088007C146E31716F71306C00691
:100E8000938C4500E301C5FE13068006E31DC5FCF7
:100E9000904193752800639B051033763601DE85FB
:100EA0002285CD3CE68519B5137808016315080243
:100EB000BA879306000229A06373740114A0050485
:100EC000FD17E34BF0FE9307F7FF6343E000054790
:100ED0003387E740050793874500637474019441A5
:100EE00014A013051400229713060002B306A740AE
:100EF0006344D000BE855DBB6373750110A1050519
:100F0000F5B783AC0500138D450063930C00D28CBC
:100F100066853EC63AC442C2353BB247AA861248ED
:100F200022476355F00063D3A700BE8613780801FB
:100F3000631E0800BA871306000231A063737401B0
:100F400010A00504BA877D17E3CAF6FE814763C186
:100F5000D702B68763D3060081473305F4002A978A
:100F600013060002B307A74063CFF600EA853DBB36
:100F70003306F40063777601B385FC0083850500B2
:100F80000CA28507E9B76373750110A10505D9BFE8
:100F90006373740110A01305140009BB13680804DF
:100FA000C146E9BDFD1419B3A146C9BD420641863B
:100FB000FDB5A38F0BFE39B303A5C1858280EFF287
:100FC0004FC203A9C185EFF0CFDF11CD1384C185D6
:100FD000AA84084019C1EFF02FEE9305300426854E
:100FE000EFF0EFE504C04A856FF0EFC18280397100
:100FF00026CA2ED232D436D62A8654109305F0074C
:10100000138501BD3EDA36C606CE22CC3AD842DC84
:1010100046DE9139AA8603A5C18509E9138501BD7C
:10102000F137F2406244D244216182802686262D27
:101030001384C18593E704043EAD9307F00763F47E
:10104000D7009306F007138601BD8145EFF00FEC42
:101050001C40A6AFF9B7EFF2CFB8379500001305E3
:10106000C5FB713737950000130585FC4937379765
:101070000000379500001307C7FE8D4605468D45D5
:10108000130585FFAD3737950000130585018537BA
:101090006FF06FB731C5A5661377F50F938686EAB3
:1010A00009C7BA96882205058280C167938707F031
:1010B000E98F81CB21851377F50F36970823250516
:1010C0008280B707FF00E98F81CB41859377F50FC9
:1010D000B69788234505828061813695082165058C
:1010E000828003A741865C41BA976305F502B62367
:1010F00095E283A60186638FF600938681869042EF
:101100006313F60088C2D44354C1DC43B306E54000
:10111000BA9794C71045B307C700630FF500B6230D
:1011200081EE938681868C426393A5009CC25441D4
:10113000D4C35C413E9710C78280EFF28FAA83A58B
:1011400001873795000013050506553583A5C1872E
:101150003795000013054507593D83A5C18637958E
:1011600000001305850861356FF0EFA9EFF26FA756
:1011700013F7C5FFE1462E8663F1E60693073500B7
:10118000F19B930687FE63EAF6041D8F130687FE24
:1011900023A8C1868966511713844186938606EA7F
:1011A000D8C394C323A407001CC0BA9723A0F18618
:1011B000C966938606EAB795000094C3D8C398C75A
:1011C0008146054693850512138501C5EFF02FE88A
:1011D000184023A4E1866FF00FA3AA85379500007D
:1011E000130585122935C5BFEFF2AF9F39C503A797
:1011F0000187130435007198138901878144636660
:10120000870EB1476373F4003144FD55138501C562
:10121000EFF06FE683A7818683A5418683280900C6
:1012200026853386B740B3868840138881866368F5
:10123000D600138501C5EFF00FEC81447DA0B38487
:10124000C500BA2003AE440061E73307CE40930FD8
:1012500047FF63EF8F0A138FC187938EC1861303F5
:10126000840183260F0083A30E001389C187938214
:10127000C18663EF6F061307C4003297896E33830C
:10128000E500938E0EEA2322C3012324C30023200A
:10129000D3010546D8C0B2A003264300B1086304B9
:1012A00016012E9618C61387C60022972320E90040
:1012B00063F4E30023A0E2000967130707EA9AA09A
:1012C000639A970083A601860147B22305EE19C3EE
:1012D0002320F800138501C5EFF0EFE183A7818794
:1012E000B10481C7A2852685829726856FF0AF91CC
:1012F00005463697B2A02320EF00E3FFE3FA23A0D0
:10130000EE005DBFE385D7FCDC430547AE9775BFB4
:10131000728631BFEFF2EF8C3306B5024111328590
:1013200032C6D9352A8409C532468145EFF03F805F
:10133000228541016FF02F8D45C5EFF2EF8883A71D
:1013400041872A8491C3829783A741861389418666
:101350006366F40883A701866372F408FD5513855C
:1013600001C5EFF04FD1835764FF930944FF81CB50
:10137000035744FF8967938707EA6301F7023795AC
:1013800000001305450DA531835644FF035664FF45
:1013900037950000CE851305050F9139896793872E
:1013A00007EA231AF4FE938781869843231B04FEE1
:1013B00063F4E90023A037011387C1871C43832608
:1013C00084FF4E85958F83260900B386D940B69752
:1013D0001CC3013B138501C5EFF0EFD16FF00F8205
:1013E0008280B70700209386070001479387070094
:1013F00021468C426396A500131547003E958280D6
:101400000507C106E317C7FE01458280EFE2DFFB57
:101410002A842E85AE89328AE9372A89A92C832429
:101420004900930749006390F4048D2493E909F877
:10143000230434012146D2852285EFF04FFC83A797
:10144000018899C322858297EF00A077032749007E
:101450009307C4005CC358C42322F90004C8EF00FA
:1014600000776FE0BFF984407DBFEFE29FF783A76D
:1014700041882A8491C3829723040400EF0060749A
:10148000544418489307C400D8C214C31CC85CC491
:10149000EF00E0736FE03FF7EFE21FF32E89AA89B8
:1014A0008937AA84484589332A841DCDD044814593
:1014B000EFF0EFE7214623043401A3040400CA85BA
:1014C0002285EFF0CFF383A7018899C32285829705
:1014D000EF00206FD8409307C40091045CC358C448
:1014E0009CC004C8EF00A06E22856FE03FF1EFE2E0
:1014F0005FEF83A741882A8491C382972304040065
:10150000EF00206C544418489307C400D8C214C399
:101510001CC85CC4EF00A06B2285393D6FE0BFEEB4
:10152000030585007D8182802390018A938701C70E
:1015300013870708DCC39CC3A107E39DE7FE3D4773
:10154000238AE18823AC018823A6018A9387418AF4
:10155000DCC39CC38280EFE2DFE803A5C18AEFF021
:101560007FB37D1593173500138501C73E9508415C
:101570001307C5FE210523ACE188EFE07FC86FE0CB
:101580009FE8EFE21FE6EF00C0638397018A2A8994
:10159000B1E703A5C18AEFF0FFAF7D151317350042
:1015A000938701C7BA978443938781898043938542
:1015B000C4FE6305B4028CC383A7C189238AA188B2
:1015C00099C32285829783C741851305C4019385FA
:1015D000840093F7F70F81EBEFE05FC44A85EF00DB
:1015E000005F6FE05FE2EF00E05ECDBFEFE27FDF24
:1015F0002A84EF00005D8347440393064401C19BA6
:1016000093E71700230AF402834754031397370024
:10161000938701C7BA97D84314C318CCD4C35CC806
:101620009387C18A9443185C558F98C3EF00205A62
:101630006FE07FDDEFE2FFDA2A846123184C544823
:1016400093074401D8C214C35CC81CCC834754031D
:1016500013973700938701C7BA979843631AF70027
:101660001387C18A1C5C144393C7F7FFF58F1CC313
:10167000B92B6FE05FD9EFE2DFD6A1239387018A10
:101680009A2305079AA3A1236FE0FFD7EFE27FD546
:101690000D2B1387018A1E23FD17C207C1871EA3C6
:1016A000634BF000231007001D2383A7818991C39A
:1016B000C93D6FE05FD5212BEDBFEFE29FD203A4C0
:1016C00081890123AA842285B5379147230AF40230
:1016D0001305C404012E2285A1358547631BF5003F
:1016E0003C5C81EB228551332685D521593D6FE045
:1016F0009FD183A6418A1307440123A2E18AD8C25D
:101700009387418A54C81CCCC5B7EFE29FCD2A8489
:101710005105411108CC48C80CD050D014D43A8699
:1017200058D49305300236853EC642C4EFF02FC030
:10173000585410544C5008507117B71600003A9680
:101740009386A66B2D21B24722483716000048CC5D
:10175000230BF402A30AF402232C04028147232260
:1017600004052324040523280402230A0402232C4D
:101770000406232E04060147A28613068679A28555
:101780001305C4041D2483A7018B99C32285829766
:10179000014541016FE03FC7EFE2BFC45049144D1E
:1017A000795718D954C21307450190C218CD58C9AA
:1017B000353DC13B6FE03FC5EFE2BFC24111B2848E
:1017C0002E8685452A84368946C03AC63EC442C222
:1017D000EFF0DFC3024892472247B2464A86A68509
:1017E0002285253741016FE01FC203A581898280D0
:1017F000EFE29FBD41112E89AA85054532C6B68408
:10180000BA893E8AEFF05FC92A8411C92685EFF0B4
:10181000BF9D324609E92285EFF07FCD0144228544
:1018200041016FE0BFBDAA865288CE872687CA8550
:101830002285E13DEDB7EFE2DFBA612683A781891A
:101840000546AA8603C747033D8B631CC702D04BDE
:10185000984F6308E60258C210C303C65703938625
:1018600047010E06138701C794CF3297504314C225
:1018700090CF54C3D8CBA12EEFF0BFD001456FE07D
:101880009FB83685A926DDBF834745030547BD8B35
:10189000639FE702EFE2FFB42A84252683474403CF
:1018A000AA842285C19B93E72700230AF402EFF064
:1018B0007FD81305C404F1222685112E83A7818BBE
:1018C000014581C72285829701456FE0DFB37D55D1
:1018D0008280EFE21FB141112AC6E52403A4818969
:1018E0002A89228555379304C404700081452685D2
:1018F000C922268539224A85D92CEFF09FC818586D
:10190000F9576314F70023280402014541016FE0F1
:101910009FAFEFE21FADEFE03FBD653F6FE0BFAEB1
:10192000834745030947BD8B6390E704EFE27FAB34
:101930002A84412C5448184C93074401AA84D8C2E5
:1019400014C31CCC5CC81305C404252A2685412475
:101950002285EFF0BFC983A7418B014581C722854E
:10196000829701456FE03FAA7D558280EFE27FA715
:101970008346650305473317D70018DD0947A30AD7
:10198000D502230AE502693F83A7818999C3EFF055
:101990005FBF01456FE03FA75449184D93074501CC
:1019A000D8C214C31CCD5CC98280EFE29FA3411151
:1019B000B2842E86A9452A8436C63AC43EC2EFF0C8
:1019C000FFA49247B2462247F99B1CB493074401F7
:1019D00044CC14D02324040258D01CCC5CC8410150
:1019E0006FE07FA2EFE2FF9F2A84E12AAA8422858A
:1019F00065372685E92A2285EFF03FA701456FE08C
:101A00009FA0EFE21F9E2A846D2AAA84228569374F
:101A10001C342685F99B1CB45D2A83A7C18899C311
:101A200022858297EFE07FA95C503E9508D4512A29
:101A30001387818C03284700370600809387818CA9
:101A40001346E6FF98436315F8029386C18B9042D4
:101A5000050690C29306440154C358C894C31CCCD5
:101A60001C3493E717001CB49D2201456FE0BF9919
:101A7000544B0C546385B6008D8EE378D6FCBA8740
:101A8000D1B71C35858B85C7EFE2BF9583A78188C9
:101A90002A8491C382973522AA842285F53D268522
:101AA0003D221C340145F99B1CB46FE0DF957D5548
:101AB000828085476381F50263C5B70085C1014512
:101AC00082808947638FF5008D47E39AF5FE1C35C8
:101AD00093E7270009A85C511CC2D5B71C425CD112
:101AE000F9BF1C35F59B1CB5D9BFEFE21F8DEFE0A8
:101AF000DF9C2A8CF920B70900802A8A9384818C84
:101B000093C9E9FF8D4B8040631694005285C12034
:101B10006FE03F8E48481309C4FE3305AC40E3E74D
:101B2000A9FE83A7018C99C34A8582974A85EFF065
:101B3000BFE61C4448448297EFE03F9883A7418C5E
:101B40002A8C99C34A858297834754FF13F7E70F7E
:101B5000A30AE4FE8D8BE39877FB4A85EFF07FEADA
:101B60005DB79387818CDCC39CC382808280110621
:101B7000719A2A8837C7ADDE130506F8AA871307BE
:101B8000F7EE631EF600A167938707882322D6F835
:101B90002324B6FA232006F92324F6F8828098C37A
:101BA0009107C5B737F700E01C43B7060080D58F13
:101BB0001CC3828037F700E01C43860785831CC363
:101BC00082802165130505807315053082807310AE
:101BD00005308280EFE2FF801387818D1843938761
:101BE000818D19E323A8A18C23AAB18C054798C342
:101BF000553F6FE05F812A87814718436314A70030
:101C00003E8582808507D5BFB707EFBE37E700E086
:101C1000938707083CC701458280EFE28FFC379528
:101C2000000013054516EFF08FBC01456FE0AFFDD6
:101C3000EFE22FFB2A84FD5437A900007D146314C2
:101C400094006FE04FFC1305C98CEFF04FBAFDB75D
:101C5000EFE28FF70041AA8437A90000B7A900007E
:101C6000631494006FE08FF99305C4FE1305098D8A
:101C7000EFF0EFB71C40638697001385498DEFF0B6
:101C80000FB70040F1BFEFE2CFF52E89EFE09FFCE8
:101C90002A84EFF05F9E83240900639C2401EFF007
:101CA000FF9EA14763C3870011E0214422856FE0B6
:101CB0008FF5138544FFEFE0FFF96353A4002A84F6
:101CC0008440E1BFEFE26FEF0545EFF08FF1B79988
:101CD0000000130945002A84CA85138589416537A8
:101CE000AA85AA8437950000138689411305054209
:101CF000EFF0EFAF2685EFF0BFF337950000130547
:101D00004546EFF0CFAE4040B7990000054A894AFA
:101D1000379B0000B79B0000379C0000B79C000079
:101D2000379D00006315890001456FE08FEC034784
:101D300094021385494A930644FF2146A685EFF095
:101D40000FAB8347840213850C4BBD8B638E470119
:101D50001305CC4B638A570113858B4C91C71147F0
:101D60006396E70013054B4DEFF06FA84C4C9307BB
:101D70003002AE8698226306F702105093074006A1
:101D80000848B295B386D540B386F602585C5C50DD
:101D9000898D13050D4EB3D6C602EFF04FA5004056
:101DA00051B78506C1BFEFE22FE241110945EFF0BF
:101DB0004FE393094500379900002A84CE85130527
:101DC000893BEFF05FECAA85AA84379500001306E3
:101DD000893B1305453CEFF08FA12685EFF05FE5C9
:101DE000379500001305053EEFF06FA04040379A8D
:101DF0000000B79A000037CB0000639689000145C8
:101E000041016FE0AFDF1A281C44930644FF130919
:101E1000840036C63AC44A856306F902EFF0BFDD96
:101E20002247B246AA872146A68513858A3FEFF04E
:101E30000F9C4A85EFF0DFE11305CB92EFF02F9B6B
:101E4000004065BFEFF03FDB2247B246AA8721463C
:101E5000A68513058A40EFF08F99DDB7EFE2CFD664
:101E600041111145EFF0EFD7930945003799000074
:101E70002A84CE851305C91FEFF0FFE0AA85AA8446
:101E8000379500001306C91F13054520EFF02F9664
:101E90002685EFF0FFD93795000013058522EFF076
:101EA0000F954040379A0000B79A000037CB0000EA
:101EB00063968900014541016FE04FD41C4413092A
:101EC0008400930644FF18486309F9024A8536C620
:101ED0003AC4EFF05FD22247B246AA872146A685D0
:101EE00013858A24EFF0AF904A85EFF07FD6130573
:101EF000CB92EFF0CF8F004065BF2146A68513053A
:101F00000A26EFF0CF8EC5BFEFE20FCC41110D4591
:101F1000EFF02FCDB7990000130945002A84CA8538
:101F200013854935EFF03FD6AA85AA84379500007E
:101F3000138649351305C535EFF06F8B2685EFF015
:101F40003FCF3795000013050538EFF04F8A40402A
:101F5000B799000063168900014541016FE00FCA7F
:101F6000930644FF1305840036C6EFF0DFC803482C
:101F700034015C48B246AA8821472146A6851385CC
:101F8000093AEFF0CF860040F1B7EFE2EFC341111D
:101F90001545EFF00FC593094500379900002A84D5
:101FA000CE8513054927EFF01FCEAA85AA84379561
:101FB0000000130649271305C527EFF04F83268538
:101FC000EFF01FC7379500001305052AEFF02F82A9
:101FD0004040379A0000B79A000037CB0000639664
:101FE0008900014541016FE06FC17A285E281044E5
:101FF000930644FF1309840036C63AC43EC24A859C
:102000006307C902EFF03FBF92472247B2462A88D2
:102010002146A6851385CA2BEFE07FFD4A85EFF0A8
:102020003FC31305CB92EFE09FFC00404DBFEFF0A4
:102030009FBC92472247B2462A882146A6851305AF
:102040004A2DEFE0DFFAD5B7EFE20FB8411119459D
:10205000EFF02FB993094500379900002A84CE8507
:102060001305C92EEFF03FC2AA85AA843795000058
:102070001306C92E1305852FEFE07FF72685EFF0B5
:102080003FBB3795000013054531EFE05FF6404058
:10209000379A0000B79A000037CB0000639689009A
:1020A000014541016FE08FB51A2C1C44930644FF93
:1020B0001309840036C63AC44A856306F902EFF074
:1020C0009FB32247B246AA872146A6851385CA3206
:1020D000EFE0FFF14A85EFF0BFB71305CB92EFE0D9
:1020E0001FF1004065BFEFF01FB12247B246AA873B
:1020F0002146A68513050A34EFE07FEFDDB7EFE256
:10210000AFAC5D712545EFF0CFADA56513060005B9
:102110002A8413094500938505DF0A85EF50900452
:10212000B7990000CA8513854919EFF0DFB5AA8574
:10213000AA8437950000138649191305C519EFE0E5
:102140001FEB2685EFF0DFAE379500001305451C29
:10215000EFE0FFE94040D149379A0000631689005B
:10216000014561616FE08FA91C44930644FF63E061
:10217000F90298088A07BA9703A707FB1C2821468B
:10218000A68513058A1EEFE09FE60040C1BF4647C3
:10219000F5B7EFE26FA32945EFF0AFA4B7990000C0
:1021A000130945002A84CA8513858950EFF0BFAD15
:1021B000AA85AA8437950000138689501305055116
:1021C000EFE0FFE22685EFF0BFA63795000013058C
:1021D0008553EFE0DFE14040B7990000379A0000F7
:1021E000B79A0000631E8900EFE02FADAA853795EE
:1021F000000013050559EFE09FDF01456FE00FA0D8
:102200005C4C184C1385C955930644FF2146A6859E
:10221000EFE0FFDD8347D4FF13854A57858B99E3B1
:1022200013050A58EFE0BFDC00406DBFEFE2CF9925
:10223000379500001305C516EFE07FDB03A4018E80
:10224000B7990000379A000083A7418E6365F400B8
:1022500001456FE0AF9A0440094693850918268529
:10226000EF50700319C55040A68513054A18EFE0DA
:102270001FD83104D1BFEFE22F9537A50000130519
:1022800005A3EFE0DFD603A4018EB7A9000037AAAB
:10229000000083A7418E636BF40037C5000013056F
:1022A000C592EFE0DFD401456FE04F950440194639
:1022B0009385C9A42685EF50007E01E9504093859F
:1022C000640013054AA5EFE09FD23104D9B7054554
:1022D0008280EFE26F8F79712A84AA9593060002BB
:1022E000254783070400B38485406385D70A638349
:1022F000E70A0145638B0410014913070002A54654
:10230000B307240183870700638AE7086388D70837
:102310006314990883A9018E83AA418E37AB00000C
:1023200063F0590903AA090019469305CBA4528505
:10233000EF50607659E54A86A28513056A00EF5092
:10234000807541E14A9A83076A00A5EF83A9890055
:10235000638809041306800281452800EFE06F8B33
:1023600013098100CA86A2870145014713080002AC
:10237000A548294313062002130EC00583850700D4
:102380006384050163961505631F9702A9476303DC
:10239000F50469A80504B1B705099DB7E31C09F662
:1023A000A287038707001377F7FD79E737A50000B9
:1023B000130585A123800700A285EFE05FC37D554B
:1023C000A9A0B109B1BF23800700050785077DB724
:1023D0006310650437A500001305459FEFE03FC17A
:1023E0000018B7A4000083250900138544A1110932
:1023F000EFE0FFBFE31989FE37C500001305C59262
:10240000EFE0FFBE29452C00829945616FD01FFF88
:10241000637E970005056392C504850705079CC286
:10242000838507006381C5026364970069FD8DBFE2
:10243000838E17006396C5016394CE008507050758
:1024400085070507F1BFE37397FE238007000507A3
:1024500085079106E36497F2D1BF9CC2838507008C
:102460006389050163871501E30297FC850705076A
:10247000F5B7E36097FE5DBF850725B7EFD2FFF3A1
:102480008307050099E781450145EFF0DFDE6FD056
:102490005FF603AA018EAA898144014937AB000087
:1024A000B7AB000083A7418E6369FA00EDD04A867E
:1024B000A6854E85EFE0AFF4D9BF03240A00194684
:1024C0009305CBA42285EF50005D21E14E85EF50AE
:1024D000605B19042A86A2854E85EF50C05B15E526
:1024E000631709002285EF50E0592A89A284A68744
:1024F00022870386070001EE858F63D327013E897B
:10250000A2851385CBA5EFE09FAE310A61BF83069C
:102510000700FDD2E312D6FE85070507D9BFEFD22B
:102520005FECEFF02FFA01456FD0FFEDEFD27FEBBC
:10253000EFE0BFC001456FD01FEDEFD29FEA03A5CA
:10254000C18DEFE04FBB01456FD0FFEBEFD27FE9CC
:10255000B7C70000938787EC23A0F18EB7C70000B0
:102560009387070623A2F18EB7C70000938707065B
:1025700023A4F18EB7C700009387070693050021B7
:10258000054523A6F18E1384C18DEFE0BFD808C0A6
:1025900019E937A50000130505B1EFE05FA57D54EB
:1025A00022856FD05FE6B725000037A50000A94758
:1025B0002D479306004001469385C56C130585B2EF
:1025C000EFF00FA3AA840840B7A50000814601469A
:1025D000938505B3EFE0AFA70144F9D02685EFF06E
:1025E000EFB87DBFEFD2FFDFEFF07FCE0DC5B7A50F
:1025F00000009385C5AD138501CFEF50A047B7A567
:1026000000009385C5AE138501CFEF50C0441385FC
:1026100001CF6FD05FDFB7A50000938545AEE1BF66
:10262000EFD23FDC2A8437A500001305C5B4EFE0E4
:102630001F9CEFF03FFBAA8537A500001306A41BE3
:10264000130545B5EFE0BF9A01456FD0DFDBEFD250
:102650005FD941112AC6EFD0DFF6B24511E937A59F
:102660000000130505AFEFE09F9841016FD0BFD97F
:1026700083A7C18DAA841384C18D83A7C720E38655
:10268000A7FE93053014EFD09FFB65F11C4003A516
:10269000C72009C9EFE04F821C40814503A5C72030
:1026A000EFE08F8800401306000581451305A41B49
:1026B000EFD03FD6B7250000231504202326942011
:1026C0009385A5532685EFE02F8645B7EFD27FCEC1
:1026D00083A7C18D41119384C18D03C7470213673E
:1026E00017002382E70283A7C72091E7EFE0DF8C82
:1026F00019C1EFF0DFF5EFF0FFEEEFE05F8F37ABE2
:102700000000B7AB0000B7A9000037CA0000B7AAA5
:10271000000037AC0000B7AC00009C4085461306B3
:10272000F10003A5C720FD55EFD09FFC8547631A34
:10273000F5000309F100ED4780406319F90008D066
:10274000E9BF8840FD55EFE00F93C1BF1C50639275
:10275000A7029307B0056315F90089471CD075BF20
:1027600023200402E30B09FAA5476314F912014977
:10277000D1A80947E398E7FE232004029307100439
:102780006312F9046E30D1D9FD15C205C1816EB056
:102790009307A41B13070005B385E5021306000584
:1027A0003E859385A502A295EF50C01BEF50802D6A
:1027B0001375F50F2305A420A305A4202285EFF0AF
:1027C0003FE6A1BF930720046311F90216347E305F
:1027D0001387F6FF63D8E70085077EB09307A41B35
:1027E0006E304DBF9DDA7AB0D5BF930740046310B9
:1027F000F9028347B42095D3138589B3EFE02FFF07
:1028000098408347B720FD17A305F72039B79307F2
:102810003004E319F9F48347B4200347A420E3FE0E
:10282000E7EE3E948305A41B1385CAB3EFE02FFCAB
:1028300098408347B7208507C1BF138589B3EFE070
:102840000FFB050980408347B420E348F9FE1305D8
:10285000CA92EFE0CFF9EFF09FA785471304A41BBE
:102860006315F5002285EFF07FC1EFF0BFD7228618
:10287000AA8513854CB5EFE08FF780401305A41BA4
:10288000EF5040201375F50F2305A420A305A420C5
:1028900069B59307F0076305F900A1476315F908C7
:1028A0008347B420E38B07E60346A420FD1793F784
:1028B000F70F7D161376F60F2305C420A305F42029
:1028C00063F8C7049385B71B1385A71B1D8EA295BC
:1028D0002295EFE04FAE9C4013850BB403C7A720B1
:1028E0003E97230D071A83C5B7209385A51BBE9578
:1028F000EFE0EFEF9C4003C4B7209C4083C7A720C4
:10290000E3CD87E0138589B3EFE06FEE0504F5B7FB
:1029100013058BB4EFE0AFED9C4003C7A720BA9737
:10292000238D071ADDBB35478347A4206305E900E3
:102930002947631EE90EB9CB035984029147130D51
:10294000A41B63FB2709930DA41613060005EA8553
:102950006E85EF40F07E1DC91309A4024A85130954
:10296000090513060005CA85EF40D07FE3982DFFC7
:102970001306000581456E85EFD0BFA90346A4204C
:10298000EA856E85EF40107E95471EB41E347EB0FA
:10299000EFF0FF9385476312F5029C4083C747021F
:1029A000858B89C71305CA92EFE06FE488408345A1
:1029B000A5201305A51BEFF0DF91EFF0BFC2EFE0FC
:1029C0000FE380401306000581451305A41BEFD0DB
:1029D0005FA42315042091B3630109021305F9FFD5
:1029E000930700053305F50213060005EA85130574
:1029F000A5022295EF40D07451D9930D00053305FF
:102A0000B9031306000581451305A5022295EFD0F1
:102A10005FA00A340346A420EA853305B5031305F5
:102A2000A5022295EF4010741E348507B9BF130725
:102A3000F0046374F700230504200346B4208347A1
:102A4000A4206370F6089305A61B1305B61BA29578
:102A50003386C7402295EFE00F968C4083C7B520A0
:102A60003387F500230D271B03C74502058B01CBD8
:102A70009387A71BBE9513050C8DEFE04FD79C40A5
:102A800003C4B7209C4083C7A7206346F402984044
:102A90008347A7208346B7208507850693F7F70F5E
:102AA000A305D7202305F7209306F004E3F7F6C625
:102AB000231507209DB1138589B3EFE04FD305049B
:102AC000D1B7A297238D271B83474402858BE1D37F
:102AD000CA851385CAB3EFE08FD155BF7C41232847
:102AE0000504232A05049C4381CBEFD29F8F9305D5
:102AF000850482976FD03F9101458280EFD2DF8CB1
:102B000036899DCAAA843284B309D600294A1C207A
:102B1000639B4701BE2C93F7070491C7FC40B54562
:102B200026859C478297FC408305040026859C47A8
:102B300005048297E31D34FD4A856FD03F8CEFD2A8
:102B40005F8A93F705102A8491C71A2D6155137770
:102B5000071035CF13F7054011C71A2C61551377AD
:102B6000074035C713F705049304000401E7262C3A
:102B700093F40404384893F5F50F2EAC39EBA1C754
:102B800068442981420541813105EFE0EFE5704459
:102B90002A89310529824206418281452320A900E4
:102BA000EFD0FFF8232209003E2C2324090023281C
:102BB000240593E707103EAC7C4013060010C14586
:102BC000DC43228582973E2C0145DD8C26AC6FD0FC
:102BD0009F83F5DB93E505102EACF5B70948AA876E
:102BE00063810503EFD2EFFF0D48638205030547BC
:102BF0006399E5041A2D1377F7FD1AAD01456FD0DF
:102C00009F801A2D136707021AAD01458280328713
:102C100075D6504274454C2D2982A9824206C206BF
:102C20004182C1826304D6001D45F1F91443B4C743
:102C30005443F4C7E1D5F443BA853E859442829665
:102C400075BF7C41DC4382975DBFEFD2EFF73684DE
:102C5000B1CA3E2DAA89328993F70710B6849DE345
:102C60007D5AA94A83A749044E85DC4782976309A8
:102C700045012300A900FD14050963035501FDF07A
:102C8000058C0DA02449368A854AEFE09FF3FE208B
:102C9000DA202A869444631AF70081EAEFE03FF3D2
:102CA0003304444122856FD06FF598403E97034B23
:102CB000070003A7C9048507C2072983C183420708
:102CC000FEA0418363E4E70023930400639456016C
:102CD00023A404003285EFE09FEF7D1A23006901F1
:102CE0000509E3140AFA6DBF582D854763ECE70226
:102CF0003E2D93F707109DC7EFD2AFEE2A842849E7
:102D0000EFE08FE33E2C232804041306001093F712
:102D1000F7EF3EAC7C40C5452285DC4382970145F8
:102D20006FD06FEE01458280EFD2AFEB37370000F6
:102D30001307C7AD18D5373700001307E7B358D5C9
:102D400037370000130787CE18D93737000013072D
:102D5000A7C458D9373700001307C7AF18DD373776
:102D600000001307C7BD420658DD34C14182232A43
:102D700005002320050223220502EFD01F896FD012
:102D80008FE893F5F50F85476391F50AEFD2CFE30E
:102D900020494111AA847D598549FC402685DC479C
:102DA00082972A8A63072505EFE0BFE15A201C407D
:102DB000BA97238047015E20F8448507C20729831C
:102DC000C18342075EA0418363E4E700231204004D
:102DD00076205E20639CD7008507C207C1837EA052
:102DE0002324340163E4E70023130400EFE03FDE13
:102DF0006DB79C5085C3EFE0DFDC5A206E20636E18
:102E0000B700B305B7402EC6EFE07FDC9C50B2455B
:102E10002685829741016FD06FDEFC44998DA9838E
:102E2000C207C183B385B740F9BF828001CEEFD21C
:102E30004FDB7841B2878E23184332220297014537
:102E40006FD06FDC7D558280EFD2AFD9138741D729
:102E500078432E86AA851843138541D702976FD0F1
:102E60008FDAEFD20FD8138741D778432E86AA8501
:102E70005843138541D702976FD0EFD8EFD26FD662
:102E8000138741D77843AA85138541D718470297FE
:102E90006FD06FD705C611476392E602EFD26FD4A9
:102EA0007C410E2241119C4736C632C4829722468D
:102EB000B2462AA2368541016FD0EFD481463685CD
:102EC00082801DC2B28711466390C602EFD26FD1D5
:102ED0007841B2238E235843411136C60297B24639
:102EE000410136856FD02FD2814636858280EFD260
:102EF0004FCF938741D74947D8CB373700001307C7
:102F000047E9D8DB37370000130727EC98DF37375E
:102F100000001307C7E2ECC3B0C3AA850D461385B2
:102F200041D723A0070223A2070223A4070223A656
:102F3000070223A80702D8DFEFD02FED01456FD09D
:102F40008FCC371500201305C58D828037250020D2
:102F50001305C58D8280EFD2CFC803A7C181930727
:102F6000803EC1563357F702B7E700E02386D740CB
:102F70002387D740856623A0D710916623A0D7105A
:102F8000B7F700E023A0070023A20700014690C77F
:102F90008146D4C781461306F7FF90CBD4CB3D477B
:102FA00098C3EFD0EFD7EFF0DFF92A84EFF01FFAE4
:102FB000AA852285EFE08F9B37A500001305C5BCCD
:102FC000EFD0FFFF6FD02FC473110134EFD0BF9645
:102FD000B7F700E023A20700EFD08FCEEFD07F98A5
:102FE00073110134730020308147854613070002B6
:102FF0003396F6006306A6008507E39BE7FEFD57C0
:103000003E858280EFD2EFBD854513050002EF308B
:10301000E0156FD04FBFEFD2CFBC85452145EF30D3
:10302000E0146FD04FBEEFD2CFBB85451145EF30D6
:10303000E0136FD04FBDEFD2CFBA85454145EF3099
:10304000E0126FD04FBCEFD2CFB985451305000415
:10305000EF30C0116FD02FBBEFD2AFB8A96537A545
:1030600000000146938545BD1305C52BEFF03FE8F1
:103070006FD06FB99307400663ECA7009317450024
:1030800029651305C5C63E951841FD576313F70022
:1030900001458280EFD2EFB4411113F5F50F32C62E
:1030A000EFF05FFD11C54E2532460845EF20706CEC
:1030B00041016FD04FB5EFD2CFB213F5F50FEFF05E
:1030C0007FFBAA87014589C7CE278847EF20506933
:1030D0006FD06FB3EFD2EFB0011113F5F50F32845B
:1030E000EFF05FF905C55C412AC6829732455C4521
:1030F000FC82C1473ECE8D473ECC09C41547631ABA
:10310000E40002CE08454C08EF20905905616FD0CD
:103110008FAF05476315E40091473ECEE5B76315D1
:10312000F40093078002D5BF89476315F400930725
:103130008004E5B791476314F400D147F9BF99477C
:103140006314F400F147D1BF9D47E31DF4FAE14752
:10315000E9B7EFD26FA713F5F50FAE84B289368ABF
:103160003A89EFF03FF1994731CD4845EFF0DFE77D
:103170003D472A8499476367A704EFE09FA4B146BF
:10318000B306D402B7070020138707082A8693875F
:103190000708369783160700639F96004C43639C8D
:1031A00045012E2363993501184763162701EFE087
:1031B0001FA2814701A87D576389E6003285EFE0B1
:1031C0001FA19D473E856FD06FA331453305A402F3
:1031D0003E9506A123224501231135012324250113
:1031E0003285F1B7EFD2EF9F13F5F50FEFF09FE8BF
:1031F00019471DC94845EFF03FDFBD472A841947ED
:1032000063E4A702EFE0FF9BB1473304F402B70782
:103210000020938707087D57A2978396070063983D
:10322000E600EFE0DF9A01473A856FD0CF9D416716
:103230007D1798C323A2070023A40700DDB7EFD2B0
:10324000AF98011113F5F50F328AEFF0BFE29947FD
:1032500021C185442A8463159A104845EFF0DFD8D0
:103260003D47AA8499476365A702EFE09F95B14A5D
:10327000B38754033709002013090908AA893E9926
:1032800003170900FD576319F700EFE05F949947B2
:103290003E8505616FD08F965C40829785450545D8
:1032A000EF20D06C5C440D473AC47C823EC8835703
:1032B000290002CA52CE638C4709C1C70947638DF2
:1032C000E70808444C00EF20B03D1844B717014010
:1032D000938607C005456302D7020945630FF700CF
:1032E000938707400D45630AF700B727014093878E
:1032F000078001456313F700114593F5F40FEF20A4
:10330000F0470808EF20B030A9679387C7BE8E0446
:10331000BE94D04037E700E093060005B307C7002E
:103320002380D740935756009387070485468A0722
:10333000B396C600BA9794C34E85EFE05F89814784
:1033400081BF930780023EC6A1473ECC9DBF930735
:1033500080043EC656CCB5B791473EC6C147F5B7C7
:103360009947E3170AF24845EFF01FC83D479947D0
:10337000E360A7F29317350029651305C5BE3E9596
:1033800058419357570093870706B394E4008A0780
:1033900037E700E0BA9784C35DB7EFD28F84EFF0D0
:1033A000BFC4B1473305F502B7070020938707086C
:1033B0003E955C4199C3084582976FD0CF847311C5
:1033C0000134EFD04FD70545EF20102B19C5054527
:1033D000EFF0BFFC0545EF20102CEFD08FD8731114
:1033E00001347300203073110134EFD0CFD409457C
:1033F000EF20902819C50945EFF03FFA0945EF2065
:103400009029EFD00FD6731101347300203073115F
:103410000134EFD04FD21145EF20102619C51145C8
:10342000EFF0BFF71145EF201027EFD08FD37311C6
:1034300001347300203073110134EFD0CFCF214518
:10344000EF20902319C52145EFF03FF52145EF20EE
:103450009024EFD00FD17311013473002030731119
:103460000134EFD04FCD4145EF20102119C5414522
:10347000EFF0BFF24145EF201022EFD08FCE731155
:1034800001347300203073110134EFD0CFCA13051B
:103490000002EF20701E1DCD13050002EFF0FFEFBC
:1034A00013050004EFF07FEF13050008EFF0FFEEC7
:1034B00013050010EFF07FEE13050020EFF0FFED95
:1034C0001305003EEF20301DEFD0AFC9731101345A
:1034D0007300203013050004EF20101A55FD13056A
:1034E0000008EF2070194DF913050010EF20D018D7
:1034F00045F513050020EF20301859FDF1B7731181
:103500000134EFD04FC313050040EF20F01629C15E
:1035100013050040EFF07FE8056513050580EFF027
:10352000DFE70565EFF07FE70965EFF01FE711655D
:10353000EFF0BFE62165EFF05FE64165130505C0DA
:10354000EF207015EFD0EFC17311013473002030FC
:10355000056513050580EF2030125DF90565EF2044
:10356000B0115DF50965EF2030115DF11165EF20B7
:10357000B01059FD2165EF20301059F9E1B7014530
:103580008280EFC21FE69C412041A14641111CC030
:10359000B1473EA4DC412316040013F7F700630192
:1035A000D702A546631ED70005675AA013D7470068
:1035B0000D8B01C785466308D7002313040031A093
:1035C00023120400E5B709677AA099838D8B05471C
:1035D0006389E70081C709476389E706231404006C
:1035E00021A0930700601EA41848B74701409387A5
:1035F00007806318F704116585451105EF20103722
:1036000093070020B71401407C820D49E1474C002C
:10361000138504803EC64AC4EF20900893070040FB
:103620007C824C009147138504803EC64AC4EF203B
:1036300030070848A285EF20703F08488545EF20F5
:10364000B04A014541016FC01FDC9307004061BFD4
:10365000EFC29FD7B72400201384449393075003ED
:103660005CC837290020B74701401306C98D9387EE
:10367000078074461CC8A9679387072C7CC2B707CC
:1036800000C0F58FC166A106716713070720D58FAB
:103690001165411138C67CC68545B7070C00110578
:1036A00018C01CC42322040023160400EF20102C91
:1036B000B7190140930700207C820D4AE1474C0076
:1036C0001385098052C43EC6EF20807D93070040D9
:1036D0007C824C009147138509803EC652C4EF207E
:1036E000207C084893854493EF2050340848854552
:1036F000EF20903FB7A50000938644931306301047
:103700009385C5BC1305C98DEFF00FE2014541015A
:103710006FC0DFCEEFC2FFCC204193050002084806
:10372000EF20504219C51C48CA231375F50F6FC00E
:103730009FCD7D55EDBFEFC2DFCA24412E8488485E
:1037400093050004EF2010407DD99C48420441803D
:10375000C2A305456FC03FCBEFC2BFC8C1473841C8
:10376000638BF502C5476395F502544B054693D725
:103770005600938707063316D6008A07B7E600E09F
:10378000B69790C30146084B93055052EF2030374F
:1037900001456FC05FC7544B054693D756009387CA
:1037A00007043316D6008A07B7E600E0B69790C341
:1037B0000546D1BF411122C626C473110134B72476
:1037C0000020EFD04F979387C48DA04393055052AC
:1037D0000848EF20D03719C985451385C48DEFF00F
:1037E0004FDA084893055052EF20303AEFD06F97E8
:1037F000731101343244A244410173002030930715
:1038000040023305F502814701008507E31EF5FEFE
:103810008280EFC21FBD4111854513050004372981
:10382000014002C202C402C6EF2050144144894440
:1038300085474C00130509807C8226C422C6EF20F0
:103840002066854513050004EF2050124C00130537
:103850000980648226C422C6EF2080648545130552
:103860000004EF20B01091474C00130509807C82C2
:1038700026C422C6EF20C062854513050004EF2050
:10388000F00EA1474C00130509807C8226C422C695
:10389000EF200061854513050004EF20300D4C003A
:1038A00013050980608226C422C6EF20605F4101B3
:1038B0006FC07FB5EFC25FB1AE84AA8AB685268598
:1038C000328A36891D44EF20806AFD5933D68A40FA
:1038D000058AD2852685EF20C069CA852685EF2016
:1038E000C068CA8526857D14EF206068E31034FF28
:1038F0006FC0DFB0EFC2FFAEC841EF30907FB72599
:10390000014089460546938505801375F50FEFF054
:103910007FFA6FC05FAFEFC2DFAC2A84AE84EF20C6
:1039200000650545EFD0FFFEA6852285EF20E06308
:103930006FC07FADEFC25FA9AA8A2E8B3285BE858C
:10394000BE84BA89428A32843689EF200062D285E9
:103950002285EF20C061CE864A86A2855A85EFF087
:103960007FF5A6852285EF2080604145EFF03FE995
:10397000A6852285EF20605F4145EFF05FE8D285A4
:103980002285EF20805ECE864A86A2855685EFF09E
:103990007FF2A6852285EF20805D1145EFF03FE69E
:1039A000A6852285EF20605C1305C005EFF03FE59A
:1039B0006FC0DFA49377F50F21476389E7001307F2
:1039C000D00B09456385E70001458280054582806B
:1039D000EFC23FA1EFF01FFE9387018F3E950821B4
:1039E0006FC07FA2A547B3F5F5028D47B385F502F9
:1039F0009307000B6308F5009307000C6308F500BC
:103A00002E858280850593F5F50FDDBF8905E5BF1D
:103A1000EFC23F9DEFF01FFDB727002093878796E9
:103A20003E9508216FC03F9EA547B3F5F502A94713
:103A3000058AB385F50295473306F602930700061B
:103A40002E96630AF50263EDA7001307000493079F
:103A500016006305E50093170601C1873E85828045
:103A60001307000893073600E30AE5FE1307000E6C
:103A700093074600F9BF93072600CDB7EFC27F96A4
:103A8000EFF09FFAB72700209387C7993E9508214A
:103A90006FC07F97EFC2FF94AE8837260140AA859A
:103AA0002148914709478546130606804685EFF071
:103AB0007FE86FC05F95EFC2DF9241112A842EC666
:103AC000EFF05FEFB2459387018F3E950CA1137520
:103AD000F40FEFF03FFC41016FC0FF92EFC27F9007
:103AE0000545EFF0FFEE9365050293F5F50F0545EB
:103AF000EFF07FFC6FC03F91EFC2BF8E41112A846F
:103B0000AE8432C6EFF01FEE3246B727002093870F
:103B100087963E9510A1254533F5A402B2852295DE
:103B20001375F50FEFF01FF741016FC0DF8DEFC286
:103B30005F8B41113284AA842E8936C6EFF0DFEE06
:103B4000A5453379B9020588B246B7270020938787
:103B5000C7993E9514A13304B402A9659385053134
:103B6000A295CA958821B68526951375F50FEFF0B5
:103B70007FF241016FC03F89EFC2BF8601114C0047
:103B80006D4602C202C402C602C802CA02CC231E8B
:103B90000100230F0100EF30F05C05616FC0BF86AC
:103BA000EFC23F8439712A8448102EC6EFF0DFFC43
:103BB000B24581472D473386F50010223408BE9662
:103BC00090A28507E399E7FE834791014C106D466B
:103BD00013D777002302E10213D76740058BA302B6
:103BE000E10213D75740058B2303E10213D7474067
:103BF000BD8B2304F1028347A101058BA303E102DE
:103C000013D7670093F7F7032305F1028347B10148
:103C1000A304E102228513D74700BD8B2306F102DE
:103C20008347C101A305E10213D74700BD8B2307DA
:103C3000F1028347E101A306E10213D777002308CD
:103C4000E10213D76740058BA308E10213D7574061
:103C5000058B2309E10213D74740BD8B230AF102EC
:103C60008347F101058BA309E10213D7670093F79E
:103C7000F703230BF10283470102A30AE10213D7E2
:103C80004700BD8B230CF10283471102A30BE10215
:103C900013D74700BD8B230DF10283472102A30CEC
:103CA000E10213F777009187A307E1029D8BA30D33
:103CB000F1028347D1018346810113D717401D8B41
:103CC000858B230EE102A30EF102230FD102EF3008
:103CD0007049228521616FC00FF3EFC20FEEAA84F5
:103CE000AE89328593050000328BEF30206A63473E
:103CF0000514B7A7000003A447325A85A285EF3008
:103D000080606340A014EFF07FDDB7A7000003AA36
:103D1000873283AAC7324E840149930BF003054DC5
:103D200068203104EF30701EEF30102B2A86AE86EB
:103D30005285D685EF20B0382A8C5A85AE8CEF306C
:103D4000B0292A86AE866285E685EF20C06BEF300B
:103D5000E02A834664FF034644FF034754FF83453C
:103D600084FFB337D0003336C000834674FFBD896B
:103D70001E063337E0002E961A0732979607B336A1
:103D8000D000BA979206BE963385AB40137CF50FF0
:103D900093F6F60F4A86A68513050002EFF03FD989
:103DA000834694FF137CFC034A869A06E29693F6B8
:103DB000F60FA68513050004EFF07FD78346B4FF06
:103DC0008347C4FF4A869206BD8BBE9693F6F60FD4
:103DD000A68513050006EFF09FD58346D4FF8347E1
:103DE000E4FF4A869206BD8BBE9693F6F60FA68533
:103DF00013050008EFF0BFD38346F4FF4A86A6857B
:103E00009D8A1305000EEFF09FD2631EA903A685BD
:103E10001305000CEFF0DFBF03C689014199A685A9
:103E20000606398A498E03C599012A961376F60F3C
:103E30001305000CEFF05FCC6FC0AFDB130B00007D
:103E4000D9B5228BC9B50549E1BDEFC2EFD7011144
:103E5000EFF03F9C37250140C14513050580EFF089
:103E60009FABA9659385452D0A85EFF07FD3B724D5
:103E700000206D468A851385C494EF30B02EB7A715
:103E8000000083AA4732B7290020372900200144C7
:103E90009389099913094998254AB3878900238092
:103EA0000700B3078900238007006D469385C494FB
:103EB0000A85EF30302B1375F40F56868A8505047A
:103EC000EFF0BFE1E31B44FD05616FC02FD3EFC2EC
:103ED0004FD12E86AA8513050006EFF03FBA118553
:103EE0001375F50F6FC02FD2EFC2AFCFAA842E8902
:103EF00032842E86AA8513050006EFF03FB83D896F
:103F000012042A949376F40F4A86A68513050006B8
:103F1000EFF0FFC16FC02FCFEFC2AFCC2E86AA85C6
:103F200013050006EFF09FB53D896FC0CFCDEFC2FE
:103F30004FCBAA842E8932842E86AA8513050006CB
:103F4000EFF0DFB33D889376050FC18E4A86A685D4
:103F500013050006EFF0BFBD6FC0EFCAEFC26FC818
:103F60002E86AA8513050008EFF05FB11185137541
:103F7000F50F6FC04FC9EFC2CFC6AA842E89328415
:103F80002E86AA8513050008EFF05FAF3D89120465
:103F90002A949376F40F4A86A68513050008EFF05D
:103FA0001FB96FC04FC6EFC2CFC32E86AA851305B7
:103FB0000008EFF0BFAC3D896FC0EFC4EFC26FC225
:103FC000AA842E8932842E86AA8513050008EFF074
:103FD000FFAA3D889376050FC18E4A86A6851305F4
:103FE0000008EFF0DFB46FC00FC2EFC28FBF2A84AA
:103FF000AE84AA851305000BEFF09FA193D7840030
:104000008D8B1376C50F5D8EA2851305000BEFF027
:10401000BFAE13F6F40FA2851305000AEFF0DFAD73
:104020006FC06FBEEFC2EFBBAA842E84AA851305B2
:10403000000BEFF0FF9D0A0471881376350E418E58
:10404000A6851305000BEFF03FAB6FC0CFBBEFC2EF
:104050004FB9AA851305000BEFF09F9B15810589C9
:104060006FC06FBAEFC2EFB72E84AA84AA8513057A
:10407000000BEFF0FF99B33580001375F50D960531
:104080003386A5001376F60FA6851305000BEFF017
:10409000BFA66FC04FB7EFC2CFB4AA842E893284B7
:1040A000EFF0FFFA09C581452685EFF0BFFB9D477C
:1040B0009375F90F63F327019D452685EFF09FF671
:1040C00031463374C40229661306062E26850A0477
:1040D000229683150600EFF05FF185452685EFF007
:1040E0007FF86FC04FB237270020B72600202A86FE
:1040F00081471307479893860699A548B305F700AB
:1041000003C8050013F5F70F631F08023388F60094
:104110000343080063190302EFC2AFAC85479CA1BB
:104120009387318F98232300C800050798A3B147D0
:10413000B355F6023376F602F91593F5F50FEFF065
:104140009FF56FC04FAC8507E39A17FB8280EFC2E3
:104150004FA937270020B7260020A147130747980B
:10416000938606993306F7000C2295C5B385F600B1
:1041700003C805006311A8023E8523800500814520
:1041800023000600EFF01FEE9387318F98237D17F1
:1041900098A36FC04FA7FD1793F7F70FE1B7EFC2D2
:1041A0004FA437150140A14513050580EF10305C81
:1041B0006FC06FA5EFC2EFA24111854511453714BD
:1041C000014002C202C402C6EF10507A8D44414938
:1041D000930700104C00130504807C8226C44AC655
:1041E000EF10104CA1474C00130504807C8226C4BC
:1041F0004AC6EF10F04A4C00130504802312210137
:1042000026C44AC6EF10D04991474C0013050480DC
:104210007C8226C44AC6EF10B04893070002614969
:104220004C00130504807C824AC626C4EF10504718
:10423000930700047C824C009147130504803EC61E
:10424000EF101046930700084C00130504807C8291
:104250004AC626C4EF10D04441016FC0CF9AEFC2C6
:104260004F9801118545056502C602C802CA02CCF5
:10427000231E0100EF10906FB70704013EC6B70779
:1042800000023ECAC1473ECC6C009D473735014015
:10429000FC8602C8EF103073854537350140EF10BA
:1042A000707605616FC02F96EFC2AF932E89B284EE
:1042B000014493170401C18363E497006FC0AF9476
:1042C000894537350140EF10D0757DD9B307890096
:1042D0008C2337350140EF109074A9470100FD177A
:1042E000C207C183E5FF0504E9B7EFC28F8F411113
:1042F000C88737150140C14513050580EF103047C9
:1043000083D6418F9305F10005461385618FEFF049
:10431000BFF941016FC02F8FEFC2AF8C41112A84CA
:10432000371501402EC613050580C145EF10F04337
:10433000324683D6418FA2851385618FEFF0DFF679
:1043400041016FC04F8CEFC2CF890111AA841305C0
:10435000A00236C42E8432C6EFF03FF9324693975E
:104360008400A180DD8C9317860021825D8E9145AB
:104370006808F087E486EFF03FFA1305B002EFF02B
:10438000DFF6A2469317840021805D8C9397860008
:10439000A182DD8E91456808F487E086EFF0DFF7B3
:1043A0001305C002EFF07FF405616FC0CF85EFC247
:1043B000CF803284BA89011433043403368913065A
:1043C000F9FF9306F7FFAE962A96C2064206011140
:1043D000C18241823EC642C446C2EFF0DFF6924837
:1043E0002248B247939A8800131B8800060493D88A
:1043F0008800135888003E94014AB3EA1A01336BCF
:104400000B0163653A0105616FB0BFFE835B040079
:10441000814463E52401050A0904E5B7B3979B00CD
:1044200013970701635A0700231E61018945680835
:10443000EFF09FEE8504F1BF231E5101C5BFEFB21F
:104440005FFA37150140A14513050580EF10F031E3
:104450006FB07FFBEFB25FF7368493070014B306AB
:10446000C5000111B28463D7D70093040014898C6E
:10447000C204C180B38785009306000F63D7F6009E
:104480001304000F0D8C420441803AC62EC42AC288
:10449000EFF0FFD0A24512459386F5FF1306F5FF16
:1044A000A2962696C2064206C1824182EFF0BFE97B
:1044B000324737150140C1459317870021835D8F2F
:1044C00013050580F886EF10502A05E8EFF03FF756
:1044D00005616FB0BFF283D6418F7D1909466C0824
:1044E0001385618F4209EFF03FDC13590901E31492
:1044F00009FE7D1442044180C9BF2689CDBFEFB2B9
:104500005FEE37150140914513050580EF10302609
:104510006FB07FEFEFB2FFEC371501409145130507
:104520000580EF1090246FB01FEEEFB29FEB4111AA
:10453000EFF0FFC637140140930500101305048007
:10454000EF10F0221545EFD0CFBC930500101305F6
:104550000480EF1090210545EFF03FD91305803E10
:10456000EFD02FBB1305F00CEFF03FD803D701833A
:1045700093870183BC238D450A8578805C81EFF0A9
:10458000BFD91305D00EEFF05FD683A741839145C5
:104590000A853EC0EFF05FD81305800EEFF0FFD420
:1045A00003D7818393878183BC238D450A857880D7
:1045B0005C81EFF07FD61305B00CEFF01FD303A79B
:1045C000C1839387C183DC2395450A853AC05C8209
:1045D000EFF09FD41305700FEFF03FD19307000267
:1045E00085450A855C80EFF03FD31305A00EEFF000
:1045F000DFCF89450A8523100100EFF0FFD11305B5
:10460000000CEFF09FCEC54785450A855C80EFF032
:10461000BFD01305100CEFF05FCD054485450A852A
:104620004080EFF07FCF1305500CEFF01FCC8D676B
:104630009387070389450A857C80EFF0FFCD13053A
:10464000700CEFF09FCA930770FB85450A855C806C
:10465000EFF09FCC13056003EFF03FC99307800490
:1046600085450A855C80EFF03FCB1305A003EFF092
:10467000DFC79307500585450A855C80EFF0DFC9E9
:104680001305100BEFF07FC6896793870780894574
:104690000A857C80EFF05FC81305600BEFF0FFC464
:1046A00003D7418493874184BC238D450A85788054
:1046B0005C81EFF07FC61305200FEFF01FC3854527
:1046C0000A8523000100EFF03FC513056002EFF0FB
:1046D000DFC185450A854080EFF01FC41305000E39
:1046E000EFF0BFC0A565138405E43D46938505E45E
:1046F0000A85EF302027BD450A85EFF0FFC113057D
:10470000100EEFF09FBE3D46930504010A85EF3081
:104710006025BD450A85EFF03FC04545EFF0FFBC81
:1047200013058007EFD0EF9E13059002EFF0FFBB5B
:1047300013056003EFF07FBB930780020A85854570
:104740005C80EFF07FBDEFF09FCF41016FB0BFCB3A
:10475000EFB2BFC6411193D986002A892E84B28454
:104760003AC6BE8A428B13FAF60F93F9F90FEFF0AF
:104770001FA3A94B130CF013930CF00E130D0002A2
:104780008387040091E7EFF09FCB41016FB07FC6B4
:10479000639777014E944204418085040149038662
:1047A000040075D2B3074901635EFC004E944204D5
:1047B0004180B3073401E3C8FCFC01496314A6013E
:1047C00085047DBFB2474A855299DA8856884E875C
:1047D000D286A2854209EFF09FBD13590901CDB7DA
:1047E000EFB2BFBD4111AE8A93D986002A843289C7
:1047F0003AC63E8BC28B13FAF60F93F9F90FEFF01E
:104800001F9AD684A94C130CF00E130D00028307D7
:10481000090091E7EFF0BFC241016FB09FBD639700
:1048200097015294420441800509D6840306090089
:1048300075D2B3873441635EFC00529442044180D8
:10484000B3074401E348FCFCD6846314A6010509C0
:104850007DBFB247A685B3843441DE885A884E872F
:10486000D2862285C204EFF09FB4C180CDB79307F2
:10487000F01363ECA7009307F00E63E8B700EFB204
:104880005FB6EFF03FBD6FB01FB88280EFB27FB56B
:104890002A879306000F1306001481450145EFF0A7
:1048A0007FBB6FB05FB6EFB2DFB32E86AA8537C588
:1048B000000013058580EFC08FF36FB0DFB4EFB257
:1048C0005FB2AA8537B500001305857FEFC02FF2D0
:1048D0006FB07FB3EFB2FFB0797185453705040043
:1048E00002C602C802CA02CC02CE02D002D202D450
:1048F00002D6EF10900985452145EF103007930748
:104900000040FC82371401408D473ECC4C08E14703
:10491000130504C03ECEEF10A0588567938707802B
:10492000FC824C0893078004130504C03ECEEF10B0
:104930002057A16737540040938727A105463ED0F2
:1049400093055052B7070C00130504803ED402D2E1
:1049500023160102EF10B01A930770237C86894753
:104960005C87680085473EC8EF1060640C10130533
:104970000480EF10B00B854513050480EF10D016AE
:10498000B75700009387678A23AEF18EB7570000B0
:104990009387E78B23ACF18E45616FB0DFA61316CA
:1049A00085016186138701819387019093863190F9
:1049B000635C060413060009630AC5001306000DB4
:1049C0006302C504130600086314C5000D4610A356
:1049D000054688A390A29422182363E5E604EFB26B
:1049E0005FA09823930600086309D7029306000985
:1049F0006318D700AC23883389CD83A7C18F8297F2
:104A00006FB07FA00946E1B790223E96A30FA6FEA5
:104A1000D9B783A7818F8297E5B703A7818F8833A2
:104A20000297F9BF8280411122C637540040930596
:104A3000000213050480EF10F01011CD130504805F
:104A4000EF10D00F1375F50FEFF07FF593873190CE
:104A50009823050798A33244410173002030EFB238
:104A60005F9879711306000281450808EFB07F9ABC
:104A70008545114502C202C402C6EF10206F85456C
:104A800013050020EF10806E3165EF10A05C371524
:104A9000014089474C0013050580372401407C8282
:104AA00002C6EF10E03F13050440EF10A005B70762
:104AB0000E003ECE0C088547130504402302F10288
:104AC00002C802CA02CC02D0EF10C0079D460546BC
:104AD000854513050440EF10201285451305044059
:104AE000EF106010854513050440EF10000B814561
:104AF00013050440EF10E01C13050440EF10E00A1A
:104B0000930404402685EF10E00A6DFD1305044070
:104B100037240140EF10800A930404402685EF10EB
:104B2000800A6DFD13050440EF10201B2392A19015
:104B3000854513050440EF10C01845616FB0BF8C68
:104B400083974190AA9763CD070085661387F6FF88
:104B500063DAD7006309E50013950701418182807C
:104B6000014582803A858280EFB2BF8737240140B9
:104B7000AA859D46054613050440EF10E0078545CC
:104B800013050440EF10A0049304044089452685D2
:104B9000EF10801265DD13050440EF106011EFF097
:104BA0003FFA6FB05F86EFB2DF83411132C42EC689
:104BB000EF20B035B2452A842E85EF201035AA8526
:104BC0002285EF20604922462A843285EF20F03387
:104BD000AA852285EF205004EF20102D41016FB0EF
:104BE0009F82EFB21F8037C5000013058582EFC09A
:104BF0000FC06FB05F81EFB2CFFE138441810840D8
:104C000093050002EF1060360840A145EF102036F2
:104C10000840C145EF10A0350545EFF0FFF42391A2
:104C2000A1920840A145EF1080340840C145EF1023
:104C3000C0330545EFF05FF32393A1920840A145EF
:104C4000EF10A0320840C145EF1020320545EFF0CB
:104C5000BFF12395A1920840A145EF100031084013
:104C6000C145EF10C0300545EFF01FF02397A1922A
:104C70006FB06FF9EFB2EFF64111854513050002F1
:104C80001384418102C202C402C6EF10204E0840C4
:104C90008944A14741494C007C8226C44AC6EF1092
:104CA0002020854513050002EF10404C08404C00C1
:104CB0002312210126C44AC6EF10801E8545130524
:104CC0000002EF10A04A0840930700024C007C82CB
:104CD00026C44AC6EF10C01C854513050002EF101C
:104CE000E0480840130980044C00648226C44AC688
:104CF000EF10001B854513050002EF102047084008
:104D00004C0091477C8226C44AC6EF106019B75701
:104D10000000938727BE23A8F19023AAF19023AC2B
:104D2000F19023AEF19023A4F19023A6F190EFF03F
:104D30009FEC03D721922390E19203D761922392B3
:104D4000E19203D7A1922394E19203D7E1922396B3
:104D5000E19241016FB02FEBEFB2AFE813844181D4
:104D600008408945EF10C01F238CA1800840914561
:104D7000EF10001F238DA1806FB0EFE8EFB2CFE4FA
:104D8000EFF07FE783D5219283D601926546938425
:104D900021923385D540138401926345A6008D8E00
:104DA0006357D60083A7019182979E201EA083D5CA
:104DB000619283D641926546938461923385D54052
:104DC000138441926345A6008D8E6357D60083A756
:104DD000419182979E201EA083D5A19283D6819275
:104DE00065469384A1923385D540138481926345AF
:104DF000A6008D8E6357D60083A7819182979E204F
:104E00001EA083D5E19283D6C19265469384E19238
:104E10003385D5401384C1926345A6008D8E6357B8
:104E2000D60083A7C19182979E201EA0EFF0DFF2EB
:104E300083C6918105479389918113898181639804
:104E4000E6008347090081E783A78190829783C6A4
:104E5000B18105471384B1819384A1816397E600F2
:104E60009C2081E783A7C190829783470900238014
:104E7000F9009C201CA06FB06FD88280EFB2EFD3F6
:104E80000111AA892E8A3285B6854146B684EFF093
:104E90009FD17800AA8B9375F50F8147BA8A1306C4
:104EA0008007C146850710A393F7F70F6385D700E6
:104EB0000507E3F9F5FE370400201810BA97130729
:104EC00084321033238607FE83478432C546B306F7
:104ED000D6020D463385F9404205D285418101470E
:104EE000130984323386C702EFF07F988947034560
:104EF0008432834519006383F40C3385A940131B66
:104F0000050113F5FB0F9394450029462C00050578
:104F1000EF20D022D294C204832684320327490092
:104F2000135B0B01C1802A86130860598147A6854F
:104F30005A85EFF0FF8183451900BD440345843253
:104F4000B385950283268432032749003385A9401F
:104F5000420556860148930760594181D295C205A2
:104F6000C181EFF0FF878345190083268432032730
:104F70004900B385950256864E85014893076059CE
:104F8000D295C205C181EFF0BF8583451900034565
:104F9000843283268432B38595024E9503274900D7
:104FA000420501489307605956864181D295C20552
:104FB000C181EFF0FF8205616FB0AFC39205D2955A
:104FC0003385A94037C60000C20542051308605961
:104FD0008147832684320327490013064684C18112
:104FE000418181BFB7270020375700009387879FF3
:104FF0001307A7E798C3D8C398C7D8C798CBD8CB0F
:1050000098CFD8CF98D3D8D398D7D8D798DBD8DB38
:1050100098DFD8DF828073110134EFB0DF9137C59C
:10502000000013058585EFB09FFCEFB09F937311CF
:1050300001347300203073110134EFB0DF8F37C5B6
:1050400000001305C584EFB09FFAEFB09F91731174
:10505000013473002030EFB2CFB8370900201304B9
:105060008932043081450145EFE07FE693842403D3
:1050700013160501A685C146418213058002EFF093
:10508000FFDF1C3093052003832689329D8D584015
:1050900037C60000C20501489307601713068686CD
:1050A000C1810145EFF0CFEA6FB0EFB5EFB26FB35A
:1050B0003709002013048932043085450145EFE0AB
:1050C0001FE19384240313160501A685C14641827E
:1050D00013058002EFF09FDA1C309305200383262E
:1050E00089329D8D584037C60000C205014893079C
:1050F000601713068689C1810145EFF06FE56FB037
:105100008FB0EFB20FAE03D5219241468565EFF027
:105110009FA91379F50F0144A544228505044A8609
:1051200081451374F40FEFE03FDCE31894FEEFF0D9
:105130009FF26FB04FADEFB2CFAA03D52192414697
:105140008565EFF05FA61379F50F0144A54422852C
:1051500005044A8685451374F40FEFE0FFD8E31881
:1051600094FEEFF0BFF46FB00FAAEFB28FA737092C
:10517000002013048932043081450145EFE0DFD976
:105180009384240313160501A685C14641821305A5
:105190008007EFF0BFCE1C309305200383268932B1
:1051A0009D8D584037C60000C2050148930760171F
:1051B00013064687C18113050005EFF06FD96FB064
:1051C0008FA4EFB20FA237090020130489320430F4
:1051D00085450145EFE05FD4938424031316050150
:1051E000A685C146418213058007EFF03FC91C30F8
:1051F00093052003832689329D8D584037C60000D1
:10520000C2050148930760171306468AC18113053A
:105210000005EFF0EFD36FB00F9FEFB28F9C03D577
:10522000619241468565EFF01F981379F50F0144AF
:10523000A544228505044A8681451374F40FEFE0E6
:105240001FCFE31894FEEFF05FF26FB0CF9BEFB289
:105250004F9903D5619241468565EFF0DF9413794C
:10526000F50F0144A544228505044A86854513743B
:10527000F40FEFE0DFCBE31894FEEFF09FF46FB094
:105280008F98EFB20F96370900201304893204304B
:1052900081450145EFE09FCC93842403131605015B
:1052A000A685C14641821305800CEFF03FBD1C303E
:1052B00093052003832689329D8D584037C6000010
:1052C000C2050148930760171306C688C1811305FC
:1052D000000AEFF0EFC76FB00F93EFB28F9037096E
:1052E000002013048932043085450145EFE01FC7D3
:1052F0009384240313160501A685C1464182130534
:10530000800CEFF0BFB71C30930520038326893251
:105310009D8D584037C60000C205014893076017AD
:105320001306C68BC1811305000AEFF06FC26FB080
:105330008F8DEFB20F8B03D5A19241468565EFF0BB
:105340009F861379F50F0144A544228505044A86FA
:1053500081451374F40FEFE01FC2E31894FEEFF0E1
:105360005FF26FB04F8AEFB2CF8703D5A19241466B
:105370008565EFF05F831379F50F0144A54422851D
:1053800005044A8685451374F40FEFE0DFBEE31889
:1053900094FEEFF09FF46FB00F87EFB28F84370960
:1053A000002013048932043081450145EFE0BFBF7E
:1053B0009384240313160501A685C1464182130573
:1053C0008011EFF0BFAB1C30930520038326893298
:1053D0009D8D584037C60000C205014893076017ED
:1053E00013060688C1811305000FEFF06FB66FB08A
:1053F0008F81EFA21FFF3709002013048932043088
:1054000085450145EFE03FBA938424031316050157
:10541000A685C146418213058011EFF03FA61C30DE
:1054200093052003832689329D8D584037C600009E
:10543000C2050148930760171306068BC181130547
:10544000000FEFF0EFB06FA01FFCEFA29FF903D5A4
:10545000E19241468565EFF00FF51379F50F0144B0
:10546000A544228505044A8681451374F40FEFE0B4
:10547000FFB4E31894FEEFF05FF26FA0DFF8EFA245
:105480005FF603D5E19241468565EFF0CFF11379E0
:10549000F50F0144A544228505044A868545137409
:1054A000F40FEFE0BFB1E31894FEEFF09FF46FA0AC
:1054B0009FF5EFA21FF303C70193854709C7930721
:1054C000F7FF93F7F70FB72400202388F192938416
:1054D000849F9607A697944323A8D190D44323AAE8
:1054E000D190944723ACD190D44723AED1909C4B1C
:1054F000829783C701939607A697DC4B829783C751
:1055000001939607A6979C4F829783C701939607AE
:10551000BE94DC4C829783C5019337C50000130508
:10552000858CEFB0DFAC6FA01FEEEFA29FEB03C73F
:105530000193854681476306D7009307170093F7C9
:10554000F70FB72400202388F1929384849F960755
:10555000A697944323A8D190D44323AAD1909447EB
:1055600023ACD190D44723AED1909C4B829783C774
:1055700001939607A697DC4B829783C70193960702
:10558000A6979C4F829783C701939607BE94DC4CE5
:10559000829783C5019337C500001305858CEFB052
:1055A0001FA56FA05FE6EFA2DFE3C84141112EC641
:1055B000EF202034B2452A848845EF20803393754C
:1055C000F50F1375F40FEFE0EFCC41016FA0BFE3CF
:1055D000EFA23FE137250140C14513050580EFE00B
:1055E0008FB3854513050002EFE0CFCAC14513050F
:1055F0000004EFE02FCA9305000F13050006EFE04B
:105600006FC99305700713050008EFE0AFC8930555
:1056100080091305000AEFE0EFC785451305300246
:10562000EFE04FC7814513053004EFE0AFC69305A7
:10563000000F13053006EFE0EFC593057007130563
:105640003008EFE02FC5930510031305000BEFE0C2
:105650006FC46FA05FDBEFA2DFD8EFF0CFD983D5A7
:10566000219237C5000013058591EF20C03A83D5FC
:10567000619237C5000013050593EF20C03983D52B
:10568000A19237C5000013058594EF20C03883D55B
:10569000E19237C5000013050596EF20C0376FA0D3
:1056A0009FD6EFA21FD483C5818137C500001305A3
:1056B000458EEF20403683C5A18137C50000130514
:1056C000C58FEF2040356FA01FD4EFA29FD1EFF020
:1056D0007F9137270020B75700001304879F9387D7
:1056E00067051CC8B757000093872710232CF79E27
:1056F000B75700009387A7165CC8B7570000938779
:10570000A7215CC0B7570000938727281CCCB75748
:105710000000938727331CC4B75700009387A7392D
:105720005CCCB75700009387A7445CC4B757000010
:105730009387C70A1CD8B7570000938767131CD0FC
:10574000B75700009387271C5CD8B7570000938792
:10575000E7245CD0B75700009387A72D1CDCB75710
:105760000000938767361CD4B75700009387273F04
:105770005CDCB75700009387E7475CD483C701938D
:105780009607A2979C4B829783C701939607A2978F
:10579000DC4B829783C701939607A2979C4F829711
:1057A00083C7019396073E945C4C82976FA0BFC558
:1057B000EFA23FC3EFF00FCCB75700009387274B02
:1057C00023A4F190B75700009387A75223A6F19026
:1057D0006FA07FC3EFA2FFC00145EFF02F8B37070B
:1057E00000208326073213070732584337C60000CC
:1057F0000148930760171306869781450145EFE03E
:105800003FF56FA05FC0EFA2DFBD0945EF00C07993
:1058100037C5000013054599EFB06FFD83A5C18121
:1058200037C500001305859AEFB06FFC37C500003F
:105830001305859BEFB0AFFBEFE0DF97EFE09FCD67
:10584000EFE0FFBFEFE0BFA1EFE03FCE0145EFF09B
:10585000EF83EFE0DFCAEFF0FFF7EFE00FDFEFF0ED
:10586000DFE6EFF0CF9FEFF0BFF4EFF0AF86B74782
:1058700000009387670E23AEF18EB7470000938731
:10588000E7143724002037560000B7C5000023ACCA
:10589000F18E130584A3894713074006814613063A
:1058A000C6D79385859CEFC04F90130584A3EFC0A6
:1058B0004F951305803EEFC0CF85E5BFB717024077
:1058C0009843B706FFF841111367170098C3D843F0
:1058D00037060200758FD8C39843B706F7FEFD164A
:1058E000758F98C39843B706FCFFFD16758F98C354
:1058F000D843B70681FFFD16758FD8C39843B70606
:1059000000ECFD16758F98C33707FF0098C723A6D4
:10591000070202C402C69843C166558F98C3B716E2
:10592000024005679C42F18F3EC6A24785073EC4F0
:10593000B24781E7A247E397E7FEB71702409C43CF
:105940001397E7006356070685473EC632478547EB
:10595000631EF704B7170240D843B706C1FFFD1610
:10596000D8C3D843D8C3D84313670740D8C3D84354
:10597000758FD8C3D843C166558FD8C39843B7062F
:105980000001558F98C3984393166700E3DD06FE28
:10599000D843B7160240719BD8C3D843136727007A
:1059A000D8C32147DC42B18BE39EE7FE41018280F0
:1059B00002C669BF01A001A001A001A001A001A031
:1059C00001A001A001A001A001A001A001A001A0CF
:1059D00001A001A001A001A001A001A001A001A0BF
:1059E00001A001A001A001A001A001A001A001A0AF
:1059F00001A001A001A001A001A001A001A001A09F
:105A000001A001A001A001A001A001A001A001A08E
:105A100001A001A001A001A001A001A001A001A07E
:105A200001A001A001A001A001A001A001A001A06E
:105A300001A001A001A001A001A001A001A001A05E
:105A400001A001A001A001A001A001A001A001A04E
:105A500001A001A001A001A001A001A001A001A03E
:105A600001A001A001A001A001A001A001A001A02E
:105A700001A07390123497B1FF1F9381A10A17A15F
:105A8000002013012158176500001305655F97A5D5
:105A9000FF1F938525571386818463FAC5008322EF
:105AA000050023A0550011059105E3EAC5FE138505
:105AB000818497C5FF1F938565FB6377B50023201D
:105AC00005001105E36DB5FEFD42739002BCFD4279
:105AD00073904280B78200009382028073A00230EC
