:100000006F30304F13000000130000001300000099
:100010001300000013000000130000001300000094
:100020001300000013000000130000001300000084
:08003000130000007300100032
:100038000000000000000000D8390000F839000076
:1000480000000000383C0000000000000000000034
:100058003A3C00003C3C00000000000000000000AA
:10006800CC2F000000000000D002000000000000BB
:10007800423C0000443C0000463C0000483C000074
:100088004A3C00004C3C0000C2330000EA33000048
:10009800123400003A34000062340000583C00007A
:1000A8005A3C00005C3C00005E3C0000603C0000E4
:1000B800623C0000643C0000663C0000683C0000B4
:1000C8006A3C00006C3C00006E3C00008A34000072
:1000D800723C0000743C0000763C0000783C000054
:1000E8007A3C00007C3C00007E3C0000803C000024
:1000F800823C0000843C0000863C0000883C0000F4
:100108008A3C0000B83700008E3C0000903C00009C
:1001180002350000943C0000963C0000983C00002A
:100128009A3C00009C3C00009E3C0000A03C000063
:10013800A23C0000A43C0000A63C0000A83C000033
:10014800AA3C0000AC3C0000AE3C0000B03C000003
:10015800B23C0000B43C0000B63C0000B83C0000D3
:10016800BA3C0000BC3C0000BE3C0000C03C0000A3
:10017800C23C0000C43C0000C63C0000C83C000073
:10018800CA3C0000CC3C0000CE3C0000D03C000043
:10019800D23C0000D43C0000D63C0000D83C000013
:1001A800DA3C0000DC3C0000DE3C0000E03C0000E3
:1001B800E23C0000E43C0000E63C0000E83C0000B3
:1001C800EA3C0000EC3C0000EE3C0000F03C000083
:1001D8000000000000000000000000000000000017
:1001E8000000000000000000000000000000000007
:0801F8000000000000000000FF
:1002000097020120938202E0938202E0739002340D
:1002100003210500224573100530B1A81971232070
:10022000250006C006C216CAF322003093F28200EF
:10023000638402009302000816C412C81ACC1ECEB2
:1002400022D026D22AD42ED632D836DA3ADC3EDE76
:10025000C2C0C6C2CAC4CEC6D2C8D6CADACCDECEE6
:10026000E2D0E6D2EAD4EED6F2D8F6DAFADCFEDE56
:1002700003A1050009A0024573101534924037858B
:1002800000001305058073200530224573200530DA
:100290004242D2426243F243025492542255B25532
:1002A0004256D2566257F257064896482649B649F2
:1002B000464AD64A664BF64B065C965C265DB65DB2
:1002C000465ED65E665FF65F09617300203000000F
:1002D000197116CA9302000816C49302000273A093
:1002E000428006C212C81ACC1ECE22D026D22AD4F0
:1002F0002ED632D836DA3ADC3EDEC2C0C6C2CAC416
:10030000CEC6D2C8D6CADACCDECEE2D0E6D2EAD4A5
:10031000EED6F2D8F6DAFADCFEDE73110134EF0025
:100320008061EF103009EF00C06373110134138452
:10033000818A032904006304090223200400732531
:1003400010342AC01384018A044023A0240013849B
:10035000418A044003A10400024573101534924001
:10036000B78200009382028073A00230A24273A081
:1003700002304242D2426243F24302549254225526
:10038000B2554256D2566257F25706489648264909
:10039000B649464AD64A664BF64B065C965C265DE5
:1003A000B65D465ED65E665FF65F0961730020301B
:1003B0000000397101436EC619A0397141536AC8F2
:1003C00066CA62CC5ECE19A0397101535AD056D29A
:1003D00052D44ED64AD826DA22DC06DE33016140FA
:1003E000828241114AC026C222C406C68282B24D10
:1003F0004101024D924C224CB24B4101024B924AB8
:10040000224AB2494101024992442244B240410188
:1004100082803D432A876373C3029377F700BDEF61
:10042000ADE5937606FF3D8ABA960CC34CC30CC764
:100430004CC74107E36BD7FE11E28280B306C3408D
:100440008A069702000096966780A6002307B700E9
:10045000A306B7002306B700A305B7002305B7001E
:10046000A304B7002304B700A303B7002303B70016
:10047000A302B7002302B700A301B7002301B7000E
:10048000A300B7002300B700828093F5F50F939681
:100490008500D58D93960501D58D61B7939627007C
:1004A0009702000096968682E78086FA9680C117AA
:1004B0001D8F3E96E374C3F8A5B703A581818280A2
:1004C000EFF23FF2938781819843050798C3EF10BD
:1004D000C0313C45FD173CC589E77C413CC5EF1068
:1004E0008035EF10806005B7634205029307803EB8
:1004F0003347F5023365F5023305F5021305753E02
:100500003345F5023307F7023A9582807D558280A4
:1005100001458280014582800145828001458280BB
:10052000EFF23FEC2164A164130444B8938404B94E
:1005300063639400C9BD1C4011048297D5BFEFF2DC
:100540005FEA2164A164130404B9938484B96363EA
:10055000940055BD1C4011048297D5BFEFF27FE88F
:10056000F93FEF30C05145B5EFF2BFE7B7050000E6
:1005700037650000D1471547930600200146938553
:10058000C55513050528EF10A026EF10203EA5BD88
:10059000EFF23FE5EF10E062EF20F01BEF00B02B31
:1005A000EF10205CEF005078C137EF10205C012C79
:1005B000EF00707A014581BDEFF2BFE2D13F014506
:1005C00099B5EFF27FE0AA89EF10202219C1EF1050
:1005D000800A2545EF00F06044411304450063960E
:1005E0008400EF108020014911A8138944FF21469F
:1005F000CE854A851D2D01E9EF10201F19C1EF108E
:10060000E0084A85E5BB8440D9BF09E57D55828075
:100610007D55D5BBEFF2FFDC2A842E853289AE846E
:100620004D377DF522852686A545EF00305E0145D4
:10063000231C2401230E0400231D0400D9BFEFF264
:100640005FDA1E2D41112A84C18B9DE71C558DC395
:100650002EC68297AA84B24501CD2A86376500004E
:10066000A28513058528EF0090182685410161BBFE
:100670001E2C93E707011EAC1E2CA18B89C73E2CB4
:10068000E554A18BFDF35C5489CF22858297AA841F
:1006900005E13E2C93E787003EAC5C2C85075CAC03
:1006A000E9B785679387F7F0FD8D2EAC8144D5B708
:1006B000E957E31CF5FAF1BF5C2D85CBEFF27FD251
:1006C000FD1793F7F70F5CAD2A84014789EF1C599A
:1006D00089E70147231D040039A082972A8775D92D
:1006E000E957E309F5FE3A8539BB7D573A858280A3
:1006F000EFF23FCF582D09E77D552129014521A073
:100700005C5999C3829701B36955C5BFEFF27FCD9C
:10071000582D09E77D55F52E014521A01C5D99C393
:100720008297D5B16955C5BF0CD101458280EFF2E2
:10073000BFC993894187854A83A741876386370567
:10074000EF10204883A741872A8A638D370303A4CB
:1007500041875C4018401309C4FE5CC398C340C085
:1007600000C0EF0050717C5099C34A8582974A853A
:10077000EF00105B631B55014A85EF00104FEF003F
:10078000F0705285EF10A04495B9EF00307052859B
:10079000EF10E0434848EF00303A4A85EF0030550B
:1007A00061BFEFF21FC413844195130904011C407B
:1007B00091C382971104E31C24FF953FEDB7EFF23C
:1007C0005FC237060000B7650000930800023D488D
:1007D000930700201387419681461306267A938556
:1007E000052C1385418DEF00307D1385418DEF1071
:1007F000E01711B9EFF2FFBE41112A842E8532C6EF
:100800002EC4EF1060083246A24519C68547630D15
:10081000F60001454101C5BE5840938745011CC300
:1008200098CD5CC0C0C9F5B71C406388870083C6FB
:10083000550303C7170263FAE600D4431387450143
:1008400098C294CDD8C3DCC9E9B79C43F9BFEFF295
:100850005FB94111B2842E8689452A8436C6EF00DD
:10086000F03AB246930744011CCC5CC846AC14B4C1
:100870000145410149BEEFF23FB583A70186411111
:100880002EC62A8491C38297EF10A0335E2CAA89CA
:1008900089CFFD175EACEF10803383A7C18501457A
:1008A00091CB22858297014531A0B24791E7EF10A5
:1008B00000327955410199B6EF00307323280502C3
:1008C0001034AA85AA84130544012D37B247635C0E
:1008D000F0001389C404700081454A85EF10601D43
:1008E0004A85EF1000124E85EF10602EEF00704920
:1008F000885845D5C1B7EFF2DFAE83A781852A843A
:1009000091C38297EF10E02BAA84484893074401D3
:10091000630EF5003115EF10A00005442685EF1099
:10092000002B19C0EF00F0450145F1BC5E2C850796
:100930005EAC0144E5B7EFF2DFAA4111EF10602889
:10094000138741821C23850793F7F70F1CA383A706
:10095000C18181C72AC682973245EF1040274101E5
:100960005DB4EFF21FA84111EF10A025138741825B
:100970001C23FD1793F7F70F1CA383A7018281C7E0
:100980002AC682973245EF1080244101ADBC03C5D1
:1009900041828280937808044111639E080099681F
:1009A0009388C84693730801638B03001378E8FFAC
:1009B000930E000219A899689388883CE5B71373D1
:1009C0001800930E0003E30503FE13732800630E63
:1009D0000306635806023306C0409302D0020A8E13
:1009E000814F294F6395E6073373D6023356D602FB
:1009F000469303430300850F050EA30F6EFE7DF2A1
:100A00000DA0137348009302B002631703009372A2
:100A10008800B3325000960279F2930600035480A6
:100A2000854FFE8663D3FF00BE8613781801158FAD
:100A300063130804638502006353E0007D172A8670
:100A4000B308E5001303000221A88142F1B7137334
:100A5000F600118271BF6374B600230066000506BC
:100A60003388C840E34900FF3A86635307000146D4
:100A70007D173295118F638802006374B5002300DF
:100A800055007D17050563870302AA961308000326
:100A90001DA86374B6002300D60105063388C8403C
:100AA000E34900FF3A866353070001467D173295FC
:100AB000118FE1BF2A86B308E500CDB76374B50096
:100AC0002300050105053386A640E3C9CFFEFD5688
:100AD000FD1F6383DF0099E7AA873306E50013084B
:100AE000000231A86376B5003306F101102210A18F
:100AF0000505F9BF63F4B700238007018507B30636
:100B0000F640E349D0FE6353070001473A9541019F
:100B10008280EFF21F8D2A849D3D09C523A4818226
:100B20006FF07F8EEF00704C75D900D9D5BF0D479F
:100B3000AA876376C7009377350091C7AA873E9648
:100B40006397C706828093F7F50F13978700D98FB5
:100B5000139707015D8FB308C500AA87BD46338888
:100B6000F84063EB060393574600C156B386D7029D
:100B70009207AA970D4836963383C700BE86B308FE
:100B8000D3406362180313572600F156B306D70209
:100B90000A07BA97369665B798C3D8C398C7C107EE
:100BA00023AEE7FE6DBF910623AEE6FEC9BF850703
:100BB000A38FB7FE71B763F2A504B386C500637E49
:100BC000D5029345F6FF8147FD176393F5008280B8
:100BD0003387F600030807003387C7002A972300EE
:100BE0000701DDB73387F500830607003307F500FB
:100BF000850714A3E318F6FE82808147E5BF0DC682
:100C0000AA8785050387F5FF85079306F6FFA38F5F
:100C1000E7FE09EB3E9685076393C7008280A38FAA
:100C200007FED5BF3686F1FE828001476314E600D9
:100C3000814739A8B307E50083860700B387E5003D
:100C40009C23B387F640E207E18799E30507F9FEA5
:100C50003E858280AA870387070001E73385A74086
:100C600082808507CDBFEFF24FF52E89B30B2501AA
:100C700041112A8CB68563F5AB001349F5FFFD5B86
:100C8000C169376A00006284930AB002130B000244
:100C9000FD19130A4A4631A8130750026389E70277
:100CA000637374011CA013051400B284138614002E
:100CB0002A8483070600EDF363060900637B742F23
:100CC000230004003305844141016FF08FF2014895
:100CD0001307D002930630021305000331A0639E70
:100CE00057011368480026868307160093041600F0
:100CF000E397E7FE13680801FDB763956701136882
:100D00008800D5B76395D70013680802E9BF6395DB
:100D1000A70013681800C1BF138707FDA54663E647
:100D2000E6040147A546294539A03307A7028504F3
:100D30003E97130707FD83870400138607FDE3F63C
:100D4000C6FE038604009306E002FD57631FD60427
:100D500083871400254693861400138507FD636579
:100D6000A60A8147254529433DA09306A0027D5749
:100D7000E399D7FC9841930426009105E35307FCBF
:100D80003307E040136808016DBFB387670285062B
:100D9000B297938707FD03860600930806FDE37666
:100DA00015FF63D307008147B684838604001306CA
:100DB0008006014593F8B6FF6395C80013F5F60F5A
:100DC000850403860400930690066303D60663C574
:100DD000C606930680056303D61C63C3C604930747
:100DE00050026307F61A63757401930750021CA042
:100DF00083870400130514006386071A6373750163
:100E00001CB0130524005DB51306A0026397C7004C
:100E10009C4193862400910569B7B684814771B7D8
:100E2000930630066302D60893064006E31DD6FA01
:100E300013682800A94699A0930630076303D60CCF
:100E400063C5C6029306F0066300D6169306000734
:100E5000E31BD6F8FD566315D70013681800214729
:100E6000938C4500C14690411DA893065007E303AB
:100E7000D6FC93088007C146E31716F71306C00691
:100E8000938C4500E301C5FE13068006E31DC5FCF7
:100E9000904193752800639B051033763601DE85FB
:100EA0002285CD3CE68519B5137808016315080243
:100EB000BA879306000229A06373740114A0050485
:100EC000FD17E34BF0FE9307F7FF6343E000054790
:100ED0003387E740050793874500637474019441A5
:100EE00014A013051400229713060002B306A740AE
:100EF0006344D000BE855DBB6373750110A1050519
:100F0000F5B783AC0500138D450063930C00D28CBC
:100F100066853EC63AC442C2353BB247AA861248ED
:100F200022476355F00063D3A700BE8613780801FB
:100F3000631E0800BA871306000231A063737401B0
:100F400010A00504BA877D17E3CAF6FE814763C186
:100F5000D702B68763D3060081473305F4002A978A
:100F600013060002B307A74063CFF600EA853DBB36
:100F70003306F40063777601B385FC0083850500B2
:100F80000CA28507E9B76373750110A10505D9BFE8
:100F90006373740110A01305140009BB13680804DF
:100FA000C146E9BDFD1419B3A146C9BD420641863B
:100FB000FDB5A38F0BFE39B303A5C1828280EFF28A
:100FC0004FC203A9C182EFF0CFDF11CD1384C182DC
:100FD000AA84084019C1EFF02FEE9305300426854E
:100FE000EFF0EFE504C04A856FF0EFC18280397100
:100FF00026CA2ED232D436D62A8654109305F0074C
:10100000138541B63EDA36C606CE22CC3AD842DC4B
:1010100046DE9139AA8603A5C18209E9138541B646
:10102000F137F2406244D244216182802686262D27
:101030001384C18293E704043EAD9307F00763F481
:10104000D7009306F007138641B68145EFF00FEC09
:101050001C40A6AFF9B7EFF2CFB837650000130513
:10106000C53D7137376500001305853E4937376741
:101070000000376500001307C7408D4605468D45C3
:1010800013058541AD373765000013058543853766
:101090006FF06FB731C599661377F50F9386862C7D
:1010A00009C7BA96882205058280C167938707F031
:1010B000E98F81CB21851377F50F36970823250516
:1010C0008280B707FF00E98F81CB41859377F50FC9
:1010D000B69788234505828061813695082165058C
:1010E000828003A741835C41BA976305F502B6236A
:1010F00095E283A60183638FF600938681839042F5
:101100006313F60088C2D44354C1DC43B306E54000
:10111000BA9794C71045B307C700630FF500B6230D
:1011200081EE938681838C426393A5009CC25441D7
:10113000D4C35C413E9710C78280EFF28FAA83A58B
:1011400001843765000013050548553583A5C18422
:101150003765000013054549593D83A5C1833765AF
:1011600000001305854A61356FF0EFA9EFF26FA714
:1011700013F7C5FFE1462E8663F1E60693073500B7
:10118000F19B930687FE63EAF6041D8F130687FE24
:1011900023A0C1848966511713844183938606EA8C
:1011A000D8C394C323A407001CC0BA9723A8F18214
:1011B000C966938606EAB765000094C3D8C398C78A
:1011C0008146054693850554138541BEEFF02FE80F
:1011D000184023ACE1826FF00FA3AA8537650000A9
:1011E000130585542935C5BFEFF2AF9F39C503A755
:1011F0000184130435007198138901848144636666
:10120000870EB1476373F4003144FD55138541BE29
:10121000EFF06FE683A7818383A5418383280900CC
:1012200026853386B740B3868840138881836368F8
:10123000D600138541BEEFF00FEC81447DA0B3844E
:10124000C500BA2003AE440061E73307CE40930FD8
:1012500047FF63EF8F0A138FC184938EC1831303FB
:10126000840183260F0083A30E001389C184938217
:10127000C18363EF6F061307C4003297896E33830F
:10128000E500938E0EEA2322C3012324C30023200A
:10129000D3010546D8C0B2A003264300B1086304B9
:1012A00016012E9618C61387C60022972320E90040
:1012B00063F4E30023A0E2000967130707EA9AA09A
:1012C000639A970083A601830147B22305EE19C3F1
:1012D0002320F800138541BEEFF0EFE183A781845E
:1012E000B10481C7A2852685829726856FF0AF91CC
:1012F00005463697B2A02320EF00E3FFE3FA23A0D0
:10130000EE005DBFE385D7FCDC430547AE9775BFB4
:10131000728631BFEFF2EF8C3306B5024111328590
:1013200032C6D9352A8409C532468145EFF03F805F
:10133000228541016FF02F8D45C5EFF2EF8883A71D
:1013400041842A8491C3829783A74183138941836F
:101350006366F40883A701836372F408FD5513855F
:1013600041BEEFF04FD1835764FF930944FF81CB17
:10137000035744FF8967938707EA6301F7023765DC
:1013800000001305454FA531835644FF035664FF03
:1013900037650000CE85130505519139896793871C
:1013A00007EA231AF4FE938781839843231B04FEE4
:1013B00063F4E90023A037011387C1841C4383260B
:1013C00084FF4E85958F83260900B386D940B69752
:1013D0001CC3013B138541BEEFF0EFD16FF00F82CC
:1013E0008280B70700209386070001479387070094
:1013F00021468C426396A500131547003E958280D6
:101400000507C106E317C7FE01458280EFE2DFFB57
:101410002A842E85AE89328AE9372A89A92C832429
:101420004900930749006390F4048D2493E909F877
:10143000230434012146D2852285EFF04FFC83A797
:10144000018599C322858297EF00A0770327490081
:101450009307C4005CC358C42322F90004C8EF00FA
:1014600000776FE0BFF984407DBFEFE29FF783A76D
:1014700041852A8491C3829723040400EF0060749D
:10148000544418489307C400D8C214C31CC85CC491
:10149000EF00E0736FE03FF7EFE21FF32E89AA89B8
:1014A0008937AA84484589332A841DCDD044814593
:1014B000EFF0EFE7214623043401A3040400CA85BA
:1014C0002285EFF0CFF383A7018599C32285829708
:1014D000EF00206FD8409307C40091045CC358C448
:1014E0009CC004C8EF00A06E22856FE03FF1EFE2E0
:1014F0005FEF83A741852A8491C382972304040068
:10150000EF00206C544418489307C400D8C214C399
:101510001CC85CC4EF00A06B2285393D6FE0BFEEB4
:10152000030585007D81828023980186938741C0D1
:1015300013870708DCC39CC3A107E39DE7FE3D4773
:101540002382E18623A4018623AE01869387418707
:10155000DCC39CC38280EFE2DFE803A5C187EFF024
:101560007FB37D1593173500138541C03E95084123
:101570001307C5FE210523A4E186EFE07FC86FE0D5
:101580009FE8EFE21FE6EF00C063839701872A8997
:10159000B1E703A5C187EFF0FFAF7D151317350045
:1015A000938741C0BA97844393878186804393850C
:1015B000C4FE6305B4028CC383A7C1862382A186BF
:1015C00099C32285829783C741821305C4019385FD
:1015D000840093F7F70F81EBEFE05FC44A85EF00DB
:1015E000005F6FE05FE2EF00E05ECDBFEFE27FDF24
:1015F0002A84EF00005D8347440393064401C19BA6
:1016000093E71700230AF402834754031397370024
:10161000938741C0BA97D84314C318CCD4C35CC8CD
:101620009387C1879443185C558F98C3EF00205A65
:101630006FE07FDDEFE2FFDA2A846123184C544823
:1016400093074401D8C214C35CC81CCC834754031D
:1016500013973700938741C0BA979843631AF700EE
:101660001387C1871C5C144393C7F7FFF58F1CC316
:10167000B92B6FE05FD9EFE2DFD6A1239387018713
:101680009A2305079AA3A1236FE0FFD7EFE27FD546
:101690000D2B138701871E23FD17C207C1871EA3C9
:1016A000634BF000231007001D2383A7818691C39D
:1016B000C93D6FE05FD5212BEDBFEFE29FD203A4C0
:1016C00081860123AA842285B5379147230AF40233
:1016D0001305C404012E2285A1358547631BF5003F
:1016E0003C5C81EB228551332685D521593D6FE045
:1016F0009FD183A641871307440123AAE186D8C25C
:101700009387418754C81CCCC5B7EFE29FCD2A848C
:101710005105411108CC48C80CD050D014D43A8699
:1017200058D49305300236853EC642C4EFF02FC030
:10173000585410544C5008507117B71600003A9680
:101740009386A66B2D21B24722483716000048CC5D
:10175000230BF402A30AF402232C04028147232260
:1017600004052324040523280402230A0402232C4D
:101770000406232E04060147A28613068679A28555
:101780001305C4041D2483A7018899C32285829769
:10179000014541016FE03FC7EFE2BFC45049144D1E
:1017A000795718D954C21307450190C218CD58C9AA
:1017B000353DC13B6FE03FC5EFE2BFC24111B2848E
:1017C0002E8685452A84368946C03AC63EC442C222
:1017D000EFF0DFC3024892472247B2464A86A68509
:1017E0002285253741016FE01FC203A581868280D3
:1017F000EFE29FBD41112E89AA85054532C6B68408
:10180000BA893E8AEFF05FC92A8411C92685EFF0B4
:10181000BF9D324609E92285EFF07FCD0144228544
:1018200041016FE0BFBDAA865288CE872687CA8550
:101830002285E13DEDB7EFE2DFBA612683A781861D
:101840000546AA8603C747033D8B631CC702D04BDE
:10185000984F6308E60258C210C303C65703938625
:1018600047010E06138741C094CF3297504314C2EC
:1018700090CF54C3D8CBA12EEFF0BFD001456FE07D
:101880009FB83685A926DDBF834745030547BD8B35
:10189000639FE702EFE2FFB42A84252683474403CF
:1018A000AA842285C19B93E72700230AF402EFF064
:1018B0007FD81305C404F1222685112E83A78188C1
:1018C000014581C72285829701456FE0DFB37D55D1
:1018D0008280EFE21FB141112AC6E52403A481866C
:1018E0002A89228555379304C404700081452685D2
:1018F000C922268539224A85D92CEFF09FC818586D
:10190000F9576314F70023280402014541016FE0F1
:101910009FAFEFE21FADEFE03FBD653F6FE0BFAEB1
:10192000834745030947BD8B6390E704EFE27FAB34
:101930002A84412C5448184C93074401AA84D8C2E5
:1019400014C31CCC5CC81305C404252A2685412475
:101950002285EFF0BFC983A74188014581C7228551
:10196000829701456FE03FAA7D558280EFE27FA715
:101970008346650305473317D70018DD0947A30AD7
:10198000D502230AE502693F83A7818699C3EFF058
:101990005FBF01456FE03FA75449184D93074501CC
:1019A000D8C214C31CCD5CC98280EFE29FA3411151
:1019B000B2842E86A9452A8436C63AC43EC2EFF0C8
:1019C000FFA49247B2462247F99B1CB493074401F7
:1019D00044CC14D02324040258D01CCC5CC8410150
:1019E0006FE07FA2EFE2FF9F2A84E12AAA8422858A
:1019F00065372685E92A2285EFF03FA701456FE08C
:101A00009FA0EFE21F9E2A846D2AAA84228569374F
:101A10001C342685F99B1CB45D2A83A7C18599C314
:101A200022858297EFE07FA95C503E9508D4512A29
:101A300013878189032847003706008093878189AF
:101A40001346E6FF98436315F8029386C1889042D7
:101A5000050690C29306440154C358C894C31CCCD5
:101A60001C3493E717001CB49D2201456FE0BF9919
:101A7000544B0C546385B6008D8EE378D6FCBA8740
:101A8000D1B71C35858B85C7EFE2BF9583A78185CC
:101A90002A8491C382973522AA842285F53D268522
:101AA0003D221C340145F99B1CB46FE0DF957D5548
:101AB000828085476381F50263C5B70085C1014512
:101AC00082808947638FF5008D47E39AF5FE1C35C8
:101AD00093E7270009A85C511CC2D5B71C425CD112
:101AE000F9BF1C35F59B1CB5D9BFEFE21F8DEFE0A8
:101AF000DF9C2A8CF920B70900802A8A9384818987
:101B000093C9E9FF8D4B8040631694005285C12034
:101B10006FE03F8E48481309C4FE3305AC40E3E74D
:101B2000A9FE83A7018999C34A8582974A85EFF068
:101B3000BFE61C4448448297EFE03F9883A7418961
:101B40002A8C99C34A858297834754FF13F7E70F7E
:101B5000A30AE4FE8D8BE39877FB4A85EFF07FEADA
:101B60005DB793878189DCC39CC382808280110624
:101B7000719A2A8837C7ADDE130506F8AA871307BE
:101B8000F7EE631EF600A167938707882322D6F835
:101B90002324B6FA232006F92324F6F8828098C37A
:101BA0009107C5B737F700E01C43B7060080D58F13
:101BB0001CC3828037F700E01C43860785831CC363
:101BC00082802165130505807315053082807310AE
:101BD00005308280EFE2FF801387818A1843938764
:101BE000818A19E323A0A18A23A2B18A054798C359
:101BF000553F6FE05F812A87814718436314A70030
:101C00003E8582808507D5BFB707EFBE37E700E086
:101C1000938707083CC701458280EFE28FFC376558
:101C2000000013054558EFF08FBC01456FE0AFFD94
:101C3000EFE22FFB2A84FD54377900007D146314F2
:101C400094006FE04FFC1305C9CEEFF04FBAFDB71B
:101C5000EFE28FF70041AA8437790000B7790000DE
:101C6000631494006FE08FF99305C4FE130509CF48
:101C7000EFF0EFB71C4063869700138549CFEFF074
:101C80000FB70040F1BFEFE2CFF52E89EFE09FFCE8
:101C90002A84EFF05F9E83240900639C2401EFF007
:101CA000FF9EA14763C3870011E0214422856FE0B6
:101CB0008FF5138544FFEFE0FFF96353A4002A84F6
:101CC0008440E1BFEFE26FEF0545EFF08FF1B779A8
:101CD0000000130945002A84CA8513858983653766
:101CE000AA85AA84377500001386898313050584A5
:101CF000EFF0EFAF2685EFF0BFF337750000130567
:101D00004588EFF0CFAE4040B7790000054A894AD8
:101D1000377B0000B77B0000377C0000B77C0000F9
:101D2000377D00006315890001456FE08FEC0347A4
:101D300094021385498C930644FF2146A685EFF053
:101D40000FAB8347840213850C8DBD8B638E4701D7
:101D50001305CC8D638A570113858B8E91C711476C
:101D60006396E70013054B8FEFF06FA84C4C930779
:101D70003002AE8698226306F702105093074006A1
:101D80000848B295B386D540B386F602585C5C50DD
:101D9000898D13050D90B3D6C602EFF04FA5004014
:101DA00051B78506C1BFEFE22FE241110945EFF0BF
:101DB0004FE393094500376900002A84CE85130557
:101DC000897DEFF05FECAA85AA84376500001306D1
:101DD000897D1305457EEFF08FA12685EFF05FE545
:101DE0003775000013050580EFF06FA04040377A8B
:101DF0000000B77A0000377B000063968900014538
:101E000041016FE0AFDF1A281C44930644FF130919
:101E1000840036C63AC44A856306F902EFF0BFDD96
:101E20002247B246AA872146A68513858A81EFF00C
:101E30000F9C4A85EFF0DFE113058B78EFF02F9BC5
:101E4000004065BFEFF03FDB2247B246AA8721463C
:101E5000A68513058A82EFF08F99DDB7EFE2CFD622
:101E600041111145EFF0EFD79309450037690000A4
:101E70002A84CE851305C961EFF0FFE0AA85AA8404
:101E8000376500001306C96113054562EFF02F9610
:101E90002685EFF0FFD93765000013058564EFF064
:101EA0000F954040376A0000B76A0000377B00009A
:101EB00063968900014541016FE04FD41C4413092A
:101EC0008400930644FF18486309F9024A8536C620
:101ED0003AC4EFF05FD22247B246AA872146A685D0
:101EE00013858A66EFF0AF904A85EFF07FD6130531
:101EF0008B78EFF0CF8F004065BF2146A685130594
:101F00000A68EFF0CF8EC5BFEFE20FCC41110D454F
:101F1000EFF02FCDB7690000130945002A84CA8568
:101F200013854977EFF03FD6AA85AA84376500006C
:101F3000138649771305C577EFF06F8B2685EFF091
:101F40003FCF376500001305057AEFF04F8A404018
:101F5000B769000063168900014541016FE00FCAAF
:101F6000930644FF1305840036C6EFF0DFC803482C
:101F700034015C48B246AA8821472146A6851385CC
:101F8000097CEFF0CF860040F1B7EFE2EFC34111DB
:101F90001545EFF00FC593094500376900002A8405
:101FA000CE8513054969EFF01FCEAA85AA8437654F
:101FB0000000130649691305C569EFF04F832685B4
:101FC000EFF01FC7376500001305056CEFF02F8297
:101FD0004040376A0000B76A0000377B0000639614
:101FE0008900014541016FE06FC17A285E281044E5
:101FF000930644FF1309840036C63AC43EC24A859C
:102000006307C902EFF03FBF92472247B2462A88D2
:102010002146A6851385CA6DEFE07FFD4A85EFF066
:102020003FC313058B78EFE09FFC00404DBFEFF0FE
:102030009FBC92472247B2462A882146A6851305AF
:102040004A6FEFE0DFFAD5B7EFE20FB8411119455B
:10205000EFF02FB993094500376900002A84CE8537
:102060001305C970EFF03FC2AA85AA843765000046
:102070001306C97013058571EFE07FF72685EFF031
:102080003FBB3765000013054573EFE05FF6404046
:10209000376A0000B76A0000377B0000639689004A
:1020A000014541016FE08FB51A2C1C44930644FF93
:1020B0001309840036C63AC44A856306F902EFF074
:1020C0009FB32247B246AA872146A6851385CA74C4
:1020D000EFE0FFF14A85EFF0BFB713058B78EFE033
:1020E0001FF1004065BFEFF01FB12247B246AA873B
:1020F0002146A68513050A76EFE07FEFDDB7EFE214
:10210000AFAC5D712545EFF0CFAD996513060005C5
:102110002A8413094500938505230A85EF20F06B77
:10212000B7690000CA851385495BEFF0DFB5AA8562
:10213000AA84376500001386495B1305C55BEFE091
:102140001FEB2685EFF0DFAE376500001305455E17
:10215000EFE0FFE94040D149376A0000631689008B
:10216000014561616FE08FA91C44930644FF63E061
:10217000F90298088A07BA9703A707FB1C2821468B
:10218000A68513058A60EFE09FE60040C1BF464781
:10219000F5B7EFE26FA32945EFF0AFA4B7790000E0
:1021A000130945002A84CA8513858992EFF0BFADD3
:1021B000AA85AA84377500001386899213050593B2
:1021C000EFE0FFE22685EFF0BFA6377500001305AC
:1021D0008595EFE0DFE14040B7790000377A0000F5
:1021E000B77A0000631E8900EFE02FADAA8537752E
:1021F00000001305059BEFE09FDF01456FE00FA096
:102200005C4C184C1385C997930644FF2146A6855C
:10221000EFE0FFDD8347D4FF13854A99858B99E36F
:1022200013050A9AEFE0BFDC00406DBFEFE2CF99E3
:10223000376500001305C558EFE07FDB03A4018B71
:10224000B7690000376A000083A7418B6365F4001B
:1022500001456FE0AF9A044009469385095A2685E7
:10226000EF20B06A19C55040A68513054A5AEFE021
:102270001FD83104D1BFEFE22F9537750000130549
:1022800005E5EFE0DFD603A4018BB7790000377ACC
:10229000000083A7418B636BF400377500001305C2
:1022A0008578EFE0DFD401456FE04F950440194693
:1022B0009385C9E62685EF20506501E95040938556
:1022C000640013054AE7EFE09FD23104D9B7054512
:1022D0008280EFE26F8F79712A84AA9593060002BB
:1022E000254783070400B38485406385D70A638349
:1022F000E70A0145638B0410014913070002A54654
:10230000B307240183870700638AE7086388D70837
:102310006314990883A9018B83AA418B377B000042
:1023200063F0590903AA090019469305CBE65285C3
:10233000EF20B05D59E54A86A28513056A00EF20BB
:10234000D05C41E14A9A83076A00A5EF83A989001E
:10235000638809041306800281452800EFE06F8B33
:1023600013098100CA86A2870145014713080002AC
:10237000A548294313062002130EC00583850700D4
:102380006384050163961505631F9702A9476303DC
:10239000F50469A80504B1B705099DB7E31C09F662
:1023A000A287038707001377F7FD79E737750000E9
:1023B000130585E323800700A285EFE05FC37D5509
:1023C000A9A0B109B1BF23800700050785077DB724
:1023D0006310650437750000130545E1EFE03FC168
:1023E0000018B774000083250900138544E3110920
:1023F000EFE0FFBFE31989FE37750000130585780C
:10240000EFE0FFBE29452C00829945616FD01FFF88
:10241000637E970005056392C504850705079CC286
:10242000838507006381C5026364970069FD8DBFE2
:10243000838E17006396C5016394CE008507050758
:1024400085070507F1BFE37397FE238007000507A3
:1024500085079106E36497F2D1BF9CC2838507008C
:102460006389050163871501E30297FC850705076A
:10247000F5B7E36097FE5DBF850725B7EFD2FFF3A1
:102480008307050099E781450145EFF0DFDE6FD056
:102490005FF603AA018BAA8981440149377B0000BA
:1024A000B77B000083A7418B6369FA00EDD04A86B1
:1024B000A6854E85EFE0AFF4D9BF03240A00194684
:1024C0009305CBE62285EF20504421E14E85EF2095
:1024D000B04219042A86A2854E85EF20104315E5E7
:1024E000631709002285EF2030412A89A284A6873C
:1024F00022870386070001EE858F63D327013E897B
:10250000A2851385CBE7EFE09FAE310A61BF83065A
:102510000700FDD2E312D6FE85070507D9BFEFD22B
:102520005FECEFF02FFA01456FD0FFEDEFD27FEBBC
:10253000EFE0BFC001456FD01FEDEFD29FEA03A5CA
:10254000C18AEFE04FBB01456FD0FFEBEFD27FE9CF
:10255000B7870000938747A223A8F18AB7870000B6
:10256000938707B823AAF18AB7870000938707B833
:1025700023ACF18AB7870000938707B89305002141
:10258000054523AEF18A1384C18AEFE0BFD808C0A5
:1025900019E937750000130505F3EFE05FA57D54D9
:1025A00022856FD05FE6B725000037750000A94788
:1025B0002D479306004001469385C56C130585F4AD
:1025C000EFF00FA3AA840840B775000081460146CA
:1025D000938505F5EFE0AFA70144F9D02685EFF02C
:1025E000EFB87DBFEFD2FFDFEFF07FCE0DC5B7753F
:1025F00000009385C5EF138541C8EF20F02EB77515
:1026000000009385C5F0138541C8EF20102C138579
:1026100041C86FD05FDFB7750000938545F0E1BF1B
:10262000EFD23FDC2A84377500001305C5F6EFE0D2
:102630001F9CEFF03FFBAA85377500001306A41B13
:10264000130545F7EFE0BF9A01456FD0DFDBEFD20E
:102650005FD941112AC6EFD0DFF6B24511E93775CF
:102660000000130505F1EFE09F9841016FD0BFD93D
:1026700083A7C18AAA841384C18A83A7C720E3865B
:10268000A7FE93053014EFD09FFB65F11C4003A516
:10269000C72009C9EFE04F821C40814503A5C72030
:1026A000EFE08F8800401306000581451305A41B49
:1026B000EFD03FD6B7250000231504202326942011
:1026C0009385A5532685EFE02F8645B7EFD27FCEC1
:1026D00083A7C18A41119384C18A03C74702136744
:1026E00017002382E70283A7C72091E7EFE0DF8C82
:1026F00019C1EFF0DFF5EFF0FFEEEFE05F8F377B12
:102700000000B77B0000B7790000377A0000B77A85
:102710000000377C0000B77C00009C408546130613
:10272000F10003A5C720FD55EFD09FFC8547631A34
:10273000F5000309F100ED4780406319F90008D066
:10274000E9BF8840FD55EFE00F93C1BF1C50639275
:10275000A7029307B0056315F90089471CD075BF20
:1027600023200402E30B09FAA5476314F912014977
:10277000D1A80947E398E7FE232004029307100439
:102780006312F9046E30D1D9FD15C205C1816EB056
:102790009307A41B13070005B385E5021306000584
:1027A0003E859385A502A295EF203003EF20D0143B
:1027B0001375F50F2305A420A305A4202285EFF0AF
:1027C0003FE6A1BF930720046311F90216347E305F
:1027D0001387F6FF63D8E70085077EB09307A41B35
:1027E0006E304DBF9DDA7AB0D5BF930740046310B9
:1027F000F9028347B42095D3138589F5EFE02FFFC5
:1028000098408347B720FD17A305F72039B79307F2
:102810003004E319F9F48347B4200347A420E3FE0E
:10282000E7EE3E948305A41B1385CAF5EFE02FFC69
:1028300098408347B7208507C1BF138589F5EFE02E
:102840000FFB050980408347B420E348F9FE1305D8
:102850008A78EFE0CFF9EFF09FA785471304A41B18
:102860006315F5002285EFF07FC1EFF0BFD7228618
:10287000AA8513854CF7EFE08FF780401305A41B62
:10288000EF2090071375F50F2305A420A305A420BE
:1028900069B59307F0076305F900A1476315F908C7
:1028A0008347B420E38B07E60346A420FD1793F784
:1028B000F70F7D161376F60F2305C420A305F42029
:1028C00063F8C7049385B71B1385A71B1D8EA295BC
:1028D0002295EFE04FAE9C4013850BF603C7A7206F
:1028E0003E97230D071A83C5B7209385A51BBE9578
:1028F000EFE0EFEF9C4003C4B7209C4083C7A720C4
:10290000E3CD87E0138589F5EFE06FEE0504F5B7B9
:1029100013058BF6EFE0AFED9C4003C7A720BA97F5
:10292000238D071ADDBB35478347A4206305E900E3
:102930002947631EE90EB9CB035984029147130D51
:10294000A41B63FB2709930DA41613060005EA8553
:102950006E85EF2040661DC91309A4024A8513093C
:10296000090513060005CA85EF202067E3982DFFAF
:102970001306000581456E85EFD0BFA90346A4204C
:10298000EA856E85EF20606595471EB41E347EB0E3
:10299000EFF0FF9385476312F5029C4083C747021F
:1029A000858B89C713058A78EFE06FE488408345FB
:1029B000A5201305A51BEFF0DF91EFF0BFC2EFE0FC
:1029C0000FE380401306000581451305A41BEFD0DB
:1029D0005FA42315042091B3630109021305F9FFD5
:1029E000930700053305F50213060005EA85130574
:1029F000A5022295EF20205C51D9930D00053305E7
:102A0000B9031306000581451305A5022295EFD0F1
:102A10005FA00A340346A420EA853305B5031305F5
:102A2000A5022295EF20605B1E348507B9BF13070E
:102A3000F0046374F700230504200346B4208347A1
:102A4000A4206370F6089305A61B1305B61BA29578
:102A50003386C7402295EFE00F968C4083C7B520A0
:102A60003387F500230D271B03C74502058B01CBD8
:102A70009387A71BBE9513050CCFEFE04FD79C4063
:102A800003C4B7209C4083C7A7206346F402984044
:102A90008347A7208346B7208507850693F7F70F5E
:102AA000A305D7202305F7209306F004E3F7F6C625
:102AB000231507209DB1138589F5EFE04FD3050459
:102AC000D1B7A297238D271B83474402858BE1D37F
:102AD000CA851385CAF5EFE08FD155BF7C41232805
:102AE0000504232A05049C4381CBEFD29F8F9305D5
:102AF000850482976FD03F9101458280EFD2DF8CB1
:102B000036899DCAAA843284B309D600294A1C207A
:102B1000639B4701BE2C93F7070491C7FC40B54562
:102B200026859C478297FC408305040026859C47A8
:102B300005048297E31D34FD4A856FD03F8CEFD2A8
:102B40005F8A93F705102A8491C71A2D6155137770
:102B5000071035CF13F7054011C71A2C61551377AD
:102B6000074035C713F705049304000401E7262C3A
:102B700093F40404384893F5F50F2EAC39EBA1C754
:102B800068442981420541813105EFE0EFE5704459
:102B90002A89310529824206418281452320A900E4
:102BA000EFD0FFF8232209003E2C2324090023281C
:102BB000240593E707103EAC7C4013060010C14586
:102BC000DC43228582973E2C0145DD8C26AC6FD0FC
:102BD0009F83F5DB93E505102EACF5B70948AA876E
:102BE00063810503EFD2EFFF0D48638205030547BC
:102BF0006399E5041A2D1377F7FD1AAD01456FD0DF
:102C00009F801A2D136707021AAD01458280328713
:102C100075D6504274454C2D2982A9824206C206BF
:102C20004182C1826304D6001D45F1F91443B4C743
:102C30005443F4C7E1D5F443BA853E859442829665
:102C400075BF7C41DC4382975DBFEFD2EFF73684DE
:102C5000B1CA3E2DAA89328993F70710B6849DE345
:102C60007D5AA94A83A749044E85DC4782976309A8
:102C700045012300A900FD14050963035501FDF07A
:102C8000058C0DA02449368A854AEFE09FF3FE208B
:102C9000DA202A869444631AF70081EAEFE03FF3D2
:102CA0003304444122856FD06FF598403E97034B23
:102CB000070003A7C9048507C2072983C183420708
:102CC000FEA0418363E4E70023930400639456016C
:102CD00023A404003285EFE09FEF7D1A23006901F1
:102CE0000509E3140AFA6DBF582D854763ECE70226
:102CF0003E2D93F707109DC7EFD2AFEE2A842849E7
:102D0000EFE08FE33E2C232804041306001093F712
:102D1000F7EF3EAC7C40C5452285DC4382970145F8
:102D20006FD06FEE01458280EFD2AFEB37370000F6
:102D30001307C7AD18D5373700001307E7B358D5C9
:102D400037370000130787CE18D93737000013072D
:102D5000A7C458D9373700001307C7AF18DD373776
:102D600000001307C7BD420658DD34C14182232A43
:102D700005002320050223220502EFD01F896FD012
:102D80008FE893F5F50F85476391F50AEFD2CFE30E
:102D900020494111AA847D598549FC402685DC479C
:102DA00082972A8A63072505EFE0BFE15A201C407D
:102DB000BA97238047015E20F8448507C20729831C
:102DC000C18342075EA0418363E4E700231204004D
:102DD00076205E20639CD7008507C207C1837EA052
:102DE0002324340163E4E70023130400EFE03FDE13
:102DF0006DB79C5085C3EFE0DFDC5A206E20636E18
:102E0000B700B305B7402EC6EFE07FDC9C50B2455B
:102E10002685829741016FD06FDEFC44998DA9838E
:102E2000C207C183B385B740F9BF828001CEEFD21C
:102E30004FDB7841B2878E23184332220297014537
:102E40006FD06FDC7D558280EFD2AFD9138781D0F0
:102E500078432E86AA851843138581D002976FD0B8
:102E60008FDAEFD20FD8138781D078432E86AA85C8
:102E70005843138581D002976FD0EFD8EFD26FD629
:102E8000138781D07843AA85138581D0184702978C
:102E90006FD06FD705C611476392E602EFD26FD4A9
:102EA0007C410E2241119C4736C632C4829722468D
:102EB000B2462AA2368541016FD0EFD481463685CD
:102EC00082801DC2B28711466390C602EFD26FD1D5
:102ED0007841B2238E235843411136C60297B24639
:102EE000410136856FD02FD2814636858280EFD260
:102EF0004FCF938781D04947D8CB3737000013078E
:102F000047E9D8DB37370000130727EC98DF37375E
:102F100000001307C7E2ECC3B0C3AA850D461385B2
:102F200081D023A0070223A2070223A4070223A61D
:102F3000070223A80702D8DFEFD02FED01456FD09D
:102F40008FCC3705002013050570828037150020CF
:102F5000130505708280EFD2CFC8B707002003A702
:102F6000471B9307803EC1563357F702B7E700E08F
:102F70002386D7402387D740856623A0D710916644
:102F800023A0D710B7F700E023A0070023A2070073
:102F9000014690C78146D4C781461306F7FF90CB00
:102FA000D4CB3D4798C3EFD0AFD7EFF09FF92A8439
:102FB000EFF0DFF9AA852285EFE04F9B377500001F
:102FC0001305C5FEEFD0BFFF6FD0EFC373110134FF
:102FD000EFD07F96B7F700E023A20700EFD04FCEE7
:102FE000EFD03F987311013473002030814785463C
:102FF000130700023396F6006306A6008507E39BDD
:10300000E7FEFD573E858280EFD2AFBD85451305B3
:103010000002EF10E0326FD00FBFEFD28FBC8545BA
:103020002145EF10E0316FD00FBEEFD28FBB854549
:103030001145EF10E0306FD00FBDEFD28FBA85454C
:103040004145EF10E02F6FD00FBCEFD28FB985450F
:1030500013050004EF10C02E6FD0EFBAEFD26FB897
:103060009D65377500000146938545FF1305C56DC5
:10307000EFF0FFE76FD02FB99307400663ECA7008E
:10308000931745001D651305C5083E951841FD576A
:103090006313F70001458280EFD2AFB4411113F5FD
:1030A000F50F32C6EFF05FFD11C54E2532460845DB
:1030B000EF10201441016FD00FB5EFD28FB213F58E
:1030C000F50FEFF07FFBAA87014589C7CE27884718
:1030D000EF1000116FD02FB3EFD2AFB0011113F585
:1030E000F50F3284EFF05FF905C55C412AC682977F
:1030F00032455C45FC82C1473ECE8D473ECC09C47B
:103100001547631AE40002CE08454C08EF10400151
:1031100005616FD04FAF05476315E40091473ECE80
:10312000E5B76315F40093078002D5BF894763159F
:10313000F40093078004E5B791476314F400D14786
:10314000F9BF99476314F400F147D1BF9D47E31DD0
:10315000F4FAE147E9B7EFD22FA713F5F50FAE84E4
:10316000B289368A3A89EFF03FF1994731CD484527
:10317000EFF0DFE73D472A8499476367A704EFE054
:103180005FA4B146B306D402B7070020138707082F
:103190002A8693870708369783160700639F960051
:1031A0004C43639C45012E236399350118476316F0
:1031B0002701EFE0DFA1814701A87D576389E60081
:1031C0003285EFE0DFA09D473E856FD02FA33145CC
:1031D0003305A4023E9506A12322450123113501A2
:1031E000232425013285F1B7EFD2AF9F13F5F50FF8
:1031F000EFF09FE819471DC94845EFF03FDFBD4795
:103200002A84194763E4A702EFE0BF9BB147330468
:10321000F402B7070020938707087D57A29783968B
:1032200007006398E600EFE09F9A01473A856FD068
:103230008F9D41677D1798C323A2070023A4070031
:10324000DDB7EFD26F98011113F5F50F328AEFF069
:10325000BFE2994721C185442A8463159A104845E5
:10326000EFF0DFD83D47AA8499476365A702EFE0F6
:103270005F95B14AB3875403370900201309090841
:10328000AA893E9903170900FD576319F700EFE07B
:103290001F9499473E8505616FD04F965C40829799
:1032A00085450545EF10C0095C440D473AC47C8252
:1032B0003EC88357290002CA52CE638C4709C1C752
:1032C0000947638DE70808444C00EF007065184417
:1032D000B7170140938607C005456302D702094529
:1032E000630FF700938707400D45630AF700B72780
:1032F00001409387078001456313F700114593F55B
:10330000F40FEF00B06F0808EF0070589D679387C7
:10331000C7008E04BE94D04037E700E09306000556
:10332000B307C7002380D7409357560093870704FD
:1033300085468A07B396C600BA9794C34E85EFE0D8
:103340001F89814781BF930780023EC6A1473ECCBB
:103350009DBF930780043EC656CCB5B791473EC685
:10336000C147F5B79947E3170AF24845EFF01FC880
:103370003D479947E360A7F2931735001D65130594
:10338000C5003E9558419357570093870706B3945D
:10339000E4008A0737E700E0BA9784C35DB7EFD24D
:1033A0004F84EFF0BFC4B1473305F502B7070020E3
:1033B000938707083E955C4199C3084582976FD073
:1033C0008F8473110134EFD00FD70545EF00D05231
:1033D00019C50545EFF0BFFC0545EF00D053EFD010
:1033E0004FD8731101347300203073110134EFD0C2
:1033F0008FD40945EF00505019C50945EFF03FFA49
:103400000945EF005051EFD0CFD57311013473004F
:10341000203073110134EFD00FD21145EF00D04DA1
:1034200019C51145EFF0BFF71145EF00D04EEFD0B1
:103430004FD3731101347300203073110134EFD076
:103440008FCF2145EF00504B19C52145EFF03FF5D7
:103450002145EF00504CEFD0CFD0731101347300F1
:10346000203073110134EFD00FCD4145EF00D0482B
:1034700019C54145EFF0BFF24145EF00D049EFD00B
:103480004FCE731101347300203073110134EFD02B
:103490008FCA13050002EF0030461DCD1305000250
:1034A000EFF0FFEF13050004EFF07FEF13050008C6
:1034B000EFF0FFEE13050010EFF07FEE1305002094
:1034C000EFF0FFED1305003EEF00F044EFD06FC9C1
:1034D000731101347300203013050004EF00D04154
:1034E00055FD13050008EF0030414DF9130500109C
:1034F000EF00904045F513050020EF00F03F59FD27
:10350000F1B773110134EFD00FC313050040EF0082
:10351000B03E29C113050040EFF07FE805651305B3
:103520000580EFF0DFE70565EFF07FE70965EFF075
:103530001FE71165EFF0BFE62165EFF05FE641653B
:10354000130505C0EF00303DEFD0AFC1731101345A
:1035500073002030056513050580EF00F0395DF933
:103560000565EF0070395DF50965EF00F0385DF134
:103570001165EF00703859FD2165EF00F03759F9FA
:10358000E1B701458280EFC2DFE59C412041A146C1
:1035900041111CC0B1473EA4DC412316040013F7BF
:1035A000F7006301D702A546631ED70005675AA03E
:1035B00013D747000D8B01C785466308D700231337
:1035C000040031A023120400E5B709677AA09983AB
:1035D0008D8B05476389E70081C709476389E70643
:1035E0002314040021A0930700601EA41848B747C5
:1035F0000140938707806318F7041165854511051D
:10360000EF00105493070020B71401407C820D494D
:10361000E1474C00138504803EC64AC4EF00503099
:10362000930700407C824C009147138504803EC67E
:103630004AC4EF00F02E0848A285EF003054084835
:103640008545EF00705F014541016FC0DFDB9307E7
:10365000004061BFEFC25FD7B714002013848475A8
:10366000930750035CC837190020B7470140130681
:1036700009709387078074461CC89D679387076EFF
:103680007CC2B70700C0F58FC166A106716713073A
:103690000720D58F1165411138C67CC68545B7070F
:1036A0000C00110518C01CC42322040023160400BA
:1036B000EF001049B7190140930700207C820D4AA2
:1036C000E1474C001385098052C43EC6EF005025E7
:1036D000930700407C824C009147138509803EC6C9
:1036E00052C4EF00F023084893858475EF00104919
:1036F00008488545EF005054B775000093868475DF
:10370000130630109385C5FE13050970EFF0CFE165
:10371000014541016FC09FCEEFC2BFCC2041930550
:1037200000020848EF00905619C51C48CA231375BB
:10373000F50F6FC05FCD7D55EDBFEFC29FCA24412D
:103740002E84884893050004EF0050547DD99C488E
:1037500042044180C2A305456FC0FFCAEFC27FC8C3
:10376000C1473841638BF502C5476395F502544B59
:10377000054693D75600938707063316D6008A0767
:10378000B7E600E0B69790C30146084B9305505248
:10379000EF00F04B01456FC01FC7544B054693D750
:1037A0005600938707043316D6008A07B7E600E071
:1037B000B69790C30546D1BF411122C626C47311E6
:1037C0000134B7140020EFD00F9793870470A04303
:1037D000930550520848EF00104C19C985451385D0
:1037E0000470EFF00FDA084893055052EF00704E66
:1037F000EFD02F97731101343244A244410173007A
:103800002030EFC21FBE79711306000281450808FF
:10381000EFC03FC08545114502C202C402C6EF0099
:103820003032854513050020EF0090313165EF00FF
:10383000B01F3715014089474C0013050580372418
:1038400001407C8202C6EF00B00D130504401D2B21
:10385000B7070E003ECE0C0885471305044023022F
:10386000F10202C802CA02CC02D0A92B9D4605462D
:103870008545130504400925854513050440E523C6
:10388000854513050440512B814513050440EF0085
:10389000406B13050440512B930404402685592B9B
:1038A00075FD1305044037240140492B930404405F
:1038B0002685512B75FD13050440EF00006A239007
:1038C000A18C854513050440EF00A06745616FC0DA
:1038D0009FB38397018CAA9763CD070085661387F2
:1038E000F6FF63DAD7006309E5001395070141810C
:1038F0008280014582803A858280EFC29FAE372464
:103900000140AA859D46054613050440B52385451B
:10391000130504402D2B9304044089452685292D49
:103920006DDD130504402925EFF0BFFA6FC0BFAD70
:10393000EFC23FABEF106054B777000083A5476F2D
:10394000EF00106CB777000083A5876FEF00506B16
:103950006FC07FABEFC2FFA8B707002003C5171BDE
:10396000EFF0BFF9EFF0DFFCB777000083A54770F9
:10397000EF100012B777000083A58770EF00303D8D
:1039800023A4A18C6FC03FA8EFC2BFA5B70700203A
:1039900003C5071BEFF07FF6EFF09FF9B777000044
:1039A0002A84AA8503A5876FEF10800EB7770000E1
:1039B00083A5C76FEF00D064B777000083A50770B9
:1039C0002A892285EF00D063AA854A85EF00303826
:1039D00023A2A18C6FC03FA373110134EFC0BFF5C8
:1039E0003775000013058571EFD06FE0EFC07FF7EA
:1039F000731101347300203073110134EFC0BFF331
:103A0000377500001305C570EFD06FDEEFC07FF58E
:103A10007311013473002030EFC2BF9C03A5418CA9
:103A2000EF10803FAA853775000013058572EF10EF
:103A3000E06503A5818CEF10203EAA853775000054
:103A400013054574EF1080646FC0FF9BEFC27F9930
:103A500041118545114502C202C402C6EF00500E55
:103A600085477C82371501408D473EC44C00C147D5
:103A7000130505803EC66D2541016FC0DF98EFC27A
:103A80005F963775000013058575EFD04FD6B707E1
:103A9000002083A5471B377500001305C576EFD0BE
:103AA0000FD5377500001305C577EFD04FD4371405
:103AB0000140EFF0BFF9EFF0DFD413050480854536
:103AC0003D273719002037460000B77500008947A9
:103AD0001307803E8146130686989385C5781305A3
:103AE0000977EFD09FECB714002037460000B77578
:103AF000000089471307803E81461306469593854B
:103B000085791385C479EFD05FEA13050977EFD083
:103B10005FEF1385C479EFD0DFEE13040480854591
:103B20002285E1251305007DEFD0BFDE2285854586
:103B30007D2D1305007DEFD0DFDDD5B7B71702402F
:103B40009843B706FFF841111367170098C3D8438D
:103B500037060200758FD8C39843B706F7FEFD16E7
:103B6000758F98C39843B706FCFFFD16758F98C3F1
:103B7000D843B70681FFFD16758FD8C39843B706A3
:103B800000ECFD16758F98C33707FF0098C723A672
:103B9000070202C402C69843C166558F98C3B71680
:103BA000024005679C42F18F3EC6A24785073EC48E
:103BB000B24781E7A247E397E7FEB71702409C436D
:103BC0001397E7006356070685473EC63247854789
:103BD000631EF704B7170240D843B706C1FFFD16AE
:103BE000D8C3D843D8C3D84313670740D8C3D843F2
:103BF000758FD8C3D843C166558FD8C39843B706CD
:103C00000001558F98C3984393166700E3DD06FEC5
:103C1000D843B7160240719BD8C3D8431367270017
:103C2000D8C32147DC42B18BE39EE7FE410182808D
:103C300002C669BF01A001A001A001A001A001A0CE
:103C400001A001A001A001A001A001A001A001A06C
:103C500001A001A001A001A001A001A001A001A05C
:103C600001A001A001A001A001A001A001A001A04C
:103C700001A001A001A001A001A001A001A001A03C
:103C800001A001A001A001A001A001A001A001A02C
:103C900001A001A001A001A001A001A001A001A01C
:103CA00001A001A001A001A001A001A001A001A00C
:103CB00001A001A001A001A001A001A001A001A0FC
:103CC00001A001A001A001A001A001A001A001A0EC
:103CD00001A001A001A001A001A001A001A001A0DC
:103CE00001A001A001A001A001A001A001A001A0CC
:103CF00001A07390123497D1FF1F9381A1CB17C1FC
:103D000000201301213017450000130565E997C510
:103D1000FF1F9385252F1386818163FAC5008322B7
:103D2000050023A0550011059105E3EAC5FE1385A2
:103D3000818197E5FF1F9385A5A96377B5002320AF
:103D400005001105E36DB5FEFD42739002BCFD4216
:103D500073904280B78200009382028073A0023089
:103D600097C2FFFF9382822D93E23200739052300C
:103D7000EFF0DFDC97D2FFFF93824284739012341E
:103D800073002030EFC2EFE5B7270140938707406B
:103D9000631CF500854513050020D12381451305DB
:103DA0000020752B6FC02FE6B7370140938707803F
:103DB000E31AF5FE8545130500405523814513059B
:103DC0000040C5B75C413707F1E01307F7EF944DAA
:103DD0007D8F9C41D58FD44DD58FD441A206D58FF0
:103DE000D98F5CC11C4537F7F1FF1307D77FD44546
:103DF0007D8F9C49D58F94458606D58FD98F1CC55C
:103E00005C55370710FF7D177D8FDC29FD1793F771
:103E1000F70FD207D98F5CD582801C4589C593E7FF
:103E200017001CC58280F99BEDBF1C4593E78700F6
:103E30001CC5828008450D81058982801C4593E759
:103E400047001CC5828008450981058982801C4580
:103E500091C537075000D98F1CC582803707B0FF46
:103E60007D17F98FD5BF5C4149777D17FD15F98F17
:103E7000B605DD8D4CC18280A54763F7B7048D4739
:103E8000138765FF3307F7020328C5009D47B397E3
:103E9000E70093C7F7FFB3F70701B396E600DD8E9F
:103EA00054C5994763E3C70495477D163306F60268
:103EB0005859FD47B397C70093C7F7FFF98F33965B
:103EC000C5005D8E50D982800D473387E5020328F7
:103ED00005019D47B397E70093C7F7FFB3F70701C5
:103EE000B396E600DD8E14C96DBFB14763E2C70229
:103EF000954765163306F6021859FD47B397C70074
:103F000093C7F7FFF98F3396C5005D8E10D9828075
:103F100095474D163306F6025855FD47B397C7002F
:103F200093C7F7FFF98FB395C500DD8D4CD582801F
:103F3000684542054181828008416D8D3335A0007E
:103F400082805C4191C537070004D98F5CC18280B3
:103F5000370700FC7D17F98FD5BFEFC28FC801115D
:103F60002A8423040100A5441C8463F9F404230477
:103F70000100A54621461C8463FFF60623150100B7
:103F80002304010095461C8463F1F60E38853C85B8
:103F900099460D46B3F7D702056513050580B3D7DB
:103FA000C7023357D702BA97C207C1837C853C85C5
:103FB00005611D8D420541856FC0EFC41C4493E728
:103FC00087001CC42285EFF0FFE66DFD1C4493E7DB
:103FD00047001CC42285EFF01FE76DFD78441C8468
:103FE00014108607B6972396E7FE1C84850793F77F
:103FF000F70F5C8495BFA30401009C846378F600EE
:104000001C84850793F7F70F5C84B5B798849C846C
:104010000C100607850786072E97AE970357C7FE35
:1040200083D7C7FE63FDE7029C848607AE9783D7DC
:10403000C7FE7C859C84988485078607AE9783D5C8
:10404000C7FE931717001810BA972396B7FE9C84E3
:1040500038850C1085078607AE972396E7FE9C846B
:10406000850793F7F70FDC8449BF1C84101038854F
:1040700089078607B29783D7C7FEBA97C207C1835D
:104080007C851C84850793F7F70F5C84EDBD584150
:10409000032805004C4537060140930706403E972C
:1040A0009346F8FFB1C583250640F58D2320B64021
:1040B000D043F18ED4C31443B3E6060114C31841B0
:1040C00090479346F7FF758E90C7D047F18ED4C7BF
:1040D000144541466399C6009447D98E94C7D44786
:1040E000558FD8C78280B6979443558F98C38280E6
:1040F0001C43F58F1CC38280B7070140138707401C
:1041000083A70740584B698F09C77D8D3335A000C1
:10411000828001458280B707014023AAA7408280A0
:104120009C4513F7070113F8F70001C7D84133681E
:10413000E8008E2113F7F50F39C318418146854EEB
:104140003D4F930F800293028004214E3396DE0090
:10415000B3F8C500631116039398260033131F01AB
:104160001343F3FF3377E300B318180133E7E80094
:10417000639FF70550C98506E39AC6FD18C113076A
:10418000F00F6375B70454412146854E3D4F930FA0
:10419000800293028004414EB398CE0033F715019C
:1041A0006392E8021317260001173313EF0013433D
:1041B000F3FFB376D3003317E800D98E639DF70180
:1041C000232A15010506E319C6FD54C18280E39434
:1041D00057FA10C94DB7E39757FE23281501DDB7ED
:1041E00008456D8D3335A00082800CC982804CC992
:1041F000828019C20CC982804CC9828013F7C50F16
:1042000093F73500B7050140BA9594458A073D47B5
:104210003317F7001347F7FF758F98C59845331587
:10422000F500598D88C58280B7160240DC4251776F
:104230007D17F98F5D8DC8C28280371702405C43BD
:104240009146B18B6385D700A1466382D706B71725
:104250007A00938707201CC1371602405C4237075B
:104260000020130707149183BD8BBA9794231C4138
:10427000B3D7D7005CC15442A1829D8ABA969422DA
:10428000B3D6D70014C55442AD829D8A3697182301
:10429000B3D7E7005CC5584239839376370013875C
:1042A000818036971823B3D7E7021CC982805C430C
:1042B00054434167C983F98E37F7FF1F0327C7703F
:1042C000BD8B890713161701634806004546014751
:1042D0006392C702C94739A809476389E7023D4786
:1042E0006388E70241476388E702454601476393D5
:1042F000C700C14785E6B746024083A60680C18A4B
:104300008DC6B7167A009386062025A00147D9B737
:104310000547B547C5B70147BD47E9BFB7160240D6
:10432000D4421396E600E35E06FCB7163D00938682
:104330000690B387D7021CC105D31C41858321BFDA
:1043400099C5371702401C4F5D8D08CF8280B71783
:104350000240984F1345F5FF798D88CF828099C52B
:10436000371702405C475D8D48C78280B71702400F
:10437000D8471345F5FF798DC8C78280EFC26F8695
:104380001629F577FD17F58FF621DA257971D58F86
:104390001EA95625FD779387379FF58FD6212A844E
:1043A0002EC6D58F9625D58FB625D58F5EA55E29CD
:1043B000C207C18393F7F7CFD98F5EA96808EFF0E2
:1043C000DFE7B747014093870780B245631AF404DB
:1043D000A25756246547B387E702C206C1869841B3
:1043E00063D20604060752244206B3D7E702130736
:1043F00040064186B3D6E702B3F7E702920663555B
:1044000006028E0793872703B3D7E70213F77700D7
:10441000B367D700C207C1831EA445616FB0BFFE5A
:10442000925745BF0A07C1B7920793872703B3D7AF
:10443000E702BD8BD58FF9BF91C55E250967D98F7E
:104440005EA582805A25F977FD17F98FD5BF13F73E
:10445000F50F85471583B395B7006319F7009307E8
:10446000C500984301CED98D8CC3828089469307BD
:104470004501E318D7FE93070501E5B793C5F5FF9E
:10448000F98DDDB793F5F51F4EA182800A216D8D60
:104490003335A000828013F7F50F85461583B39757
:1044A000B6006311D7025A25F98F1A210145420738
:1044B000418381CB0545A181B315B5006D8F33359F
:1044C000E000828089466314D7001A29F1BF5A2977
:1044D000E1BFA1818547B397B70093C7F7FFC20734
:1044E000C1831EA18280EFB23FEEB7440140AE8986
:1044F0003289014493840480634524014A856FB066
:10450000FFEF930500042685EFF05FF87DD9B387B0
:1045100089008385070026850504C205C181EFF067
:104520007FF6D9BF1387C1801C43B716002093863E
:10453000C67C3E95636BD500B70601209386068046
:1045400063E5A60008C33E858280FD57EDBF397143
:10455000935775014AD856D25ECE931A95001359D7
:10456000F50106DE22DC26DA4ED652D45AD093F775
:10457000F70F93DA9A00CA8B638207121307F00FC2
:104580006384E7128E0A37070004B3EAEA00138A4D
:1045900017F80144014B93D775019394950093F755
:1045A000F70FA58093D9F501FDC71307F00F6387B7
:1045B000E7028E04938717F837070004D98C330A73
:1045C000FA408146558C17370000130727200A044C
:1045D0003A941C4033493901BA978287130A1AF07A
:1045E000F9E88946558C17370000130727220A047B
:1045F0003A941C4033493901BA978287014913071D
:10460000F00FB707400013959700F25062549317CC
:10461000770125817E095D8D33652501D25442598C
:10462000B259225A925A025BF24B216182801307DF
:10463000F00F8147C9BFA68ACE8B368B8947630BA3
:10464000FB1A8D47E30CFBFA8547630AFB0A130745
:10465000FA0713F91B006357E01293F77A0099C722
:1046600093F7FA0091466383D700910A93974A0023
:1046700063D90700B70700F8FD17B3FAFA0013076C
:104680000A089307E00FE3C4E7FA93976A00A5834B
:104690001377F70F8DBFB9E48546A9B763940A0273
:1046A0001144014A054BC5BD63990A002144130A10
:1046B000F00F094BCDB58D4631B73144130AF00FD9
:1046C0000D4BD1BD56852EC6EF0010089307B5FFE0
:1046D000B39AFA009307A0F8338AA7400144014B2C
:1046E000B24555BD2685EF0030061307B5FFB30769
:1046F000AA00B394E400138A67078146E1B513F971
:104700001B000147814701B74166139554007D1690
:1047100093570501698E63FA9A0AB3D5FA027D1A96
:10472000D68601473388C502B3F6F602C206558F16
:10473000637B07012A979386F5FF6368A70A637670
:10474000070BF9152A9733070741B356F70233775A
:10475000F702B38AC6029317070163FB5701AA97B2
:104760001387F6FF63E1A70863FF5707F916AA97B7
:10477000C205B38A5741D58DB33A5001B3EA55010A
:10478000CA8BF1B58546998E11C76D4601478147A1
:10479000E34BD6E6130AEA09339A4A01B3D7DA00A3
:1047A000B33A4001B3E7570113F7770019C713F77E
:1047B000F70091466303D7009107139757006348AA
:1047C00007029A07A58301473DBD93D61A00B3D5CA
:1047D000F6021397FA0141833388C502B1B7CE8B35
:1047E000368B814AA1BDBA8661B7B685A9BF054798
:1047F000814711BD13F91B001307F00F814721B545
:10480000797122D4135475014ECE52CC9319950070
:1048100006D626D24AD056CA5AC81374F40F93D972
:104820009900135AF50169C49307F00F6308F40E59
:104830009397390037070004B3E9E700130414F82D
:104840008144014B13D77501939A95001377F70FA5
:1048500093DA9A0013D9F50145CF9307F00F630C53
:10486000F7028E0A130717F8B7070004B3EAFA0035
:104870003A94014633452A01BD47AA8693051400A0
:1048800063E0971017370000130747FC8A04BA94B7
:104890009C40BA9782871304F40F63960A0C93E442
:1048A00024000946C1BF01451307F00FB7074000B8
:1048B000B2502254A6075E07A5837E05D98F925475
:1048C0000259F249624AD24A424B5D8D456182806B
:1048D000CA86D689328B8947630FFB088D47E3046C
:1048E000FBFC854736856310FB1A01478147C9B732
:1048F000639D090413D77501939A95001377F70FF9
:1049000091440144054B93DA9A0013D9F50131F72C
:10491000639D0A0093E414000546A9BF639209024F
:10492000A1441304F00F094B31BF5685312D930775
:10493000B5FF098CB39AFA001304A4F801461DBF11
:10494000B1441304F00F0D4BF5BD4E852EC6ED2B73
:104950009307B5FF1304A0F8B399F900098C8144BB
:10496000014BB245C5B593E434000D4621B78947E4
:10497000D286E315FBF636851307F00F81470DBF8E
:1049800041639306F3FF13D6090193D80A01B3F7E5
:10499000D900B3FADA0033885703B389F802135702
:1049A0000801B30A5603D6994E973306160363736C
:1049B00057011A96C167FD17B376F7003378F800F0
:1049C000C206C2969399660093570701B339300126
:1049D000E982B2979A07B3E6D900B3E9D700939773
:1049E000490063D9070013D7190093F71900B36979
:1049F000F7002E841307F4076350E00493F779005F
:104A000099C793F7F90091466383D700910993976B
:104A1000490063D90700B70700F8FD17B3F9F9009B
:104A2000130704089307E00F63CBE704939769002B
:104A3000A5831377F70FADBD8547B386E74011C750
:104A40006D4601478147E345D6E61307E4093397EE
:104A5000E9003337E000B3D7D900D98F13F77700D7
:104A600019C713F7F70091466303D700910713970F
:104A70005700634C07009A07A583014715BD13072C
:104A8000F00F814735B52E84B5B7054781470DB581
:104A90003707800041117D179356750113D87501B2
:104AA000B377A70093F6F60F935EF5013376B70060
:104AB00026C24AC01378F80F06C622C41303F00FAB
:104AC0003E8E3689F684139F3700FD81131536001C
:104AD000B38806416302681093C51500638CBE104D
:104AE0006354100D631008106304051EFD18B3070E
:104AF000AF40638608029307F00F6388F616ED4710
:104B000063C7172913070002330717413317E5005E
:104B1000B35715013337E000D98FB307FF40139720
:104B200057006351071A370400047D147D8C2285D9
:104B300021296D15B317A400634E251B33052541AC
:104B40001304150013070002018F3397E700333772
:104B5000E000B3D78700D98F014913F7770019C751
:104B600013F7F70091466303D70091071397570097
:104B7000635E0714930619001307F00F93FE1400E9
:104B80006386E6169A07A58393F6F60FA607B2404A
:104B9000224413D59700DE069397FE01558D92446B
:104BA00002495D8D410182806392080A13871600D5
:104BB0001377E70F631B07146394062263020F2029
:104BC00071D5B307AF401397570063550722B3075A
:104BD000E5410149AE8451B7E30005F0638ABE0A9E
:104BE000E35410FD9307F00F6381F608B707000444
:104BF0005D8D31B7635E1009630108089307F00FFC
:104C00006385F606B70700045D8DED4763C0171F87
:104C100013070002330717413317E500B357150197
:104C20003337E000D98FFA9713975700635C070872
:104C300005091307F00F630BE90AB706007E13D7C7
:104C40001700FD16858B758FD98F01BF3307D840AC
:104C500063950610630D0F147D176303071A9307FE
:104C6000F00F6314F810AE84328E630F0E06814E7F
:104C70009306F00FB707400011BF39C9FD18B307FD
:104C8000AF00E38308FA9307F00FE390F6F8F1BF63
:104C900063990808138916001377E90F6316071242
:104CA000639B061063030F16E30205EEB307AF0024
:104CB00013975700014963570700370700FC7D171A
:104CC000F98F054913F77700E31C07E813DE370077
:104CD0009307F00FE30BF9F893179E00A5839376E3
:104CE000F90F93FE14005DB593FE14009306F00FC8
:104CF000814769BD370700FC7D17F98F13F77700EF
:104D00003309A940E31E07E4D1B73304AF4093173A
:104D1000540063C3070CE31C04E0814E81468147C5
:104D2000B5B53307D840B5C69307F00FE30EF8F2D8
:104D3000B7070004336FFF00ED4763CDE70C93071F
:104D40000002998FB317FF003357EF00B337F0001D
:104D50005D8FB307A7004289C1BD9307F00FE3043D
:104D6000F8F0B7070004336FFF00ED4763C2E708B0
:104D700093070002998FB317FF003357EF00B33743
:104D8000F000D98FB307F5404289AE8449BB85470F
:104D900069B3630E0F067D17B307AF004289E305C1
:104DA00007E89307F00FE319F8F8328E7DBD328ED5
:104DB0004289AE8431BFE3090FEAE30805EA45BD45
:104DC0000DCDAE8EB287D9B39307F00FE300F9F2A1
:104DD000B307AF008583FDB53304E541AE8481BBE5
:104DE000E31D0FFCE30505E8AE84BDBD854725BD89
:104DF000854749BF0149E39707EC814E814779B365
:104E0000B307E5414289AE8419BBB28741B3328E04
:104E100042897DBD054735BF3706800013577501B0
:104E20009307F6FF1377F70F9305E007B3F6A70094
:104E30009357F50163FCE5009305D00963FAE5009B
:104E4000370500801345F5FF3E958280014582803D
:104E500093055009D18E63CDE50013066009330731
:104E6000E64033D7E6003305E040F5F33A8582802B
:104E70001307A7F63397E600FDB7411106C622C413
:104E800015CD2A84D1209307E0093387A7409307E3
:104E9000600963C0E704A1469377F70F63D5A600C6
:104EA00061153314A40026042580260413559400AC
:104EB000B2402244DE075D8D410182800144260418
:104EC00013559400B24022448147DE075D8D4101B5
:104ED00082809307900963DDE7009307B50195464B
:104EE000B317F400898EB337F0003354D4005D8CCF
:104EF000954763D6A7009307B5FF3314F400B706B0
:104F000000FCFD16937774003376D40085C3937745
:104F1000F4009145638CB70011069317560063D7D0
:104F200007009307F009758E3387A74013146600B6
:104F30002580260413559400B24022449377F70F3E
:104F4000DE075D8D41018280C167637CF5029307B6
:104F5000F00F1307000263EBA70097370000938759
:104F6000E792AA9788233305A7408280218197374B
:104F700000009387A791AA97882361473305A7402C
:104F80008280B7070001636DF500618197370000EB
:104F90009387C78FAA97882321473305A74082802C
:104FA0004181973700009387678EAA9788234147EE
:104FB0003305A740828001476314E60001458280E3
:104FC000B307E5000507B386E5009C2383C6F6FF1B
:104FD000E384D7FE3385D7408280B3C7A5008D8B8D
:104FE0003307C50081E78D4763EDC700AA87637E5D
:104FF000E508942185078505A38FD7FEE3EBE7FE3F
:10500000828093763500AA8789CA94218507850511
:10501000A38FD7FE93F63700C5BF9376C7FF1386DD
:1050200006FE63F0C70683A3050083A2450083AF95
:10503000850003AFC50083AE050103AE450103A3A0
:10504000850183A8C5019385450223A0770003A8A5
:10505000C5FF23A2570023A4F70123A6E70123A835
:10506000D70123AAC70123AC670023AE170193879A
:10507000470223AE07FF75B790419107910523AE14
:10508000C7FEE3EBD7FEE3E6E7F6828039713EDA4E
:105090002ED232D436D63AD842DC46DE938701810E
:1050A00022CC804326CA06CEAA8409C41C4C99E3AC
:1050B00022851D2A0C4454102686228536C6F12EE0
:1050C000F2406244D24421618280AA879823938669
:1050D000170009EB850503C7F5FF8507A38FE7FEDA
:1050E00075FB8280B687DDB7AA879821850785057D
:1050F000A38FE7FE7DFB8280AA87850703C7F7FFA2
:105100006DFF3385A7407D15828015C27D1601474E
:10511000B307E500B386E5009C2394226396D7008D
:105120006304C7000507EDF73385D740828001454A
:105130008280411122C406C62A844EA572A523206E
:105140000500232205002324050023220506232829
:105150000500232A0500232C05002146814513055F
:10516000C505EFB00FAB971700009387079A5CD087
:10517000971700009387279C1CD4971700009387EC
:1051800007A05CD497170000938767A200D01CD8B3
:10519000B240224441018280971500009385A5D634
:1051A00091AA411126C2130680069384F5FFB384A9
:1051B000C4024AC02E8922C406C6938544074522EC
:1051C0002A8401CD2320050023222501310508C4AE
:1051D000138684068145EFB0CFA32285B2402244D6
:1051E00092440249410182801C4DA5E7411106C647
:1051F00022C497070000938767FA1CD593874181E3
:105200009C43232405042326050423280504631452
:10521000F50085471CCD2A84352848C022851D28E5
:1052200008C42285052848C4484001469145EFF04E
:105230005FF008440546A545EFF0BFEF4844094636
:10524000C945EFF01FEF85471CCCB2402244410115
:105250008280828041119387418126C284434AC063
:1052600006C69C4C22C42A8981E72685EFF0DFF729
:10527000938484048044DC40FD1763D607009C407F
:10528000B9CF8440C5BF0317C40039E7C17785078C
:1052900023220406232004002322040023240400E4
:1052A0005CC423280400232A0400232C0400214684
:1052B00081451305C405EFB0CF95232A0402232CA2
:1052C000040223240404232604042285B240224439
:1052D00092440249410182801304840671BF9145C2
:1052E0004A85EFF01FEC88C049FDB1472320F90043
:1052F0000144E1BF797122D44AD052CC56CA5AC86F
:105300005EC606D626D24ECE2A8AAE8A13048504FD
:105310000149054BFD5B09ECB25022544A85925479
:105320000259F249624AD24A424BB24B45618280ED
:10533000044483294400FD1963D409000040E1BFFF
:10534000DE24637BFB008397E40063877701A685F7
:105350005285829A3369A90093848406E9BF0111BA
:1053600026CA93843500F19806CE22CC4AC84EC690
:10537000A104B14763F3F404B14463E2B4042A899D
:10538000EF00F0519387C18C98433A8439E09387BA
:10539000018D9C4391E781454A852D2F23A8A18C3F
:1053A000A6854A85052FFD5963193507B147232086
:1053B000F9004A85EF00D04E29A0E3D004FCB147A4
:1053C0001CC10145F2406244D2444249B2490561E0
:1053D00082801C40858F63CF0702AD4663F6F600DE
:1053E0001CC03E9404C031A05C406313870223A616
:1053F000F18C4A85EF00D04A1305B40093074400AE
:1054000061993307F5405DDF3A94898F1CC05DBF19
:105410005CC3C5B72287404095BF1304350071981F
:10542000E30285FCB305A4404A856D25E31C35FBEA
:10543000B5BF1C46FD171CC663D90700184E63C5CF
:10544000E700A9476393F500A5A71C422E851387A3
:10545000170018C28CA38280011122CC26CA4AC828
:105460004EC652C406CE2A89AE893284B304D60011
:105470007D5A63149400014509A80C204E864A8584
:10548000EFF03FFB0504E31645FFF2406244D244CF
:105490004249B249224A05618280357122CD26CB2C
:1054A0004AC94EC706CF52C556C35AC1DEDEE2DC3A
:1054B000E6DAAA89AE843289368409C51C4D99E39F
:1054C000EFF09FD2972700009387474E6399F40C23
:1054D00083A44900DE24A18BEDC79C48FDC393073C
:1054E0000002A304F1029307000302D22305F10294
:1054F00022C6930B5002972A0000938A2A4F054C2C
:10550000294B4A841C2099C3639F770DB30C244117
:10551000638E0C00E6864A86A6854E85EFF0DFF3A3
:10552000FD576301F51E9256E69636D21C20638B1A
:10553000071CFD571309140002C802CE3ECA02CC54
:10554000A309010482D48345090015465685EF005E
:10555000903313041900C24749E913F7070109C73B
:1055600013070002A309E10413F7870009C7130713
:10557000B002A309E104834609001307A002638E69
:10558000E606F2474A848146254618209305140012
:10559000130707FD6376E60AADCA3ECEBDA0972786
:1055A00000009387A7426395F40083A489001DB788
:1055B000972700009387873DE39EF4F083A4C900FA
:1055C00011BFA6854E85F92D19D97D55FA406A443B
:1055D000DA444A49BA492A4A9A4A0A4BF65B665C57
:1055E000D65C0D618280050431BF3305554133150A
:1055F000AC00C98F3EC82289B9B73247930647002D
:10560000184336C6634707023ACE18209307E002D4
:10561000631DF70418309307A002631BF702B2471B
:105620000904138747009C433AC663C107023ECA78
:105630002DA83307E04093E727003ACE3EC8F1B7E4
:10564000B387670385462E84BA9781B7FD57C5B7E0
:10565000050402CA81468147254618209305140097
:10566000130707FD6376E606F9F20C200D461725B1
:10567000000013052538EF00102111CD97270000F9
:10568000938747371D8D93070004B397A7004245C2
:1056900005045D8D2AC80C20194617250000130546
:1056A000A535130914002304B102EF00D01D35C144
:1056B00097B7FFFF9387079595E74247B247137760
:1056C000071009CF91073EC69257D2973ED215BD1B
:1056D000B387670385462E84BA9741B79D07E19B40
:1056E000A107D5B7780097060000938626D72686AF
:1056F0000C084E8597000000E7000000FD572A8A3D
:10570000E314F5FCDE2493F70704E39007EC12554D
:1057100075BD780097060000938646D426860C084F
:105720004E85012AE1BF797156CA9C49BA8A9845CB
:1057300022D426D24ECE52CC06D64AD05AC85EC605
:10574000AA892E84B284368A63D3E700BA879CC0C4
:105750000347340419C385079CC01C4093F7070214
:1057600081C79C4089079CC0032904001379690004
:10577000631A0900130B9401FD5B5C449840998FF8
:10578000634CF9041C408346340493F70702B33694
:10579000D000A5EB13063404D2854E85829AFD57BE
:1057A0006303F5041C4011469840998B544481448E
:1057B0006397C700B384E64063D3040081441C446C
:1057C00018486354F700998FBE94014969047D5BC2
:1057D00063982405014509A885465A86D2854E85D9
:1057E000829A631E75017D55B2502254925402591B
:1057F000F249624AD24A424BB24B45618280050966
:10580000ADBF3307D40013060003A301C704034749
:10581000540493871600A2978906A381E7049DBFCD
:1058200085462286D2854E85829AE30E65FB050960
:1058300045B7797122D426D24AD04ECE06D652CC64
:1058400056CA5AC8B689942D930790063289AA84FD
:105850002E8413863504638DF60263E2D706930720
:1058600080056386F61863EDD700638E06209307E4
:105870003004638EF60A930A24042301D404C9A0D9
:10588000930730066385F60A93074006E395F6FE14
:105890001C40084393F6070893054500C5C61C4104
:1058A0000CC363D807001307D002B307F040A3016D
:1058B000E404972600009386A614294765A8930759
:1058C00000076382F61663E5D7029307E006638953
:1058D000F6189307F006E390F6FA0C401C4313F811
:1058E0000508138547006307080608C39C4385A87D
:1058F00093075007E383F6FE930780076389F61248
:1059000093073007E399F6F61C43D041814593860F
:10591000470014C383AA07005685B52701C5330580
:10592000554148C05C401CC8A301040461A81C4345
:10593000930A2404938647009C4314C32301F40470
:105940008547D5B793F607041C410CC3B9DAC207E3
:10595000C18781BF93F5050408C3C9D99E231307E6
:10596000F0066387E60E97260000938666092947AE
:10597000A30104044C400CC463C5050008406D99A4
:1059800008C099E3B28A89CDB28AB3F5E702FD1A5D
:10599000B6958C212380BA00B3D5E70263F0E70CFB
:1059A000A147631EF7001C40858B91CB58401C48D3
:1059B00063C7E70093070003A38FFAFEFD1A3306BF
:1059C000564110C84E87CA867000A2852685EFF022
:1059D0009FD57D5A631D450B7D55B250225492547C
:1059E0000259F249624AD24A424B45618280A382FF
:1059F000D504972600009386A6000C40084313F8B0
:105A000005081C411105630D080208C313F71500B2
:105A100001C793E505020CC04147B9FB0C4093F563
:105A2000F5FD0CC0B1B79C4193E707029CC19307F9
:105A30008007A302F404972600009386A6FD75BF95
:105A400013F8050408C3E30308FCC207C1837DBF44
:105A5000972600009386C6FA214719BFAE8735B74F
:105A600094411C43CC4913F806081385470063068C
:105A7000080008C39C438CC339A008C393F60604EE
:105A80009C43F5DA8EA323280400B28A25BF14486C
:105A90005686CA8526858299E30045F51C40898B88
:105AA0008DE7B2474844E35AF5F23E853DB7854657
:105AB0005686CA8526858299E30065F3050A5C440B
:105AC0003247998FE345FAFEE9BF014A930A9401F0
:105AD0007D5BF5B7411122C42A842E8597C7FF1F2D
