:100000006F301065130000001300000013000000A3
:100010001300000013000000130000001300000094
:100020001300000013000000130000001300000084
:08003000130000007300100032
:100038000000000000000000C4390000E43900009E
:1000480000000000963D00000000000000000000D5
:10005800983D00009A3D00000000000000000000EC
:100068009E2F000000000000D002000000000000E9
:10007800A03D0000A23D0000A43D0000A63D0000F8
:10008800A83D0000AA3D000094330000BC330000E6
:10009800E43300000C34000034340000B63D0000A6
:1000A800B83D0000BA3D0000BC3D0000BE3D000068
:1000B800C03D0000C23D0000C43D0000C63D000038
:1000C800C83D0000CA3D0000CC3D00005C34000083
:1000D800D03D0000D23D0000D43D0000D63D0000D8
:1000E800D83D0000DA3D0000DC3D0000DE3D0000A8
:1000F800E03D0000E23D0000E43D0000E63D000078
:10010800E83D00008A370000EC3D0000EE3D0000AD
:10011800D4340000F23D0000F43D0000F63D00003C
:10012800F83D0000FA3D0000FC3D0000FE3D0000E7
:10013800003E0000023E0000043E0000063E0000B3
:10014800083E00000A3E00000C3E00000E3E000083
:10015800103E0000123E0000143E0000163E000053
:10016800183E00001A3E00001C3E00001E3E000023
:10017800203E0000223E0000243E0000263E0000F3
:10018800283E00002A3E00002C3E00002E3E0000C3
:10019800303E0000323E0000343E0000363E000093
:1001A800383E00003A3E00003C3E00003E3E000063
:1001B800403E0000423E0000443E0000463E000033
:1001C800483E00004A3E00004C3E00004E3E000003
:1001D8000000000000000000000000000000000017
:1001E8000000000000000000000000000000000007
:0801F8000000000000000000FF
:1002000097020120938202E0938202E0739002340D
:1002100003210500224573100530B1A81971232070
:10022000250006C006C216CAF322003093F28200EF
:10023000638402009302000816C412C81ACC1ECEB2
:1002400022D026D22AD42ED632D836DA3ADC3EDE76
:10025000C2C0C6C2CAC4CEC6D2C8D6CADACCDECEE6
:10026000E2D0E6D2EAD4EED6F2D8F6DAFADCFEDE56
:1002700003A1050009A0024573101534924037858B
:1002800000001305058073200530224573200530DA
:100290004242D2426243F243025492542255B25532
:1002A0004256D2566257F257064896482649B649F2
:1002B000464AD64A664BF64B065C965C265DB65DB2
:1002C000465ED65E665FF65F09617300203000000F
:1002D000197116CA9302000816C49302000273A093
:1002E000428006C212C81ACC1ECE22D026D22AD4F0
:1002F0002ED632D836DA3ADC3EDEC2C0C6C2CAC416
:10030000CEC6D2C8D6CADACCDECEE2D0E6D2EAD4A5
:10031000EED6F2D8F6DAFADCFEDE73110134FD23F4
:10032000EF107006EF004061731101341384C18F28
:1003300003290400630409022320040073251034F8
:100340002AC01384418F044023A024001384818F8A
:10035000044003A104000245731015349240B78293
:1003600000009382028073A00230A24273A0023088
:100370004242D2426243F243025492542255B25551
:100380004256D2566257F257064896482649B64911
:10039000464AD64A664BF64B065C965C265DB65DD1
:1003A000465ED65E665FF65F09617300203000002E
:1003B000397101436EC619A0397141536AC866CAC2
:1003C00062CC5ECE19A0397101535AD056D252D4A4
:1003D0004ED64AD826DA22DC06DE3301614082821C
:1003E00041114AC026C222C406C68282B24D4101D2
:1003F000024D924C224CB24B4101024B924A224A8E
:10040000B2494101024992442244B24041018280F2
:100410003D432A876373C3029377F700BDEFADE5D1
:10042000937606FF3D8ABA960CC34CC30CC74CC7E3
:100430004107E36BD7FE11E28280B306C3408A0610
:100440009702000096966780A6002307B700A306D0
:10045000B7002306B700A305B7002305B700A30420
:10046000B7002304B700A303B7002303B700A30218
:10047000B7002302B700A301B7002301B700A30010
:10048000B7002300B700828093F5F50F939685009F
:10049000D58D93960501D58D61B793962700970268
:1004A000000096968682E78086FA9680C1171D8F97
:1004B0003E96E374C3F8A5B703A5C1868280EFF228
:1004C0003FF29387C1869843050798C3EF10402FEA
:1004D0003C45FD173CC589E77C413CC5EF10003326
:1004E000EF10C05D05B7014582800145828001455E
:1004F000828001458280EFF2BFEE3D64BD6413044B
:10050000840C9384440D63639400EDBD1C4011047E
:100510008297D5BFEFF2DFEC3D64BD641304440D58
:100520009384C40D63639400F1BD1C401104829751
:10053000D5BFEFF2FFEAF93FEF304067E1B5EFF2E8
:100540003FEAB705000037D50000D14715479306AD
:1005500000200146938525531305855BEF10A026E7
:10056000EF10E03D45B5EFF2BFE7EF10A062EF20DE
:10057000B01BEF00B02BEF10E05BEF005078C137FD
:10058000EF10E05B012CEF00707A0145A5BDEFF2A2
:100590003FE5D13F0145BDB5EFF2FFE2AA89EF107B
:1005A000202219C1EF10800A2545EF00F060444178
:1005B0001304450063968400EF108020014911A8C0
:1005C000138944FF2146CE854A851D2D01E9EF1090
:1005D000201F19C1EF10E0084A8505B58440D9BF36
:1005E00009E57D5582807D5531BDEFF27FDF2A849C
:1005F0002E853289AE844D377DF522852686A54528
:10060000EF00305E0145231C2401230E0400231D4E
:100610000400D9BFEFF2DFDC1E2D41112A84C18B0B
:100620009DE71C558DC32EC68297AA84B24501CD85
:100630002A8637D50000A2851305055CEF009018C7
:1006400026854101C1B31E2C93E707011EAC1E2C69
:10065000A18B89C73E2CE554A18BFDF35C5489CF57
:1006600022858297AA8405E13E2C93E787003EAC61
:100670005C2C85075CACE9B785679387F7F0FD8D47
:100680002EAC8144D5B7E957E31CF5FAF1BF5C2DD8
:1006900085CBEFF2FFD4FD1793F7F70F5CAD2A84FB
:1006A000014789EF1C5989E70147231D040039A040
:1006B00082972A8775D9E957E309F5FE3A8599B3F8
:1006C0007D573A858280EFF2BFD1582D09E77D55DD
:1006D0002129014521A05C5999C3829725B3695509
:1006E000C5BFEFF2FFCF582D09E77D55F52E014527
:1006F00021A01C5D99C3829731B36955C5BF0CD148
:1007000001458280EFF23FCC9389818C854A83A793
:10071000818C63863705EF10E04783A7818C2A8A96
:10072000638D370303A4818C5C4018401309C4FE19
:100730005CC398C340C000C0EF0050717C5099C3A7
:100740004A8582974A85EF00105B631B55014A85F5
:10075000EF00104FEF00F0705285EF10604471B958
:10076000EF0030705285EF10A0434848EF00303A58
:100770004A85EF00305561BFEFF29FC6138401A791
:10078000130904011C4091C382971104E31C24FF48
:10079000953FEDB7EFF2DFC437060000B7D5000094
:1007A000930800023D4893070020138701A8814663
:1007B000130686779385855F1385019FEF00307D53
:1007C0001385019FEF10A01735B9EFF27FC14111DA
:1007D0002A842E8532C62EC4EF1060083246A24508
:1007E00019C68547630DF6000145410121B95840FE
:1007F000938745011CC398CD5CC0C0C9F5B71C40A8
:100800006388870083C6550303C7170263FAE600AF
:10081000D4431387450198C294CDD8C3DCC9E9B746
:100820009C43F9BFEFF2DFBB4111B2842E868945AC
:100830002A8436C6EF00F03AB246930744011CCC36
:100840005CC846AC14B4014541016DBEEFF2BFB7C0
:1008500083A7418B41112EC62A8491C38297EF1042
:1008600060335E2CAA8989CFFD175EACEF10403350
:1008700083A7018B014591CB22858297014531A049
:10088000B24791E7EF10C03179554101BDB6EF0095
:100890003073232805021034AA85AA841305440165
:1008A0002D37B247635CF0001389C40470008145A2
:1008B0004A85EF10201D4A85EF10C0114E85EF10BC
:1008C000202EEF007049885845D5C1B7EFF25FB1CF
:1008D00083A7C18A2A8491C38297EF10A02BAA8490
:1008E000484893074401630EF5003115EF1060008E
:1008F00005442685EF10C02A19C0EF00F0450145D8
:1009000011B65E2C85075EAC0144E5B7EFF25FAD32
:100910004111EF102028138781871C23850793F747
:10092000F70F1CA383A7018781C72AC68297324588
:10093000EF1000274101F9B4EFF29FAA4111EF1027
:100940006025138781871C23FD1793F7F70F1CA3DE
:1009500083A7418781C72AC682973245EF1040247A
:1009600041014DB403C58187828093780804411109
:10097000639E0800B5689388487A93730801638B77
:1009800003001378E8FF930E000219A8B568938856
:100990000870E5B713731800930E0003E30503FE18
:1009A00013732800630E0306635806023306C04023
:1009B0009302D0020A8E814F294F6395E607337365
:1009C000D6023356D602469303430300850F050E25
:1009D000A30F6EFE7DF20DA0137348009302B002C8
:1009E0006317030093728800B3325000960279F2C5
:1009F000930600035480854FFE8663D3FF00BE86B6
:100A000013781801158F631308046385020063537C
:100A1000E0007D172A86B308E5001303000221A831
:100A20008142F1B71373F600118271BF6374B6008F
:100A30002300660005063388C840E34900FF3A8674
:100A40006353070001467D173295118F63880200BA
:100A50006374B500230055007D1705056387030205
:100A6000AA96130800031DA86374B6002300D601DC
:100A700005063388C840E34900FF3A866353070000
:100A800001467D173295118FE1BF2A86B308E50034
:100A9000CDB76374B5002300050105053386A64074
:100AA000E3C9CFFEFD56FD1F6383DF0099E7AA87E8
:100AB0003306E5001308000231A86376B50033065B
:100AC000F101102210A10505F9BF63F4B7002380DE
:100AD00007018507B306F640E349D0FE63530700DC
:100AE00001473A9541018280EFF29F8F2A849D3D14
:100AF00009C523AE81866FF0FF90EF00704C75D969
:100B000000D9D5BF0D47AA876376C7009377350014
:100B100091C7AA873E966397C706828093F7F50F21
:100B200013978700D98F139707015D8FB308C5000E
:100B3000AA87BD463388F84063EB06039357460007
:100B4000C156B386D7029207AA970D4836963383CB
:100B5000C700BE86B308D34063621803135726004C
:100B6000F156B306D7020A07BA97369665B798C307
:100B7000D8C398C7C10723AEE7FE6DBF910623AE69
:100B8000E6FEC9BF8507A38FB7FE71B763F2A50460
:100B9000B386C500637ED5029345F6FF8147FD17F6
:100BA0006393F50082803387F600030807003387DC
:100BB000C7002A9723000701DDB73387F5008306B6
:100BC00007003307F500850714A3E318F6FE8280BB
:100BD0008147E5BF0DC6AA8785050387F5FF850711
:100BE0009306F6FFA38FE7FE09EB3E968507639316
:100BF000C7008280A38F07FED5BF3686F1FE8280B4
:100C000001476314E600814739A8B307E5008386EE
:100C10000700B387E5009C23B387F640E207E1872E
:100C200099E30507F9FE3E858280AA8703870700BE
:100C300001E73385A74082808507CDBFEFF2CFF76C
:100C40002E89B30B250141112A8CB68563F5AB00C3
:100C50001349F5FFFD5BC16937DA00006284930A2E
:100C6000B002130B0002FD19130ACA7931A8130749
:100C700050026389E702637374011CA0130514001A
:100C8000B284138614002A8483070600EDF36306FA
:100C90000900637B742F2300040033058441410164
:100CA0006FF00FF501481307D002930630021305C9
:100CB000000331A0639E570113684800268683070E
:100CC000160093041600E397E7FE13680801FDB7CA
:100CD0006395670113688800D5B76395D7001368DB
:100CE0000802E9BF6395A70013681800C1BF138706
:100CF00007FDA54663E6E6040147A546294539A058
:100D00003307A70285043E97130707FD8387040076
:100D1000138607FDE3F6C6FE038604009306E00291
:100D2000FD57631FD604838714002546938614005D
:100D3000138507FD6365A60A8147254529433DA024
:100D40009306A0027D57E399D7FC984193042600AF
:100D50009105E35307FC3307E040136808016DBFBA
:100D6000B38767028506B297938707FD038606005F
:100D7000930806FDE37615FF63D307008147B68429
:100D80008386040013068006014593F8B6FF639539
:100D9000C80013F5F60F8504038604009306900639
:100DA0006303D60663C5C606930680056303D61C97
:100DB00063C3C604930750026307F61A6375740190
:100DC000930750021CA08387040013051400638658
:100DD000071A637375011CB0130524005DB5130673
:100DE000A0026397C7009C4193862400910569B7D0
:100DF000B684814771B7930630066302D60893061E
:100E00004006E31DD6FA13682800A94699A0930668
:100E100030076303D60C63C5C6029306F006630071
:100E2000D61693060007E31BD6F8FD566315D700C8
:100E3000136818002147938C4500C14690411DA8B6
:100E400093065007E303D6FC93088007C146E317D7
:100E500016F71306C006938C4500E301C5FE130682
:100E60008006E31DC5FC904193752800639B051027
:100E700033763601DE852285CD3CE68519B51378BB
:100E8000080163150802BA879306000229A063735C
:100E9000740114A00504FD17E34BF0FE9307F7FF60
:100EA0006343E00005473387E74005079387450024
:100EB00063747401944114A013051400229713065F
:100EC0000002B306A7406344D000BE855DBB6373D8
:100ED000750110A10505F5B783AC0500138D45001C
:100EE00063930C00D28C66853EC63AC442C2353B41
:100EF000B247AA86124822476355F00063D3A70081
:100F0000BE8613780801631E0800BA871306000224
:100F100031A06373740110A00504BA877D17E3CA7A
:100F2000F6FE814763C1D702B68763D306008147C7
:100F30003305F4002A9713060002B307A74063CFD6
:100F4000F600EA853DBB3306F40063777601B3858E
:100F5000FC00838505000CA28507E9B76373750162
:100F600010A10505D9BF6373740110A01305140007
:100F700009BB13680804C146E9BDFD1419B3A146B5
:100F8000C9BD42064186FDB5A38F0BFE39B303A54B
:100F900001888280EFF2CFC403A90188EFF0CFDF90
:100FA00011CD13840188AA84084019C1EFF02FEEF7
:100FB000930530042685EFF0EFE504C04A856FF015
:100FC0006FC48280397126CA2ED232D436D62A8690
:100FD00054109305F007138501C83EDA36C606CED5
:100FE00022CC3AD842DC46DE9139AA8603A5018894
:100FF00009E9138501C8F137F2406244D244216106
:1010000082802686262D1384018893E704043EAD52
:101010009307F00763F4D7009306F007138601C81F
:101020008145EFF00FEC1C40A6AFF9B7EFF24FBBD4
:1010300037D5000013054571713737D5000013050A
:101040000572493737D7000037D5000013074774BA
:101050008D4605468D4513050575AD3737D500001E
:101060001305057785376FF0EFB931C5B56613778E
:10107000F50F9386066009C7BA9688220505828017
:10108000C167938707F0E98F81CB21851377F50F2F
:101090003697082325058280B707FF00E98F81CBAB
:1010A00041859377F50FB697882345058280618146
:1010B000369508216505828003A781885C41BA972F
:1010C0006305F502B62395E283A64188638FF60097
:1010D0009386C18890426313F60088C2D44354C1FA
:1010E000DC43B306E540BA9794C71045B307C70081
:1010F000630FF500B62381EE9386C1888C4263931B
:10110000A5009CC25441D4C35C413E9710C7828065
:10111000EFF20FAD83A5418937D500001305857B1C
:10112000553583A5018A37D500001305C57C593D87
:1011300083A5018937D500001305057E61356FF061
:101140006FACEFF2EFA913F7C5FFE1462E8663F10E
:10115000E60693073500F19B930687FE63EAF604E3
:101160001D8F130687FE23AAC18889665117138431
:101170008188938606EAD8C394C323A407001CC0C1
:10118000BA9723A2F188C966938606EAB7E50000FC
:1011900094C3D8C398C78146054693858587138530
:1011A00001D0EFF02FE8184023A6E1886FF08FA55B
:1011B000AA8537E50000130505882935C5BFEFF27C
:1011C0002FA239C503A741891304350071981389EB
:1011D000418981446366870EB1476373F4003144EB
:1011E000FD55138501D0EFF06FE683A7C18883A575
:1011F00081888328090026853386B740B3868840D6
:101200001388C1886368D600138501D0EFF00FEC16
:1012100081447DA0B384C500BA2003AE440061E7D9
:101220003307CE40930F47FF63EF8F0A138F018A76
:10123000938E01891303840183260F0083A30E007C
:101240001389018A9382018963EF6F061307C40033
:101250003297896E3383E500938E0EEA2322C30111
:101260002324C3002320D3010546D8C0B2A00326FF
:101270004300B108630416012E9618C61387C600F2
:1012800022972320E90063F4E30023A0E20009672A
:10129000130707EA9AA0639A970083A6418801473B
:1012A000B22305EE19C32320F800138501D0EFF017
:1012B000EFE183A7C189B10481C7A2852685829702
:1012C00026856FF02F9405463697B2A02320EF00B5
:1012D000E3FFE3FA23A0EE005DBFE385D7FCDC4328
:1012E0000547AE9775BF728631BFEFF26F8F330639
:1012F000B5024111328532C6D9352A8409C5324634
:101300008145EFF03F80228541016FF0AF8F45C5E9
:10131000EFF26F8B83A781892A8491C3829783A779
:101320008188138981886366F40883A74188637282
:10133000F408FD55138501D0EFF04FD1835764FFBA
:10134000930944FF81CB035744FF8967938707EADA
:101350006301F70237E500001305C582A531835606
:1013600044FF035664FF37E50000CE8513058584EE
:1013700091398967938707EA231AF4FE9387C18816
:101380009843231B04FE63F4E90023A0370113876D
:10139000018A1C43832684FF4E85958F832609008E
:1013A000B386D940B6971CC3013B138501D0EFF03B
:1013B000EFD16FF08F848280B707002093860700FB
:1013C00001479387070021468C426396A5001315B9
:1013D00047003E9582800507C106E317C7FE014519
:1013E0008280EFE25FFE2A842E85AE89328AE93759
:1013F0002A89A92C83244900930749006390F404A7
:101400008D2493E909F8230434012146D2852285ED
:10141000EFF04FFC83A7418A99C322858297EF00A2
:101420006077032749009307C4005CC358C4232294
:10143000F90004C8EF00C0766FE03FFC84407DBF38
:10144000EFE21FFA83A7818A2A8491C3829723043B
:101450000400EF002074544418489307C400D8C215
:1014600014C31CC85CC4EF00A0736FE0BFF9EFE2C7
:101470009FF52E89AA898937AA84484589332A8409
:101480001DCDD0448145EFF0EFE721462304340120
:10149000A3040400CA852285EFF0CFF383A7418A15
:1014A00099C322858297EF00E06ED8409307C4006D
:1014B00091045CC358C49CC004C8EF00606E2285D0
:1014C0006FE0BFF3EFE2DFF183A7818A2A8491C343
:1014D000829723040400EF00E06B544418489307FC
:1014E000C400D8C214C31CC85CC4EF00606B228562
:1014F000393D6FE03FF1030585007D8182802392B5
:10150000018C938701D213870708DCC39CC3A10712
:10151000E39DE7FE3D47238CE18A23AE018A23A8A1
:10152000018C9387818CDCC39CC38280EFE25FEBEC
:1015300003A5018DEFF07FB37D159317350013855B
:1015400001D23E9508411307C5FE210523AEE18A6D
:10155000EFE01FCB6FE01FEBEFE29FE8EF0080634F
:101560008397418C2A89B1E703A5018DEFF0FFAF86
:101570007D1513173500938701D2BA97844393875B
:10158000C18B80439385C4FE6305B4028CC383A7DB
:10159000018C238CA18A99C32285829783C7818776
:1015A0001305C4019385840093F7F70F81EBEFE0F7
:1015B000FFC64A85EF00C05E6FE0DFE4EF00A05E8B
:1015C000CDBFEFE2FFE12A84EF00C05C8347440314
:1015D00093064401C19B93E71700230AF402834753
:1015E000540313973700938701D2BA97D84314C393
:1015F00018CCD4C35CC89387018D9443185C558F75
:1016000098C3EF00E0596FE0FFDFEFE27FDD2A844F
:101610005123184C544893074401D8C214C35CC8E2
:101620001CCC8347540313973700938701D2BA9792
:101630009843631AF7001387018D1C5C144393C70A
:10164000F7FFF58F1CC3A92B6FE0DFDBEFE25FD95B
:1016500091239387418C9A2305079AA391236FE0E6
:101660007FDAEFE2FFD73D231387418C1E23FD175E
:10167000C207C1871EA3634BF000231007000D2390
:1016800083A7C18B91C3C93D6FE0DFD7112BEDBF9D
:10169000EFE21FD503A4C18BF529AA842285B537B3
:1016A0009147230AF4021305C40431262285A1358B
:1016B0008547631BF5003C5C81EB22855133268511
:1016C000C521593D6FE01FD483A6818C13074401C7
:1016D00023A4E18CD8C29387818C54C81CCCC5B795
:1016E000EFE21FD02A845105411108CC48C80CD024
:1016F00050D014D43A8658D49305300236853EC66D
:1017000042C4EFF02FC0585410544C500850711779
:10171000B71600003A96938606691D21B247224803
:101720003716000048CC230BF402A30AF402232C42
:1017300004028147232204052324040523280402EC
:10174000230A0402232C0406232E04060147A28642
:101750001306E676A2851305C4040D2483A7418DE4
:1017600099C322858297014541016FE0BFC9EFE22D
:101770003FC75049144D795718D954C21307450132
:1017800090C218CD58C9353DC13B6FE0BFC7EFE2ED
:101790003FC54111B2842E8685452A84368946C0CC
:1017A0003AC63EC442C2EFF0DFC302489247224726
:1017B000B2464A86A6852285253741016FE09FC43F
:1017C00003A5C18B8280EFE21FC041112E89AA853B
:1017D000054532C6B684BA893E8AEFF05FC92A84CD
:1017E00011C92685EFF0BF9D324609E92285EFF049
:1017F0007FCD0144228541016FE03FC0AA86528817
:10180000CE872687CA852285E13DEDB7EFE25FBD31
:10181000512683A7C18B0546AA8603C747033D8B84
:10182000631CC702D04B984F6308E60258C210C32E
:1018300003C65703938647010E06138701D294CF40
:101840003297504314C290CF54C3D8CB912EEFF0AF
:10185000BFD001456FE01FBB36859926DDBF8347AA
:1018600045030547BD8B639FE702EFE27FB72A84FC
:10187000152683474403AA842285C19B93E727004A
:10188000230AF402EFF07FD81305C404E122268571
:10189000012E83A7C18D014581C72285829701450D
:1018A0006FE05FB67D558280EFE29FB341112AC69B
:1018B000D52403A4C18B2A89228555379304C404F7
:1018C0007000814526857D2A268529224A85C92CD6
:1018D000EFF09FC81858F9576314F7002328040243
:1018E000014541016FE01FB2EFE29FAF753F6FE02E
:1018F0007FB1834745030947BD8B6390E704EFE25F
:101900003FAE2A84412C5448184C93074401AA84C2
:10191000D8C214C31CCC5CC81305C404252A268570
:1019200041242285EFF0FFC983A7818D014581C73E
:101930002285829701456FE0FFAC7D558280EFE202
:101940003FAA8346650305473317D70018DD0947CB
:10195000A30AD502230AE502693F83A7C18B99C375
:10196000EFF09FBF01456FE0FFA95449184D930761
:101970004501D8C214C31CCD5CC98280EFE25FA6CA
:101980004111B2842E86A9452A8436C63AC43EC285
:10199000EFF03FA59247B2462247F99B1CB493074C
:1019A000440144CC14D02324040258D01CCC5CC87D
:1019B00041016FE03FA5EFE2BFA22A84E12AAA8499
:1019C000228565372685E92A2285EFF07FA7014524
:1019D0006FE05FA3EFE2DFA02A846D2AAA8422854C
:1019E00069371C342685F99B1CB45D2A83A7018BBB
:1019F00099C322858297EFE03FAC5C503E9508D4B6
:101A0000512A1387C18E0328470037060080938729
:101A1000C18E1346E6FF98436315F8029386018E44
:101A20009042050690C29306440154C358C894C31B
:101A30001CCC1C3493E717001CB49D2201456FE0B9
:101A40007F9C544B0C546385B6008D8EE378D6FC96
:101A5000BA87D1B71C35858B85C7EFE27F9883A7FE
:101A6000C18A2A8491C382973522AA842285F53DB2
:101A700026853D221C340145F99B1CB46FE09F98DC
:101A80007D55828085476381F50263C5B70085C1B6
:101A9000014582808947638FF5008D47E39AF5FE03
:101AA0001C3593E7270009A85C511CC2D5B71C421E
:101AB0005CD1F9BF1C35F59B1CB5D9BFEFE2DF8FB8
:101AC000EFE09F9F2A8CF920B70900802A8A93842F
:101AD000C18E93C9E9FF8D4B8040631694005285F7
:101AE000C1206FE0FF9048481309C4FE3305AC40A5
:101AF000E3E7A9FE83A7418E99C34A8582974A8569
:101B0000EFF0BFE61C4448448297EFE0FF9A83A7BA
:101B1000818E2A8C99C34A858297834754FF13F795
:101B2000E70FA30AE4FE8D8BE39877FB4A85EFF07D
:101B30007FEA5DB79387C18EDCC39CC382808280BD
:101B40001106719A2A8837C7ADDE130506F8AA87F1
:101B50001307F7EE631EF600A16793870788232219
:101B6000D6F82324B6FA232006F92324F6F8828037
:101B700098C39107C5B737F700E01C43B70600804C
:101B8000D58F1CC3828037F700E01C43860785830E
:101B90001CC3828021651305058073150530828082
:101BA000731005308280EFE2BF831387C18F184323
:101BB0009387C18F19E323AAA18E23ACB18E054769
:101BC00098C3553F6FE01F842A87814718436314E9
:101BD000A7003E8582808507D5BFB707EFBE37E7F0
:101BE00000E0938707083CC701458280EFE24FFF82
:101BF00037E500001305C58BEFF0CFBC01456FE062
:101C00007F80EFE2EFFD2A84FD5437E900007D1468
:101C1000631494006FE00FFF13054902EFF08FBAD1
:101C2000FDB7EFE24FFA0041AA8437E90000B7E9B7
:101C30000000631494006FE04FFC9305C4FE13058D
:101C40008902EFF02FB81C40638697001385C90204
:101C5000EFF04FB70040F1BFEFE28FF82E89EFE0D1
:101C6000DFFC2A84EFF09F9E83240900639C2401FB
:101C7000EFF03F9FA14763C3870011E02144228515
:101C80006FE04FF8138544FFEFE03FFA6353A40081
:101C90002A848440E1BFEFE22FF20545EFF0CFF157
:101CA000B7E90000130945002A84CA85138509B7DE
:101CB0006537AA85AA8437E50000138609B713059E
:101CC00085B7EFF02FB02685EFF0BFF337E50000C2
:101CD0001305C5BBEFF00FAF4040B7E90000054A60
:101CE000894A37EB0000B7EB000037EC0000B7EC97
:101CF000000037ED00006315890001456FE04FEFEC
:101D0000034794021385C9BF930644FF2146A68565
:101D1000EFF04FAB8347840213858CC0BD8B638E7D
:101D2000470113054CC1638A570113850BC291C744
:101D300011476396E7001305CBC2EFF0AFA84C4CF8
:101D400093073002AE8698226306F702105093077D
:101D500040060848B295B386D540B386F602585C73
:101D60005C50898D13058DC3B3D6C602EFF08FA5E5
:101D7000004051B78506C1BFEFE2EFE441110945CC
:101D8000EFF08FE39309450037E900002A84CE8500
:101D9000130509B1EFF05FECAA85AA8437E50000CE
:101DA000130609B11305C5B1EFF0CFA12685EFF0F9
:101DB0005FE537E50000130585B3EFF0AFA04040C5
:101DC00037EA0000B7EA000037FB0000639689009D
:101DD000014541016FE06FE21A281C44930644FF5D
:101DE0001309840036C63AC44A856306F902EFF047
:101DF000BFDD2247B246AA872146A68513850AB5CC
:101E0000EFF04F9C4A85EFF0DFE11305CBC9EFF00F
:101E10006F9B004065BFEFF03FDB2247B246AA87C9
:101E20002146A68513050AB6EFF0CF99DDB7EFE29C
:101E30008FD941111145EFF02FD89309450037E9AB
:101E400000002A84CE8513054995EFF0FFE0AA85AE
:101E5000AA8437E50000130649951305C595EFF0F0
:101E60006F962685EFF0FFD937E50000130505983A
:101E7000EFF04F95404037EA0000B7EA000037FB2B
:101E8000000063968900014541016FE00FD71C44B3
:101E900013098400930644FF18486309F9024A8530
:101EA00036C63AC4EFF05FD22247B246AA8721462F
:101EB000A68513850A9AEFF0EF904A85EFF07FD65A
:101EC0001305CBC9EFF00F90004065BF2146A685F2
:101ED00013058A9BEFF00F8FC5BFEFE2CFCE411104
:101EE0000D45EFF06FCDB7E90000130945002A84D6
:101EF000CA851385C9AAEFF03FD6AA85AA8437E51B
:101F000000001386C9AA130545ABEFF0AF8B2685F9
:101F1000EFF03FCF37E50000130585ADEFF08F8A76
:101F20004040B7E9000063168900014541016FE0B8
:101F3000CFCC930644FF1305840036C6EFF0DFC80C
:101F4000034834015C48B246AA8821472146A68549
:101F5000138589AFEFF00F870040F1B7EFE2AFC60E
:101F600041111545EFF04FC59309450037E90000D1
:101F70002A84CE851305C99CEFF01FCEAA85AA84BA
:101F800037E500001306C99C1305459DEFF08F83CC
:101F90002685EFF01FC737E500001305859FEFF09A
:101FA0006F82404037EA0000B7EA000037FB0000CC
:101FB00063968900014541016FE02FC47A285E28AD
:101FC0001044930644FF1309840036C63AC43EC247
:101FD0004A856307C902EFF03FBF92472247B246E6
:101FE0002A882146A68513854AA1EFE0BFFD4A85D0
:101FF000EFF03FC31305CBC9EFE0DFFC00404DBF5E
:10200000EFF09FBC92472247B2462A882146A68518
:102010001305CAA2EFE01FFBD5B7EFE2CFBA41111B
:102020001945EFF06FB99309450037E900002A849C
:10203000CE85130549A4EFF03FC2AA85AA8437E5EF
:102040000000130649A4130505A5EFE0BFF7268598
:10205000EFF03FBB37E500001305C5A6EFE09FF6A4
:10206000404037EA0000B7EA000037FB0000639603
:102070008900014541016FE04FB81A2C1C449306BA
:1020800044FF1309840036C63AC44A856306F90240
:10209000EFF09FB32247B246AA872146A685138553
:1020A0004AA8EFE03FF24A85EFF0BFB71305CBC96E
:1020B000EFE05FF1004065BFEFF01FB12247B2468D
:1020C000AA872146A68513058AA9EFE0BFEFDDB7F1
:1020D000EFE26FAF5D712545EFF00FAEB56513060A
:1020E00000052A8413094500938585560A85EFA0CB
:1020F0006014B7E90000CA851385C98EEFF0DFB51B
:10210000AA85AA8437E500001386C98E1305458F7A
:10211000EFE05FEB2685EFF0DFAE37E5000013055B
:10212000C591EFE03FEA4040D14937EA000063162D
:102130008900014561616FE04FAC1C44930644FF88
:1021400063E0F90298088A07BA9703A707FB1C28DF
:102150002146A68513050A94EFE0DFE60040C1BFE3
:102160004647F5B7EFE22FA62945EFF0EFA4B7E910
:102170000000130945002A84CA85138509C6EFF0BB
:10218000BFADAA85AA8437E50000138609C61305EA
:1021900085C6EFE03FE32685EFF0BFA637E50000F8
:1021A000130505C9EFE01FE24040B7E9000037EA38
:1021B0000000B7EA0000631E8900EFE0EFAFAA85D8
:1021C00037E50000130585CEEFE0DFDF01456FE066
:1021D000CFA25C4C184C138549CB930644FF214693
:1021E000A685EFE03FDE8347D4FF1385CACC858BFD
:1021F00099E313058ACDEFE0FFDC00406DBFEFE20D
:102200008F9C37E500001305458CEFE0BFDB03A48E
:102210004190B7E9000037EA000083A78190636529
:10222000F40001456FE06F9D044009469385898D58
:102230002685EFA0402119C55040A6851305CA8DFB
:10224000EFE05FD83104D1BFEFE2EF9737E5000050
:1022500013058518EFE01FD703A44190B7E90000EC
:1022600037EA000083A78190636BF40037F5000024
:102270001305C5C9EFE01FD501456FE00F98044075
:1022800019469385491A2685EFA0E01B01E95040C5
:10229000938564001305CA1AEFE0DFD23104D9B781
:1022A00005458280EFE22F9279712A84AA959306E0
:1022B0000002254783070400B38485406385D70A5D
:1022C0006383E70A0145638B041001491307000289
:1022D000A546B307240183870700638AE70863885C
:1022E000D7086314990883A9419083AA819037EB9A
:1022F000000063F0590903AA0900194693054B1A17
:102300005285EFA0401459E54A86A28513056A005C
:10231000EFA0601341E14A9A83076A00A5EF83A901
:102320008900638809041306800281452800EFE0D4
:102330002F8E13098100CA86A28701450147130821
:102340000002A548294313062002130EC005838509
:1023500007006384050163961505631F9702A9476B
:102360006303F50469A80504B1B705099DB7E31C2B
:1023700009F6A287038707001377F7FD79E737E5AA
:1023800000001305051723800700A285EFE09FC317
:102390007D55A9A0B109B1BF2380070005078507B6
:1023A0007DB76310650437E500001305C514EFE041
:1023B0007FC10018B7E40000832509001385C41607
:1023C0001109EFE03FC0E31989FE37F5000013055E
:1023D000C5C9EFE03FBF29452C00829945616FE0F8
:1023E000CF81637E970005056392C50485070507C5
:1023F0009CC2838507006381C5026364970069FD01
:102400008DBF838E17006396C5016394CE00850748
:10241000050785070507F1BFE37397FE23800700D3
:10242000050785079106E36497F2D1BF9CC28385B7
:1024300007006389050163871501E30297FC85079F
:102440000507F5B7E36097FE5DBF850725B7EFD2B7
:10245000BFF68307050099E781450145EFF0DFDE10
:102460006FD01FF903AA4190AA898144014937EB33
:102470000000B7EB000083A781906369FA00EDD0FC
:102480004A86A6854E85EFE0EFF4D9BF03240A0003
:10249000194693054B1A2285EF90F07A21E14E857B
:1024A000EF90507919042A86A2854E85EF90B07975
:1024B00015E5631709002285EF90D0772A89A28459
:1024C000A68722870386070001EE858F63D3270145
:1024D0003E89A28513854B1BEFE0DFAE310A61BF59
:1024E00083060700FDD2E312D6FE85070507D9BF94
:1024F000EFD21FEFEFF02FFA01456FD0BFF0EFD210
:102500003FEEEFE0FFC001456FD0DFEFEFD25FEDB0
:1025100003A50190EFE08FBB01456FD0BFEEEFD276
:102520003FECB7F700009387C7F523A2F190B7F708
:1025300000009387470C23A4F190B7F7000093871E
:10254000470C23A6F190B7F700009387470C93053B
:102550000021054523A8F19013840190EFE0FFD8F6
:1025600008C019E937E5000013058526EFE09FA5AF
:102570007D5422856FD01FE9B725000037E50000A4
:10258000A9472D479306004001469385E569130549
:102590000528EFF04FA3AA840840B7E50000814664
:1025A000014693858528EFE0EFA70144F9D0268501
:1025B000EFF0EFB87DBFEFD2BFE2EFF07FCE0DC5F9
:1025C000B7E5000093854523138501DAEF90906508
:1025D000B7E5000093854524138501DAEF90B062DA
:1025E000138501DA6FD01FE2B7E500009385C5239C
:1025F000E1BFEFD2FFDE2A8437E500001305452A4C
:10260000EFE05F9CEFF03FFBAA8537E50000130683
:10261000A41B1305C52AEFE0FF9A01456FD09FDE8A
:10262000EFD21FDC41112AC6EFD01FF7B24511E9E6
:1026300037E5000013058524EFE0DF9841016FD0F6
:102640007FDC83A70190AA841384019083A7C7200D
:10265000E386A7FE93053014EFD0DFFB65F11C4045
:1026600003A5C72009C9EFE08F821C40814503A55F
:10267000C720EFE0CF880040130600058145130511
:10268000A41BEFD0FFD8B725000023150420232674
:1026900094209385C5502685EFE06F8645B7EFD22D
:1026A0003FD183A7019041119384019003C7470252
:1026B000136717002382E70283A7C72091E7EFE0A3
:1026C0001F8D19C1EFF0DFF5EFF0FFEEEFE09F8F08
:1026D00037EB0000B7EB0000B7E9000037FA000065
:1026E000B7EA000037EC0000B7EC00009C408546DC
:1026F0001306F10003A5C720FD55EFD0DFFC854789
:10270000631AF5000309F100ED4780406319F900F1
:1027100008D0E9BF8840FD55EFE04F93C1BF1C5082
:102720006392A7029307B0056315F90089471CD08F
:1027300075BF23200402E30B09FAA5476314F912BD
:102740000149D1A80947E398E7FE23200402930733
:1027500010046312F9046E30D1D9FD15C205C18190
:102760006EB09307A41B13070005B385E50213069B
:1027700000053E859385A502A295EF90B02BEF90C2
:10278000704B1375F50F2305A420A305A420228503
:10279000EFF03FE6A1BF930720046311F90216345E
:1027A0007E301387F6FF63D8E70085077EB0930776
:1027B000A41B6E304DBF9DDA7AB0D5BF930740049D
:1027C0006310F9028347B42095D313850929EFE0FC
:1027D0006FFF98408347B720FD17A305F72039B74F
:1027E00093073004E319F9F48347B4200347A42086
:1027F000E3FEE7EE3E948305A41B13854A29EFE030
:102800006FFC98408347B7208507C1BF138509290E
:10281000EFE04FFB050980408347B420E348F9FE11
:102820001305CAC9EFE00FFAEFF09FA7854713041D
:10283000A41B6315F5002285EFF07FC1EFF0BFD731
:102840002286AA851385CC2AEFE0CFF780401305B6
:10285000A41BEF90303E1375F50F2305A420A305AC
:10286000A42069B59307F0076305F900A147631534
:10287000F9088347B420E38B07E60346A420FD173D
:1028800093F7F70F7D161376F60F2305C420A305E3
:10289000F42063F8C7049385B71B1385A71B1D8E0F
:1028A000A2952295EFE08FAE9C4013858B2903C73C
:1028B000A7203E97230D071A83C5B7209385A51B34
:1028C000BE95EFE02FF09C4003C4B7209C4083C727
:1028D000A720E3CD87E013850929EFE0AFEE0504DB
:1028E000F5B713050B2AEFE0EFED9C4003C7A720D7
:1028F000BA97238D071ADDBB35478347A4206305AC
:10290000E9002947631EE90EB9CB035984029147B8
:10291000130DA41B63FB2709930DA41613060005D2
:10292000EA856E85EF90D00E1DC91309A4024A8571
:102930001309090513060005CA85EF90B00FE39847
:102940002DFF1306000581456E85EFD07FAC034651
:10295000A420EA856E85EF90F00D95471EB41E34D5
:102960007EB0EFF0FF9385476312F5029C4083C76A
:102970004702858B89C71305CAC9EFE0AFE48840D9
:102980008345A5201305A51BEFF0DF91EFF0BFC233
:10299000EFE04FE380401306000581451305A41BBB
:1029A000EFD01FA72315042091B36301090213057B
:1029B000F9FF930700053305F50213060005EA85C4
:1029C0001305A5022295EF90B00451D9930D00058F
:1029D0003305B9031306000581451305A5022295A9
:1029E000EFD01FA30A340346A420EA853305B503BC
:1029F0001305A5022295EF90F0031E348507B9BF99
:102A00001307F0046374F700230504200346B42081
:102A10008347A4206370F6089305A61B1305B61B15
:102A2000A2953386C7402295EFE04F968C4083C72E
:102A3000B5203387F500230D271B03C74502058BFF
:102A400001CB9387A71BBE9513058C02EFE08FD7B0
:102A50009C4003C4B7209C4083C7A7206346F40270
:102A600098408347A7208346B7208507850693F7BC
:102A7000F70FA305D7202305F7209306F004E3F70B
:102A8000F6C6231507209DB113850929EFE08FD3E2
:102A90000504D1B7A297238D271B83474402858B5A
:102AA000E1D3CA8513854A29EFE0CFD155BF7C41D8
:102AB00023280504232A05049C4381CBEFD25F928F
:102AC0009305850482976FD0FF9301458280EFD2F2
:102AD0009F8F36899DCAAA843284B309D600294AB9
:102AE0001C20639B4701BE2C93F7070491C7FC4051
:102AF000B54526859C478297FC40830504002685C2
:102B00009C4705048297E31D34FD4A856FD0FF8EF4
:102B1000EFD21F8D93F705102A8491C71A2D6155A6
:102B20001377071035CF13F7054011C71A2C6155DD
:102B30001377074035C713F705049304000401E732
:102B4000262C93F40404384893F5F50F2EAC39EB9A
:102B5000A1C768442981420541813105EFE02FE694
:102B600070442A8931052982420641828145232009
:102B7000A900EFD03FF9232209003E2C23240900AD
:102B80002328240593E707103EAC7C401306001071
:102B9000C145DC43228582973E2C0145DD8C26AC65
:102BA0006FD05F86F5DB93E505102EACF5B70948CD
:102BB000AA8763810503EFD2BF820D4863820503B4
:102BC00005476399E5041A2D1377F7FD1AAD014502
:102BD0006FD05F831A2D136707021AAD01458280FB
:102BE000328775D6504274454C2D2982A9824206FF
:102BF000C2064182C1826304D6001D45F1F9144327
:102C0000B4C75443F4C7E1D5F443BA853E85944232
:102C1000829675BF7C41DC4382975DBFEFD2AFFAED
:102C20003684B1CA3E2DAA89328993F70710B6843B
:102C30009DE37D5AA94A83A749044E85DC478297C4
:102C4000630945012300A900FD140509630355012B
:102C5000FDF0058C0DA02449368A854AEFE09FF3EC
:102C6000FE20DA202A869444631AF70081EAEFE016
:102C70003FF33304444122856FD02FF898403E97AC
:102C8000034B070003A7C9048507C2072983C18333
:102C90004207FEA0418363E4E700239304006394AA
:102CA000560123A404003285EFE09FEF7D1A230034
:102CB00069010509E3140AFA6DBF582D854763ECD5
:102CC000E7023E2D93F707109DC7EFD26FF12A84DC
:102CD0002849EFE0CFE33E2C23280404130600101C
:102CE00093F7F7EF3EAC7C40C5452285DC438297E5
:102CF00001456FD02FF101458280EFD26FEE37375B
:102D000000001307E7AA18D537370000130707B1EB
:102D100058D5373700001307A7CB18D9373700002D
:102D20001307C7C158D9373700001307E7AC18DDC0
:102D3000373700001307E7BA420658DD34C1418235
:102D4000232A05002320050223220502EFD05F89F4
:102D50006FD04FEB93F5F50F85476391F50AEFD2EE
:102D60008FE620494111AA847D598549FC4026857A
:102D7000DC4782972A8A63072505EFE0BFE15A20E6
:102D80001C40BA97238047015E20F8448507C2079C
:102D90002983C18342075EA0418363E4E7002312D5
:102DA000040076205E20639CD7008507C207C1839C
:102DB0007EA02324340163E4E70023130400EFE042
:102DC0003FDE6DB79C5085C3EFE0DFDC5A206E20FC
:102DD000636EB700B305B7402EC6EFE07FDC9C50B2
:102DE000B2452685829741016FD02FE1FC44998D31
:102DF000A983C207C183B385B740F9BF828001CEE2
:102E0000EFD20FDE7841B2878E2318433222029729
:102E100001456FD02FDF7D558280EFD26FDC1387A5
:102E200041E278432E86AA851843138541E2029732
:102E30006FD04FDDEFD2CFDA138741E278432E8691
:102E4000AA855843138541E202976FD0AFDBEFD2DA
:102E50002FD9138741E27843AA85138541E21847A9
:102E600002976FD02FDA05C611476392E602EFD2C0
:102E70002FD77C410E2241119C4736C632C482971F
:102E80002246B2462AA2368541016FD0AFD781468D
:102E9000368582801DC2B28711466390C602EFD28A
:102EA0002FD47841B2238E235843411136C602975E
:102EB000B246410136856FD0EFD481463685828097
:102EC000EFD20FD2938741E24947D8CB3737000082
:102ED000130767E6D8DB37370000130747E998DFA9
:102EE000373700001307E7DFECC3B0C3AA850D46F0
:102EF000138541E223A0070223A2070223A40702AD
:102F000023A6070223A80702D8DFEFD06FED014503
:102F10006FD04FCF371500201305C581828037252C
:102F200000201305C5818280EFD28FCBB707002028
:102F300003A7471B9307803EC1563357F702B7E7F5
:102F400000E02386D7402387D740856623A0D7108B
:102F5000916623A0D710B7F700E023A0070023A2B3
:102F60000700014690C78146D4C781461306F7FF84
:102F700090CBD4CB3D4798C3EFD0EFD7EFF09FF97C
:102F80002A84EFF0DFF9AA852285EFE08F9B37E5F1
:102F9000000013054532EFD0FFFF6FD0AFC67311AD
:102FA0000134EFD0BF96B7F700E023A20700EFD0BF
:102FB0000FD1EFD07F987311013473002030814717
:102FC0008546130700023396F6006306A6008507C0
:102FD000E39BE7FEFD573E858280EFD26FC08545BB
:102FE00013050002EF10606D6FD0CFC1EFD24FBF5D
:102FF00085452145EF10606C6FD0CFC0EFD24FBE3A
:1030000085451145EF10606B6FD0CFBFEFD24FBD3C
:1030100085454145EF10606A6FD0CFBEEFD24FBCFF
:10302000854513050004EF1040696FD0AFBDEFD2A6
:103030002FBBB96537F5000001469385C5321305EE
:1030400045A1EFF0FFE76FD0EFBB9307400663ECBD
:10305000A7009317450039651305453C3E95184177
:10306000FD576313F70001458280EFD26FB741111E
:1030700013F5F50F32C6EFF05FFD11C54E25324650
:103080000845EF10C04C41016FD0CFB7EFD24FB51C
:1030900013F5F50FEFF07FFBAA87014589C7CE270F
:1030A0008847EF10A0496FD0EFB5EFD26FB3011191
:1030B00013F5F50F3284EFF05FF905C55C412AC6C0
:1030C000829732455C45FC82C1473ECE8D473ECC5F
:1030D00009C41547631AE40002CE08454C08EF10F6
:1030E000E03905616FD00FB205476315E4009147E1
:1030F0003ECEE5B76315F40093078002D5BF89473C
:103100006315F40093078004E5B791476314F40056
:10311000D147F9BF99476314F400F147D1BF9D47E8
:10312000E31DF4FAE147E9B7EFD2EFA913F5F50F84
:10313000AE84B289368A3A89EFF03FF1994731CDB2
:103140004845EFF0DFE73D472A8499476367A704C6
:10315000EFE05FA4B146B306D402B707002013879F
:1031600007082A8693870708369783160700639F08
:1031700096004C43639C45012E2363993501184703
:1031800063162701EFE0DFA1814701A87D5763891E
:10319000E6003285EFE0DFA09D473E856FD0EFA5CA
:1031A00031453305A4023E9506A123224501231192
:1031B0003501232425013285F1B7EFD26FA213F533
:1031C000F50FEFF09FE819471DC94845EFF03FDFC5
:1031D000BD472A84194763E4A702EFE0BF9BB147CC
:1031E0003304F402B7070020938707087D57A2979E
:1031F000839607006398E600EFE09F9A01473A85BF
:103200006FD04FA041677D1798C323A2070023A466
:103210000700DDB7EFD22F9B011113F5F50F328AAE
:10322000EFF0BFE2994721C185442A8463159A10C3
:103230004845EFF0DFD83D47AA8499476365A70268
:10324000EFE05F95B14AB3875403370900201309B3
:103250000908AA893E9903170900FD576319F70069
:10326000EFE01F9499473E8505616FD00F995C4050
:10327000829785450545EF1040445C440D473AC4AC
:103280007C823EC88357290002CA52CE638C47090C
:10329000C1C70947638DE70808444C00EF10001EC2
:1032A0001844B7170140938607C005456302D7024B
:1032B0000945630FF700938707400D45630AF70040
:1032C000B72701409387078001456313F700114535
:1032D00093F5F40FEF1040280808EF100011B967BC
:1032E000938747348E04BE94D04037E700E09306BE
:1032F0000005B307C7002380D74093575600938734
:10330000070485468A07B396C600BA9794C34E85CC
:10331000EFE01F89814781BF930780023EC6A14726
:103320003ECC9DBF930780043EC656CCB5B79147AF
:103330003EC6C147F5B79947E3170AF24845EFF093
:103340001FC83D479947E360A7F2931735003965D9
:10335000130545343E955841935757009387070608
:10336000B394E4008A0737E700E0BA9784C35DB7F7
:10337000EFD20F87EFF0BFC4B1473305F502B707AF
:103380000020938707083E955C4199C308458297C2
:103390006FD04F8773110134EFD04FD70545EF1031
:1033A000600B19C50545EFF0BFFC0545EF10600C3B
:1033B000EFD08FD8731101347300203073110134B2
:1033C000EFD0CFD40945EF10E00819C50945EFF05B
:1033D0003FFA0945EF10E009EFD00FD67311013421
:1033E0007300203073110134EFD04FD21145EF102C
:1033F000600619C51145EFF0BFF71145EF106007E2
:10340000EFD08FD373110134730020307311013466
:10341000EFD0CFCF2145EF10E00319C52145EFF0E4
:103420003FF52145EF10E004EFD00FD173110134C7
:103430007300203073110134EFD04FCD4145EF10B0
:10344000600119C54145EFF0BFF24145EF10600240
:10345000EFD08FCE7311013473002030731101341B
:10346000EFD0CFCA13050002EF00D07E1DCD1305AB
:103470000002EFF0FFEF13050004EFF07FEF1305FC
:103480000008EFF0FFEE13050010EFF07FEE1305DC
:103490000020EFF0FFED1305003EEF00907DEFD030
:1034A000AFC9731101347300203013050004EF001D
:1034B000707A55FD13050008EF00D0794DF913051A
:1034C0000010EF00307945F513050020EF009078EB
:1034D00059FDF1B773110134EFD04FC3130500400C
:1034E000EF00507729C113050040EFF07FE8056534
:1034F00013050580EFF0DFE70565EFF07FE709656D
:10350000EFF01FE71165EFF0BFE62165EFF05FE632
:103510004165130505C0EF00D075EFD0EFC1731101
:10352000013473002030056513050580EF009072AB
:103530005DF90565EF0010725DF50965EF009071AA
:103540005DF11165EF00107159FD2165EF0090707C
:1035500059F9E1B701458280EFC29FE89C412041C3
:10356000A14641111CC0B1473EA4DC412316040012
:1035700013F7F7006301D702A546631ED70005675E
:103580005AA013D747000D8B01C785466308D700A3
:103590002313040031A023120400E5B709677AA0C1
:1035A00099838D8B05476389E70081C70947638944
:1035B000E7062314040021A0930700601EA4184806
:1035C000B7470140938707806318F7041165854565
:1035D0001105EF10800E93070020B71401407C8284
:1035E0000D49E1474C00138504803EC64AC4EF00F4
:1035F000F068930700407C824C009147138504805B
:103600003EC64AC4EF0090670848A285EF10C01775
:1036100008488545EF100023014541016FC09FDE3A
:103620009307004061BFEFC21FDAB7240020138464
:103630004487930750035CC837290020B7470140EF
:103640001306C9819387078074461CC8BD6793879A
:1036500087A17CC2B70700C0F58FC166A10671675C
:1036600013070720D58F1165411138C67CC68545E3
:10367000B7070C00110518C01CC423220400231630
:103680000400EF108003B7190140930700207C82EB
:103690000D4AE1474C001385098052C43EC6EF0035
:1036A000F05D930700407C824C00914713850980B0
:1036B0003EC652C4EF00905C084893854487EF10E3
:1036C000A00C08488545EF10E017B7E50000938689
:1036D000448713063010938545321305C981EFF0F6
:1036E000CFE1014541016FC05FD1EFC27FCF2041E3
:1036F000930500020848EF10201A19C51C48CA2378
:103700001375F50F6FC01FD07D55EDBFEFC25FCDB4
:1037100024412E84884893050004EF10E0177DD9DA
:103720009C4842044180C2A305456FC0BFCDEFC293
:103730003FCBC1473841638BF502C5476395F5021E
:10374000544B054693D75600938707063316D60089
:103750008A07B7E600E0B69790C30146084B930589
:103760005052EF10800F01456FC0DFC9544B054622
:1037700093D75600938707043316D6008A07B7E617
:1037800000E0B69790C30546D1BF411122C626C4BA
:1037900073110134B7240020EFD04F979387C48171
:1037A000A043930550520848EF10A00F19C9854552
:1037B0001385C481EFF00FDA084893055052EF10DB
:1037C0000012EFD06F97731101343244A2444101CB
:1037D00073002030EFC2DFC079711306000281450B
:1037E0000808EFC0FFC28545114502C202C402C6E7
:1037F000EF00B06C854513050020EF00106C3165BB
:10380000EF0050583715014089474C0013050580DB
:10381000372401407C8202C6EF0050461305044065
:10382000EF00206CB7070E003ECE0C08854713054D
:1038300004402302F10202C802CA02CC02D0EF0007
:10384000A06E9D460546854513050440EF000079AE
:10385000854513050440EF00407785451305044076
:10386000EF00E071814513050440EF00D00313051C
:103870000440EF00C071930404402685EF00C0713E
:103880006DFD1305044037240140EF00607193047F
:1038900004402685EF0060716DFD13050440EF00C4
:1038A0001002239AA190854513050440EF00A07FE4
:1038B00045616FC03FB583974191AA9763CD0700DB
:1038C00085661387F6FF63DAD7006309E500139571
:1038D000070141818280014582803A858280EFC262
:1038E0003FB037240140AA859D4605461305044094
:1038F000EF00C06E854513050440EF00806B930414
:10390000044089452685EF00607965DD1305044094
:10391000EF004078EFF03FFA6FC0DFAEEFC25FAC70
:10392000EF80407BB7F7000083A5C7A2EF80E012CD
:10393000B7F7000083A507A3EF8020126FC09FACEC
:10394000EFC21FAAB707002003C5171BEFF03FF90E
:10395000EFF0DFFCB7F7000083A5C7A3EF80E038E6
:10396000B7F7000083A507A4EF70106423AEA19001
:103970006FC05FA9EFC2DFA6B707002003C5071B12
:10398000EFF0FFF5EFF09FF9B7F700002A84AA8562
:1039900003A507A3EF806035B7F7000083A547A311
:1039A000EF80A00BB7F7000083A587A32A892285A3
:1039B000EF80A00AAA854A85EF70105F23ACA19022
:1039C0006FC05FA473110134EFC05FF437F50000DE
:1039D000130505A5EFD00FDFEFC01FF673110134FB
:1039E0007300203073110134EFC05FF237F500002F
:1039F000130545A4EFD00FDDEFC01FF473110134A0
:103A000073002030EFC2DF9D03A58191EF806066D7
:103A1000AA8537F50000130505B0EF80D00C03A58B
:103A2000C191EF800065AA8537F500001305C5B187
:103A3000EF80700B6FC01F9DEFC2FF984111EF1018
:103A4000C049716513050520EF10805137F500005E
:103A5000130505A6EF80701AB707002083A5471B42
:103A600037F50000130505A7EF80F007EF10B065EC
:103A7000AA8537F50000130505A8EF80D006EF10E2
:103A80009064CD476308F50037F50000130545A99C
:103A9000EF80B01613850194EF00D06D37F500006C
:103AA000130545AAEF8070158144138A0194B7F974
:103AB00000001949B38744018C23138509AB8504A1
:103AC000EF807002E39824FF37550000130505D0FE
:103AD000EF10404093860194138681819385018184
:103AE00013854181EF1060192A84EF10202619E414
:103AF00037F50000130545ABEF80301095679387CD
:103B000007E23EC29167938787A948003EC4A54754
:103B10003EC6EF10F0477D572384E194EF10A024B8
:103B200085450145EF20E05CAA8537F500001305C7
:103B3000C5ACEF80407BEF20205BAA8537F5000005
:103B4000130505AFEF80207A93870192982305072C
:103B500098A341016FC07F8AEFC29F8883A78186A7
:103B6000411170003EC42C00914701453EC6EF2034
:103B7000003B41016FC01F89EFC29F8641118545FF
:103B8000114502C202C402C6EF00303385477C8271
:103B9000371501408D473EC44C00C14713050580D1
:103BA0003EC6EF00B00D41016FC0DF85EFC25F83FD
:103BB00037F50000130505B3EFD0CFC0B7070020DD
:103BC00083A5471B37F50000130545B4EFD08FBF21
:103BD00037F50000130545B5EFD0CFBEEFF0DFE5B8
:103BE000EFF09FF9EFF01FBF371501408545130532
:103BF0000580EF0090153729002037460000B7F503
:103C0000000089471307803E814613064697938537
:103C100045B61305C988EFD07FD6B72400203746B4
:103C20000000B7F5000089471307803E8146130660
:103C30000694938505B71385448EEFD03FD437247F
:103C4000002037460000B7F5000089471307803E83
:103C50008146130686B5938545B81305848BEFD04E
:103C6000FFD11305C988EFD0FFD61385448EEFD05E
:103C70007FD61305848BEFD0FFD583C7019289CB04
:103C8000EF005051EF20803E6DD9EF10801EF5B748
:103C900013054006EFD05FC5CDB7B7170240984374
:103CA000B706FFF841111367170098C3D8433706CA
:103CB0000200758FD8C39843B706F7FEFD16758FBF
:103CC00098C39843B706FCFFFD16758F98C3D84379
:103CD000B70681FFFD16758FD8C39843B70600EC71
:103CE000FD16758F98C33707FF0098C723A60702F4
:103CF00002C402C69843C166558F98C3B7160240E6
:103D000005679C42F18F3EC6A24785073EC4B24775
:103D100081E7A247E397E7FEB71702409C4313975A
:103D2000E7006356070685473EC632478547631E50
:103D3000F704B7170240D843B706C1FFFD16D8C332
:103D4000D843D8C3D84313670740D8C3D843758F27
:103D5000D8C3D843C166558FD8C39843B70600016E
:103D6000558F98C3984393166700E3DD06FED8434A
:103D7000B7160240719BD8C3D84313672700D8C336
:103D80002147DC42B18BE39EE7FE4101828002C6FF
:103D900069BF01A001A001A001A001A001A001A094
:103DA00001A001A001A001A001A001A001A001A00B
:103DB00001A001A001A001A001A001A001A001A0FB
:103DC00001A001A001A001A001A001A001A001A0EB
:103DD00001A001A001A001A001A001A001A001A0DB
:103DE00001A001A001A001A001A001A001A001A0CB
:103DF00001A001A001A001A001A001A001A001A0BB
:103E000001A001A001A001A001A001A001A001A0AA
:103E100001A001A001A001A001A001A001A001A09A
:103E200001A001A001A001A001A001A001A001A08A
:103E300001A001A001A001A001A001A001A001A07A
:103E400001A001A001A001A001A001A001A001A06A
:103E50007390123497D1FF1F9381C1B517C1002011
:103E60001301411A17B500001305C52797C5FF1F99
:103E7000938545191386C18663FAC5008322050020
:103E800023A0550011059105E3EAC5FE1385C186FF
:103E9000974500209385C5B56377B50023200500BD
:103EA0001105E36DB5FEFD42739002BCFD427390B7
:103EB0004280B78200009382028073A0023097C2D2
:103EC000FFFF9382A21793E2320073905230EFF01B
:103ED000DFDC97C2FFFF9382C26B739012347300D2
:103EE0002030EFC2EFCFB727014093870740631E12
:103EF000F500854513050020EF00007E8145130580
:103F00000020EF00607D6FC0EFCFB737014093878F
:103F10000780E31AF5FE854513050040EF00C07BDE
:103F2000814513050040F1BF5C413707F1E01307FD
:103F3000F7EF944D7D8F9C41D58FD44DD58FD441D3
:103F4000A206D58FD98F5CC11C4537F7F1FF130747
:103F5000D77FD4457D8F9C49D58F94458606D58FD4
:103F6000D98F1CC55C55370710FF7D177D8FDC2965
:103F7000FD1793F7F70FD207D98F5CD582801C45C8
:103F800089C593E717001CC58280F99BEDBF1C45CE
:103F900093E787001CC5828008450D8105898280D2
:103FA0001C4593E747001CC58280084509810589A7
:103FB00082801C4591C537075000D98F1CC582806F
:103FC0003707B0FF7D17F98FD5BF5C4149777D1763
:103FD000FD15F98FB605DD8D4CC18280A54763F7CD
:103FE000B7048D47138765FF3307F7020328C50021
:103FF0009D47B397E70093C7F7FFB3F70701B39661
:10400000E600DD8E54C5994763E3C70495477D16E6
:104010003306F6025859FD47B397C70093C7F7FF19
:10402000F98F3396C5005D8E50D982800D47338756
:10403000E502032805019D47B397E70093C7F7FF03
:10404000B3F70701B396E600DD8E14C96DBFB14723
:1040500063E2C702954765163306F6021859FD4715
:10406000B397C70093C7F7FFF98F3396C5005D8EEE
:1040700010D9828095474D163306F6025855FD47F4
:10408000B397C70093C7F7FFF98FB395C500DD8DD0
:104090004CD58280684542054181828008416D8D02
:1040A0003335A00082805C4191C537070004D98F69
:1040B0005CC18280370700FC7D17F98FD5BFEFC246
:1040C0002FB201112A8423040100A5441C8463F942
:1040D000F40423040100A54621461C8463FFF60670
:1040E000231501002304010095461C8463F1F60E9C
:1040F00038853C8599460D46B3F7D702056513050B
:104100000580B3D7C7023357D702BA97C207C18316
:104110007C853C8505611D8D420541856FC08FAE54
:104120001C4493E787001CC42285EFF0FFE66DFD79
:104130001C4493E747001CC42285EFF01FE76DFD88
:1041400078441C8414108607B6972396E7FE1C84D7
:10415000850793F7F70F5C8495BFA30401009C8447
:104160006378F6001C84850793F7F70F5C84B5B776
:1041700098849C840C100607850786072E97AE97B7
:104180000357C7FE83D7C7FE63FDE7029C848607FB
:10419000AE9783D7C7FE7C859C8498848507860765
:1041A000AE9783D5C7FE931717001810BA972396BA
:1041B000B7FE9C8438850C1085078607AE9723963A
:1041C000E7FE9C84850793F7F70FDC8449BF1C84C6
:1041D0001010388589078607B29783D7C7FEBA972C
:1041E000C207C1837C851C84850793F7F70F5C8425
:1041F000EDBDEFC2EF9E85451165852B81451165AB
:10420000AD236FC02FA0930700043CC193070002A9
:104210007CC1930700087CD123200500B707000468
:10422000232205002324050023260500232805005A
:10423000232A0500232C0500232E05002320050238
:104240002322050223240502232605022328050232
:10425000232A0502232C0502232E0502232405040C
:104260002326050423280504232A0504232C0504FA
:10427000232E0504232005062324050623260506F0
:1042800023280506232A0506232C0506232E0506CA
:104290002320F508B70700022322F5082322F50A98
:1042A000B7070200370720002326F50A93070010FE
:1042B000232405082326E50823280508232A0508C2
:1042C000232C0508232E05082320050A2324050A8C
:1042D0002328F50A232A050A232C050A8280411186
:1042E000B787024002C6984BC166FD162E05758D34
:1042F000718B9A05598D93F5057CC98DD0CB93E5CB
:1043000035008CCBB7070500B7860240F917324756
:1043100005073AC6984A058B01C73247E3F9E7FE1D
:104320003245B7070500FD173335F500410182809E
:1043300023A4A192014793070501B7081040130376
:10434000005F130EF6FF2A886316C700B797024076
:1043500088CB8280B306670223A817FFAE9623ACF2
:10436000D7FE6373C7013E8823AE07FF0507C10769
:10437000D9BF916623A2A192014793070501370394
:1043800000809386065F130E005F930EF6FFAA88E7
:104390006316C700B7970240C8C782803308C703B7
:1043A00023A867FE23AAD7FE2E9823AC07FF6373CA
:1043B000D701BE8823AE17FF0507C107C9BF3797CE
:1043C00002401C4393E717001CC3828099C53797AE
:1043D00002405C4F5D8D48CF8280B7970240D84F36
:1043E0001345F5FF798DC8CF828058410328050019
:1043F0004C4537060140930706403E979346F8FF29
:10440000B1C583250640F58D2320B640D043F18EFB
:10441000D4C31443B3E6060114C31841904793462E
:10442000F7FF758E90C7D047F18ED4C7144541462B
:104430006399C6009447D98E94C7D447558FD8C77F
:104440008280B6979443558F98C382801C43F58F22
:104450001CC38280B70701401387074083A707402A
:10446000584B698F09C77D8D3335A0008280014587
:104470008280B707014023AAA74082809C4513F79A
:10448000070113F8F70001C7D8413368E8008E210F
:1044900013F7F50F39C318418146854E3D4F930FF1
:1044A000800293028004214E3396DE00B3F8C500EB
:1044B000631116039398260033131F011343F3FF70
:1044C0003377E300B318180133E7E800639FF7057B
:1044D00050C98506E39AC6FD18C11307F00F63752E
:1044E000B70454412146854E3D4F930F80029302FD
:1044F0008004414EB398CE0033F715016392E80271
:104500001317260001173313EF001343F3FFB3769D
:10451000D3003317E800D98E639DF701232A1501D4
:104520000506E319C6FD54C18280E39457FA10C909
:104530004DB7E39757FE23281501DDB708456D8D6C
:104540003335A00082800CC982804CC9828019C298
:104550000CC982804CC9828013F7C50F93F73500D0
:10456000B7050140BA9594458A073D473317F700D0
:104570001347F7FF758F98C598453315F500598D8A
:1045800088C58280B7160240DC4251777D17F98FCB
:104590005D8DC8C28280371702405C439146B18B63
:1045A0006385D700A1466382D706B7177A00938741
:1045B00007201CC1371602405C4237070020130752
:1045C00007149183BD8BBA9794231C41B3D7D700AE
:1045D0005CC15442A1829D8ABA969422B3D6D70078
:1045E00014C55442AD829D8A36971823B3D7E7008D
:1045F0005CC558423983937637001387818036979C
:104600001823B3D7E7021CC982805C435443416737
:10461000C983F98E37F7FF1F0327C770BD8B890742
:104620001316170163480600454601476392C70207
:10463000C94739A809476389E7023D476388E7020C
:1046400041476388E702454601476393C700C14776
:1046500085E6B746024083A60680C18A8DC6B71696
:104660007A009386062025A00147D9B70547B547AC
:10467000C5B70147BD47E9BFB7160240D4421396FC
:10468000E600E35E06FCB7163D0093860690B3870E
:10469000D7021CC105D31C41858321BF99C537179B
:1046A00002405C4B5D8D48CB8280B7170240D84BEF
:1046B0001345F5FF798DC8CB828099C53717024025
:1046C0001C4F5D8D08CF8280B7170240984F13456D
:1046D000F5FF798D88CF828099C5371702405C47F6
:1046E0005D8D48C78280B7170240D8471345F5FF54
:1046F000798DC8C782809357550005476399E700B5
:10470000B71702409C4333D5A7000589828009472B
:104710006396E700B71702409C53F5B7B7170240FE
:10472000DC53D5B7371702405C5793F7F7F05D8D30
:1047300048D78280B7160240DC5645777D17F98F3F
:104740005D8DC8D6828009C9371702401C43B70661
:104750000010D58F1CC38280B71602409C423707D9
:1047600000F07D17F98F9CC2828099C537170240EF
:104770001C575D8D08D78280B717024098571345A4
:10478000F5FF798D88D78280EFB29FC51629F5771E
:10479000FD17F58FF621DA257971D58F1EA95625DB
:1047A000FD779387379FF58FD6212A842EC6D58F24
:1047B0009625D58FB625D58F5EA55E29C207C18304
:1047C00093F7F7CFD98F5EA96808EFF0DFDCB74722
:1047D000014093870780B245631AF404A257562418
:1047E0006547B387E702C206C186984163D20604D3
:1047F000060752244206B3D7E70213074006418654
:10480000B3D6E702B3F7E7029206635506028E07B6
:1048100093872703B3D7E70213F77700B367D7006F
:10482000C207C1831EA445616FB0DFBD925745BF6B
:104830000A07C1B7920793872703B3D7E702BD8B57
:10484000D58FF9BF91C55E250967D98F5EA5828096
:104850005A25F977FD17F98FD5BF13F7F50F85475F
:104860001583B395B7006319F7009307C500984304
:1048700001CED98D8CC38280894693074501E31808
:10488000D7FE93070501E5B793C5F5FFF98DDDB7B1
:1048900093F5F51F4EA182800A216D8D3335A0005E
:1048A000828013F7F50F85461583B397B600631121
:1048B000D7025A25F98F1A2101454207418381CB3E
:1048C0000545A181B315B5006D8F3335E0008280B9
:1048D00089466314D7001A29F1BF5A29E1BFA18183
:1048E0008547B397B70093C7F7FFC207C1831EA1DF
:1048F000828083A78192944363CA060223ACF1921B
:104900004E05370600B0D18E4D8194C3C8C38CC705
:10491000B7960240D04A118A09C61146D0CA23A2CE
:104920000600DC47054523A4F19282800145828080
:10493000EFB21FAB854789456318F5003715014075
:10494000EFF07FC06FB01FAC37150140EFF0FFBF35
:10495000D5BFEFB2FFA8854785456318F500371529
:104960000140EFF05FBE6FB0FFA937150140EFF0D7
:10497000DFBDD5BF37F7FF1F81471307D77E9946A5
:104980003306F7400C223306F50085070CA2E399A5
:10499000D7FE8280EFB2DFA4EF00F004EF00606882
:1049A0006FB05FA6EFB2DFA341118545414502C25A
:1049B00002C402C6EFF07FD08D477C82C1473EC65D
:1049C0004C008D47371501403EC4EFF03FAB8945A1
:1049D00037150140EFF03FB7854537150140EFF03F
:1049E0009FB641016FB01FA2EFB29F9F0145EFF04C
:1049F0009FD54145EFF01FD33565EFF0BFD3054597
:104A0000EFF07FD41305D003EFF0FFCE65DD6FB07C
:104A10007F9FEFB2FF9CB78402409C482A842166A6
:104A20008D9B9CC82E858145EFF07F8B29451123F6
:104A300054401C4098400545D58FB78620FF93868B
:104A4000F610758FD98F1844D98F5844D98F1848CC
:104A5000D98F5848D98F184CD98F584CD98F1850A6
:104A6000D98F5850D98F1854D98F5854D98F185876
:104A7000D98F5858D98F9CC09C4037071000D98FC8
:104A80009CC0585C1C5CD98F3840D98F7840D98F36
:104A90003844D98F7844D98F3848D98F7848D98FFE
:104AA000DCC03C4C9CC47C4CDCC4984C7C503454E2
:104AB000D58FC166938616F4758FD98F7854D98FA8
:104AC0003858D98F7858D98F38504207D98F9CCC15
:104AD000785C3C5CD98FDCCC03264408832704082F
:104AE00037970240144FD18F3746DEF8130636F25F
:104AF000F18ED58F83268408D58F8326C408D58F61
:104B000083260409D58F83264409D58F83268409FB
:104B1000D58F8326C409D58F8326040AD58F1CCF51
:104B20008326840A8327440AD58F8326440B8A066A
:104B3000D58F8326C40AD58F8326040BD58F832671
:104B4000840BD58FB7068000D58F1CC36FB09F8BA9
:104B5000EFB21F89317185457165EFF03FB485472C
:104B60002398F192EFF05FE83747024083270780F0
:104B700009641304047193E747002320F780EFF0E2
:104B80004FE793840193EFF09F83379902407D14A0
:104B9000420429454180BD2609C483270900858B2D
:104BA000FDF74800EFF02FE68567938707803ED238
:104BB000A1673ECC85473EC2BEC813070020B70799
:104BC00000023AD63EC53ED537070080C1673ADEBF
:104BD0003ED78E2037072000B70740003AC93ED99C
:104BE0001307000889673ACD3EDB1307000491677D
:104BF00048003ACF3EDF02D002D882C482CA82CCBB
:104C000002C302D3EFF0FFE03705018085451305AD
:104C10001504EFF0AFFB29616FB0CFFEEFB24FFC90
:104C200041112AC6EFF01FD83245EFF07FF2372549
:104C30000020B73500201304059509469385051318
:104C400013050595EFF0CFEE37250020B72500209E
:104C50009304059111469385059713050591EFF08F
:104C60004FF123AA919223AC81920967B7E700E044
:104C700023A4E71041016FB0EFF8EFB26FF639717E
:104C80009307005F3ECA9307405B3ECC85679387DE
:104C9000471E3ECE930720033ED0930730023ED2FC
:104CA000B727550285073ED4B7570000938727954D
:104CB0003ED6B7570000938707933ED8B7570000FA
:104CC0009387278F3EDAB7573412938787672A89ED
:104CD00048082EC632C4B68402DC3EDEEF00B02C9B
:104CE0002A8419E92246B245A6864A85EF00901F1C
:104CF0002A842685EFF09FF2228521616FB08FF024
:104D0000EFB20FEE1307C0033307E502B7770020B9
:104D1000938747CE41112A84BA97D4479847CC4B02
:104D20009C4F3697B386F5006374D700B307B7403E
:104D3000700022853EC6EF10801E11E5700081458F
:104D40002285EF00F06241016FB0CFEB01CDEFB2F1
:104D50002FE9AA8537F50000130505C9EF70A058A3
:104D60006FB04FEA8280EFB2AFE739711306C0032C
:104D700081454800EFB0CFE983A7C18013846194D7
:104D80003ED883D7C1814C00138561943ED493876C
:104D9000E1819A239306170096A38D473ED085673D
:104DA000938787B63AD63EC8EF0010380C20AA8405
:104DB00037F50000130505C0EF70E0522685EFF0CF
:104DC000FFF80820EF102038EFF05FF821616FB096
:104DD0006FE3EFB2EFE093F745002A84AE8481C71A
:104DE00083A7C193829793F78400A1C38545228549
:104DF000EF1020300566130686B6B305C402B777F8
:104E00000020938707D22285BE95EF0050519387EB
:104E1000819494231307F00F6393E60080A337F582
:104E20000000130585C5EF70405D93F7040191CF35
:104E3000938781949823631487007D5798A337F54F
:104E40000000130505C7EF70405B93F4040485C0B0
:104E5000938781949823631487007D5798A337F52F
:104E60000000130505C8EF704059EFF0DFEF6FB099
:104E70006FD9EFB2EFD6EF104023937715002A8455
:104E800099C737F50000130585C1EF700057937778
:104E9000240099C737F500001305C5C2EF70E0552F
:104EA0009377440099CBEF102024118919C537F569
:104EB0000000130545C4EF704054418819E06FB0FD
:104EC0006FD40145EF10A01FAA8575D90145EFF0F9
:104ED0005FF0F5B723AEA1928280B707002083A7C9
:104EE000471B37177A0013070720B3D7E70293F75A
:104EF000F70F2386F1941307803EB387E7022395CB
:104F0000F1948280B7F700E0D8438146799BD8C3FB
:104F100003C7C1943306A70290CBD4CB9843136741
:104F2000170398C3D843058B75DF9843799B98C3C3
:104F30008280B7F700E0D8438146799BD8C303D776
:104F4000A1943306A70290CBD4CB984313671703E1
:104F500098C3D843058B75DF9843799B98C38280AB
:104F6000EFB20FC82A841165011185451105EFF0D4
:104F7000CFF4930700207C82371501408D473EC453
:104F80004C00E147130505803EC6EFF02FCF22C845
:104F900037440140B70708000C08130504803ECCD5
:104FA00002CA231E0100EFF02FFE85451305048081
:104FB000EFF05F8905616FB0EFC4EFB2CFC0B744C7
:104FC0000140AE8932890144938404806345240101
:104FD0004A856FB08FC2930500042685EFF0DF8B02
:104FE0007DD9B38789008385070026850504C2051E
:104FF000C181EFF0FF89D9BF138701821C43B786B7
:1050000000209386C69E3E95636BD500B7060120AF
:105010009386068063E5A60008C33E858280FD571F
:10502000EDBFEFB2EFBB83A7C19241113EC6EF10B7
:10503000A00B1189630C0512938781969843B246A1
:10504000998E378700200327879205836376D700E0
:10505000324798C3EF30501DEF30704F9384419624
:105060009840B247998F1307703E6376F700EF10B0
:10507000D078B2479CC0938701959843B246998EE9
:105080000567130777386376D700324798C3EF1068
:105090004038B78700209387C78ED84711CF138732
:1050A00001961043B246918E1306703E6376D60089
:1050B000B246DC4314C38297B784002083A7448997
:1050C000B1C39387C19594433247158F9306F07C03
:1050D00063F9E600324798C3938744899C4B91C398
:1050E0008297938781959843B246998E3D671307BF
:1050F000F7A56379D70032479384448998C3DC4885
:1051000091C3829732459384419531249C40324724
:105110001D8FBD679387F7A563F5E700C922B247E6
:105120009CC003C75197BE841377F70F0DC703C701
:1051300051971377070C15EFB787002083A7C79601
:1051400099C30545829703A7C19223A8E1969307C7
:105150000004A38AF1961387C1960C4381C903A664
:1051600081921C4263C707062320070041016FB0EC
:105170006FA903C751971377070415CB83A601972F
:1051800003A7C19213890197158F93064006E3F494
:10519000E6FCB787002083A7C79699C3014582978D
:1051A00083A7C1922320F900930700F85DB703C7D6
:1051B000519762076187E35007FA83A6019703A717
:1051C000C192158F93064006E3F7E6F8A38A01968D
:1051D00059B783A6C1928D8ECD45E3F9D5F88607E0
:1051E00085831CC251B7EFB2AF9F114437890020AD
:1051F00083A741939C4363CA07007D141305C99795
:105200001374F40FEF10607E65F46FB0AF9F03A7C7
:1052100041932320050019CFA165014693850530F0
:1052200013080030B70800801C4363D7070019C279
:1052300023AAE1920145828033F3B700631D030185
:1052400019C223AAE1928A07C983F1171CC11C471E
:105250005CC1054582802320170105465847E9B700
:1052600003A74193B706008014C3584723AAE192CD
:105270008280EFB2EF9683C7519793F7F70F81E7DC
:105280008547A38AF19603A7C1929387C19609CB5C
:1052900098C3B787002083A7079782976FB08F9630
:1052A0000547FDB7B787002083A70797014581CB46
:1052B00083A7819289C79843634307008847828008
:1052C00003A7C192B78700209387878888A323917B
:1052D00007002392070098C7A38007008280EFB2DF
:1052E0002F90B78400201384C4975C4041116C0058
:1052F0001385C4973EC623220400EF10E02FB24767
:105300006C001385C4975CC05C443EC6EF10C02E91
:1053100041016FB02F8FB78700209387878898232C
:1053200019E388C7828098479306703E3307E540AB
:1053300063F3E602EFB2CF8ABA2388C7914663F7D8
:10534000E6000145EFF0DFF76FB0CF8B0507BAA39A
:10535000EFF0FFF8D5BF8280EFB28F882A84014535
:10536000EFF01FF6B78700209387878811C805479D
:1053700098B3B7870020094723ACE7926FB08F88B6
:10538000A3800700E5BF828003288503630B080222
:10539000EFB20F85FC5D014791C7050742074183C6
:1053A0009C43DDBF83A7050891C7050742074183DA
:1053B0009C43DDBF814601468145029801456FB09F
:1053C0006F840145828001458280EFA2FFFE5C422E
:1053D000032A85000329C5000049AA8488239C3339
:1053E000B289A2075D8DEF1060719355650093F54A
:1053F000C503B305B0404E85EF20502649E5DC4497
:10540000984C03DB8900998F63F867014E85EF2084
:10541000D02B05456FA0DFFD4A9A4E890356A9009F
:10542000B30A8A40832B490063F4CA045686DE859A
:105430002285EF6030608357A900984433044441CB
:105440003E942286B3855B013A85EF60B05E2A9474
:1054500003290900E31409FC4E85EF2010279C4C1A
:1054600080C8DA979CCC9C4093E747009CC055B716
:105470002285DE85EF60105C8357A9003E94E39996
:1054800057FD8044F1B7014571B771CAEFA2DFF251
:10549000832BC5001C4D035B8600BA8AB387FB4093
:1054A000368A32892A8463F767013285EF20F0213A
:1054B0006FA01FF41C450449B289BE9B03D6A90006
:1054C000338C9B4083AC49006377CC066286E685CB
:1054D0002685EF60305683D7A9001844B384744101
:1054E000BE942686B3858C013A85EF60B054AA94A9
:1054F00083A90900E39409FC4A85EF20101D0328C5
:1055000084036305080483451A0083470A0014488E
:10551000A205DD8D83472A005A875686C207CD8FA4
:1055200083453A002285E205DD8D02981C44232C38
:1055300004001CC8B5BF2685E685EF60B04F83D751
:10554000A900BE94E39687FB04445DB7184C1C4049
:1055500004C85A9793E7470018CC1CC091BF8280BB
:105560001C49F9CBEFA25FE5328AAE842A845DCE76
:10557000832A8500544503C76502835B8600B69A7B
:10558000719BC20A2383E502328993DA0A01939957
:10559000070193D90901338B3A410356A900420B05
:1055A000135B0B01032C49006376CB065A86E28518
:1055B0003E85EF6030480357A9001C44B3056C01D9
:1055C00033075741BA99C20993D909013E854E86DE
:1055D000EF605046B307350103290900E31909FAC2
:1055E000184C1CC852855E9718CC184013674700AA
:1055F00018C0EF20900DFE38184C2685B38B7741EC
:105600005C44239B7403998FDEB4EF2090660145C0
:105610006FA01FDE3E85E285EF60D0410357A900F1
:10562000B307E500E31A67FB1C447DB70145EDF2C3
:105630002E85EF30202BE9BF7D558280EFA25FDA07
:105640002E84B7550000AA84938505562285EF2045
:10565000D071B7550000228593858538EF205071B1
:10566000B7550000228505469385653CEF201071F3
:105670009C20014593E787009CC06FA0BFD819C943
:105680003305A040BD67938707CA1375F50F3E9594
:105690000821828001458280EFA29FD49307C00336
:1056A000B387F50237740020130744CE2A89AE84ED
:1056B0001306C0038145130444CEBA973E85EFA07C
:1056C0003FD5630709001306C003CA85EF60903613
:1056D0009305C003B385B402A2959C459CC9DCC95F
:1056E0006FA05FD2EFA23FCE2A8A378500204111FA
:1056F000AE89B284814561461305458936C6EFA05F
:105700003FD1B246378400201309C490B6851946AC
:105710001305C900EF6010321146D2851305C490FD
:10572000EF6050311146CE8513054900EF6090308F
:105730001304C490A1E0B7070001FD171CC4814405
:1057400083C7419763CFF402EF10003385475CD0E5
:105750001567B787002093870790130707E298C360
:105760001167130787A9D8C3254798C70145410189
:105770006FA0BFC81146A68513058400EF60902B6B
:105780007DBF93F5F40F0145EFF01FF185044DBF88
:105790001841B78700209387079098C35841D8C312
:1057A000184598C782801855B75734129387876772
:1057B0006318F710EFA23FC11C512A842545638965
:1057C000070E378900201306400481451305C99050
:1057D000EFA01FC4B78400201306C00281451385C3
:1057E0000495EFA0FFC21306C002A285138504959D
:1057F000EF6050249389049503A749014A86938753
:10580000049525EBBD6603D706BE938606BEAE2281
:105810002E97CE22F6222E9736979316270163DB1A
:105820000608D8CBD84B9356E700FD8A89EAB746DD
:10583000F8FFFD16758FB7060500558FD8CBD84BEE
:1058400093563701FD8A89EAB746F8FFFD16758F32
:10585000B7065000558FD8CBD84B9316670063CA54
:105860000600B70600FEFD16758FB7060014558FAB
:10587000D8CBD85311E7375700001307E720D8D308
:10588000D44B014513D7E6007D8B238AD19693072D
:10589000C69098CF13D736017D8B130620033307AC
:1058A000C702D8CF13976600635407000947B8C3EF
:1058B0006FA0BFB4F976FD16758F8966558F95B7C1
:1058C0001305F00F82804D45828003C64197B7775C
:1058D0000020938647CE0147938747CE6317E600A3
:1058E00081476313F7020145828003A8070363170A
:1058F000A80009C50545EDD998A182800507137751
:10590000F70F9387C703D9BFD05A6319A60019C5EB
:105910000545F9D993E707F89CA18280850793F79D
:10592000F70F9386C60375BFEFA2FFA93779002052
:105930002300050003C741974111930749CE8144D5
:10594000130949CE631797001305000241016FA0A8
:10595000DFAA9387C70383A647FE638106188504E1
:1059600093F4F40FC5B7B787002083A7C7906C00E6
:105970003EC6EF20F00811469305C4026800EF60B0
:10598000700B6C004E85EF2090091306C003338620
:10599000C402B75500009385A53C4E854A96EF207A
:1059A000F0099547378500206C00232834031CD06C
:1059B0001305C597EF005044A6852285EFF0DFCD93
:1059C000014569B709476390E70AEF50900DAA892E
:1059D00063030512930AC4021146D6856800EF607E
:1059E0007005324A370500F0EF106014337AAA00D0
:1059F000370500E0EF10A0136300AA04B78500206C
:105A00009385C5976800EF10A05A1DE5B787002061
:105A100083A7C79012346C004E853EC6EF502065B8
:105A20001DE1D68511466800EF60D00052306C0051
:105A30004E85EF50C07E39A01234938501854E8586
:105A4000EF50E06201C5EFF09FC309B71306C00332
:105A50003386C402B75500009385A5484E854A9603
:105A6000EF50D0033DBF0D4713051002E390E7EE62
:105A7000EF30801B5C4412346C005EB9B7870020A5
:105A800083A7C790AA893EC6EF20500D2A8A11C568
:105A90004E85EF20306552857DB79305C003B385F1
:105AA000B4024E85CA95EF20102CB75500004E85E4
:105AB00093856538EF20302C9547A68522852328CD
:105AC0003403232A34031CD0EFF01FBD3785002098
:105AD0006C001305C597EF003032DDB504A1DC4D35
