:100000006F40A0191300000013000000130000004F
:100010001300000013000000130000001300000094
:100020001300000013000000130000001300000084
:08003000130000007300100032
:100038000000000000000000F23B0000123C00003D
:1000480000000000E0400000000000000000000088
:10005800E2400000E4400000000000000000000052
:10006800C82F000000000000D002000000000000BF
:10007800EA400000EC400000EE400000F0400000C4
:10008800F2400000F4400000BE330000E6330000F8
:100098000E340000363400005E34000000410000D9
:1000A8000241000004410000064100000841000030
:1000B8000A4100000C4100000E4100001041000000
:1000C800124100001441000016410000863400006F
:1000D8001A4100001C4100001E41000020410000A0
:1000E8002241000024410000264100002841000070
:1000F8002A4100002C4100002E4100003041000040
:1001080032410000B4370000364100003841000099
:10011800FE3400003C4100003E4100004041000028
:1001280042410000444100004641000048410000AF
:100138004A4100004C4100004E410000504100007F
:10014800524100005441000056410000584100004F
:100158005A4100005C4100005E410000604100001F
:1001680062410000644100006641000068410000EF
:100178006A4100006C4100006E41000070410000BF
:10018800724100007441000076410000784100008F
:100198007A4100007C4100007E410000804100005F
:1001A800824100008441000086410000884100002F
:1001B8008A4100008C4100008E41000090410000FF
:1001C80092410000944100009641000098410000CF
:1001D8000000000000000000000000000000000017
:1001E8000000000000000000000000000000000007
:0801F8000000000000000000FF
:1002000097020120938202E0938202E0739002340D
:1002100003210500224573100530B1A81971232070
:10022000250006C006C216CAF322003093F28200EF
:10023000638402009302000816C412C81ACC1ECEB2
:1002400022D026D22AD42ED632D836DA3ADC3EDE76
:10025000C2C0C6C2CAC4CEC6D2C8D6CADACCDECEE6
:10026000E2D0E6D2EAD4EED6F2D8F6DAFADCFEDE56
:1002700003A1050009A0024573101534924037858B
:1002800000001305058073200530224573200530DA
:100290004242D2426243F243025492542255B25532
:1002A0004256D2566257F257064896482649B649F2
:1002B000464AD64A664BF64B065C965C265DB65DB2
:1002C000465ED65E665FF65F09617300203000000F
:1002D000197116CA9302000816C49302000273A093
:1002E000428006C212C81ACC1ECE22D026D22AD4F0
:1002F0002ED632D836DA3ADC3EDEC2C0C6C2CAC416
:10030000CEC6D2C8D6CADACCDECEE2D0E6D2EAD4A5
:10031000EED6F2D8F6DAFADCFEDE73110134EF0025
:100320008061EF103009EF00C06373110134138452
:10033000018B0329040063040902232004007325B0
:1003400010342AC01384818A044023A0240013841B
:10035000C18A044003A10400024573101534924081
:10036000B78200009382028073A00230A24273A081
:1003700002304242D2426243F24302549254225526
:10038000B2554256D2566257F25706489648264909
:10039000B649464AD64A664BF64B065C965C265DE5
:1003A000B65D465ED65E665FF65F0961730020301B
:1003B0000000397101436EC619A0397141536AC8F2
:1003C00066CA62CC5ECE19A0397101535AD056D29A
:1003D00052D44ED64AD826DA22DC06DE33016140FA
:1003E000828241114AC026C222C406C68282B24D10
:1003F0004101024D924C224CB24B4101024B924AB8
:10040000224AB2494101024992442244B240410188
:1004100082803D432A876373C3029377F700BDEF61
:10042000ADE5937606FF3D8ABA960CC34CC30CC764
:100430004CC74107E36BD7FE11E28280B306C3408D
:100440008A069702000096966780A6002307B700E9
:10045000A306B7002306B700A305B7002305B7001E
:10046000A304B7002304B700A303B7002303B70016
:10047000A302B7002302B700A301B7002301B7000E
:10048000A300B7002300B700828093F5F50F939681
:100490008500D58D93960501D58D61B7939627007C
:1004A0009702000096968682E78086FA9680C117AA
:1004B0001D8F3E96E374C3F8A5B703A50182828021
:1004C000EFF23FF2938701829843050798C3EF103C
:1004D000C0313C45FD173CC589E77C413CC5EF1068
:1004E0008035EF10806005B7634205029307803EB8
:1004F0003347F5023365F5023305F5021305753E02
:100500003345F5023307F7023A9582807D558280A4
:1005100001458280014582800145828001458280BB
:10052000EFF23FEC2164A164130484859384448634
:1005300063639400C9BD1C4011048297D5BFEFF2DC
:100540005FEA2164A164130444869384C4866363D0
:10055000940055BD1C4011048297D5BFEFF27FE88F
:10056000F93FEF30502145B5EFF2BFE7B705000086
:1005700037650000D1471547930600200146938553
:10058000C555130505E7EF10A026EF10203EA5BDC9
:10059000EFF23FE5EF10E062EF20F01BEF00B02B31
:1005A000EF10205CEF005078C137EF10205C012C79
:1005B000EF00707A014581BDEFF2BFE2D13F014506
:1005C00099B5EFF27FE0AA89EF10202219C1EF1050
:1005D000800A2545EF00F06044411304450063960E
:1005E0008400EF108020014911A8138944FF21469F
:1005F000CE854A851D2D01E9EF10201F19C1EF108E
:10060000E0084A85E5BB8440D9BF09E57D55828075
:100610007D55D5BBEFF2FFDC2A842E853289AE846E
:100620004D377DF522852686A545EF00305E0145D4
:10063000231C2401230E0400231D0400D9BFEFF264
:100640005FDA1E2D41112A84C18B9DE71C558DC395
:100650002EC68297AA84B24501CD2A86376500004E
:10066000A285130585E7EF0090182685410161BB3F
:100670001E2C93E707011EAC1E2CA18B89C73E2CB4
:10068000E554A18BFDF35C5489CF22858297AA841F
:1006900005E13E2C93E787003EAC5C2C85075CAC03
:1006A000E9B785679387F7F0FD8D2EAC8144D5B708
:1006B000E957E31CF5FAF1BF5C2D85CBEFF27FD251
:1006C000FD1793F7F70F5CAD2A84014789EF1C599A
:1006D00089E70147231D040039A082972A8775D92D
:1006E000E957E309F5FE3A8539BB7D573A858280A3
:1006F000EFF23FCF582D09E77D552129014521A073
:100700005C5999C3829701B36955C5BFEFF27FCD9C
:10071000582D09E77D55F52E014521A01C5D99C393
:100720008297D5B16955C5BF0CD101458280EFF2E2
:10073000BFC99389C187854A83A7C1876386370567
:10074000EF10204883A7C1872A8A638D370303A44B
:10075000C1875C4018401309C4FE5CC398C340C005
:1007600000C0EF0050717C5099C34A8582974A853A
:10077000EF00105B631B55014A85EF00104FEF003F
:10078000F0705285EF10A04495B9EF00307052859B
:10079000EF10E0434848EF00303A4A85EF0030550B
:1007A00061BFEFF21FC41384C197130904011C40F9
:1007B00091C382971104E31C24FF953FEDB7EFF23C
:1007C0005FC237060000B7650000930800023D488D
:1007D000930700201387C19881461306267A9385D4
:1007E00005EB1385C18FEF00307D1385C18FEF10AE
:1007F000E01711B9EFF2FFBE41112A842E8532C6EF
:100800002EC4EF1060083246A24519C68547630D15
:10081000F60001454101C5BE5840938745011CC300
:1008200098CD5CC0C0C9F5B71C406388870083C6FB
:10083000550303C7170263FAE600D4431387450143
:1008400098C294CDD8C3DCC9E9B79C43F9BFEFF295
:100850005FB94111B2842E8689452A8436C6EF00DD
:10086000F03AB246930744011CCC5CC846AC14B4C1
:100870000145410149BEEFF23FB583A78186411191
:100880002EC62A8491C38297EF10A0335E2CAA89CA
:1008900089CFFD175EACEF10803383A741860145F9
:1008A00091CB22858297014531A0B24791E7EF10A5
:1008B00000327955410199B6EF00307323280502C3
:1008C0001034AA85AA84130544012D37B247635C0E
:1008D000F0001389C404700081454A85EF10601D43
:1008E0004A85EF1000124E85EF10602EEF00704920
:1008F000885845D5C1B7EFF2DFAE83A701862A84B9
:1009000091C38297EF10E02BAA84484893074401D3
:10091000630EF5003115EF10A00005442685EF1099
:10092000002B19C0EF00F0450145F1BC5E2C850796
:100930005EAC0144E5B7EFF2DFAA4111EF10602889
:100940001387C1821C23850793F7F70F1CA383A786
:10095000418281C72AC682973245EF104027410164
:100960005DB4EFF21FA84111EF10A0251387C182DB
:100970001C23FD1793F7F70F1CA383A7818281C760
:100980002AC682973245EF1080244101ADBC03C5D1
:10099000C1828280937808044111639E080099689F
:1009A0009388C80593730801638B03001378E8FFED
:1009B000930E000219A89968938888FBE5B7137312
:1009C0001800930E0003E30503FE13732800630E63
:1009D0000306635806023306C0409302D0020A8E13
:1009E000814F294F6395E6073373D6023356D602FB
:1009F000469303430300850F050EA30F6EFE7DF2A1
:100A00000DA0137348009302B002631703009372A2
:100A10008800B3325000960279F2930600035480A6
:100A2000854FFE8663D3FF00BE8613781801158FAD
:100A300063130804638502006353E0007D172A8670
:100A4000B308E5001303000221A88142F1B7137334
:100A5000F600118271BF6374B600230066000506BC
:100A60003388C840E34900FF3A86635307000146D4
:100A70007D173295118F638802006374B5002300DF
:100A800055007D17050563870302AA961308000326
:100A90001DA86374B6002300D60105063388C8403C
:100AA000E34900FF3A866353070001467D173295FC
:100AB000118FE1BF2A86B308E500CDB76374B50096
:100AC0002300050105053386A640E3C9CFFEFD5688
:100AD000FD1F6383DF0099E7AA873306E50013084B
:100AE000000231A86376B5003306F101102210A18F
:100AF0000505F9BF63F4B700238007018507B30636
:100B0000F640E349D0FE6353070001473A9541019F
:100B10008280EFF21F8D2A849D3D09C523A8818222
:100B20006FF07F8EEF00704C75D900D9D5BF0D479F
:100B3000AA876376C7009377350091C7AA873E9648
:100B40006397C706828093F7F50F13978700D98FB5
:100B5000139707015D8FB308C500AA87BD46338888
:100B6000F84063EB060393574600C156B386D7029D
:100B70009207AA970D4836963383C700BE86B308FE
:100B8000D3406362180313572600F156B306D70209
:100B90000A07BA97369665B798C3D8C398C7C107EE
:100BA00023AEE7FE6DBF910623AEE6FEC9BF850703
:100BB000A38FB7FE71B763F2A504B386C500637E49
:100BC000D5029345F6FF8147FD176393F5008280B8
:100BD0003387F600030807003387C7002A972300EE
:100BE0000701DDB73387F500830607003307F500FB
:100BF000850714A3E318F6FE82808147E5BF0DC682
:100C0000AA8785050387F5FF85079306F6FFA38F5F
:100C1000E7FE09EB3E9685076393C7008280A38FAA
:100C200007FED5BF3686F1FE828001476314E600D9
:100C3000814739A8B307E50083860700B387E5003D
:100C40009C23B387F640E207E18799E30507F9FEA5
:100C50003E858280AA870387070001E73385A74086
:100C600082808507CDBFEFF24FF52E89B30B2501AA
:100C700041112A8CB68563F5AB001349F5FFFD5B86
:100C8000C169376A00006284930AB002130B000244
:100C9000FD19130A4A0531A8130750026389E702B8
:100CA000637374011CA013051400B284138614002E
:100CB0002A8483070600EDF363060900637B742F23
:100CC000230004003305844141016FF08FF2014895
:100CD0001307D002930630021305000331A0639E70
:100CE00057011368480026868307160093041600F0
:100CF000E397E7FE13680801FDB763956701136882
:100D00008800D5B76395D70013680802E9BF6395DB
:100D1000A70013681800C1BF138707FDA54663E647
:100D2000E6040147A546294539A03307A7028504F3
:100D30003E97130707FD83870400138607FDE3F63C
:100D4000C6FE038604009306E002FD57631FD60427
:100D500083871400254693861400138507FD636579
:100D6000A60A8147254529433DA09306A0027D5749
:100D7000E399D7FC9841930426009105E35307FCBF
:100D80003307E040136808016DBFB387670285062B
:100D9000B297938707FD03860600930806FDE37666
:100DA00015FF63D307008147B684838604001306CA
:100DB0008006014593F8B6FF6395C80013F5F60F5A
:100DC000850403860400930690066303D60663C574
:100DD000C606930680056303D61C63C3C604930747
:100DE00050026307F61A63757401930750021CA042
:100DF00083870400130514006386071A6373750163
:100E00001CB0130524005DB51306A0026397C7004C
:100E10009C4193862400910569B7B684814771B7D8
:100E2000930630066302D60893064006E31DD6FA01
:100E300013682800A94699A0930630076303D60CCF
:100E400063C5C6029306F0066300D6169306000734
:100E5000E31BD6F8FD566315D70013681800214729
:100E6000938C4500C14690411DA893065007E303AB
:100E7000D6FC93088007C146E31716F71306C00691
:100E8000938C4500E301C5FE13068006E31DC5FCF7
:100E9000904193752800639B051033763601DE85FB
:100EA0002285CD3CE68519B5137808016315080243
:100EB000BA879306000229A06373740114A0050485
:100EC000FD17E34BF0FE9307F7FF6343E000054790
:100ED0003387E740050793874500637474019441A5
:100EE00014A013051400229713060002B306A740AE
:100EF0006344D000BE855DBB6373750110A1050519
:100F0000F5B783AC0500138D450063930C00D28CBC
:100F100066853EC63AC442C2353BB247AA861248ED
:100F200022476355F00063D3A700BE8613780801FB
:100F3000631E0800BA871306000231A063737401B0
:100F400010A00504BA877D17E3CAF6FE814763C186
:100F5000D702B68763D3060081473305F4002A978A
:100F600013060002B307A74063CFF600EA853DBB36
:100F70003306F40063777601B385FC0083850500B2
:100F80000CA28507E9B76373750110A10505D9BFE8
:100F90006373740110A01305140009BB13680804DF
:100FA000C146E9BDFD1419B3A146C9BD420641863B
:100FB000FDB5A38F0BFE39B303A541838280EFF209
:100FC0004FC203A94183EFF0CFDF11CD13844183DA
:100FD000AA84084019C1EFF02FEE9305300426854E
:100FE000EFF0EFE504C04A856FF0EFC18280397100
:100FF00026CA2ED232D436D62A8654109305F0074C
:101000001385C1B83EDA36C606CE22CC3AD842DCC9
:1010100046DE9139AA8603A5418309E91385C1B843
:10102000F137F2406244D244216182802686262D27
:101030001384418393E704043EAD9307F00763F400
:10104000D7009306F0071386C1B88145EFF00FEC87
:101050001C40A6AFF9B7EFF2CFB837650000130513
:10106000C5FC713737650000130585FD49373767C3
:101070000000376500001307C7FF8D4605468D4504
:1010800013058500AD3737650000130585028537E8
:101090006FF06FB731C599661377F50F938686EBBE
:1010A00009C7BA96882205058280C167938707F031
:1010B000E98F81CB21851377F50F36970823250516
:1010C0008280B707FF00E98F81CB41859377F50FC9
:1010D000B69788234505828061813695082165058C
:1010E000828003A7C1835C41BA976305F502B623EA
:1010F00095E283A68183638FF600938601849042F4
:101100006313F60088C2D44354C1DC43B306E54000
:10111000BA9794C71045B307C700630FF500B6230D
:1011200081EE938601848C426393A5009CC2544156
:10113000D4C35C413E9710C78280EFF28FAA83A58B
:1011400081843765000013050507553583A5418562
:101150003765000013054508593D83A5418437656F
:1011600000001305850961356FF0EFA9EFF26FA755
:1011700013F7C5FFE1462E8663F1E60693073500B7
:10118000F19B930687FE63EAF6041D8F130687FE24
:1011900023A4C184896651171384C183938606EA08
:1011A000D8C394C323A407001CC0BA9723ACF18210
:1011B000C966938606EAB765000094C3D8C398C78A
:1011C00081460546938505131385C1C0EFF02FE8CE
:1011D000184023A0E1846FF00FA3AA8537650000B3
:1011E000130585132935C5BFEFF2AF9F39C503A796
:1011F0008184130435007198138981848144636666
:10120000870EB1476373F4003144FD551385C1C0A7
:10121000EFF06FE683A7018483A5C18383280900CB
:1012200026853386B740B386884013880184636877
:10123000D6001385C1C0EFF00FEC81447DA0B384CC
:10124000C500BA2003AE440061E73307CE40930FD8
:1012500047FF63EF8F0A138F4185938E41841303F9
:10126000840183260F0083A30E0013894185938296
:10127000418463EF6F061307C4003297896E33838E
:10128000E500938E0EEA2322C3012324C30023200A
:10129000D3010546D8C0B2A003264300B1086304B9
:1012A00016012E9618C61387C60022972320E90040
:1012B00063F4E30023A0E2000967130707EA9AA09A
:1012C000639A970083A681830147B22305EE19C371
:1012D0002320F8001385C1C0EFF0EFE183A701855B
:1012E000B10481C7A2852685829726856FF0AF91CC
:1012F00005463697B2A02320EF00E3FFE3FA23A0D0
:10130000EE005DBFE385D7FCDC430547AE9775BFB4
:10131000728631BFEFF2EF8C3306B5024111328590
:1013200032C6D9352A8409C532468145EFF03F805F
:10133000228541016FF02F8D45C5EFF2EF8883A71D
:10134000C1842A8491C3829783A7C1831389C183EF
:101350006366F40883A781836372F408FD551385DF
:10136000C1C0EFF04FD1835764FF930944FF81CB95
:10137000035744FF8967938707EA6301F7023765DC
:1013800000001305450EA531835644FF035664FF44
:1013900037650000CE85130505109139896793875D
:1013A00007EA231AF4FE938701849843231B04FE63
:1013B00063F4E90023A03701138741851C4383268A
:1013C00084FF4E85958F83260900B386D940B69752
:1013D0001CC3013B1385C1C0EFF0EFD16FF00F824A
:1013E0008280B70700209386070001479387070094
:1013F00021468C426396A500131547003E958280D6
:101400000507C106E317C7FE01458280EFE2DFFB57
:101410002A842E85AE89328AE9372A89A92C832429
:101420004900930749006390F4048D2493E909F877
:10143000230434012146D2852285EFF04FFC83A797
:10144000818599C322858297EF00A0770327490001
:101450009307C4005CC358C42322F90004C8EF00FA
:1014600000776FE0BFF984407DBFEFE29FF783A76D
:10147000C1852A8491C3829723040400EF0060741D
:10148000544418489307C400D8C214C31CC85CC491
:10149000EF00E0736FE03FF7EFE21FF32E89AA89B8
:1014A0008937AA84484589332A841DCDD044814593
:1014B000EFF0EFE7214623043401A3040400CA85BA
:1014C0002285EFF0CFF383A7818599C32285829788
:1014D000EF00206FD8409307C40091045CC358C448
:1014E0009CC004C8EF00A06E22856FE03FF1EFE2E0
:1014F0005FEF83A7C1852A8491C3829723040400E8
:10150000EF00206C544418489307C400D8C214C399
:101510001CC85CC4EF00A06B2285393D6FE0BFEEB4
:10152000030585007D818280239C01869387C1C24B
:1015300013870708DCC39CC3A107E39DE7FE3D4773
:101540002386E18623A8018623A201889387C18789
:10155000DCC39CC38280EFE2DFE803A54188EFF0A3
:101560007FB37D15931735001385C1C23E950841A1
:101570001307C5FE210523A8E186EFE07FC86FE0D1
:101580009FE8EFE21FE6EF00C063839781872A8917
:10159000B1E703A54188EFF0FFAF7D1513173500C4
:1015A0009387C1C2BA978443938701878043938509
:1015B000C4FE6305B4028CC383A741872386A1863A
:1015C00099C32285829783C7C1821305C40193857D
:1015D000840093F7F70F81EBEFE05FC44A85EF00DB
:1015E000005F6FE05FE2EF00E05ECDBFEFE27FDF24
:1015F0002A84EF00005D8347440393064401C19BA6
:1016000093E71700230AF402834754031397370024
:101610009387C1C2BA97D84314C318CCD4C35CC84B
:10162000938741889443185C558F98C3EF00205AE4
:101630006FE07FDDEFE2FFDA2A846123184C544823
:1016400093074401D8C214C35CC81CCC834754031D
:10165000139737009387C1C2BA979843631AF7006C
:10166000138741881C5C144393C7F7FFF58F1CC395
:10167000B92B6FE05FD9EFE2DFD6A1239387818793
:101680009A2305079AA3A1236FE0FFD7EFE27FD546
:101690000D2B138781871E23FD17C207C1871EA349
:1016A000634BF000231007001D2383A7018791C31C
:1016B000C93D6FE05FD5212BEDBFEFE29FD203A4C0
:1016C00001870123AA842285B5379147230AF402B2
:1016D0001305C404012E2285A1358547631BF5003F
:1016E0003C5C81EB228551332685D521593D6FE045
:1016F0009FD183A6C1871307440123AEE186D8C2D8
:101700009387C18754C81CCCC5B7EFE29FCD2A840C
:101710005105411108CC48C80CD050D014D43A8699
:1017200058D49305300236853EC642C4EFF02FC030
:10173000585410544C5008507117B71600003A9680
:101740009386A66B2D21B24722483716000048CC5D
:10175000230BF402A30AF402232C04028147232260
:1017600004052324040523280402230A0402232C4D
:101770000406232E04060147A28613068679A28555
:101780001305C4041D2483A7818899C322858297E9
:10179000014541016FE03FC7EFE2BFC45049144D1E
:1017A000795718D954C21307450190C218CD58C9AA
:1017B000353DC13B6FE03FC5EFE2BFC24111B2848E
:1017C0002E8685452A84368946C03AC63EC442C222
:1017D000EFF0DFC3024892472247B2464A86A68509
:1017E0002285253741016FE01FC203A50187828052
:1017F000EFE29FBD41112E89AA85054532C6B68408
:10180000BA893E8AEFF05FC92A8411C92685EFF0B4
:10181000BF9D324609E92285EFF07FCD0144228544
:1018200041016FE0BFBDAA865288CE872687CA8550
:101830002285E13DEDB7EFE2DFBA612683A701879C
:101840000546AA8603C747033D8B631CC702D04BDE
:10185000984F6308E60258C210C303C65703938625
:1018600047010E061387C1C294CF3297504314C26A
:1018700090CF54C3D8CBA12EEFF0BFD001456FE07D
:101880009FB83685A926DDBF834745030547BD8B35
:10189000639FE702EFE2FFB42A84252683474403CF
:1018A000AA842285C19B93E72700230AF402EFF064
:1018B0007FD81305C404F1222685112E83A7018940
:1018C000014581C72285829701456FE0DFB37D55D1
:1018D0008280EFE21FB141112AC6E52403A40187EB
:1018E0002A89228555379304C404700081452685D2
:1018F000C922268539224A85D92CEFF09FC818586D
:10190000F9576314F70023280402014541016FE0F1
:101910009FAFEFE21FADEFE03FBD653F6FE0BFAEB1
:10192000834745030947BD8B6390E704EFE27FAB34
:101930002A84412C5448184C93074401AA84D8C2E5
:1019400014C31CCC5CC81305C404252A2685412475
:101950002285EFF0BFC983A7C188014581C72285D1
:10196000829701456FE03FAA7D558280EFE27FA715
:101970008346650305473317D70018DD0947A30AD7
:10198000D502230AE502693F83A7018799C3EFF0D7
:101990005FBF01456FE03FA75449184D93074501CC
:1019A000D8C214C31CCD5CC98280EFE29FA3411151
:1019B000B2842E86A9452A8436C63AC43EC2EFF0C8
:1019C000FFA49247B2462247F99B1CB493074401F7
:1019D00044CC14D02324040258D01CCC5CC8410150
:1019E0006FE07FA2EFE2FF9F2A84E12AAA8422858A
:1019F00065372685E92A2285EFF03FA701456FE08C
:101A00009FA0EFE21F9E2A846D2AAA84228569374F
:101A10001C342685F99B1CB45D2A83A7418699C393
:101A200022858297EFE07FA95C503E9508D4512A29
:101A30001387018A03284700370600809387018AAD
:101A40001346E6FF98436315F80293864189904256
:101A5000050690C29306440154C358C894C31CCCD5
:101A60001C3493E717001CB49D2201456FE0BF9919
:101A7000544B0C546385B6008D8EE378D6FCBA8740
:101A8000D1B71C35858B85C7EFE2BF9583A701864B
:101A90002A8491C382973522AA842285F53D268522
:101AA0003D221C340145F99B1CB46FE0DF957D5548
:101AB000828085476381F50263C5B70085C1014512
:101AC00082808947638FF5008D47E39AF5FE1C35C8
:101AD00093E7270009A85C511CC2D5B71C425CD112
:101AE000F9BF1C35F59B1CB5D9BFEFE21F8DEFE0A8
:101AF000DF9C2A8CF920B70900802A8A9384018A06
:101B000093C9E9FF8D4B8040631694005285C12034
:101B10006FE03F8E48481309C4FE3305AC40E3E74D
:101B2000A9FE83A7818999C34A8582974A85EFF0E8
:101B3000BFE61C4448448297EFE03F9883A7C189E1
:101B40002A8C99C34A858297834754FF13F7E70F7E
:101B5000A30AE4FE8D8BE39877FB4A85EFF07FEADA
:101B60005DB79387018ADCC39CC3828082801106A3
:101B7000719A2A8837C7ADDE130506F8AA871307BE
:101B8000F7EE631EF600A167938707882322D6F835
:101B90002324B6FA232006F92324F6F8828098C37A
:101BA0009107C5B737F700E01C43B7060080D58F13
:101BB0001CC3828037F700E01C43860785831CC363
:101BC00082802165130505807315053082807310AE
:101BD00005308280EFE2FF801387018B18439387E3
:101BE000018B19E323A4A18A23A6B18A054798C3D0
:101BF000553F6FE05F812A87814718436314A70030
:101C00003E8582808507D5BFB707EFBE37E700E086
:101C1000938707083CC701458280EFE28FFC376558
:101C2000000013054517EFF08FBC01456FE0AFFDD5
:101C3000EFE22FFB2A84FD54377900007D146314F2
:101C400094006FE04FFC1305C98DEFF04FBAFDB75C
:101C5000EFE28FF70041AA8437790000B7790000DE
:101C6000631494006FE08FF99305C4FE1305098E89
:101C7000EFF0EFB71C40638697001385498EEFF0B5
:101C80000FB70040F1BFEFE2CFF52E89EFE09FFCE8
:101C90002A84EFF05F9E83240900639C2401EFF007
:101CA000FF9EA14763C3870011E0214422856FE0B6
:101CB0008FF5138544FFEFE0FFF96353A4002A84F6
:101CC0008440E1BFEFE26FEF0545EFF08FF1B769B8
:101CD0000000130945002A84CA85138589426537A7
:101CE000AA85AA8437650000138689421305054337
:101CF000EFF0EFAF2685EFF0BFF337650000130577
:101D00004547EFF0CFAE4040B7690000054A894A29
:101D1000376B0000B76B0000376C0000B76C000039
:101D2000376D00006315890001456FE08FEC0347B4
:101D300094021385494B930644FF2146A685EFF094
:101D40000FAB8347840213850C4CBD8B638E470118
:101D50001305CC4C638A570113858B4D91C71147EE
:101D60006396E70013054B4EEFF06FA84C4C9307BA
:101D70003002AE8698226306F702105093074006A1
:101D80000848B295B386D540B386F602585C5C50DD
:101D9000898D13050D4FB3D6C602EFF04FA5004055
:101DA00051B78506C1BFEFE22FE241110945EFF0BF
:101DB0004FE393094500376900002A84CE85130557
:101DC000893CEFF05FECAA85AA8437650000130612
:101DD000893C1305453DEFF08FA12685EFF05FE5C7
:101DE000376500001305053FEFF06FA04040376AEC
:101DF0000000B76A0000377B000063968900014548
:101E000041016FE0AFDF1A281C44930644FF130919
:101E1000840036C63AC44A856306F902EFF0BFDD96
:101E20002247B246AA872146A68513858A40EFF04D
:101E30000F9C4A85EFF0DFE113054B36EFF02F9B47
:101E4000004065BFEFF03FDB2247B246AA8721463C
:101E5000A68513058A41EFF08F99DDB7EFE2CFD663
:101E600041111145EFF0EFD79309450037690000A4
:101E70002A84CE851305C920EFF0FFE0AA85AA8445
:101E8000376500001306C92013054521EFF02F9692
:101E90002685EFF0FFD93765000013058523EFF0A5
:101EA0000F954040376A0000B76A0000377B00009A
:101EB00063968900014541016FE04FD41C4413092A
:101EC0008400930644FF18486309F9024A8536C620
:101ED0003AC4EFF05FD22247B246AA872146A685D0
:101EE00013858A25EFF0AF904A85EFF07FD6130572
:101EF0004B36EFF0CF8F004065BF2146A685130516
:101F00000A27EFF0CF8EC5BFEFE20FCC41110D4590
:101F1000EFF02FCDB7690000130945002A84CA8568
:101F200013854936EFF03FD6AA85AA8437650000AD
:101F3000138649361305C536EFF06F8B2685EFF013
:101F40003FCF3765000013050539EFF04F8A404059
:101F5000B769000063168900014541016FE00FCAAF
:101F6000930644FF1305840036C6EFF0DFC803482C
:101F700034015C48B246AA8821472146A6851385CC
:101F8000093BEFF0CF860040F1B7EFE2EFC341111C
:101F90001545EFF00FC593094500376900002A8405
:101FA000CE8513054928EFF01FCEAA85AA84376590
:101FB0000000130649281305C528EFF04F83268536
:101FC000EFF01FC7376500001305052BEFF02F82D8
:101FD0004040376A0000B76A0000377B0000639614
:101FE0008900014541016FE06FC17A285E281044E5
:101FF000930644FF1309840036C63AC43EC24A859C
:102000006307C902EFF03FBF92472247B2462A88D2
:102010002146A6851385CA2CEFE07FFD4A85EFF0A7
:102020003FC313054B36EFE09FFC00404DBFEFF080
:102030009FBC92472247B2462A882146A6851305AF
:102040004A2EEFE0DFFAD5B7EFE20FB8411119459C
:10205000EFF02FB993094500376900002A84CE8537
:102060001305C92FEFF03FC2AA85AA843765000087
:102070001306C92F13058530EFE07FF72685EFF0B3
:102080003FBB3765000013054532EFE05FF6404087
:10209000376A0000B76A0000377B0000639689004A
:1020A000014541016FE08FB51A2C1C44930644FF93
:1020B0001309840036C63AC44A856306F902EFF074
:1020C0009FB32247B246AA872146A6851385CA3305
:1020D000EFE0FFF14A85EFF0BFB713054B36EFE0B5
:1020E0001FF1004065BFEFF01FB12247B246AA873B
:1020F0002146A68513050A35EFE07FEFDDB7EFE255
:10210000AFAC5D712545EFF0CFAD996513060005C5
:102110002A8413094500938505E20A85EF205010B3
:10212000B7690000CA851385491AEFF0DFB5AA85A3
:10213000AA84376500001386491A1305C51AEFE013
:102140001FEB2685EFF0DFAE376500001305451D58
:10215000EFE0FFE94040D149376A0000631689008B
:10216000014561616FE08FA91C44930644FF63E061
:10217000F90298088A07BA9703A707FB1C2821468B
:10218000A68513058A1FEFE09FE60040C1BF4647C2
:10219000F5B7EFE26FA32945EFF0AFA4B7690000F0
:1021A000130945002A84CA8513858951EFF0BFAD14
:1021B000AA85AA8437650000138689511305055244
:1021C000EFE0FFE22685EFF0BFA6376500001305BC
:1021D0008554EFE0DFE14040B7690000376A000056
:1021E000B76A0000631E8900EFE02FADAA8537654E
:1021F00000001305055AEFE09FDF01456FE00FA0D7
:102200005C4C184C1385C956930644FF2146A6859D
:10221000EFE0FFDD8347D4FF13854A58858B99E3B0
:1022200013050A59EFE0BFDC00406DBFEFE2CF9924
:10223000376500001305C517EFE07FDB03A4818B32
:10224000B7690000376A000083A7C18B6365F4009B
:1022500001456FE0AF9A0440094693850919268528
:10226000EF20300F19C55040A68513054A19EFE03D
:102270001FD83104D1BFEFE22F9537750000130549
:1022800005A4EFE0DFD603A4818BB7790000377A8D
:10229000000083A7C18B636BF40037750000130542
:1022A0004536EFE0DFD401456FE04F950440194615
:1022B0009385C9A52685EF20D00901E95040938573
:1022C000640013054AA6EFE09FD23104D9B7054553
:1022D0008280EFE26F8F79712A84AA9593060002BB
:1022E000254783070400B38485406385D70A638349
:1022F000E70A0145638B0410014913070002A54654
:10230000B307240183870700638AE7086388D70837
:102310006314990883A9818B83AAC18B377B000042
:1023200063F0590903AA090019469305CBA5528504
:10233000EF20300259E54A86A28513056A00EF2096
:10234000500141E14A9A83076A00A5EF83A98900F9
:10235000638809041306800281452800EFE06F8B33
:1023600013098100CA86A2870145014713080002AC
:10237000A548294313062002130EC00583850700D4
:102380006384050163961505631F9702A9476303DC
:10239000F50469A80504B1B705099DB7E31C09F662
:1023A000A287038707001377F7FD79E737750000E9
:1023B000130585A223800700A285EFE05FC37D554A
:1023C000A9A0B109B1BF23800700050785077DB724
:1023D0006310650437750000130545A0EFE03FC1A9
:1023E0000018B774000083250900138544A2110961
:1023F000EFE0FFBFE31989FE37750000130545368E
:10240000EFE0FFBE29452C00829945616FD01FFF88
:10241000637E970005056392C504850705079CC286
:10242000838507006381C5026364970069FD8DBFE2
:10243000838E17006396C5016394CE008507050758
:1024400085070507F1BFE37397FE238007000507A3
:1024500085079106E36497F2D1BF9CC2838507008C
:102460006389050163871501E30297FC850705076A
:10247000F5B7E36097FE5DBF850725B7EFD2FFF3A1
:102480008307050099E781450145EFF0DFDE6FD056
:102490005FF603AA818BAA8981440149377B00003A
:1024A000B77B000083A7C18B6369FA00EDD04A8631
:1024B000A6854E85EFE0AFF4D9BF03240A00194684
:1024C0009305CBA52285EF20C06821E14E85EF2042
:1024D000206719042A86A2854E85EF20806715E5BE
:1024E000631709002285EF20A0652A89A284A687A8
:1024F00022870386070001EE858F63D327013E897B
:10250000A2851385CBA6EFE09FAE310A61BF83069B
:102510000700FDD2E312D6FE85070507D9BFEFD22B
:102520005FECEFF02FFA01456FD0FFEDEFD27FEBBC
:10253000EFE0BFC001456FD01FEDEFD29FEA03A5CA
:10254000418BEFE04FBB01456FD0FFEBEFD27FE94E
:10255000B77700009387C76B23ACF18AB787000079
:102560009387478523AEF18AB78700009387478515
:1025700023A0F18CB787000093874785930500213E
:10258000054523A2F18C1384418BEFE0BFD808C02E
:1025900019E937750000130505B2EFE05FA57D541A
:1025A00022856FD05FE6B725000037750000A94788
:1025B0002D479306004001469385C56C130585B3EE
:1025C000EFF00FA3AA840840B775000081460146CA
:1025D000938505B4EFE0AFA70144F9D02685EFF06D
:1025E000EFB87DBFEFD2FFDFEFF07FCE0DC5B7753F
:1025F00000009385C5AE1385C1CAEF206053B7753F
:1026000000009385C5AF1385C1CAEF2080501385A4
:10261000C1CA6FD05FDFB7750000938545AFE1BFDA
:10262000EFD23FDC2A84377500001305C5B5EFE013
:102630001F9CEFF03FFBAA85377500001306A41B13
:10264000130545B6EFE0BF9A01456FD0DFDBEFD24F
:102650005FD941112AC6EFD0DFF6B24511E93775CF
:102660000000130505B0EFE09F9841016FD0BFD97E
:1026700083A7418BAA841384418B83A7C720E38659
:10268000A7FE93053014EFD09FFB65F11C4003A516
:10269000C72009C9EFE04F821C40814503A5C72030
:1026A000EFE08F8800401306000581451305A41B49
:1026B000EFD03FD6B7250000231504202326942011
:1026C0009385A5532685EFE02F8645B7EFD27FCEC1
:1026D00083A7418B41119384418B03C74702136742
:1026E00017002382E70283A7C72091E7EFE0DF8C82
:1026F00019C1EFF0DFF5EFF0FFEEEFE05F8F377B12
:102700000000B77B0000B7790000377A0000B77A85
:102710000000377C0000B77C00009C408546130613
:10272000F10003A5C720FD55EFD09FFC8547631A34
:10273000F5000309F100ED4780406319F90008D066
:10274000E9BF8840FD55EFE00F93C1BF1C50639275
:10275000A7029307B0056315F90089471CD075BF20
:1027600023200402E30B09FAA5476314F912014977
:10277000D1A80947E398E7FE232004029307100439
:102780006312F9046E30D1D9FD15C205C1816EB056
:102790009307A41B13070005B385E5021306000584
:1027A0003E859385A502A295EF208027EF20403932
:1027B0001375F50F2305A420A305A4202285EFF0AF
:1027C0003FE6A1BF930720046311F90216347E305F
:1027D0001387F6FF63D8E70085077EB09307A41B35
:1027E0006E304DBF9DDA7AB0D5BF930740046310B9
:1027F000F9028347B42095D3138589B4EFE02FFF06
:1028000098408347B720FD17A305F72039B79307F2
:102810003004E319F9F48347B4200347A420E3FE0E
:10282000E7EE3E948305A41B1385CAB4EFE02FFCAA
:1028300098408347B7208507C1BF138589B4EFE06F
:102840000FFB050980408347B420E348F9FE1305D8
:102850004A36EFE0CFF9EFF09FA785471304A41B9A
:102860006315F5002285EFF07FC1EFF0BFD7228618
:10287000AA8513854CB6EFE08FF780401305A41BA3
:10288000EF20002C1375F50F2305A420A305A42029
:1028900069B59307F0076305F900A1476315F908C7
:1028A0008347B420E38B07E60346A420FD1793F784
:1028B000F70F7D161376F60F2305C420A305F42029
:1028C00063F8C7049385B71B1385A71B1D8EA295BC
:1028D0002295EFE04FAE9C4013850BB503C7A720B0
:1028E0003E97230D071A83C5B7209385A51BBE9578
:1028F000EFE0EFEF9C4003C4B7209C4083C7A720C4
:10290000E3CD87E0138589B4EFE06FEE0504F5B7FA
:1029100013058BB5EFE0AFED9C4003C7A720BA9736
:10292000238D071ADDBB35478347A4206305E900E3
:102930002947631EE90EB9CB035984029147130D51
:10294000A41B63FB2709930DA41613060005EA8553
:102950006E85EF20A00A1DC91309A4024A85130938
:10296000090513060005CA85EF20800BE3982DFFAB
:102970001306000581456E85EFD0BFA90346A4204C
:10298000EA856E85EF20C00995471EB41E347EB0DF
:10299000EFF0FF9385476312F5029C4083C747021F
:1029A000858B89C713054A36EFE06FE4884083457D
:1029B000A5201305A51BEFF0DF91EFF0BFC2EFE0FC
:1029C0000FE380401306000581451305A41BEFD0DB
:1029D0005FA42315042091B3630109021305F9FFD5
:1029E000930700053305F50213060005EA85130574
:1029F000A5022295EF20800051D9930D00053305E3
:102A0000B9031306000581451305A5022295EFD0F1
:102A10005FA00A340346A420EA853305B5031305F5
:102A2000A5022295EF10D07F1E348507B9BF13078A
:102A3000F0046374F700230504200346B4208347A1
:102A4000A4206370F6089305A61B1305B61BA29578
:102A50003386C7402295EFE00F968C4083C7B520A0
:102A60003387F500230D271B03C74502058B01CBD8
:102A70009387A71BBE9513050C8EEFE04FD79C40A4
:102A800003C4B7209C4083C7A7206346F402984044
:102A90008347A7208346B7208507850693F7F70F5E
:102AA000A305D7202305F7209306F004E3F7F6C625
:102AB000231507209DB1138589B4EFE04FD305049A
:102AC000D1B7A297238D271B83474402858BE1D37F
:102AD000CA851385CAB4EFE08FD155BF7C41232846
:102AE0000504232A05049C4381CBEFD29F8F9305D5
:102AF000850482976FD03F9101458280EFD2DF8CB1
:102B000036899DCAAA843284B309D600294A1C207A
:102B1000639B4701BE2C93F7070491C7FC40B54562
:102B200026859C478297FC408305040026859C47A8
:102B300005048297E31D34FD4A856FD03F8CEFD2A8
:102B40005F8A93F705102A8491C71A2D6155137770
:102B5000071035CF13F7054011C71A2C61551377AD
:102B6000074035C713F705049304000401E7262C3A
:102B700093F40404384893F5F50F2EAC39EBA1C754
:102B800068442981420541813105EFE0EFE5704459
:102B90002A89310529824206418281452320A900E4
:102BA000EFD0FFF8232209003E2C2324090023281C
:102BB000240593E707103EAC7C4013060010C14586
:102BC000DC43228582973E2C0145DD8C26AC6FD0FC
:102BD0009F83F5DB93E505102EACF5B70948AA876E
:102BE00063810503EFD2EFFF0D48638205030547BC
:102BF0006399E5041A2D1377F7FD1AAD01456FD0DF
:102C00009F801A2D136707021AAD01458280328713
:102C100075D6504274454C2D2982A9824206C206BF
:102C20004182C1826304D6001D45F1F91443B4C743
:102C30005443F4C7E1D5F443BA853E859442829665
:102C400075BF7C41DC4382975DBFEFD2EFF73684DE
:102C5000B1CA3E2DAA89328993F70710B6849DE345
:102C60007D5AA94A83A749044E85DC4782976309A8
:102C700045012300A900FD14050963035501FDF07A
:102C8000058C0DA02449368A854AEFE09FF3FE208B
:102C9000DA202A869444631AF70081EAEFE03FF3D2
:102CA0003304444122856FD06FF598403E97034B23
:102CB000070003A7C9048507C2072983C183420708
:102CC000FEA0418363E4E70023930400639456016C
:102CD00023A404003285EFE09FEF7D1A23006901F1
:102CE0000509E3140AFA6DBF582D854763ECE70226
:102CF0003E2D93F707109DC7EFD2AFEE2A842849E7
:102D0000EFE08FE33E2C232804041306001093F712
:102D1000F7EF3EAC7C40C5452285DC4382970145F8
:102D20006FD06FEE01458280EFD2AFEB37370000F6
:102D30001307C7AD18D5373700001307E7B358D5C9
:102D400037370000130787CE18D93737000013072D
:102D5000A7C458D9373700001307C7AF18DD373776
:102D600000001307C7BD420658DD34C14182232A43
:102D700005002320050223220502EFD01F896FD012
:102D80008FE893F5F50F85476391F50AEFD2CFE30E
:102D900020494111AA847D598549FC402685DC479C
:102DA00082972A8A63072505EFE0BFE15A201C407D
:102DB000BA97238047015E20F8448507C20729831C
:102DC000C18342075EA0418363E4E700231204004D
:102DD00076205E20639CD7008507C207C1837EA052
:102DE0002324340163E4E70023130400EFE03FDE13
:102DF0006DB79C5085C3EFE0DFDC5A206E20636E18
:102E0000B700B305B7402EC6EFE07FDC9C50B2455B
:102E10002685829741016FD06FDEFC44998DA9838E
:102E2000C207C183B385B740F9BF828001CEEFD21C
:102E30004FDB7841B2878E23184332220297014537
:102E40006FD06FDC7D558280EFD2AFD9138701D36D
:102E500078432E86AA851843138501D302976FD035
:102E60008FDAEFD20FD8138701D378432E86AA8545
:102E70005843138501D302976FD0EFD8EFD26FD6A6
:102E8000138701D37843AA85138501D31847029786
:102E90006FD06FD705C611476392E602EFD26FD4A9
:102EA0007C410E2241119C4736C632C4829722468D
:102EB000B2462AA2368541016FD0EFD481463685CD
:102EC00082801DC2B28711466390C602EFD26FD1D5
:102ED0007841B2238E235843411136C60297B24639
:102EE000410136856FD02FD2814636858280EFD260
:102EF0004FCF938701D34947D8CB3737000013070B
:102F000047E9D8DB37370000130727EC98DF37375E
:102F100000001307C7E2ECC3B0C3AA850D461385B2
:102F200001D323A0070223A2070223A4070223A69A
:102F3000070223A80702D8DFEFD02FED01456FD09D
:102F40008FCC371500201305858982803725002016
:102F5000130585898280EFD2CFC803A781809307AC
:102F6000803EC1563357F702B7E700E02386D740CB
:102F70002387D740856623A0D710916623A0D7105A
:102F8000B7F700E023A0070023A20700014690C77F
:102F90008146D4C781461306F7FF90CBD4CB3D477B
:102FA00098C3EFD0EFD7EFF0DFF92A84EFF01FFAE4
:102FB000AA852285EFE08F9B377500001305C5BDFC
:102FC000EFD0FFFF6FD02FC473110134EFD0BF9645
:102FD000B7F700E023A20700EFD08FCEEFD07F98A5
:102FE00073110134730020308147854613070002B6
:102FF0003396F6006306A6008507E39BE7FEFD57C0
:103000003E858280EFD2EFBD854513050002EF10AB
:10301000A07D6FD04FBFEFD2CFBC85452145EF10CB
:10302000A07C6FD04FBEEFD2CFBB85451145EF10CE
:10303000A07B6FD04FBDEFD2CFBA85454145EF1091
:10304000A07A6FD04FBCEFD2CFB9854513050004ED
:10305000EF1080796FD02FBBEFD2AFB89D65377579
:1030600000000146938545BE1305C52CEFF03FE8EF
:103070006FD06FB99307400663ECA7009317450024
:103080001D651305C5C73E951841FD576313F7002D
:1030900001458280EFD2EFB4411113F5F50F32C62E
:1030A000EFF05FFD11C54E2532460845EF10E05E9A
:1030B00041016FD04FB5EFD2CFB213F5F50FEFF05E
:1030C0007FFBAA87014589C7CE278847EF10C05BE1
:1030D0006FD06FB3EFD2EFB0011113F5F50F32845B
:1030E000EFF05FF905C55C412AC6829732455C4521
:1030F000FC82C1473ECE8D473ECC09C41547631ABA
:10310000E40002CE08454C08EF10004C05616FD07A
:103110008FAF05476315E40091473ECEE5B76315D1
:10312000F40093078002D5BF89476315F400930725
:103130008004E5B791476314F400D147F9BF99477C
:103140006314F400F147D1BF9D47E31DF4FAE14752
:10315000E9B7EFD26FA713F5F50FAE84B289368ABF
:103160003A89EFF03FF1994731CD4845EFF0DFE77D
:103170003D472A8499476367A704EFE09FA4B146BF
:10318000B306D402B7070020138707082A8693875F
:103190000708369783160700639F96004C43639C8D
:1031A00045012E2363993501184763162701EFE087
:1031B0001FA2814701A87D576389E6003285EFE0B1
:1031C0001FA19D473E856FD06FA331453305A402F3
:1031D0003E9506A123224501231135012324250113
:1031E0003285F1B7EFD2EF9F13F5F50FEFF09FE8BF
:1031F00019471DC94845EFF03FDFBD472A841947ED
:1032000063E4A702EFE0FF9BB1473304F402B70782
:103210000020938707087D57A2978396070063983D
:10322000E600EFE0DF9A01473A856FD0CF9D416716
:103230007D1798C323A2070023A40700DDB7EFD2B0
:10324000AF98011113F5F50F328AEFF0BFE29947FD
:1032500021C185442A8463159A104845EFF0DFD8D0
:103260003D47AA8499476365A702EFE09F95B14A5D
:10327000B38754033709002013090908AA893E9926
:1032800003170900FD576319F700EFE05F949947B2
:103290003E8505616FD08F965C40829785450545D8
:1032A000EF1080545C440D473AC47C823EC883577B
:1032B000290002CA52CE638C4709C1C70947638DF2
:1032C000E70808444C00EF1020301844B7170140BD
:1032D000938607C005456302D7020945630FF700CF
:1032E000938707400D45630AF700B727014093878E
:1032F000078001456313F700114593F5F40FEF10B4
:10330000603A0808EF1020239D679387C7BF8E049B
:10331000BE94D04037E700E093060005B307C7002E
:103320002380D740935756009387070485468A0722
:10333000B396C600BA9794C34E85EFE05F89814784
:1033400081BF930780023EC6A1473ECC9DBF930735
:1033500080043EC656CCB5B791473EC6C147F5B7C7
:103360009947E3170AF24845EFF01FC83D479947D0
:10337000E360A7F2931735001D651305C5BF3E95A1
:1033800058419357570093870706B394E4008A0780
:1033900037E700E0BA9784C35DB7EFD28F84EFF0D0
:1033A000BFC4B1473305F502B7070020938707086C
:1033B0003E955C4199C3084582976FD0CF847311C5
:1033C0000134EFD04FD70545EF10801D19C50545D5
:1033D000EFF0BFFC0545EF10801EEFD08FD87311C2
:1033E00001347300203073110134EFD0CFD409457C
:1033F000EF10001B19C50945EFF03FFA0945EF1022
:10340000001CEFD00FD673110134730020307311FC
:103410000134EFD04FD21145EF10801819C5114576
:10342000EFF0BFF71145EF108019EFD08FD3731174
:1034300001347300203073110134EFD0CFCF214518
:10344000EF10001619C52145EFF03FF52145EF10AB
:103450000017EFD00FD173110134730020307311B6
:103460000134EFD04FCD4145EF10801319C54145D0
:10347000EFF0BFF24145EF108014EFD08FCE731103
:1034800001347300203073110134EFD0CFCA13051B
:103490000002EF10E0101DCD13050002EFF0FFEF6A
:1034A00013050004EFF07FEF13050008EFF0FFEEC7
:1034B00013050010EFF07FEE13050020EFF0FFED95
:1034C0001305003EEF10A00FEFD0AFC97311013408
:1034D0007300203013050004EF10800C55FD130518
:1034E0000008EF10E00B4DF913050010EF10400B32
:1034F00045F513050020EF10A00A59FDF1B773112F
:103500000134EFD04FC313050040EF10600929C10B
:1035100013050040EFF07FE8056513050580EFF027
:10352000DFE70565EFF07FE70965EFF01FE711655D
:10353000EFF0BFE62165EFF05FE64165130505C0DA
:10354000EF10E007EFD0EFC17311013473002030AA
:10355000056513050580EF10A0045DF90565EF1002
:1035600020045DF50965EF10A0035DF11165EF1012
:10357000200359FD2165EF10A00259F9E1B701457B
:103580008280EFC21FE69C412041A14641111CC030
:10359000B1473EA4DC412316040013F7F700630192
:1035A000D702A546631ED70005675AA013D7470068
:1035B0000D8B01C785466308D7002313040031A093
:1035C00023120400E5B709677AA099838D8B05471C
:1035D0006389E70081C709476389E706231404006C
:1035E00021A0930700601EA41848B74701409387A5
:1035F00007806318F704116585451105EF10C01E9B
:1036000093070020B71401407C820D49E1474C002C
:10361000138504803EC64AC4EF00107B9307004028
:103620007C824C009147138504803EC64AC4EF005B
:10363000B0790848A285EF10E01E08488545EF10D4
:10364000202A014541016FC01FDC9307004061BF84
:10365000EFC29FD7B72400201384048F9307500331
:103660005CC837290020B747014013068989938732
:10367000078074461CC89D679387072D7CC2B707D7
:1036800000C0F58FC166A106716713070720D58FAB
:103690001165411138C67CC68545B7070C00110578
:1036A00018C01CC42322040023160400EF10C0130A
:1036B000B7190140930700207C820D4AE1474C0076
:1036C0001385098052C43EC6EF0010709307004076
:1036D0007C824C009147138509803EC652C4EF009E
:1036E000B06E08489385048FEF10C01308488545D5
:1036F000EF10001FB77500009386048F130630107B
:103700009385C5BD13058989EFF00FE2014541019D
:103710006FC0DFCEEFC2FFCC204193050002084806
:10372000EF10402119C51C48CA231375F50F6FC04F
:103730009FCD7D55EDBFEFC2DFCA24412E8488485E
:1037400093050004EF10001F7DD99C48420441807E
:10375000C2A305456FC03FCBEFC2BFC8C1473841C8
:10376000638BF502C5476395F502544B054693D725
:103770005600938707063316D6008A07B7E600E09F
:10378000B69790C30146084B93055052EF10A01610
:1037900001456FC05FC7544B054693D756009387CA
:1037A00007043316D6008A07B7E600E0B69790C341
:1037B0000546D1BF411122C626C473110134B72476
:1037C0000020EFD04F9793878489A04393055052F0
:1037D0000848EF10C01619C9854513858489EFF094
:1037E0004FDA084893055052EF102019EFD06F9729
:1037F000731101343244A244410173002030EFC2FE
:103800005FBE79711306000281450808EFC07FC0D2
:103810008545114502C202C402C6EF00F07C854511
:1038200013050020EF00507C3165EF00706A3715FA
:10383000014089474C0013050580372401407C82F4
:1038400002C6EF00705813050440EF00301EB707A2
:103850000E003ECE0C088547130504402302F102FA
:1038600002C802CA02CC02D0EF0050209D46054695
:10387000854513050440EF00B02A85451305044033
:10388000EF00F028854513050440EF0090238145A3
:1038900013050440EF00703513050440EF0070235A
:1038A000930404402685EF0070236DFD130504404A
:1038B00037240140EF001023930404402685EF00D5
:1038C00010236DFD13050440EF00B0332394A18C49
:1038D000854513050440EF00503145616FC0BFB20C
:1038E0008397818CAA9763CD070085661387F6FFBF
:1038F00063DAD7006309E5001395070141818280EF
:10390000014582803A858280EFC2BFAD37240140F5
:10391000AA859D46054613050440EF0070208545A5
:1039200013050440EF00301D9304044089452685AB
:10393000EF00102B65DD13050440EF00F029EFF0D8
:103940003FFA6FC05FACEFC2DFA937750000130507
:10395000452EEFD0CFE96FC01FABEFC29FA8370451
:10396000002013040432084093050002EF00705257
:103970000840A145EF0030520840C145EF00B0516A
:103980000545EFF07FF82393A18E0840A145EF0095
:1039900090500840C145EF00D04F0545EFF0DFF6ED
:1039A0002395A18E0840A145EF00B04E0840C145C7
:1039B000EF00304E0545EFF03FF52397A18E08400C
:1039C000A145EF00104D0840C145EF00D04C054522
:1039D000EFF09FF32399A18E6FC0FFA2EFC27FA0EB
:1039E00041118545130500023704002013040432F9
:1039F00002C202C402C6EF00305F08408944A147FA
:103A000041494C007C8226C44AC6EF00F03B854504
:103A100013050002EF00505D08404C002312210105
:103A200026C44AC6EF00503A854513050002EF0050
:103A3000B05B0840930700024C007C8226C44AC653
:103A4000EF009038854513050002EF00F05908405B
:103A5000130980044C00648226C44AC6EF00D036A5
:103A6000854513050002EF00305808404C0091478F
:103A70007C8226C44AC6EF003035B74700009387E2
:103A8000679423AAF18C23ACF18C23AEF18C23A094
:103A9000F18E23A6F18C23A8F18CEFF01FEC03D755
:103AA000618E2392E18E03D7A18E2394E18E03D7FA
:103AB000E18E2396E18E03D7218F2398E18E410179
:103AC0006FC07F94EFC2FF913704002013040432CB
:103AD00008408945EF00503B2382A1800840914572
:103AE000EF00903A2383A1806FC0FF91EFC2DF8D7A
:103AF000EFF0BFE683D5618E83D6418E1306400674
:103B00009384618E3385D5401384418E6345A6002E
:103B10008D8E6357D60083A7418D82979E201EA06D
:103B200083D5A18E83D6818E130640069384A18E01
:103B30003385D5401384818E6345A6008D8E6357EF
:103B4000D60083A7818D82979E201EA083D5E18E0B
:103B500083D6C18E130640069384E18E3385D5400B
:103B60001384C18E6345A6008D8E6357D60083A74C
:103B7000C18D82979E201EA083D5218F83D6018F71
:103B8000130640069384218F3385D5401384018F1B
:103B90006345A6008D8E6357D60083A7018E82975A
:103BA0009E201EA0EFF01FF283C651800547938927
:103BB0005180138941806398E6008347090081E7BB
:103BC00083A7C18C829783C6718005471384718057
:103BD000938461806397E6009C2081E783A7018D31
:103BE0008297834709002380F9009C201CA06FC0A6
:103BF000FF8073110134EFC01FD437750000130527
:103C0000C530EFD0CFBEEFC0DFD5731101347300E4
:103C1000203073110134EFC01FD237750000130537
:103C20000530EFD0CFBCEFC0DFD373110134730088
:103C30002030EFC20FFBEFF05FD283D5618E377576
:103C4000000013050535EF00D06883D5A18E3775C8
:103C5000000013058536EF00D06783D5E18E3775F8
:103C6000000013050538EF00D06683D5218F377526
:103C7000000013058539EF00D0656FC0CFF8EFC2A3
:103C80004FF6B707002083C547323775000013058C
:103C9000C531EF00106483C56180377500001305DE
:103CA0004533EF0010636FC00FF6EFC28FF3411181
:103CB0008545130500043729014002C202C402C62B
:103CC000EF0090324144894485474C001305098038
:103CD0007C8226C422C6EF00300F85451305000400
:103CE000EF0090304C0013050980648226C422C680
:103CF000EF00900D854513050004EF00F02E91476D
:103D00004C00130509807C8226C422C6EF00D00B2C
:103D1000854513050004EF00302DA1474C00130525
:103D200009807C8226C422C6EF00100A854513054F
:103D30000004EF00702B4C0013050980608226C43C
:103D400022C6EF00700841016FC0EFEBEFC2CFE772
:103D5000AE84AA8AB6852685328A36891D44EF004C
:103D60009013FD5933D68A40058AD2852685EF0007
:103D7000D012CA852685EF00D011CA8526857D140C
:103D8000EF007011E31034FF6FC04FE7EFC26FE533
:103D9000C841EF005046B725014089460546938546
:103DA00005801375F50FEFF07FFA6FC0CFE5EFC216
:103DB0004FE32A84AE84EF00100E0545EFD07FB5A7
:103DC000A6852285EF00F00C6FC0EFE3EFC2CFDFD6
:103DD000AA8A2E8B3285BE85BE84BA89428A3284F5
:103DE0003689EF00100BD2852285EF00D00ACE86EF
:103DF0004A86A2855A85EFF07FF5A6852285EF00D9
:103E000090090545EFD0FFB0A6852285EF00700828
:103E1000D2852285EF00F007CE864A86A285568598
:103E2000EFF0DFF2A6852285EF00F0060545EFD022
:103E30005FAEA6852285EF00D0056FC02FDCEFC2F4
:103E40004FDAC84141112EC6EF00F03AB2452A843C
:103E50008845EF00503A372601409375F50F214809
:103E6000914709478546130606801375F40FEFF056
:103E7000FFF541016FC02FD9EFC2AFD63724014003
:103E800013050480C145EFF09FF21306048021481A
:103E9000914709478546930500020545EFF01FF35A
:103EA000130604802148914709478546930500047D
:103EB0004145EFF0BFF113060480214891470947BF
:103EC0008546930500061305000FEFF03FF013063B
:103ED000048021489147094785469305000813054A
:103EE0007007EFF0BFEE13060480214891470947A1
:103EF00085469305000A13058009EFF03FED130690
:103F000004802148914709478546930530020545BD
:103F1000EFF0DFEB130604802148914709478546FF
:103F2000930530040145EFF07FEA13060480214831
:103F3000914709478546930530061305000FEFF0BA
:103F4000FFE81306048021489147094785469305F9
:103F5000300813057007EFF07FE7214891470947C4
:103F60008546130604809305000B13051003EFF03C
:103F7000FFE56FC04FC9EFC2CFC63775000013050C
:103F8000053BEFD0CF8683A58180377500001305F0
:103F9000453CEFD0CF85377500001305453DEFD088
:103FA0000F85EFF0DF85EFF05FD0EFF03FA3372410
:103FB000002037460000B77500001305849089473C
:103FC0001307400681461306C6AE9385453EEFD0E3
:103FD000DF9D13058490EFD0DFA21305803EEFD064
:103FE0005F93E5BFB71702409843B706FFF841114A
:103FF0001367170098C3D84337060200758FD8C3DC
:104000009843B706F7FEFD16758F98C39843B70619
:10401000FCFFFD16758F98C3D843B70681FFFD16C8
:10402000758FD8C39843B70600ECFD16758F98C3FB
:104030003707FF0098C723A6070202C402C69843A9
:10404000C166558F98C3B716024005679C42F18F31
:104050003EC6A24785073EC4B24781E7A247E39721
:10406000E7FEB71702409C431397E7006356070625
:1040700085473EC632478547631EF704B71702409F
:10408000D843B706C1FFFD16D8C3D843D8C3D84319
:1040900013670740D8C3D843758FD8C3D843C166C8
:1040A000558FD8C39843B7060001558F98C39843DE
:1040B00093166700E3DD06FED843B7160240719BF6
:1040C000D8C3D84313672700D8C32147DC42B18B3C
:1040D000E39EE7FE4101828002C669BF01A001A004
:1040E00001A001A001A001A001A001A001A001A0C8
:1040F00001A001A001A001A001A001A001A001A0B8
:1041000001A001A001A001A001A001A001A001A0A7
:1041100001A001A001A001A001A001A001A001A097
:1041200001A001A001A001A001A001A001A001A087
:1041300001A001A001A001A001A001A001A001A077
:1041400001A001A001A001A001A001A001A001A067
:1041500001A001A001A001A001A001A001A001A057
:1041600001A001A001A001A001A001A001A001A047
:1041700001A001A001A001A001A001A001A001A037
:1041800001A001A001A001A001A001A001A001A027
:1041900001A001A001A001A001A07390123497D149
:1041A000FF1F9381219817C100201301A1E5173546
:1041B00000001305256C97C5FF1F9385A5E41386A2
:1041C000018263FAC5008322050023A05500110572
:1041D0009105E3EAC5FE1385018297D5FF1F9385FC
:1041E000E5756377B500232005001105E36DB5FE85
:1041F000FD42739002BCFD4273904280B782000082
:104200009382028073A0023097C2FFFF938202E381
:1042100093E2320073905230EFF0DFDC97C2FFFF81
:104220009382C2397390123473002030EFC26F9BB7
:10423000B727014093870740631CF50085451305A8
:104240000020D123814513050020752B6FC0AF9B43
:10425000B737014093870780E31AF5FE85451305BC
:1042600000405523814513050040C5B75C41370721
:10427000F1E01307F7EF944D7D8F9C41D58FD44D1E
:10428000D58FD441A206D58FD98F5CC11C4537F795
:10429000F1FF1307D77FD4457D8F9C49D58F944577
:1042A0008606D58FD98F1CC55C55370710FF7D1743
:1042B0007D8FDC29FD1793F7F70FD207D98F5CD5D7
:1042C00082801C4589C593E717001CC58280F99B35
:1042D000EDBF1C4593E787001CC5828008450D8112
:1042E000058982801C4593E747001CC582800845EC
:1042F0000981058982801C4591C537075000D98FF7
:104300001CC582803707B0FF7D17F98FD5BF5C4190
:1043100049777D17FD15F98FB605DD8D4CC182807B
:10432000A54763F7B7048D47138765FF3307F70287
:104330000328C5009D47B397E70093C7F7FFB3F77E
:104340000701B396E600DD8E54C5994763E3C704C1
:1043500095477D163306F6025859FD47B397C700B7
:1043600093C7F7FFF98F3396C5005D8E50D98280D1
:104370000D473387E502032805019D47B397E70002
:1043800093C7F7FFB3F70701B396E600DD8E14C9B4
:104390006DBFB14763E2C702954765163306F60263
:1043A0001859FD47B397C70093C7F7FFF98F3396A6
:1043B000C5005D8E10D9828095474D163306F602F2
:1043C0005855FD47B397C70093C7F7FFF98FB395CB
:1043D000C500DD8D4CD582806845420541818280D3
:1043E00008416D8D3335A00082805C4191C537074F
:1043F0000004D98F5CC18280370700FC7D17F98FDC
:10440000D5BFEFB21FFE01112A8423040100A54489
:104410001C8463F9F40423040100A54621461C848E
:1044200063FFF606231501002304010095461C8452
:1044300063F1F60E38853C8599460D46B3F7D702F1
:10444000056513050580B3D7C7023357D702BA975E
:10445000C207C1837C853C8505611D8D4205418570
:104460006FB07FFA1C4493E787001CC42285EFF0ED
:10447000FFE66DFD1C4493E747001CC42285EFF066
:104480001FE76DFD78441C8414108607B6972396A9
:10449000E7FE1C84850793F7F70F5C8495BFA304A0
:1044A00001009C846378F6001C84850793F7F70F5E
:1044B0005C84B5B798849C840C1006078507860732
:1044C0002E97AE970357C7FE83D7C7FE63FDE7025B
:1044D0009C848607AE9783D7C7FE7C859C8498848E
:1044E00085078607AE9783D5C7FE93171700181068
:1044F000BA972396B7FE9C8438850C1085078607EB
:10450000AE972396E7FE9C84850793F7F70FDC842C
:1045100049BF1C841010388589078607B29783D756
:10452000C7FEBA97C207C1837C851C84850793F7B1
:10453000F70F5C84EDBD5841032805004C45370654
:104540000140930706403E979346F8FFB1C5832587
:104550000640F58D2320B640D043F18ED4C31443DA
:10456000B3E6060114C3184190479346F7FF758ED2
:1045700090C7D047F18ED4C7144541466399C60011
:104580009447D98E94C7D447558FD8C78280B697A1
:104590009443558F98C382801C43F58F1CC382803F
:1045A000B70701401387074083A70740584B698F1F
:1045B00009C77D8D3335A000828001458280B70711
:1045C000014023AAA74082809C4513F7070113F8F6
:1045D000F70001C7D8413368E8008E2113F7F50FC3
:1045E00039C318418146854E3D4F930F8002930297
:1045F0008004214E3396DE00B3F8C5006311160324
:104600009398260033131F011343F3FF3377E3001E
:10461000B318180133E7E800639FF70550C9850612
:10462000E39AC6FD18C11307F00F6375B704544130
:104630002146854E3D4F930F800293028004414EE8
:10464000B398CE0033F715016392E80213172600E2
:1046500001173313EF001343F3FFB376D30033177F
:10466000E800D98E639DF701232A15010506E31999
:10467000C6FD54C18280E39457FA10C94DB7E39741
:1046800057FE23281501DDB708456D8D3335A00091
:1046900082800CC982804CC9828019C20CC9828078
:1046A0004CC9828013F7C50F93F73500B705014059
:1046B000BA9594458A073D473317F7001347F7FF2C
:1046C000758F98C598453315F500598D88C582803A
:1046D000B7160240DC4251777D17F98F5D8DC8C255
:1046E0008280371702405C439146B18B6385D700C7
:1046F000A1466382D706B7177A00938707201CC1AB
:10470000371602405C4237070020130707149183D5
:10471000BD8BBA9794231C41B3D7D7005CC15442D8
:10472000A1829D8ABA969422B3D6D70014C554426A
:10473000AD829D8A36971823B3D7E7005CC55842EF
:104740003983937637001387C18036971823B3D700
:10475000E7021CC982805C4354434167C983F98ED8
:1047600037F7FF1F0327C770BD8B89071316170183
:1047700063480600454601476392C702C94739A806
:1047800009476389E7023D476388E7024147638839
:10479000E702454601476393C700C14785E6B74630
:1047A000024083A60680C18A8DC6B7167A0093861A
:1047B000062025A00147D9B70547B547C5B701472A
:1047C000BD47E9BFB7160240D4421396E600E35E48
:1047D00006FCB7163D0093860690B387D7021CC12E
:1047E00005D31C41858321BF99C5371702401C4F53
:1047F0005D8D08CF8280B7170240984F1345F5FFB3
:10480000798D88CF828099C5371702405C475D8DCE
:1048100048C78280B7170240D8471345F5FF798D06
:10482000C8C78280EFB2FFBB1629F577FD17F58F59
:10483000F621DA257971D58F1EA95625FD77938744
:10484000379FF58FD6212A842EC6D58F9625D58FF2
:10485000B625D58F5EA55E29C207C18393F7F7CF32
:10486000D98F5EA96808EFF0DFE7B747014093876B
:104870000780B245631AF404A25756246547B387EC
:10488000E702C206C186984163D206040607522495
:104890004206B3D7E702130740064186B3D6E702C4
:1048A000B3F7E7029206635506028E079387270344
:1048B000B3D7E70213F77700B367D700C207C18306
:1048C0001EA445616FB03FB4925745BF0A07C1B7F8
:1048D000920793872703B3D7E702BD8BD58FF9BF24
:1048E00091C55E250967D98F5EA582805A25F97723
:1048F000FD17F98FD5BF13F7F50F85471583B395CE
:10490000B7006319F7009307C500984301CED98D0E
:104910008CC38280894693074501E318D7FE93072D
:104920000501E5B793C5F5FFF98DDDB793F5F51FE3
:104930004EA182800A216D8D3335A000828013F74D
:10494000F50F85461583B397B6006311D7025A2534
:10495000F98F1A2101454207418381CB0545A18189
:10496000B315B5006D8F3335E0008280894663143E
:10497000D7001A29F1BF5A29E1BFA1818547B39712
:10498000B70093C7F7FFC207C1831EA18280EFB2B1
:10499000BFA3B7440140AE893289014493840480A7
:1049A000634524014A856FB07FA5930500042685E1
:1049B000EFF05FF87DD9B3878900838507002685EE
:1049C0000504C205C181EFF07FF6D9BF13870181CD
:1049D0001C43B7260020938686933E95636BD500D3
:1049E000B70601209386068063E5A60008C33E85CE
:1049F0008280FD57EDBF2946814565AC01476314B0
:104A0000E60001458280B307E5000507B386E500AF
:104A10009C2383C6F6FFE384D7FE3385D74082808C
:104A2000B3C7A5008D8B3307C50081E78D4763EDC4
:104A3000C700AA87637EE508942185078505A38FB3
:104A4000D7FEE3EBE7FE828093763500AA8789CA1A
:104A5000942185078505A38FD7FE93F63700C5BF40
:104A60009376C7FF138606FE63F0C70683A305008F
:104A700083A2450083AF850003AFC50083AE050167
:104A800003AE450103A3850183A8C50193854502B3
:104A900023A0770003A8C5FF23A2570023A4F70192
:104AA00023A6E70123A8D70123AAC70123AC6700E7
:104AB00023AE17019387470223AE07FF75B79041D6
:104AC0009107910523AEC7FEE3EBD7FEE3E6E7F6D9
:104AD000828039713EDA2ED232D436D63AD842DCD0
:104AE00046DE9387418122CC804326CA06CEAA8423
:104AF00009C41C4C99E32285F12B0C4454102686E2
:104B0000228536C6EF00F024F2406244D24421618F
:104B10008280AA8798239386170009EB850503C72F
:104B2000F5FF8507A38FE7FE75FB8280B687DDB7AB
:104B3000AA87982185078505A38FE7FE7DFB8280E4
:104B4000AA87850703C7F7FF6DFF3385A7407D154B
:104B5000828015C27D160147B307E500B386E500E4
:104B60009C2394226396D7006304C7000507EDF7E2
:104B70003385D74082800145828079714AD04ECEFC
:104B800006D622D426D2AA892E899304190003C4FA
:104B9000F4FF3A8536C632C42EC23AC07D2522952E
:104BA0001C3102479245A18B2246B246D1E39307BE
:104BB000D0026311F4089C20054393042900E5C644
:104BC00041476390E60213070003639CE7009C20C3
:104BD0001307800593F7F70D6392E70C9C30C146ED
:104BE0008904B70800806314030093C8F8FF33FFFB
:104BF000D80201480145A54FE54EFD5233DED802EB
:104C0000138707FD63E3EF04BA8763DED704630D00
:104C100058007D58636AAE006314AE006346FF001F
:104C200005483385A6023E95850483C7F4FFC9BFB6
:104C30002689A1BF9307B0026305F400A287014350
:104C4000BDBF9C2093042900DDBF1387F7FB63E5FC
:104C5000EE00938797FC55BF1387F7F963E5EE00E5
:104C6000938797FA5DB7FD57631FF80093072002FB
:104C700023A0F900468519EEB250225492540259ED
:104C8000F24945618280630403003305A0406DD67C
:104C9000630408009385F4FF0CC2F9BF9307000377
:104CA000A9F2A1463DBF13070003E382E7F2A9463C
:104CB0000DBF938741819C43B286985309E717B78C
:104CC000FF1F1307274F2E86AA853E856FF0FFEA48
:104CD000011122CC26CA4AC806CE4EC6AA842E8905
:104CE000328401C51C4D91E3F52697370000938768
:104CF00027846317F406C0401C4C1CC45E24A18B9F
:104D0000C1C31C48B5CF1C4808409379F90F1379EB
:104D1000F90F1D8D5C486346F500A2852685692C38
:104D200025E51C440505FD171CC41C40138717000E
:104D300018C0238037015C486388A7005E24858BF8
:104D400081CBA9476316F900A2852685B5240DED10
:104D5000F24062444A85D2444249B24905618280A8
:104D6000972700009387C77E6314F400804469B7D7
:104D7000972700009387C779E310F4F8C044ADBFCC
:104D8000A2852685212041D17D59D9B7411193872C
:104D9000418126C2844322C44AC006C62A892E8481
:104DA00089C49C4C99E32685352697270000938774
:104DB0002778631BF402C0400317C4009317070150
:104DC000C18393F68700ADEA93F6070195EEA547F8
:104DD0002320F900136707045AA47D55B2402244EA
:104DE00092440249410182809727000093874776C9
:104DF0006314F4008044C9B7972700009387477174
:104E0000E31CF4FAC0444DBF918B9DC34C5889C933
:104E1000930744046384F5004A85892B232A0402FE
:104E20005E242322040093F7B7FD5EA41C481CC037
:104E30005E2493E787005EA41C4899EB5E24130769
:104E4000002093F707286385E700A2854A85A929F2
:104E50005E2413F717001DC35C4823240400B30726
:104E6000F0401CCC1C480145B5FB8317C40013F768
:104E700007082DD793E707045EA485B7898B014700
:104E800091E3584818C4F9BFDE25011122CC26CA87
:104E900006CE4AC84EC613F78700AA842E8479EB43
:104EA000D841634DE000B841634AE0000145F2405B
:104EB0006244D2444249B2490561828058547DD748
:104EC00003A904009396370123A0040063DB0606C0
:104ED00070485E24918B99C75C401D8E5C5899C3C5
:104EE0003C401D8E5C540C50814626858297FD57B0
:104EF0005A24631DF5009440F54763E8D706B707C9
:104F000040208507B3D7D700858BA5C31C48232233
:104F100004001CC09317370163D80700FD576314C2
:104F2000F5009C4091E368C84C5823A02401BDDDE6
:104F3000930744046384F50026850D29232A04027F
:104F4000B5B70C500146854626850297FD572A863F
:104F5000E311F5F89C40B5DF75476385E7005947D5
:104F60006393E70423A0240191B7136707045AA4AD
:104F70007D5535BF83A90501E38A09F203A9050020
:104F80008D8B23A0350133093941014791E3D8497D
:104F900018C4E35D20F11C540C50CA864E86268549
:104FA00082976347A0005E2493E707045EA4C9B715
:104FB000AA993309A940F1BF9C49A5C3011122CC8C
:104FC00006CE2A8411C51C4D81E72EC62122B2458A
:104FD000972700009387C755639CF5004C40839743
:104FE000C5009DC722856244F24005616FF0DFE98C
:104FF000972700009387C7556394F5000C44C5B705
:10500000972700009387C750E39BF5FC4C44C1BF32
:10501000F240624401450561828001458280411170
:1050200022C406C62A844EA572A523200500232289
:105030000500232405002322050623280500232A32
:105040000500232C0500214681451305C505EFB059
:105050004FBC97170000938787B65CD09717000066
:105060009387A7B81CD497170000938787BC5CD49C
:10507000971700009387E7BE00D01CD8B2402244A7
:105080004101828097050000938545F391AA411163
:1050900026C2130680069384F5FFB384C4024AC077
:1050A0002E8922C406C693854407AD262A8401CDE5
:1050B0002320050023222501310508C41386840618
:1050C0008145EFB00FB52285B24022449244024997
:1050D000410182801C4DA5E7411106C622C49707F5
:1050E0000000938767FA1CD5938781819C43232412
:1050F000050423260504232805046314F5008547C9
:105100001CCD2A84352848C022851D2808C4228544
:10511000052848C4484001469145EFF05FF0084437
:105120000546A545EFF0BFEF48440946C945EFF0F5
:105130001FEF85471CCCB24022444101828082800F
:1051400041119387818126C284434AC006C69C4C84
:1051500022C42A8981E72685EFF0DFF7938484044F
:105160008044DC40FD1763D607009C40B9CF8440E3
:10517000C5BF0317C40039E7C1778507232204069A
:105180002320040023220400232404005CC42328D9
:105190000400232A0400232C040021468145130522
:1051A000C405EFB00FA7232A0402232C04022324F2
:1051B0000404232604042285B24022449244024976
:1051C000410182801304840671BF91454A85EFF046
:1051D0001FEC88C049FDB1472320F9000144E1BF1D
:1051E000797122D44AD052CC56CA5AC85EC606D665
:1051F00026D24ECE2A8AAE8A130485040149054B75
:10520000FD5B09ECB25022544A8592540259F2498E
:10521000624AD24A424BB24B4561828004448329A0
:105220004400FD1963D409000040E1BFDE24637B24
:10523000FB008397E40063877701A6855285829AF5
:105240003369A90093848406E9BF0325C50E8280D3
:105250001971A6DAAE848395E500A2DC86DE32847D
:1052600063DB0500DE2423A0060093F7070885E72B
:10527000930700401DA0300836C6EF00F026B24666
:10528000E34205FE7247BD67F98F7977BA9793B706
:1052900017009CC2F1BF930700041CC0F65066546F
:1052A000D654014509618280DE25011122CC06CE4B
:1052B00026CA4AC8898B2E8489CF930774041CC0E0
:1052C0001CC885475CC8F2406244D244424905612B
:1052D000828074003000AA84EFF09FF7A2452A89EB
:1052E00026850D2A19E98317C40013F7072061FFEB
:1052F000F19B93E727005EA4C9B797070000938747
:10530000A7D89CD45E2408C008C893E707085EA409
:10531000A2475CC8B24781CF8315E4002685EF0021
:10532000D01F11C55E24F19B93E717005EA45E2495
:105330003369F9002316240179B791ED41116C000E
:10534000014501CA795591C61C229CC108223335FA
:10535000A00041018280014509CA795599C61C22E5
:105360009CC108223335A00082808280DDC183A7E2
:10537000C5FF411122C406C626C21384C5FF63D3EC
:1053800007003E94AA84EF0010219387418F9C432D
:1053900081EF2322040023AA818E2244B240268575
:1053A000924441016F00501F637EF40014403307A4
:1053B000D4006396E7009843DC43369718C05CC07E
:1053C000D9BFBA87D84319C3E37DE4FE944333863B
:1053D000D700631F86001040B29694C33386D7006F
:1053E000E31DC7FA10435843B29694C3D8C375B7A8
:1053F0006375C400B1479CC04DB71040B306C400EC
:105400006316D70014435843B29614C058C0C0C3A3
:1054100069B78280011126CA93843500F19806CEBF
:1054200022CC4AC84EC6A104B14763F3F404B14488
:1054300063E2B4042A89EF0010169387418F9843E2
:105440003A8439E09387818F9C4391E781454A856F
:10545000252F23ACA18EA6854A853D27FD596319CA
:105460003507B1472320F9004A85EF00F01229A043
:10547000E3D004FCB1471CC10145F2406244D24470
:105480004249B249056182801C40858F63CF070283
:10549000AD4663F6F6001CC03E9404C031A05C40EB
:1054A0006313870223AAF18E4A85EF00F00E1305DD
:1054B000B4009307440061993307F5405DDF3A94E7
:1054C000898F1CC05DBF5CC3C5B72287404095BFB4
:1054D000130435007198E30285FCB305A4404A85A6
:1054E0006525E31C35FBB5BF1C46FD171CC663DAFA
:1054F0000700184E63C5E700A9476394F5006FF0F5
:105500002FFD1C422E851387170018C28CA38280A2
:10551000011122CC26CA4AC84EC652C406CE2A89D8
:10552000AE893284B304D6007D5A631494000145D9
:1055300009A80C204E864A85EFF01FFB0504E316F0
:1055400045FFF2406244D2444249B249224A0561D1
:105550008280357122CD26CB4AC94EC706CF52C5AF
:1055600056C35AC1DEDEE2DCE6DAAA89AE843289AD
:10557000368409C51C4D99E3EFF0DFB5972700008D
:10558000938707FB6398F40C83A44900DE24A18B66
:10559000E5C79C48F5C393070002A304F1029307F3
:1055A000000302D22305F10222C6930B5002972A70
:1055B0000000938AEAFC054C294B4A841C2099C3BD
:1055C000639F770DB30C2441638E0C00E6864A86F8
:1055D000A6854E85EFF0DFF3FD57630FF51C92565D
:1055E000E69636D21C206389071CFD571309140068
:1055F00002C802CE3ECA02CCA309010482D483456C
:10560000090015465685A52F13041900C24751E914
:1056100013F7070109C713070002A309E10413F7F1
:10562000870009C71307B002A309E10483460900F4
:105630001307A002638FE606F2474A848146254697
:10564000182093051400130707FD6377E60AB5CA0F
:105650003ECE85A897270000938787EF6395F400D7
:1056600083A4890025B797270000938767EAE39F03
:10567000F4F083A4C90019BFA6854E85EFF00FF1A1
:1056800019D97D55FA406A44DA444A49BA492A4A46
:105690009A4A0A4BF65B665CD65C0D618280050413
:1056A00031BF330555413315AC00C98F3EC822893F
:1056B000B9B7324793064700184336C66347070217
:1056C0003ACE18209307E002631DF70418309307C1
:1056D000A002631BF702B2470904138747009C43EB
:1056E0003AC663C107023ECA2DA83307E04093E7DC
:1056F00027003ACE3EC8F1B7B387670385462E84AC
:10570000BA973DBFFD57C5B7050402CA8146814718
:105710002546182093051400130707FD6374E60659
:10572000F9F20C200D46172500001305E5E5812D43
:1057300011CD97270000938727E51D8D930700045F
:10574000B397A700424505045D8D2AC80C20194671
:1057500017250000130585E3130914002304B10283
:10576000392D35C197B7FFFF9387C78995E7424722
:10577000B2471377071009CF91073EC69257D297C9
:105780003ED225BDB387670385462E84BA9751B7AD
:105790009D07E19BA107D5B7780097060000938687
:1057A00066D726860C084E8597000000E7000000AB
:1057B000FD572A8AE314F5FCDE2493F70704E392ED
:1057C00007EC1255C1B5780097060000938686D481
:1057D00026860C084E85012AE1BF797156CA9C497C
:1057E000BA8A984522D426D24ECE52CC06D64AD07A
:1057F0005AC85EC6AA892E84B284368A63D3E7006B
:10580000BA879CC00347340419C385079CC01C4059
:1058100093F7070281C79C4089079CC003290400B5
:1058200013796900631A0900130B9401FD5B5C4452
:105830009840998F634CF9041C408346340493F7D5
:105840000702B336D000A5EB13063404D2854E858B
:10585000829AFD576303F5041C4011469840998BCA
:10586000544481446397C700B384E64063D3040083
:1058700081441C4418486354F700998FBE94014931
:1058800069047D5B63982405014509A885465A860D
:10589000D2854E85829A631E75017D55B250225481
:1058A00092540259F249624AD24A424BB24B456184
:1058B00082800509ADBF3307D40013060003A3019E
:1058C000C7040347540493871600A2978906A3814F
:1058D000E7049DBF85462286D2854E85829AE30ED7
:1058E00065FB050945B7797122D426D24AD04ECE40
:1058F00006D652CC56CA5AC8B689942D930790063C
:105900003289AA842E8413863504638DF60263E2FD
:10591000D706930780056386F61863EDD700638E7C
:10592000062093073004638EF60A930A24042301A9
:10593000D404C9A0930730066385F60A930740068E
:10594000E395F6FE1C40084393F6070893054500CF
:10595000C5C61C410CC363D807001307D002B307A8
:10596000F040A301E404972600009386A6C22947CD
:1059700065A8930700076382F61663E5D7029307CD
:10598000E0066389F6189307F006E390F6FA0C40F8
:105990001C4313F80508138547006307080608C36E
:1059A0009C4385A893075007E383F6FE930780077F
:1059B0006389F61293073007E399F6F61C43D0414A
:1059C00081459386470014C383AA07005685452E58
:1059D00001C53305554148C05C401CC8A3010404FF
:1059E00061A81C43930A2404938647009C4314C374
:1059F0002301F4048547D5B793F607041C410CC373
:105A0000B9DAC207C18781BF93F5050408C3C9D9B4
:105A10009E231307F0066387E60E97260000938601
:105A200066B72947A30104044C400CC463C50500B4
:105A300008406D9908C099E3B28A89CDB28AB3F55E
:105A4000E702FD1AB6958C212380BA00B3D5E70290
:105A500063F0E70CA147631EF7001C40858B91CBD8
:105A600058401C4863C7E70093070003A38FFAFE62
:105A7000FD1A3306564110C84E87CA867000A285AB
:105A80002685EFF09FD57D5A631D450B7D55B2509D
:105A9000225492540259F249624AD24A424B456119
:105AA0008280A382D504972600009386A6AE0C4080
:105AB000084313F805081C411105630D080208C3CB
:105AC00013F7150001C793E505020CC04147B9FB68
:105AD0000C4093F5F5FD0CC0B1B79C4193E707026C
