:100000006F40B00713000000130000001300000051
:100010001300000013000000130000001300000094
:100020001300000013000000130000001300000084
:08003000130000007300100032
:100038000000000000000000A8430000C8430000C2
:1000480000000000C04700000000000000000000A1
:10005800C2470000C4470000000000000000000084
:10006800C82F000000000000D002000000000000BF
:10007800CA470000CC470000CE470000D047000028
:10008800D2470000D4470000BE330000E63300002A
:100098000E340000363400005E340000E0470000F3
:1000A800E2470000E4470000E6470000E847000098
:1000B800EA470000EC470000EE470000F047000068
:1000C800F2470000F4470000F647000086340000BD
:1000D800FA470000FC470000FE4700000048000007
:1000E80002480000044800000648000008480000D4
:1000F8000A4800000C4800000E48000010480000A4
:1001080012480000B437000016480000843E000082
:10011800FE3400001C4800001E4800002048000073
:100128002248000024480000264800002848000013
:100138002A4800002C4800002E48000030480000E3
:1001480032480000344800003648000038480000B3
:100158003A4800003C4800003E4800004048000083
:100168004248000044480000464800004848000053
:100178004A4800004C4800004E4800005048000023
:1001880052480000544800005648000058480000F3
:100198005A4800005C4800005E48000060480000C3
:1001A8006248000064480000664800006848000093
:1001B8006A4800006C4800006E4800007048000063
:1001C8007248000074480000764800007848000033
:1001D8000000000000000000000000000000000017
:1001E8000000000000000000000000000000000007
:0801F8000000000000000000FF
:1002000097020120938202E0938202E0739002340D
:1002100003210500224573100530B1A81971232070
:10022000250006C006C216CAF322003093F28200EF
:10023000638402009302000816C412C81ACC1ECEB2
:1002400022D026D22AD42ED632D836DA3ADC3EDE76
:10025000C2C0C6C2CAC4CEC6D2C8D6CADACCDECEE6
:10026000E2D0E6D2EAD4EED6F2D8F6DAFADCFEDE56
:1002700003A1050009A0024573101534924037858B
:1002800000001305058073200530224573200530DA
:100290004242D2426243F243025492542255B25532
:1002A0004256D2566257F257064896482649B649F2
:1002B000464AD64A664BF64B065C965C265DB65DB2
:1002C000465ED65E665FF65F09617300203000000F
:1002D000197116CA9302000816C49302000273A093
:1002E000428006C212C81ACC1ECE22D026D22AD4F0
:1002F0002ED632D836DA3ADC3EDEC2C0C6C2CAC416
:10030000CEC6D2C8D6CADACCDECEE2D0E6D2EAD4A5
:10031000EED6F2D8F6DAFADCFEDE73110134EF0025
:100320008061EF103009EF00C06373110134138452
:10033000818C03290400630409022320040073252F
:1003400010342AC01384018C044023A02400138499
:10035000418C044003A104000245731015349240FF
:10036000B78200009382028073A00230A24273A081
:1003700002304242D2426243F24302549254225526
:10038000B2554256D2566257F25706489648264909
:10039000B649464AD64A664BF64B065C965C265DE5
:1003A000B65D465ED65E665FF65F0961730020301B
:1003B0000000397101436EC619A0397141536AC8F2
:1003C00066CA62CC5ECE19A0397101535AD056D29A
:1003D00052D44ED64AD826DA22DC06DE33016140FA
:1003E000828241114AC026C222C406C68282B24D10
:1003F0004101024D924C224CB24B4101024B924AB8
:10040000224AB2494101024992442244B240410188
:1004100082803D432A876373C3029377F700BDEF61
:10042000ADE5937606FF3D8ABA960CC34CC30CC764
:100430004CC74107E36BD7FE11E28280B306C3408D
:100440008A069702000096966780A6002307B700E9
:10045000A306B7002306B700A305B7002305B7001E
:10046000A304B7002304B700A303B7002303B70016
:10047000A302B7002302B700A301B7002301B7000E
:10048000A300B7002300B700828093F5F50F939681
:100490008500D58D93960501D58D61B7939627007C
:1004A0009702000096968682E78086FA9680C117AA
:1004B0001D8F3E96E374C3F8A5B703A581838280A0
:1004C000EFF23FF2938781839843050798C3EF10BB
:1004D000C0313C45FD173CC589E77C413CC5EF1068
:1004E0008035EF10806005B7634205029307803EB8
:1004F0003347F5023365F5023305F5021305753E02
:100500003345F5023307F7023A9582807D558280A4
:1005100001458280014582800145828001458280BB
:10052000EFF23FEC2164A1641304040F9384C40F21
:1005300063639400C9BD1C4011048297D5BFEFF2DC
:100540005FEA2164A1641304C40F938444106363BD
:10055000940055BD1C4011048297D5BFEFF27FE88F
:10056000F93FEF40C00D45B5EFF2BFE7B70500001A
:1005700037650000D1471547930600200146938553
:10058000C5551305856AEF10A026EF10203EA5BDC6
:10059000EFF23FE5EF10E062EF20F01BEF00B02B31
:1005A000EF10205CEF005078C137EF10205C012C79
:1005B000EF00707A014581BDEFF2BFE2D13F014506
:1005C00099B5EFF27FE0AA89EF10202219C1EF1050
:1005D000800A2545EF00F06044411304450063960E
:1005E0008400EF108020014911A8138944FF21469F
:1005F000CE854A851D2D01E9EF10201F19C1EF108E
:10060000E0084A85E5BB8440D9BF09E57D55828075
:100610007D55D5BBEFF2FFDC2A842E853289AE846E
:100620004D377DF522852686A545EF00305E0145D4
:10063000231C2401230E0400231D0400D9BFEFF264
:100640005FDA1E2D41112A84C18B9DE71C558DC395
:100650002EC68297AA84B24501CD2A86376500004E
:10066000A2851305056BEF0090182685410161BB3B
:100670001E2C93E707011EAC1E2CA18B89C73E2CB4
:10068000E554A18BFDF35C5489CF22858297AA841F
:1006900005E13E2C93E787003EAC5C2C85075CAC03
:1006A000E9B785679387F7F0FD8D2EAC8144D5B708
:1006B000E957E31CF5FAF1BF5C2D85CBEFF27FD251
:1006C000FD1793F7F70F5CAD2A84014789EF1C599A
:1006D00089E70147231D040039A082972A8775D92D
:1006E000E957E309F5FE3A8539BB7D573A858280A3
:1006F000EFF23FCF582D09E77D552129014521A073
:100700005C5999C3829701B36955C5BFEFF27FCD9C
:10071000582D09E77D55F52E014521A01C5D99C393
:100720008297D5B16955C5BF0CD101458280EFF2E2
:10073000BFC993894189854A83A741896386370563
:10074000EF10204883A741892A8A638D370303A4C9
:1007500041895C4018401309C4FE5CC398C340C083
:1007600000C0EF0050717C5099C34A8582974A853A
:10077000EF00105B631B55014A85EF00104FEF003F
:10078000F0705285EF10A04495B9EF00307052859B
:10079000EF10E0434848EF00303A4A85EF0030550B
:1007A00061BFEFF21FC41384819A130904011C4036
:1007B00091C382971104E31C24FF953FEDB7EFF23C
:1007C0005FC237060000B7650000930800023D488D
:1007D000930700201387819B81461306267A938511
:1007E000856E13858192EF00307D13858192EF1025
:1007F000E01711B9EFF2FFBE41112A842E8532C6EF
:100800002EC4EF1060083246A24519C68547630D15
:10081000F60001454101C5BE5840938745011CC300
:1008200098CD5CC0C0C9F5B71C406388870083C6FB
:10083000550303C7170263FAE600D4431387450143
:1008400098C294CDD8C3DCC9E9B79C43F9BFEFF295
:100850005FB94111B2842E8689452A8436C6EF00DD
:10086000F03AB246930744011CCC5CC846AC14B4C1
:100870000145410149BEEFF23FB583A7018841110F
:100880002EC62A8491C38297EF10A0335E2CAA89CA
:1008900089CFFD175EACEF10803383A7C187014578
:1008A00091CB22858297014531A0B24791E7EF10A5
:1008B00000327955410199B6EF00307323280502C3
:1008C0001034AA85AA84130544012D37B247635C0E
:1008D000F0001389C404700081454A85EF10601D43
:1008E0004A85EF1000124E85EF10602EEF00704920
:1008F000885845D5C1B7EFF2DFAE83A781872A8438
:1009000091C38297EF10E02BAA84484893074401D3
:10091000630EF5003115EF10A00005442685EF1099
:10092000002B19C0EF00F0450145F1BC5E2C850796
:100930005EAC0144E5B7EFF2DFAA4111EF10602889
:10094000138741841C23850793F7F70F1CA383A704
:10095000C18381C72AC682973245EF1040274101E3
:100960005DB4EFF21FA84111EF10A0251387418459
:100970001C23FD1793F7F70F1CA383A7018481C7DE
:100980002AC682973245EF1080244101ADBC03C5D1
:1009900041848280937808044111639E08009D6819
:1009A0009388488993730801638B03001378E8FFE9
:1009B000930E000219A899689388087FE5B713730E
:1009C0001800930E0003E30503FE13732800630E63
:1009D0000306635806023306C0409302D0020A8E13
:1009E000814F294F6395E6073373D6023356D602FB
:1009F000469303430300850F050EA30F6EFE7DF2A1
:100A00000DA0137348009302B002631703009372A2
:100A10008800B3325000960279F2930600035480A6
:100A2000854FFE8663D3FF00BE8613781801158FAD
:100A300063130804638502006353E0007D172A8670
:100A4000B308E5001303000221A88142F1B7137334
:100A5000F600118271BF6374B600230066000506BC
:100A60003388C840E34900FF3A86635307000146D4
:100A70007D173295118F638802006374B5002300DF
:100A800055007D17050563870302AA961308000326
:100A90001DA86374B6002300D60105063388C8403C
:100AA000E34900FF3A866353070001467D173295FC
:100AB000118FE1BF2A86B308E500CDB76374B50096
:100AC0002300050105053386A640E3C9CFFEFD5688
:100AD000FD1F6383DF0099E7AA873306E50013084B
:100AE000000231A86376B5003306F101102210A18F
:100AF0000505F9BF63F4B700238007018507B30636
:100B0000F640E349D0FE6353070001473A9541019F
:100B10008280EFF21F8D2A849D3D09C523A4818424
:100B20006FF07F8EEF00704C75D900D9D5BF0D479F
:100B3000AA876376C7009377350091C7AA873E9648
:100B40006397C706828093F7F50F13978700D98FB5
:100B5000139707015D8FB308C500AA87BD46338888
:100B6000F84063EB060393574600C156B386D7029D
:100B70009207AA970D4836963383C700BE86B308FE
:100B8000D3406362180313572600F156B306D70209
:100B90000A07BA97369665B798C3D8C398C7C107EE
:100BA00023AEE7FE6DBF910623AEE6FEC9BF850703
:100BB000A38FB7FE71B763F2A504B386C500637E49
:100BC000D5029345F6FF8147FD176393F5008280B8
:100BD0003387F600030807003387C7002A972300EE
:100BE0000701DDB73387F500830607003307F500FB
:100BF000850714A3E318F6FE82808147E5BF0DC682
:100C0000AA8785050387F5FF85079306F6FFA38F5F
:100C1000E7FE09EB3E9685076393C7008280A38FAA
:100C200007FED5BF3686F1FE828001476314E600D9
:100C3000814739A8B307E50083860700B387E5003D
:100C40009C23B387F640E207E18799E30507F9FEA5
:100C50003E858280AA870387070001E73385A74086
:100C600082808507CDBFEFF24FF52E89B30B2501AA
:100C700041112A8CB68563F5AB001349F5FFFD5B86
:100C8000C169377A00006284930AB002130B000234
:100C9000FD19130ACA8831A8130750026389E702B5
:100CA000637374011CA013051400B284138614002E
:100CB0002A8483070600EDF363060900637B742F23
:100CC000230004003305844141016FF08FF2014895
:100CD0001307D002930630021305000331A0639E70
:100CE00057011368480026868307160093041600F0
:100CF000E397E7FE13680801FDB763956701136882
:100D00008800D5B76395D70013680802E9BF6395DB
:100D1000A70013681800C1BF138707FDA54663E647
:100D2000E6040147A546294539A03307A7028504F3
:100D30003E97130707FD83870400138607FDE3F63C
:100D4000C6FE038604009306E002FD57631FD60427
:100D500083871400254693861400138507FD636579
:100D6000A60A8147254529433DA09306A0027D5749
:100D7000E399D7FC9841930426009105E35307FCBF
:100D80003307E040136808016DBFB387670285062B
:100D9000B297938707FD03860600930806FDE37666
:100DA00015FF63D307008147B684838604001306CA
:100DB0008006014593F8B6FF6395C80013F5F60F5A
:100DC000850403860400930690066303D60663C574
:100DD000C606930680056303D61C63C3C604930747
:100DE00050026307F61A63757401930750021CA042
:100DF00083870400130514006386071A6373750163
:100E00001CB0130524005DB51306A0026397C7004C
:100E10009C4193862400910569B7B684814771B7D8
:100E2000930630066302D60893064006E31DD6FA01
:100E300013682800A94699A0930630076303D60CCF
:100E400063C5C6029306F0066300D6169306000734
:100E5000E31BD6F8FD566315D70013681800214729
:100E6000938C4500C14690411DA893065007E303AB
:100E7000D6FC93088007C146E31716F71306C00691
:100E8000938C4500E301C5FE13068006E31DC5FCF7
:100E9000904193752800639B051033763601DE85FB
:100EA0002285CD3CE68519B5137808016315080243
:100EB000BA879306000229A06373740114A0050485
:100EC000FD17E34BF0FE9307F7FF6343E000054790
:100ED0003387E740050793874500637474019441A5
:100EE00014A013051400229713060002B306A740AE
:100EF0006344D000BE855DBB6373750110A1050519
:100F0000F5B783AC0500138D450063930C00D28CBC
:100F100066853EC63AC442C2353BB247AA861248ED
:100F200022476355F00063D3A700BE8613780801FB
:100F3000631E0800BA871306000231A063737401B0
:100F400010A00504BA877D17E3CAF6FE814763C186
:100F5000D702B68763D3060081473305F4002A978A
:100F600013060002B307A74063CFF600EA853DBB36
:100F70003306F40063777601B385FC0083850500B2
:100F80000CA28507E9B76373750110A10505D9BFE8
:100F90006373740110A01305140009BB13680804DF
:100FA000C146E9BDFD1419B3A146C9BD420641863B
:100FB000FDB5A38F0BFE39B303A5C1848280EFF288
:100FC0004FC203A9C184EFF0CFDF11CD1384C184D8
:100FD000AA84084019C1EFF02FEE9305300426854E
:100FE000EFF0EFE504C04A856FF0EFC18280397100
:100FF00026CA2ED232D436D62A8654109305F0074C
:10100000138581BB3EDA36C606CE22CC3AD842DC06
:1010100046DE9139AA8603A5C18409E9138581BBFF
:10102000F137F2406244D244216182802686262D27
:101030001384C18493E704043EAD9307F00763F47F
:10104000D7009306F007138681BB8145EFF00FECC4
:101050001C40A6AFF9B7EFF2CFB837750000130503
:10106000458071373775000013050581493737779B
:10107000000037750000130747838D4605468D45F0
:1010800013050584AD3737750000130505868537D0
:101090006FF06FB731C599661377F50F9386066FBA
:1010A00009C7BA96882205058280C167938707F031
:1010B000E98F81CB21851377F50F36970823250516
:1010C0008280B707FF00E98F81CB41859377F50FC9
:1010D000B69788234505828061813695082165058C
:1010E000828003A741855C41BA976305F502B62368
:1010F00095E283A60185638FF600938681859042F1
:101100006313F60088C2D44354C1DC43B306E54000
:10111000BA9794C71045B307C700630FF500B6230D
:1011200081EE938681858C426393A5009CC25441D5
:10113000D4C35C413E9710C78280EFF28FAA83A58B
:101140000186377500001305858A553583A5C1864C
:10115000377500001305C58B593D83A5C1853775CB
:1011600000001305058D61356FF0EFA9EFF26FA751
:1011700013F7C5FFE1462E8663F1E60693073500B7
:10118000F19B930687FE63EAF6041D8F130687FE24
:1011900023A0C1868966511713844185938606EA88
:1011A000D8C394C323A407001CC0BA9723A8F18412
:1011B000C966938606EAB775000094C3D8C398C77A
:1011C0008146054693858596138581C3EFF02FE808
:1011D000184023ACE1846FF00FA3AA853775000097
:1011E000130505972935C5BFEFF2AF9F39C503A792
:1011F0000186130435007198138901868144636662
:10120000870EB1476373F4003144FD55138581C3E4
:10121000EFF06FE683A7818583A5418583280900C8
:1012200026853386B740B3868840138881856368F6
:10123000D600138581C3EFF00FEC81447DA0B38409
:10124000C500BA2003AE440061E73307CE40930FD8
:1012500047FF63EF8F0A138FC186938EC1851303F7
:10126000840183260F0083A30E001389C186938215
:10127000C18563EF6F061307C4003297896E33830D
:10128000E500938E0EEA2322C3012324C30023200A
:10129000D3010546D8C0B2A003264300B1086304B9
:1012A00016012E9618C61387C60022972320E90040
:1012B00063F4E30023A0E2000967130707EA9AA09A
:1012C000639A970083A601850147B22305EE19C3EF
:1012D0002320F800138581C3EFF0EFE183A7818617
:1012E000B10481C7A2852685829726856FF0AF91CC
:1012F00005463697B2A02320EF00E3FFE3FA23A0D0
:10130000EE005DBFE385D7FCDC430547AE9775BFB4
:10131000728631BFEFF2EF8C3306B5024111328590
:1013200032C6D9352A8409C532468145EFF03F805F
:10133000228541016FF02F8D45C5EFF2EF8883A71D
:1013400041862A8491C3829783A741851389418569
:101350006366F40883A701856372F408FD5513855D
:1013600081C3EFF04FD1835764FF930944FF81CBD2
:10137000035744FF8967938707EA6301F7023775CC
:1013800000001305C591A531835644FF035664FF41
:1013900037750000CE85130585939139896793874A
:1013A00007EA231AF4FE938781859843231B04FEE2
:1013B00063F4E90023A037011387C1861C43832609
:1013C00084FF4E85958F83260900B386D940B69752
:1013D0001CC3013B138581C3EFF0EFD16FF00F8287
:1013E0008280B70700209386070001479387070094
:1013F00021468C426396A500131547003E958280D6
:101400000507C106E317C7FE01458280EFE2DFFB57
:101410002A842E85AE89328AE9372A89A92C832429
:101420004900930749006390F4048D2493E909F877
:10143000230434012146D2852285EFF04FFC83A797
:10144000018799C322858297EF00A077032749007F
:101450009307C4005CC358C42322F90004C8EF00FA
:1014600000776FE0BFF984407DBFEFE29FF783A76D
:1014700041872A8491C3829723040400EF0060749B
:10148000544418489307C400D8C214C31CC85CC491
:10149000EF00E0736FE03FF7EFE21FF32E89AA89B8
:1014A0008937AA84484589332A841DCDD044814593
:1014B000EFF0EFE7214623043401A3040400CA85BA
:1014C0002285EFF0CFF383A7018799C32285829706
:1014D000EF00206FD8409307C40091045CC358C448
:1014E0009CC004C8EF00A06E22856FE03FF1EFE2E0
:1014F0005FEF83A741872A8491C382972304040066
:10150000EF00206C544418489307C400D8C214C399
:101510001CC85CC4EF00A06B2285393D6FE0BFEEB4
:10152000030585007D81828023980188938781C58A
:1015300013870708DCC39CC3A107E39DE7FE3D4773
:101540002382E18823A4018823AE018893874189FF
:10155000DCC39CC38280EFE2DFE803A5C189EFF022
:101560007FB37D1593173500138581C53E950841DE
:101570001307C5FE210523A4E188EFE07FC86FE0D3
:101580009FE8EFE21FE6EF00C063839701892A8995
:10159000B1E703A5C189EFF0FFAF7D151317350043
:1015A000938781C5BA9784439387818880439385C5
:1015B000C4FE6305B4028CC383A7C1882382A188BB
:1015C00099C32285829783C741841305C4019385FB
:1015D000840093F7F70F81EBEFE05FC44A85EF00DB
:1015E000005F6FE05FE2EF00E05ECDBFEFE27FDF24
:1015F0002A84EF00005D8347440393064401C19BA6
:1016000093E71700230AF402834754031397370024
:10161000938781C5BA97D84314C318CCD4C35CC888
:101620009387C1899443185C558F98C3EF00205A63
:101630006FE07FDDEFE2FFDA2A846123184C544823
:1016400093074401D8C214C35CC81CCC834754031D
:1016500013973700938781C5BA979843631AF700A9
:101660001387C1891C5C144393C7F7FFF58F1CC314
:10167000B92B6FE05FD9EFE2DFD6A1239387018911
:101680009A2305079AA3A1236FE0FFD7EFE27FD546
:101690000D2B138701891E23FD17C207C1871EA3C7
:1016A000634BF000231007001D2383A7818891C39B
:1016B000C93D6FE05FD5212BEDBFEFE29FD203A4C0
:1016C00081880123AA842285B5379147230AF40231
:1016D0001305C404012E2285A1358547631BF5003F
:1016E0003C5C81EB228551332685D521593D6FE045
:1016F0009FD183A641891307440123AAE188D8C258
:101700009387418954C81CCCC5B7EFE29FCD2A848A
:101710005105411108CC48C80CD050D014D43A8699
:1017200058D49305300236853EC642C4EFF02FC030
:10173000585410544C5008507117B71600003A9680
:101740009386A66B2D21B24722483716000048CC5D
:10175000230BF402A30AF402232C04028147232260
:1017600004052324040523280402230A0402232C4D
:101770000406232E04060147A28613068679A28555
:101780001305C4041D2483A7018A99C32285829767
:10179000014541016FE03FC7EFE2BFC45049144D1E
:1017A000795718D954C21307450190C218CD58C9AA
:1017B000353DC13B6FE03FC5EFE2BFC24111B2848E
:1017C0002E8685452A84368946C03AC63EC442C222
:1017D000EFF0DFC3024892472247B2464A86A68509
:1017E0002285253741016FE01FC203A581888280D1
:1017F000EFE29FBD41112E89AA85054532C6B68408
:10180000BA893E8AEFF05FC92A8411C92685EFF0B4
:10181000BF9D324609E92285EFF07FCD0144228544
:1018200041016FE0BFBDAA865288CE872687CA8550
:101830002285E13DEDB7EFE2DFBA612683A781881B
:101840000546AA8603C747033D8B631CC702D04BDE
:10185000984F6308E60258C210C303C65703938625
:1018600047010E06138781C594CF3297504314C2A7
:1018700090CF54C3D8CBA12EEFF0BFD001456FE07D
:101880009FB83685A926DDBF834745030547BD8B35
:10189000639FE702EFE2FFB42A84252683474403CF
:1018A000AA842285C19B93E72700230AF402EFF064
:1018B0007FD81305C404F1222685112E83A7818ABF
:1018C000014581C72285829701456FE0DFB37D55D1
:1018D0008280EFE21FB141112AC6E52403A481886A
:1018E0002A89228555379304C404700081452685D2
:1018F000C922268539224A85D92CEFF09FC818586D
:10190000F9576314F70023280402014541016FE0F1
:101910009FAFEFE21FADEFE03FBD653F6FE0BFAEB1
:10192000834745030947BD8B6390E704EFE27FAB34
:101930002A84412C5448184C93074401AA84D8C2E5
:1019400014C31CCC5CC81305C404252A2685412475
:101950002285EFF0BFC983A7418A014581C722854F
:10196000829701456FE03FAA7D558280EFE27FA715
:101970008346650305473317D70018DD0947A30AD7
:10198000D502230AE502693F83A7818899C3EFF056
:101990005FBF01456FE03FA75449184D93074501CC
:1019A000D8C214C31CCD5CC98280EFE29FA3411151
:1019B000B2842E86A9452A8436C63AC43EC2EFF0C8
:1019C000FFA49247B2462247F99B1CB493074401F7
:1019D00044CC14D02324040258D01CCC5CC8410150
:1019E0006FE07FA2EFE2FF9F2A84E12AAA8422858A
:1019F00065372685E92A2285EFF03FA701456FE08C
:101A00009FA0EFE21F9E2A846D2AAA84228569374F
:101A10001C342685F99B1CB45D2A83A7C18799C312
:101A200022858297EFE07FA95C503E9508D4512A29
:101A30001387818B03284700370600809387818BAB
:101A40001346E6FF98436315F8029386C18A9042D5
:101A5000050690C29306440154C358C894C31CCCD5
:101A60001C3493E717001CB49D2201456FE0BF9919
:101A7000544B0C546385B6008D8EE378D6FCBA8740
:101A8000D1B71C35858B85C7EFE2BF9583A78187CA
:101A90002A8491C382973522AA842285F53D268522
:101AA0003D221C340145F99B1CB46FE0DF957D5548
:101AB000828085476381F50263C5B70085C1014512
:101AC00082808947638FF5008D47E39AF5FE1C35C8
:101AD00093E7270009A85C511CC2D5B71C425CD112
:101AE000F9BF1C35F59B1CB5D9BFEFE21F8DEFE0A8
:101AF000DF9C2A8CF920B70900802A8A9384818B85
:101B000093C9E9FF8D4B8040631694005285C12034
:101B10006FE03F8E48481309C4FE3305AC40E3E74D
:101B2000A9FE83A7018B99C34A8582974A85EFF066
:101B3000BFE61C4448448297EFE03F9883A7418B5F
:101B40002A8C99C34A858297834754FF13F7E70F7E
:101B5000A30AE4FE8D8BE39877FB4A85EFF07FEADA
:101B60005DB79387818BDCC39CC382808280110622
:101B7000719A2A8837C7ADDE130506F8AA871307BE
:101B8000F7EE631EF600A167938707882322D6F835
:101B90002324B6FA232006F92324F6F8828098C37A
:101BA0009107C5B737F700E01C43B7060080D58F13
:101BB0001CC3828037F700E01C43860785831CC363
:101BC00082802165130505807315053082807310AE
:101BD00005308280EFE2FF801387818C1843938762
:101BE000818C19E323A0A18C23A2B18C054798C353
:101BF000553F6FE05F812A87814718436314A70030
:101C00003E8582808507D5BFB707EFBE37E700E086
:101C1000938707083CC701458280EFE28FFC377548
:101C200000001305C59AEFF08FBC01456FE0AFFDD2
:101C3000EFE22FFB2A84FD54377900007D146314F2
:101C400094006FE04FFC13054911EFF04FBAFDB758
:101C5000EFE28FF70041AA8437790000B7790000DE
:101C6000631494006FE08FF99305C4FE1305891186
:101C7000EFF0EFB71C40638697001385C911EFF0B2
:101C80000FB70040F1BFEFE2CFF52E89EFE09FFCE8
:101C90002A84EFF05F9E83240900639C2401EFF007
:101CA000FF9EA14763C3870011E0214422856FE0B6
:101CB0008FF5138544FFEFE0FFF96353A4002A84F6
:101CC0008440E1BFEFE26FEF0545EFF08FF1B779A8
:101CD0000000130945002A84CA85138509C66537A3
:101CE000AA85AA8437750000138609C6130585C620
:101CF000EFF0EFAF2685EFF0BFF337750000130567
:101D0000C5CAEFF0CFAE4040B7790000054A894A16
:101D1000377B0000B77B0000377C0000B77C0000F9
:101D2000377D00006315890001456FE08FEC0347A4
:101D300094021385C9CE930644FF2146A685EFF091
:101D40000FAB8347840213858CCFBD8B638E470115
:101D500013054CD0638A570113850BD191C71147E6
:101D60006396E7001305CBD1EFF06FA84C4C9307B7
:101D70003002AE8698226306F702105093074006A1
:101D80000848B295B386D540B386F602585C5C50DD
:101D9000898D13058DD2B3D6C602EFF04FA5004052
:101DA00051B78506C1BFEFE22FE241110945EFF0BF
:101DB0004FE393094500377900002A84CE85130547
:101DC00009C0EFF05FECAA85AA84377500001306FE
:101DD00009C01305C5C0EFF08FA12685EFF05FE5C0
:101DE00037750000130585C2EFF06FA04040377AC9
:101DF0000000B77A0000378B000063968900014528
:101E000041016FE0AFDF1A281C44930644FF130919
:101E1000840036C63AC44A856306F902EFF0BFDD96
:101E20002247B246AA872146A68513850AC4EFF049
:101E30000F9C4A85EFF0DFE11305CBBCEFF02F9B41
:101E4000004065BFEFF03FDB2247B246AA8721463C
:101E5000A68513050AC5EFF08F99DDB7EFE2CFD65F
:101E600041111145EFF0EFD7930945003779000094
:101E70002A84CE85130549A4EFF0FFE0AA85AA8441
:101E800037750000130649A41305C5A4EFF02F967B
:101E90002685EFF0FFD937750000130505A7EFF091
:101EA0000F954040377A0000B77A0000378B00006A
:101EB00063968900014541016FE04FD41C4413092A
:101EC0008400930644FF18486309F9024A8536C620
:101ED0003AC4EFF05FD22247B246AA872146A685D0
:101EE00013850AA9EFF0AF904A85EFF07FD613056E
:101EF000CBBCEFF0CF8F004065BF2146A685130510
:101F00008AAAEFF0CF8EC5BFEFE20FCC41110D458D
:101F1000EFF02FCDB7790000130945002A84CA8558
:101F20001385C9B9EFF03FD6AA85AA84377500009A
:101F30001386C9B9130545BAEFF06F8B2685EFF00C
:101F40003FCF37750000130585BCEFF04F8A404046
:101F5000B779000063168900014541016FE00FCA9F
:101F6000930644FF1305840036C6EFF0DFC803482C
:101F700034015C48B246AA8821472146A6851385CC
:101F800089BEEFF0CF860040F1B7EFE2EFC3411119
:101F90001545EFF00FC593094500377900002A84F5
:101FA000CE851305C9ABEFF01FCEAA85AA8437757D
:101FB00000001306C9AB130545ACEFF04F8326852F
:101FC000EFF01FC737750000130585AEEFF02F82C5
:101FD0004040377A0000B77A0000378B00006396E4
:101FE0008900014541016FE06FC17A285E281044E5
:101FF000930644FF1309840036C63AC43EC24A859C
:102000006307C902EFF03FBF92472247B2462A88D2
:102010002146A68513854AB0EFE07FFD4A85EFF0A3
:102020003FC31305CBBCEFE09FFC00404DBFEFF07A
:102030009FBC92472247B2462A882146A6851305AF
:10204000CAB1EFE0DFFAD5B7EFE20FB84111194599
:10205000EFF02FB993094500377900002A84CE8527
:10206000130549B3EFF03FC2AA85AA843775000073
:10207000130649B3130505B4EFE07FF72685EFF0AB
:102080003FBB377500001305C5B5EFE05FF6404074
:10209000377A0000B77A0000378B0000639689001A
:1020A000014541016FE08FB51A2C1C44930644FF93
:1020B0001309840036C63AC44A856306F902EFF074
:1020C0009FB32247B246AA872146A68513854AB701
:1020D000EFE0FFF14A85EFF0BFB71305CBBCEFE0AF
:1020E0001FF1004065BFEFF01FB12247B246AA873B
:1020F0002146A68513058AB8EFE07FEFDDB7EFE252
:10210000AFAC5D712545EFF0CFAD996513060005C5
:102110002A8413094500938585630A85EF30C01131
:10212000B7790000CA851385C99DEFF0DFB5AA8590
:10213000AA84377500001386C99D1305459EEFE0FC
:102140001FEB2685EFF0DFAE377500001305C5A045
:10215000EFE0FFE94040D149377A0000631689007B
:10216000014561616FE08FA91C44930644FF63E061
:10217000F90298088A07BA9703A707FB1C2821468B
:10218000A68513050AA3EFE09FE60040C1BF4647BE
:10219000F5B7EFE26FA32945EFF0AFA4B7790000E0
:1021A000130945002A84CA85138509D5EFF0BFAD10
:1021B000AA85AA8437750000138609D5130585D52D
:1021C000EFE0FFE22685EFF0BFA6377500001305AC
:1021D00005D8EFE0DFE14040B7790000377A000032
:1021E000B77A0000631E8900EFE02FADAA8537752E
:1021F0000000130585DDEFE09FDF01456FE00FA0D4
:102200005C4C184C138549DA930644FF2146A68599
:10221000EFE0FFDD8347D4FF1385CADB858B99E3AD
:1022200013058ADCEFE0BFDC00406DBFEFE2CF9921
:10223000377500001305459BEFE07FDB03A4018D9C
:10224000B7790000377A000083A7418D6365F400F9
:1022500001456FE0AF9A044009469385899C268525
:10226000EF30A01019C55040A6851305CA9CEFE0B9
:102270001FD83104D1BFEFE22F9537750000130549
:102280008527EFE0DFD603A4018DB7790000377A08
:10229000000083A7418D636BF400378500001305B0
:1022A000C5BCEFE0DFD401456FE04F95044019460F
:1022B000938549292685EF30400B01E950409385ED
:1022C00064001305CA29EFE09FD23104D9B7054550
:1022D0008280EFE26F8F79712A84AA9593060002BB
:1022E000254783070400B38485406385D70A638349
:1022F000E70A0145638B0410014913070002A54654
:10230000B307240183870700638AE7086388D70837
:102310006314990883A9018D83AA418D377B00003E
:1023200063F0590903AA0900194693054B29528500
:10233000EF30A00359E54A86A28513056A00EF3005
:10234000C00241E14A9A83076A00A5EF83A9890088
:10235000638809041306800281452800EFE06F8B33
:1023600013098100CA86A2870145014713080002AC
:10237000A548294313062002130EC00583850700D4
:102380006384050163961505631F9702A9476303DC
:10239000F50469A80504B1B705099DB7E31C09F662
:1023A000A287038707001377F7FD79E737750000E9
:1023B0001305052623800700A285EFE05FC37D5546
:1023C000A9A0B109B1BF23800700050785077DB724
:1023D00063106504377500001305C523EFE03FC1A6
:1023E0000018B7740000832509001385C42511095E
:1023F000EFE0FFBFE31989FE378500001305C5BC78
:10240000EFE0FFBE29452C00829945616FD01FFF88
:10241000637E970005056392C504850705079CC286
:10242000838507006381C5026364970069FD8DBFE2
:10243000838E17006396C5016394CE008507050758
:1024400085070507F1BFE37397FE238007000507A3
:1024500085079106E36497F2D1BF9CC2838507008C
:102460006389050163871501E30297FC850705076A
:10247000F5B7E36097FE5DBF850725B7EFD2FFF3A1
:102480008307050099E781450145EFF0DFDE6FD056
:102490005FF603AA018DAA8981440149377B0000B8
:1024A000B77B000083A7418D6369FA00EDD04A86AF
:1024B000A6854E85EFE0AFF4D9BF03240A00194684
:1024C00093054B292285EF20506A21E14E85EF20AC
:1024D000B06819042A86A2854E85EF20106915E59B
:1024E000631709002285EF2030672A89A284A68716
:1024F00022870386070001EE858F63D327013E897B
:10250000A28513854B2AEFE09FAE310A61BF830697
:102510000700FDD2E312D6FE85070507D9BFEFD22B
:102520005FECEFF02FFA01456FD0FFEDEFD27FEBBC
:10253000EFE0BFC001456FD01FEDEFD29FEA03A5CA
:10254000C18CEFE04FBB01456FD0FFEBEFD27FE9CD
:10255000B7870000938787F423A8F18CB787000022
:102560009387C70E23AAF18CB78700009387C70E05
:1025700023ACF18CB78700009387C70E9305002129
:10258000054523AEF18C1384C18CEFE0BFD808C0A1
:1025900019E93775000013058535EFE05FA57D5417
:1025A00022856FD05FE6B725000037750000A94788
:1025B0002D479306004001469385C56C13050537EA
:1025C000EFF00FA3AA840840B775000081460146CA
:1025D00093858537EFE0AFA70144F9D02685EFF06A
:1025E000EFB87DBFEFD2FFDFEFF07FCE0DC5B7753F
:1025F000000093854532138581CDEF20F054B775E7
:10260000000093854533138581CDEF20105213854B
:1026100081CD6FD05FDFB77500009385C532E1BF14
:10262000EFD23FDC2A843775000013054539EFE00F
:102630001F9CEFF03FFBAA85377500001306A41B13
:102640001305C539EFE0BF9A01456FD0DFDBEFD24C
:102650005FD941112AC6EFD0DFF6B24511E93775CF
:10266000000013058533EFE09F9841016FD0BFD97B
:1026700083A7C18CAA841384C18C83A7C720E38657
:10268000A7FE93053014EFD09FFB65F11C4003A516
:10269000C72009C9EFE04F821C40814503A5C72030
:1026A000EFE08F8800401306000581451305A41B49
:1026B000EFD03FD6B7250000231504202326942011
:1026C0009385A5532685EFE02F8645B7EFD27FCEC1
:1026D00083A7C18C41119384C18C03C74702136740
:1026E00017002382E70283A7C72091E7EFE0DF8C82
:1026F00019C1EFF0DFF5EFF0FFEEEFE05F8F377B12
:102700000000B77B0000B7790000378A0000B77A75
:102710000000377C0000B77C00009C408546130613
:10272000F10003A5C720FD55EFD09FFC8547631A34
:10273000F5000309F100ED4780406319F90008D066
:10274000E9BF8840FD55EFE00F93C1BF1C50639275
:10275000A7029307B0056315F90089471CD075BF20
:1027600023200402E30B09FAA5476314F912014977
:10277000D1A80947E398E7FE232004029307100439
:102780006312F9046E30D1D9FD15C205C1816EB056
:102790009307A41B13070005B385E5021306000584
:1027A0003E859385A502A295EF201029EF20D03A0F
:1027B0001375F50F2305A420A305A4202285EFF0AF
:1027C0003FE6A1BF930720046311F90216347E305F
:1027D0001387F6FF63D8E70085077EB09307A41B35
:1027E0006E304DBF9DDA7AB0D5BF930740046310B9
:1027F000F9028347B42095D313850938EFE02FFF02
:1028000098408347B720FD17A305F72039B79307F2
:102810003004E319F9F48347B4200347A420E3FE0E
:10282000E7EE3E948305A41B13854A38EFE02FFCA6
:1028300098408347B7208507C1BF13850938EFE06B
:102840000FFB050980408347B420E348F9FE1305D8
:10285000CABCEFE0CFF9EFF09FA785471304A41B94
:102860006315F5002285EFF07FC1EFF0BFD7228618
:10287000AA851385CC39EFE08FF780401305A41BA0
:10288000EF20902D1375F50F2305A420A305A42098
:1028900069B59307F0076305F900A1476315F908C7
:1028A0008347B420E38B07E60346A420FD1793F784
:1028B000F70F7D161376F60F2305C420A305F42029
:1028C00063F8C7049385B71B1385A71B1D8EA295BC
:1028D0002295EFE04FAE9C4013858B3803C7A720AD
:1028E0003E97230D071A83C5B7209385A51BBE9578
:1028F000EFE0EFEF9C4003C4B7209C4083C7A720C4
:10290000E3CD87E013850938EFE06FEE0504F5B7F6
:1029100013050B39EFE0AFED9C4003C7A720BA9732
:10292000238D071ADDBB35478347A4206305E900E3
:102930002947631EE90EB9CB035984029147130D51
:10294000A41B63FB2709930DA41613060005EA8553
:102950006E85EF20300C1DC91309A4024A851309A6
:10296000090513060005CA85EF20100DE3982DFF19
:102970001306000581456E85EFD0BFA90346A4204C
:10298000EA856E85EF20500B95471EB41E347EB04D
:10299000EFF0FF9385476312F5029C4083C747021F
:1029A000858B89C71305CABCEFE06FE48840834577
:1029B000A5201305A51BEFF0DF91EFF0BFC2EFE0FC
:1029C0000FE380401306000581451305A41BEFD0DB
:1029D0005FA42315042091B3630109021305F9FFD5
:1029E000930700053305F50213060005EA85130574
:1029F000A5022295EF20100251D9930D0005330551
:102A0000B9031306000581451305A5022295EFD0F1
:102A10005FA00A340346A420EA853305B5031305F5
:102A2000A5022295EF2050011E348507B9BF130778
:102A3000F0046374F700230504200346B4208347A1
:102A4000A4206370F6089305A61B1305B61BA29578
:102A50003386C7402295EFE00F968C4083C7B520A0
:102A60003387F500230D271B03C74502058B01CBD8
:102A70009387A71BBE9513058C11EFE04FD79C40A1
:102A800003C4B7209C4083C7A7206346F402984044
:102A90008347A7208346B7208507850693F7F70F5E
:102AA000A305D7202305F7209306F004E3F7F6C625
:102AB000231507209DB113850938EFE04FD3050496
:102AC000D1B7A297238D271B83474402858BE1D37F
:102AD000CA8513854A38EFE08FD155BF7C41232842
:102AE0000504232A05049C4381CBEFD29F8F9305D5
:102AF000850482976FD03F9101458280EFD2DF8CB1
:102B000036899DCAAA843284B309D600294A1C207A
:102B1000639B4701BE2C93F7070491C7FC40B54562
:102B200026859C478297FC408305040026859C47A8
:102B300005048297E31D34FD4A856FD03F8CEFD2A8
:102B40005F8A93F705102A8491C71A2D6155137770
:102B5000071035CF13F7054011C71A2C61551377AD
:102B6000074035C713F705049304000401E7262C3A
:102B700093F40404384893F5F50F2EAC39EBA1C754
:102B800068442981420541813105EFE0EFE5704459
:102B90002A89310529824206418281452320A900E4
:102BA000EFD0FFF8232209003E2C2324090023281C
:102BB000240593E707103EAC7C4013060010C14586
:102BC000DC43228582973E2C0145DD8C26AC6FD0FC
:102BD0009F83F5DB93E505102EACF5B70948AA876E
:102BE00063810503EFD2EFFF0D48638205030547BC
:102BF0006399E5041A2D1377F7FD1AAD01456FD0DF
:102C00009F801A2D136707021AAD01458280328713
:102C100075D6504274454C2D2982A9824206C206BF
:102C20004182C1826304D6001D45F1F91443B4C743
:102C30005443F4C7E1D5F443BA853E859442829665
:102C400075BF7C41DC4382975DBFEFD2EFF73684DE
:102C5000B1CA3E2DAA89328993F70710B6849DE345
:102C60007D5AA94A83A749044E85DC4782976309A8
:102C700045012300A900FD14050963035501FDF07A
:102C8000058C0DA02449368A854AEFE09FF3FE208B
:102C9000DA202A869444631AF70081EAEFE03FF3D2
:102CA0003304444122856FD06FF598403E97034B23
:102CB000070003A7C9048507C2072983C183420708
:102CC000FEA0418363E4E70023930400639456016C
:102CD00023A404003285EFE09FEF7D1A23006901F1
:102CE0000509E3140AFA6DBF582D854763ECE70226
:102CF0003E2D93F707109DC7EFD2AFEE2A842849E7
:102D0000EFE08FE33E2C232804041306001093F712
:102D1000F7EF3EAC7C40C5452285DC4382970145F8
:102D20006FD06FEE01458280EFD2AFEB37370000F6
:102D30001307C7AD18D5373700001307E7B358D5C9
:102D400037370000130787CE18D93737000013072D
:102D5000A7C458D9373700001307C7AF18DD373776
:102D600000001307C7BD420658DD34C14182232A43
:102D700005002320050223220502EFD01F896FD012
:102D80008FE893F5F50F85476391F50AEFD2CFE30E
:102D900020494111AA847D598549FC402685DC479C
:102DA00082972A8A63072505EFE0BFE15A201C407D
:102DB000BA97238047015E20F8448507C20729831C
:102DC000C18342075EA0418363E4E700231204004D
:102DD00076205E20639CD7008507C207C1837EA052
:102DE0002324340163E4E70023130400EFE03FDE13
:102DF0006DB79C5085C3EFE0DFDC5A206E20636E18
:102E0000B700B305B7402EC6EFE07FDC9C50B2455B
:102E10002685829741016FD06FDEFC44998DA9838E
:102E2000C207C183B385B740F9BF828001CEEFD21C
:102E30004FDB7841B2878E23184332220297014537
:102E40006FD06FDC7D558280EFD2AFD91387C1D5AB
:102E500078432E86AA8518431385C1D502976FD073
:102E60008FDAEFD20FD81387C1D578432E86AA8583
:102E700058431385C1D502976FD0EFD8EFD26FD6E4
:102E80001387C1D57843AA851385C1D51847029702
:102E90006FD06FD705C611476392E602EFD26FD4A9
:102EA0007C410E2241119C4736C632C4829722468D
:102EB000B2462AA2368541016FD0EFD481463685CD
:102EC00082801DC2B28711466390C602EFD26FD1D5
:102ED0007841B2238E235843411136C60297B24639
:102EE000410136856FD02FD2814636858280EFD260
:102EF0004FCF9387C1D54947D8CB37370000130749
:102F000047E9D8DB37370000130727EC98DF37375E
:102F100000001307C7E2ECC3B0C3AA850D461385B2
:102F2000C1D523A0070223A2070223A4070223A6D8
:102F3000070223A80702D8DFEFD02FED01456FD09D
:102F40008FCC371500201305458C82803725002053
:102F50001305458C8280EFD2CFC803A7C1809307A9
:102F6000803EC1563357F702B7E700E02386D740CB
:102F70002387D740856623A0D710916623A0D7105A
:102F8000B7F700E023A0070023A20700014690C77F
:102F90008146D4C781461306F7FF90CBD4CB3D477B
:102FA00098C3EFD0EFD7EFF0DFF92A84EFF01FFAE4
:102FB000AA852285EFE08F9B3775000013054541F8
:102FC000EFD0FFFF6FD02FC473110134EFD0BF9645
:102FD000B7F700E023A20700EFD08FCEEFD07F98A5
:102FE00073110134730020308147854613070002B6
:102FF0003396F6006306A6008507E39BE7FEFD57C0
:103000003E858280EFD2EFBD854513050002EF10AB
:1030100070766FD04FBFEFD2CFBC85452145EF1002
:1030200070756FD04FBEEFD2CFBB85451145EF1005
:1030300070746FD04FBDEFD2CFBA85454145EF10C8
:1030400070736FD04FBCEFD2CFB985451305000424
:10305000EF1050726FD02FBBEFD2AFB89D653785A0
:10306000000001469385C541130545B0EFF03FE8E8
:103070006FD06FB99307400663ECA7009317450024
:103080001D651305454B3E951841FD576313F70029
:1030900001458280EFD2EFB4411113F5F50F32C62E
:1030A000EFF05FFD11C54E2532460845EF10F04C9C
:1030B00041016FD04FB5EFD2CFB213F5F50FEFF05E
:1030C0007FFBAA87014589C7CE278847EF10D049E3
:1030D0006FD06FB3EFD2EFB0011113F5F50F32845B
:1030E000EFF05FF905C55C412AC6829732455C4521
:1030F000FC82C1473ECE8D473ECC09C41547631ABA
:10310000E40002CE08454C08EF10103A05616FD07C
:103110008FAF05476315E40091473ECEE5B76315D1
:10312000F40093078002D5BF89476315F400930725
:103130008004E5B791476314F400D147F9BF99477C
:103140006314F400F147D1BF9D47E31DF4FAE14752
:10315000E9B7EFD26FA713F5F50FAE84B289368ABF
:103160003A89EFF03FF1994731CD4845EFF0DFE77D
:103170003D472A8499476367A704EFE09FA4B146BF
:10318000B306D402B7070020138707082A8693875F
:103190000708369783160700639F96004C43639C8D
:1031A00045012E2363993501184763162701EFE087
:1031B0001FA2814701A87D576389E6003285EFE0B1
:1031C0001FA19D473E856FD06FA331453305A402F3
:1031D0003E9506A123224501231135012324250113
:1031E0003285F1B7EFD2EF9F13F5F50FEFF09FE8BF
:1031F00019471DC94845EFF03FDFBD472A841947ED
:1032000063E4A702EFE0FF9BB1473304F402B70782
:103210000020938707087D57A2978396070063983D
:10322000E600EFE0DF9A01473A856FD0CF9D416716
:103230007D1798C323A2070023A40700DDB7EFD2B0
:10324000AF98011113F5F50F328AEFF0BFE29947FD
:1032500021C185442A8463159A104845EFF0DFD8D0
:103260003D47AA8499476365A702EFE09F95B14A5D
:10327000B38754033709002013090908AA893E9926
:1032800003170900FD576319F700EFE05F949947B2
:103290003E8505616FD08F965C40829785450545D8
:1032A000EF10504D5C440D473AC47C823EC88357B2
:1032B000290002CA52CE638C4709C1C70947638DF2
:1032C000E70808444C00EF10301E1844B7170140BF
:1032D000938607C005456302D7020945630FF700CF
:1032E000938707400D45630AF700B727014093878E
:1032F000078001456313F700114593F5F40FEF10B4
:1033000070280808EF1030119D67938747438E049B
:10331000BE94D04037E700E093060005B307C7002E
:103320002380D740935756009387070485468A0722
:10333000B396C600BA9794C34E85EFE05F89814784
:1033400081BF930780023EC6A1473ECC9DBF930735
:1033500080043EC656CCB5B791473EC6C147F5B7C7
:103360009947E3170AF24845EFF01FC83D479947D0
:10337000E360A7F2931735001D65130545433E959D
:1033800058419357570093870706B394E4008A0780
:1033900037E700E0BA9784C35DB7EFD28F84EFF0D0
:1033A000BFC4B1473305F502B7070020938707086C
:1033B0003E955C4199C3084582976FD0CF847311C5
:1033C0000134EFD04FD70545EF10900B19C50545D7
:1033D000EFF0BFFC0545EF10900CEFD08FD87311C4
:1033E00001347300203073110134EFD0CFD409457C
:1033F000EF10100919C50945EFF03FFA0945EF1024
:10340000100AEFD00FD673110134730020307311FE
:103410000134EFD04FD21145EF10900619C5114578
:10342000EFF0BFF71145EF109007EFD08FD3731176
:1034300001347300203073110134EFD0CFCF214518
:10344000EF10100419C52145EFF03FF52145EF10AD
:103450001005EFD00FD173110134730020307311B8
:103460000134EFD04FCD4145EF10900119C54145D2
:10347000EFF0BFF24145EF109002EFD08FCE731105
:1034800001347300203073110134EFD0CFCA13051B
:103490000002EF10E07E1DCD13050002EFF0FFEFFC
:1034A00013050004EFF07FEF13050008EFF0FFEEC7
:1034B00013050010EFF07FEE13050020EFF0FFED95
:1034C0001305003EEF10A07DEFD0AFC9731101349A
:1034D0007300203013050004EF10807A55FD1305AA
:1034E0000008EF10E0794DF913050010EF10407956
:1034F00045F513050020EF10A07859FDF1B77311C1
:103500000134EFD04FC313050040EF10607729C19D
:1035100013050040EFF07FE8056513050580EFF027
:10352000DFE70565EFF07FE70965EFF01FE711655D
:10353000EFF0BFE62165EFF05FE64165130505C0DA
:10354000EF10E075EFD0EFC173110134730020303C
:10355000056513050580EF10A0725DF90565EF1094
:1035600020725DF50965EF10A0715DF11165EF1036
:10357000207159FD2165EF10A07059F9E1B701459F
:103580008280EFC21FE69C412041A14641111CC030
:10359000B1473EA4DC412316040013F7F700630192
:1035A000D702A546631ED70005675AA013D7470068
:1035B0000D8B01C785466308D7002313040031A093
:1035C00023120400E5B709677AA099838D8B05471C
:1035D0006389E70081C709476389E706231404006C
:1035E00021A0930700601EA41848B74701409387A5
:1035F00007806318F704116585451105EF109017D2
:1036000093070020B71401407C820D49E1474C002C
:10361000138504803EC64AC4EF100069930700403A
:103620007C824C009147138504803EC64AC4EF104B
:10363000A0670848A285EF10F01F08488545EF10E5
:10364000302B014541016FC01FDC9307004061BF73
:10365000EFC29FD7B72400201384C491930750036F
:103660005CC837290020B74701401306498C93876F
:10367000078074461CC8A167938787B07CC2B707D0
:1036800000C0F58FC166A106716713070720D58FAB
:103690001165411138C67CC68545B7070C00110578
:1036A00018C01CC42322040023160400EF10900C41
:1036B000B7190140930700207C820D4AE1474C0076
:1036C0001385098052C43EC6EF10005E9307004088
:1036D0007C824C009147138509803EC652C4EF108E
:1036E000A05C08489385C491EF10D0140848854524
:1036F000EF101020B77500009386C49113063010A8
:10370000938545411305498CEFF00FE201454101D6
:103710006FC0DFCEEFC2FFCC204193050002084806
:10372000EF10D02219C51C48CA231375F50F6FC0BE
:103730009FCD7D55EDBFEFC2DFCA24412E8488485E
:1037400093050004EF1090207DD99C4842044180ED
:10375000C2A305456FC03FCBEFC2BFC8C1473841C8
:10376000638BF502C5476395F502544B054693D725
:103770005600938707063316D6008A07B7E600E09F
:10378000B69790C30146084B93055052EF10B017FF
:1037900001456FC05FC7544B054693D756009387CA
:1037A00007043316D6008A07B7E600E0B69790C341
:1037B0000546D1BF411122C626C473110134B72476
:1037C0000020EFD04F979387448CA043930550522D
:1037D0000848EF10501819C985451385448CEFF03F
:1037E0004FDA084893055052EF10B01AEFD06F9798
:1037F000731101343244A244410173002030EFC2FE
:103800005FBE37150140914513050580EF10A056A6
:103810006FC07FBFEFC2FFBC411185451145371412
:10382000014002C202C402C6EF10C0748D44414977
:10383000930700104C00130504807C8226C44AC6FE
:10384000EF10804691474C00130504807C8226C40B
:103850004AC6EF1060454C00130504802312210175
:1038600026C44AC6EF1040449307000261494C0049
:10387000130504807C824AC626C4EF10E0429307F9
:1038800000047C824C009147130504803EC6EF1073
:10389000A041930700084C00130504807C824AC6AF
:1038A00026C4EF10604041016FC0FFB5EFC27FB387
:1038B00001118545056502C602C802CA02CC231E55
:1038C0000100EF10206BB70704013EC6B7070002E6
:1038D0003ECA930780023ECC6C009D4737350140BD
:1038E000FC8602C8EF10A06E854537350140EF1009
:1038F000E07105616FC03FB1EFC2BFAE2E89B284E7
:10390000014493170401C18363E497006FC0BFAF04
:10391000894537350140EF1040717DD9B3078900E3
:103920008C23373501400504EF10E06F0545EFD0DB
:103930005FFEC1BFEFC2FFAA4111C8873715014022
:10394000C14513050580EF10004383D6018E930512
:10395000F10005461385218EEFF01FFA41016FC07B
:103960009FAAEFC21FA841112A84371501402EC615
:1039700013050580C145EF10C03F324683D6018E46
:10398000A2851385218EEFF03FF741016FC0BFA7DD
:10399000EFC23FA50111AA841305A00236C42E84EC
:1039A00032C6EFF03FF9324693978400A180DD8C58
:1039B0009317860021825D8E91456808F087E48622
:1039C000EFF03FFA1305B002EFF0DFF6A2469317CF
:1039D000840021805D8C93978600A182DD8E9145C5
:1039E0006808F487E086EFF0DFF71305C002EFF018
:1039F0007FF405616FC03FA1EFC2BF9E3715014044
:103A0000914513050580EF10C0366FC0DF9FEFC2F0
:103A1000BF9B36849307000FB306C5000111B28423
:103A200063D7D7009304000F898CC204C180B38789
:103A300085009306001463D7F600130400140D8C60
:103A4000420441803AC62EC42AC2EFF05FDBA24591
:103A500012459386F5FF1306F5FFA2962696C20639
:103A60004206C1824182EFF0BFF232473715014072
:103A700005469317870021835D8FC1451305058097
:103A8000F886EF10802F05E8EFF01FF705616FC093
:103A9000FF9683D6018E7D1909466C081385218E09
:103AA0004209EFF07FE513590901E31409FE7D1483
:103AB00042044180C9BF2689CDBFEFC29F92411108
:103AC000EFF0FFD337140140930500101305048075
:103AD000EF10602A1545EFD0DFE3930500101305C2
:103AE0000480EF1000290545EFF0DFE41305803E68
:103AF000EFD03FE21305B00CEFF0DFE303A7018244
:103B000093870182DC2395450A853AC05C82EFF0F9
:103B10005FE51305F00CEFF0FFE103D78182938797
:103B20008182BC238D450A8578805C81EFF07FE33C
:103B30001305800EEFF01FE003D7C1829387C18287
:103B4000BC238D450A8578805C81EFF09FE11305E9
:103B5000A00EEFF03FDE89450A8523100100EFF04B
:103B60005FE01305D00EEFF0FFDC83A701839145E2
:103B70000A853EC0EFF0FFDE1305700FEFF09FDB0C
:103B80009307000285450A855C80EFF09FDD1305F1
:103B9000000CEFF03FDA9307300285450A855C8020
:103BA000EFF03FDC1305100CEFF0DFD8C14785457F
:103BB0000A855C80EFF0FFDA1305500CEFF09FD719
:103BC0008D679387E78389450A857C80EFF07FD9ED
:103BD0001305700CEFF01FD6930760F885450A8532
:103BE0005C80EFF01FD813056003EFF0BFD413041F
:103BF000800485450A854080EFF0BFD61305A003F9
:103C0000EFF05FD39307500585450A855C80EFF0A0
:103C10005FD51305100BEFF0FFD1896793870780FD
:103C200089450A857C80EFF0DFD31305600BEFF048
:103C30007FD003D7418393874183BC238D450A8579
:103C400078805C81EFF0FFD11305200FEFF09FCE5D
:103C500085450A8523000100EFF0BFD013056002FF
:103C6000EFF05FCD854785450A855C80EFF07FCF1B
:103C70001305000EEFF01FCC99653D4693848568CF
:103C80000A8593858568EF10205BBD450A85EFF0B6
:103C90005FCD1305100EEFF0FFC93D46938504017B
:103CA0000A85EF106059BD450A85EFF09FCB454569
:103CB000EFF05FC813058007EFD0BFC51305900272
:103CC000EFF05FC713056003EFF0DFC685450A8597
:103CD0004080EFF01FC90545EFD0BFC3EFF0DFD143
:103CE00041016FC04FF2EFC2CFEF2A879306001455
:103CF0001306000F81450145EFF07FD16FC0AFF093
:103D0000EFC22FEE2E86AA85378500001305C5B2B7
:103D1000EFD0EFAD6FC02FEFEFC2AFECAA853785C4
:103D200000001305C5B1EFD08FAC6FC0CFEDEFC26F
:103D30004FEB797185453705040002C602C802CAF7
:103D400002CC02CE02D002D202D402D6EF106024FE
:103D500085452145EF10002293070040FC8237146F
:103D600001408D473ECC4C08E147130504C03ECED0
:103D7000EF009073856793870780FC824C08930758
:103D80008004130504C03ECEEF001072A1673754C3
:103D90000040938727A105463ED093055052B707B0
:103DA0000C00130504803ED402D223160102EF104A
:103DB0008035930770237C8689475C876800854738
:103DC0003EC8EF00507F0C1013050480EF108026D2
:103DD000854513050480EF10A031B7470000938795
:103DE00007D023A4F18EB7470000938787D123A281
:103DF000F18E45616FC02FE1131685013707002052
:103E00006186130707329387C18E9386F18E635CB8
:103E1000060413060009630AC5001306000D6302B9
:103E2000C504130600086314C5000D4610A305461B
:103E300088A390A29422182363E5E604EFC26FDA08
:103E40009823930600086309D702930600096318B4
:103E5000D700AC23883389CD83A7818E82976FC02A
:103E60008FDA0946E1B790223E96A30FA6FED9B796
:103E700083A7418E8297E5B703A7418E88330297C7
:103E8000F9BF8280411122C63754004093050002D9
:103E900013050480EF10802B11CD13050480EF1063
:103EA000602A1375F50FEFF03FF59387F18E982395
:103EB000050798A33244410173002030EFC26FD24E
:103EC00041118545130500043729014002C202C48F
:103ED00002C6EF10200A4144894485474C0013056F
:103EE00009807C8226C422C6EF00105C854513053C
:103EF0000004EF1020084C0013050980648226C4DA
:103F000022C6EF00705A854513050004EF108006A5
:103F100091474C00130509807C8226C422C6EF001D
:103F2000B058854513050004EF10C004A1474C00AC
:103F3000130509807C8226C422C6EF00F056854511
:103F400013050004EF1000034C0013050980608284
:103F500026C422C6EF00505541016FC0CFCAEFC240
:103F6000AFC6AE84AA8AB6852685328A36891D44B4
:103F7000EF007060FD5933D68A40058AD2852685C8
:103F8000EF00B05FCA852685EF00B05ECA85268542
:103F90007D14EF00505EE31034FF6FC02FC6EFC2F8
:103FA0004FC4C841EF10A026B725014089460546F9
:103FB000938505801375F50FEFF07FFA6FC0AFC4DE
:103FC000EFC22FC279711306000281450808EFC0C5
:103FD0004FC48545114502C202C402C6EF00907964
:103FE000854513050020EF00F0783165EF0010677C
:103FF0003715014089474C001305058037240140DF
:104000007C8202C6EF00504A13050440EF001010F6
:10401000B7070E003ECE0C08854713050440230267
:10402000F10202C802CA02CC02D0EF0030129D4653
:104030000546854513050440EF00901C8545130592
:104040000440EF00D01A854513050440EF007015B9
:10405000814513050440EF00502713050440EF008D
:104060005015930404402685EF0050156DFD13058F
:10407000044037240140EF00F014930404402685E7
:10408000EF00F0146DFD13050440EF009025239818
:10409000A18E854513050440EF00302345616FC0B4
:1040A0008FB68397018FAA9763CD07008566138724
:1040B000F6FF63DAD7006309E50013950701418134
:1040C0008280014582803A858280EFC28FB1372499
:1040D0000140AA859D46054613050440EF00501295
:1040E000854513050440EF00100F930404408945F3
:1040F0002685EF00F01C65DD13050440EF00D01BA2
:10410000EFF03FFA6FC02FB0EFC2AFAD37850000C0
:104110001305C5B4EFC0BFED6FC0EFAEEFC26FAC1B
:1041200013844180084093050002EF00904408404A
:10413000A145EF0050440840C145EF00D04305457C
:10414000EFF0BFF82397A1900840A145EF00B042DF
:104150000840C145EF00F0410545EFF01FF72399F6
:10416000A1900840A145EF00D0400840C145EF00B4
:1041700050400545EFF07FF5239BA1900840A145F5
:10418000EF00303F0840C145EF00F03E0545EFF03D
:10419000DFF3239DA1906FC00FA7EFC28FA4411141
:1041A0008545130500021384418002C202C402C681
:1041B000EF00505C08408944A14741494C007C8293
:1041C00026C44AC6EF00502E854513050002EF00B5
:1041D000705A08404C002312210126C44AC6EF0041
:1041E000B02C854513050002EF00D0580840930716
:1041F00000024C007C8226C44AC6EF00F02A8545A6
:1042000013050002EF0010570840130980044C000A
:10421000648226C44AC6EF00302985451305000292
:10422000EF00505508404C0091477C8226C44AC696
:10423000EF009027B74700009387871023AEF18ED9
:1042400023A0F19023A2F19023A4F19023AAF18E50
:1042500023ACF18EEFF09FEC03D7E1902396E19031
:1042600003D721912398E19003D76191239AE1909C
:1042700003D7A191239CE19041016FC0CF98EFC279
:104280004F961384418008408945EF00F02D238428
:10429000A18008409145EF00302D2385A1806FC09B
:1042A0008F96EFC26F92EFF07FE783D5E19083D6D0
:1042B000C190130640069384E1903385D540138462
:1042C000C1906345A6008D8E6357D60083A7C18F2A
:1042D00082979E201EA083D5219183D6019113063B
:1042E0004006938421913385D54013840191634521
:1042F000A6008D8E6357D60083A7019082979E20DB
:104300001EA083D5619183D6419113064006938404
:1043100061913385D540138441916345A6008D8E0C
:104320006357D60083A7419082979E201EA083D515
:10433000A19183D68191130640069384A191338580
:10434000D540138481916345A6008D8E6357D600B6
:1043500083A7819082979E201EA0EFF05FF283C614
:104360009180054793899180138981806398E60045
:104370008347090081E783A7418F829783C6B18075
:1043800005471384B1809384A1806397E6009C2045
:1043900081E783A7818F8297834709002380F900F3
:1043A0009C201CA06FC08F8573110134EFC0AFD863
:1043B00037850000130545B7EFC07FC3EFC06FDA44
:1043C000731101347300203073110134EFC0AFD684
:1043D00037850000130585B6EFC07FC1EFC06FD8E9
:1043E0007311013473002030EFB2BFFFEFF01FD321
:1043F00083D5E19037850000130585BBEF00F06E93
:1044000083D5219137850000130505BDEF00F06DC0
:1044100083D5619137850000130585BEEF00F06CF0
:1044200083D5A19137850000130505C0EF00F06B1F
:104430006FB07FFDEFB2FFFA83C581803785000042
:10444000130545B8EF00706A83C5A1803785000069
:104450001305C5B9EF0070696FB0FFFAEFB27FF8CE
:104460000145EFF05F886FB01FFAEFB29FF72A8423
:10447000AE84EF0050100545EFD0AFC9A685228568
:10448000EF00300F6FB03FF8EFB21FF4AA8A2E8B07
:104490003285BE85BE84BA89428A32843689EF006D
:1044A000500DD2852285EF00100DCE864A86A2855A
:1044B0005A85EFF0DFAAA6852285EF00D00B0545CF
:1044C000EFD02FC5A6852285EF00B00A0545EFD0B5
:1044D0004FC4D2852285EF00D009CE864A86A285B8
:1044E0005685EFF0DFA7A6852285EF00D0080545A9
:1044F000EFD02FC2A6852285EF00B0070545EFD08B
:104500004FC16FB0BFEFEFB2DFEDC84141112EC612
:10451000EF00F04FB2452A848845EF00504F372610
:1045200001409375F50F21489147094785461306C9
:1045300006801375F40FEFF03FF541016FB0BFEC4B
:10454000EFB23FEA3724014013050480C145EFF084
:10455000DFF11306048021489147094785469305FA
:1045600000020545EFF05FF21306048021489147F1
:1045700009478546930500044145EFF0FFF0130617
:104580000480214891470947854693050006130595
:10459000000FEFF07FEF1306048021489147094791
:1045A00085469305000813057007EFF0FFED13062D
:1045B000048021489147094785469305000A130561
:1045C0008009EFF07FEC13060480214891470947EA
:1045D0008546930530020545EFF01FEB1306048076
:1045E0002148914709478546930530040145EFF07E
:1045F000BFE9130604802148914709478546930582
:1046000030061305000FEFF03FE813060480214841
:104610009147094785469305300813057007EFF069
:10462000BFE6214891470947854613060480930554
:10463000000B13051003EFF03FE56FB0DFDCEFB2C6
:104640005FDA0945B52737850000130585C1EFC03E
:104650001F9A83A5C180378500001305C5C2EFC02E
:104660001F99378500001305C5C3EFC05F98EFF0B1
:104670006F9AEFF06FB8EFF06FA3EFF00FC4EFF0A9
:104680003F94EFF0BF83EFF05FB1EFF04FEA3724D4
:10469000002037460000B785000013054493894782
:1046A0001307400681461306262A9385C5C4EFD01A
:1046B000CFAF13054493EFD0CFB41305803EEFD0B6
:1046C0004FA5E5BFB71702409843B706FFF8411161
:1046D0001367170098C3D84337060200758FD8C3F5
:1046E0009843B706F7FEFD16758F98C39843B70633
:1046F000FCFFFD16758F98C3D843B70681FFFD16E2
:10470000758FD8C39843B70600ECFD16758F98C314
:104710003707FF0098C723A6070202C402C69843C2
:10472000C166558F98C3B716024005679C42F18F4A
:104730003EC6A24785073EC4B24781E7A247E3973A
:10474000E7FEB71702409C431397E700635607063E
:1047500085473EC632478547631EF704B7170240B8
:10476000D843B706C1FFFD16D8C3D843D8C3D84332
:1047700013670740D8C3D843758FD8C3D843C166E1
:10478000558FD8C39843B7060001558F98C39843F7
:1047900093166700E3DD06FED843B7160240719B0F
:1047A000D8C3D84313672700D8C32147DC42B18B55
:1047B000E39EE7FE4101828002C669BF01A001A01D
:1047C00001A001A001A001A001A001A001A001A0E1
:1047D00001A001A001A001A001A001A001A001A0D1
:1047E00001A001A001A001A001A001A001A001A0C1
:1047F00001A001A001A001A001A001A001A001A0B1
:1048000001A001A001A001A001A001A001A001A0A0
:1048100001A001A001A001A001A001A001A001A090
:1048200001A001A001A001A001A001A001A001A080
:1048300001A001A001A001A001A001A001A001A070
:1048400001A001A001A001A001A001A001A001A060
:1048500001A001A001A001A001A001A001A001A050
:1048600001A001A001A001A001A001A001A001A040
:1048700001A001A001A001A001A07390123497C172
:10488000FF1F9381212A17B100201301A17717453B
:1048900000001305A58797B5FF1F9385A57613869E
:1048A000818363FAC5008322050023A0550011050A
:1048B0009105E3EAC5FE1385818397D5FF1F938594
:1048C000A50A6377B500232005001105E36DB5FE49
:1048D000FD42739002BCFD4273904280B78200009B
:1048E0009382028073A0023097B2FFFF9382027519
:1048F00093E2320073905230EFF0DFDC97C2FFFF9B
:104900009382C2CB7390123473002030EFB27FAD2C
:10491000B727014093870740631CF50085451305C1
:104920000020792581451305002059256FB0BFADC2
:10493000B737014093870780E31AF5FE85451305D5
:104940000040BD25814513050040C5B75C413707D0
:10495000F1E01307F7EF944D7D8F9C41D58FD44D37
:10496000D58FD441A206D58FD98F5CC11C4537F7AE
:10497000F1FF1307D77FD4457D8F9C49D58F944590
:104980008606D58FD98F1CC55C55370710FF7D175C
:104990007D8FDC29FD1793F7F70FD207D98F5CD5F0
:1049A00082801C4589C593E717001CC58280F99B4E
:1049B000EDBF1C4593E787001CC5828008450D812B
:1049C000058982801C4593E747001CC58280084505
:1049D0000981058982801C4591C537075000D98F10
:1049E0001CC582803707B0FF7D17F98FD5BF5C41AA
:1049F00049777D17FD15F98FB605DD8D4CC1828095
:104A0000A54763F7B7048D47138765FF3307F702A0
:104A10000328C5009D47B397E70093C7F7FFB3F797
:104A20000701B396E600DD8E54C5994763E3C704DA
:104A300095477D163306F6025859FD47B397C700D0
:104A400093C7F7FFF98F3396C5005D8E50D98280EA
:104A50000D473387E502032805019D47B397E7001B
:104A600093C7F7FFB3F70701B396E600DD8E14C9CD
:104A70006DBFB14763E2C702954765163306F6027C
:104A80001859FD47B397C70093C7F7FFF98F3396BF
:104A9000C5005D8E10D9828095474D163306F6020B
:104AA0005855FD47B397C70093C7F7FFF98FB395E4
:104AB000C500DD8D4CD582806845420541818280EC
:104AC00008416D8D3335A00082805C4191C5370768
:104AD0000004D98F5CC18280370700FC7D17F98FF5
:104AE000D5BFEFB21F9001112A8423040100A54411
:104AF0001C8463F9F40423040100A54621461C84A8
:104B000063FFF606231501002304010095461C846B
:104B100063F1F60E38853C8599460D46B3F7D7020A
:104B2000056513050580B3D7C7023357D702BA9777
:104B3000C207C1837C853C8505611D8D4205418589
:104B40006FB07F8C1C4493E787001CC42285EFF074
:104B5000FFE66DFD1C4493E747001CC42285EFF07F
:104B60001FE76DFD78441C8414108607B6972396C2
:104B7000E7FE1C84850793F7F70F5C8495BFA304B9
:104B800001009C846378F6001C84850793F7F70F77
:104B90005C84B5B798849C840C100607850786074B
:104BA0002E97AE970357C7FE83D7C7FE63FDE70274
:104BB0009C848607AE9783D7C7FE7C859C849884A7
:104BC00085078607AE9783D5C7FE93171700181081
:104BD000BA972396B7FE9C8438850C108507860704
:104BE000AE972396E7FE9C84850793F7F70FDC8446
:104BF00049BF1C841010388589078607B29783D770
:104C0000C7FEBA97C207C1837C851C84850793F7CA
:104C1000F70F5C84EDBD5841032805004C4537066D
:104C20000140930706403E979346F8FFB1C58325A0
:104C30000640F58D2320B640D043F18ED4C31443F3
:104C4000B3E6060114C3184190479346F7FF758EEB
:104C500090C7D047F18ED4C7144541466399C6002A
:104C60009447D98E94C7D447558FD8C78280B697BA
:104C70009443558F98C382801C43F58F1CC3828058
:104C8000B70701401387074083A70740584B698F38
:104C900009C77D8D3335A000828001458280B7072A
:104CA000014023AAA74082809C4513F7070113F80F
:104CB000F70001C7D8413368E8008E2113F7F50FDC
:104CC00039C318418146854E3D4F930F80029302B0
:104CD0008004214E3396DE00B3F8C500631116033D
:104CE0009398260033131F011343F3FF3377E30038
:104CF000B318180133E7E800639FF70550C985062C
:104D0000E39AC6FD18C11307F00F6375B704544149
:104D10002146854E3D4F930F800293028004414E01
:104D2000B398CE0033F715016392E80213172600FB
:104D300001173313EF001343F3FFB376D300331798
:104D4000E800D98E639DF701232A15010506E319B2
:104D5000C6FD54C18280E39457FA10C94DB7E3975A
:104D600057FE23281501DDB708456D8D3335A000AA
:104D700082800CC982804CC9828019C20CC9828091
:104D80004CC9828013F7C50F93F73500B705014072
:104D9000BA9594458A073D473317F7001347F7FF45
:104DA000758F98C598453315F500598D88C5828053
:104DB00023AEA19082809387C1919443182181E60C
:104DC0003C21920721A894430546639FC6023C21DB
:104DD000103192076314D60093E707F8B7E600E0B6
:104DE00093F7F70FBA962380F640854693575700FE
:104DF0003397E6005441A5C2938707048A07B7E6B4
:104E000000E0B69798C382808C4389466391D502AF
:104E100014313C216365D6008A06B6975DB7938648
:104E2000E6038A06B69793F7F70F920775B7904394
:104E30008D46631CD60014313C216364D60086067F
:104E4000E9BF9386C6078606F1BF94439147E39E68
:104E5000F6F81C31BDB7938707064DB7B716024069
:104E6000DC4251777D17F98F5D8DC8C2828037177C
:104E700002405C439146B18B6385D700A1466382B3
:104E8000D706B7177A00938707201CC13716024050
:104E90005C4237070020130707149183BD8BBA9734
:104EA00094231C41B3D7D7005CC15442A1829D8A90
:104EB000BA969422B3D6D70014C55442AD829D8AC7
:104EC00036971823B3D7E7005CC5584239839376E9
:104ED00037001387018136971823B3D7E7021CC91F
:104EE00082805C4354434167C983F98E37F7FF1FC3
:104EF0000327C770BD8B8907131617016348060087
:104F0000454601476392C702C94739A809476389E3
:104F1000E7023D476388E70241476388E702454669
:104F200001476393C700C14785E6B746024083A6A1
:104F30000680C18A8DC6B7167A009386062025A002
:104F40000147D9B70547B547C5B70147BD47E9BFD1
:104F5000B7160240D4421396E600E35E06FCB7168D
:104F60003D0093860690B387D7021CC105D31C4130
:104F7000858321BF99C5371702401C4F5D8D08CF2F
:104F80008280B7170240984F1345F5FF798D88CF7F
:104F9000828099C5371702405C4F5D8D48CF828073
:104FA000B7170240D84F1345F5FF798DC8CF8280DF
:104FB00099C5371702405C475D8D48C78280B71797
:104FC0000240D8471345F5FF798DC8C782801A2162
:104FD0008D6793870704B6217D8F9E21D58FD621BB
:104FE000D58FF621D58F9625D58FB625D58FD62589
:104FF000D58FF625D58FD98F1EA15A2DFD77938792
:10500000F77FF98F5EAD9E291EA982801E2189C57A
:1050100093E707041EA18280C207C18393F7F7FBC1
:10502000C207C183C5BF4EA582800A256D8D333569
:10503000A0008280EFB2EFBA1629F577FD17F58F41
:10504000F621DA257971D58F1EA95625FD7793872C
:10505000379FF58FD6212A842EC6D58F9625D58FDA
:10506000B625D58F5EA55E29C207C18393F7F7CF1A
:10507000D98F5EA96808EFF09FDFB747014093879B
:105080000780B245631AF404A25756246547B387D4
:10509000E702C206C186984163D20604060752247D
:1050A0004206B3D7E702130740064186B3D6E702AC
:1050B000B3F7E7029206635506028E07938727032C
:1050C000B3D7E70213F77700B367D700C207C183EE
:1050D0001EA445616FB02FB3925745BF0A07C1B7F1
:1050E000920793872703B3D7E702BD8BD58FF9BF0C
:1050F00091C55E250967D98F5EA582805A25F9770B
:10510000FD17F98FD5BF13F7F50F85471583B395B5
:10511000B7006319F7009307C500984301CED98DF6
:105120008CC38280894693074501E318D7FE930715
:105130000501E5B793C5F5FFF98DDDB793F5F51FCB
:105140004EA182804A211375F51F82800A216D8D40
:105150003335A000828013F7F50F85461583B3978A
:10516000B6006311D7025A25F98F1A21014542076B
:10517000418381CB0545A181B315B5006D8F3335D2
:10518000E000828089466314D7001A29F1BF5A29AA
:10519000E1BFA1818547B397B70093C7F7FFC20767
:1051A000C1831EA18280EFB22FA2B7440140AE8915
:1051B0003289014493840480634524014A856FB099
:1051C000EFA3930500042685EFF05FF87DD9B38740
:1051D00089008385070026850504C205C181EFF09B
:1051E000FFF5D9BF138741811C43B7260020938662
:1051F00046963E95636BD500B706012093860680E0
:1052000063E5A60008C33E858280FD57EDBF2946B1
:10521000814565AC01476314E60001458280B30710
:10522000E5000507B386E5009C2383C6F6FFE3840B
:10523000D7FE3385D7408280B3C7A5008D8B330757
:10524000C50081E78D4763EDC700AA87637EE50847
:10525000942185078505A38FD7FEE3EBE7FE8280C7
:1052600093763500AA8789CA942185078505A38F7F
:10527000D7FE93F63700C5BF9376C7FF138606FEA9
:1052800063F0C70683A3050083A2450083AF8500B2
:1052900003AFC50083AE050103AE450103A385013D
:1052A00083A8C5019385450223A0770003A8C5FF05
:1052B00023A2570023A4F70123A6E70123A8D701BF
:1052C00023AAC70123AC670023AE170193874702C7
:1052D00023AE07FF75B790419107910523AEC7FE36
:1052E000E3EBD7FEE3E6E7F6828039713EDA2ED2B1
:1052F00032D436D63AD842DC46DE9387818122CC3E
:10530000804326CA06CEAA8409C41C4C99E3228590
:10531000F12B0C4454102686228536C6EF00F0246B
:10532000F2406244D24421618280AA879823938606
:10533000170009EB850503C7F5FF8507A38FE7FE77
:1053400075FB8280B687DDB7AA879821850785051A
:10535000A38FE7FE7DFB8280AA87850703C7F7FF3F
:105360006DFF3385A7407D15828015C27D160147EC
:10537000B307E500B386E5009C2394226396D7002B
:105380006304C7000507EDF73385D74082800145E8
:10539000828079714AD04ECE06D622D426D2AA89EE
:1053A0002E899304190003C4F4FF3A8536C632C42B
:1053B0002EC23AC07D2522951C3102479245A18B11
:1053C0002246B246D1E39307D0026311F4089C2031
:1053D000054393042900E5C641476390E60213079D
:1053E0000003639CE7009C201307800593F7F70DEB
:1053F0006392E70C9C30C1468904B70800806314AF
:10540000030093C8F8FF33FFD80201480145A54FB8
:10541000E54EFD5233DED802138707FD63E3EF0448
:10542000BA8763DED704630D58007D58636AAE0007
:105430006314AE006346FF0005483385A6023E951F
:10544000850483C7F4FFC9BF2689A1BF9307B002B3
:105450006305F400A2870143BDBF9C20930429008B
:10546000DDBF1387F7FB63E5EE00938797FC55BF1D
:105470001387F7F963E5EE00938797FA5DB7FD5759
:10548000631FF8009307200223A0F900468519EE58
:10549000B250225492540259F24945618280630409
:1054A00003003305A0406DD6630408009385F4FF24
:1054B0000CC2F9BF93070003A9F2A1463DBF130731
:1054C0000003E382E7F2A9460DBF938781819C43E5
:1054D000B286985309E717B7FF1F1307A7CD2E868B
:1054E000AA853E856FF0FFEA011122CC26CA4AC880
:1054F00006CE4EC6AA842E89328401C51C4D91E386
:10550000F526973700009387678B6317F406C04032
:105510001C4C1CC45E24A18BC1C31C48B5CF1C48C5
:1055200008409379F90F1379F90F1D8D5C48634694
:10553000F500A2852685692C25E51C440505FD1787
:105540001CC41C401387170018C0238037015C4817
:105550006388A7005E24858B81CBA9476316F90079
:10556000A2852685B5240DEDF24062444A85D244D9
:105570004249B249056182809737000093870786C8
:105580006314F400804469B797370000938707815C
:10559000E310F4F8C044ADBFA2852685212041D197
:1055A0007D59D9B741119387818126C2844322C492
:1055B0004AC006C62A892E8489C49C4C99E3268554
:1055C0003526972700009387677F631BF402C0404E
:1055D0000317C40093170701C18393F68700ADEA50
:1055E00093F6070195EEA5472320F90013670704FA
:1055F0005AA47D55B240224492440249410182801E
:10560000972700009387877D6314F4008044C9B70F
:105610009727000093878778E31CF4FAC0444DBFB6
:10562000918B9DC34C5889C9930744046384F5004A
:105630004A85892B232A04025E242322040093F73F
:10564000B7FD5EA41C481CC05E2493E787005EA4DF
:105650001C4899EB5E241307002093F70728638505
:10566000E700A2854A85A9295E2413F717001DC308
:105670005C4823240400B307F0401CCC1C480145BF
:10568000B5FB8317C40013F707082DD793E707046A
:105690005EA485B7898B014791E3584818C4F9BFC8
:1056A000DE25011122CC26CA06CE4AC84EC613F703
:1056B0008700AA842E8479EBD841634DE000B8417D
:1056C000634AE0000145F2406244D2444249B24993
:1056D0000561828058547DD703A904009396370151
:1056E00023A0040063DB060670485E24918B99C7F3
:1056F0005C401D8E5C5899C33C401D8E5C540C5020
:10570000814626858297FD575A24631DF5009440F3
:10571000F54763E8D706B70740208507B3D7D7001A
:10572000858BA5C31C48232204001CC09317370196
:1057300063D80700FD576314F5009C4091E368C8E7
:105740004C5823A02401BDDD930744046384F50075
:1057500026850D29232A0402B5B70C50014685463B
:1057600026850297FD572A86E311F5F89C40B5DFA0
:1057700075476385E70059476393E70423A0240135
:1057800091B7136707045AA47D5535BF83A9050156
:10579000E38A09F203A905008D8B23A035013309A3
:1057A0003941014791E3D84918C4E35D20F11C5405
:1057B0000C50CA864E86268582976347A0005E24D9
:1057C00093E707045EA4C9B7AA993309A940F1BFBA
:1057D0009C49A5C3011122CC06CE2A8411C51C4DBB
:1057E00081E72EC62122B245972700009387075DE7
:1057F000639CF5004C408397C5009DC72285624499
:10580000F24005616FF0DFE9972700009387075D9D
:105810006394F5000C44C5B7972700009387075899
:10582000E39BF5FC4C44C1BFF24062440145056175
:10583000828001458280411122C406C62A844EA579
:1058400072A523200500232205002324050023221E
:10585000050623280500232A0500232C05002146E0
:1058600081451305C505EFA0DFBA971700009387A0
:1058700087B65CD0971700009387A7B81CD49717FA
:105880000000938787BC5CD4971700009387E7BE1E
:1058900000D01CD8B240224441018280970500000C
:1058A000938545F391AA411126C21306800693847D
:1058B000F5FFB384C4024AC02E8922C406C693856C
:1058C0004407AD262A8401CD23200500232225018B
:1058D000310508C4138684068145EFA09FB3228555
:1058E000B240224492440249410182801C4DA5E706
:1058F000411106C622C497070000938767FA1CD59A
:105900009387C1819C43232405042326050423286F
:1059100005046314F50085471CCD2A84352848C04A
:1059200022851D2808C42285052848C44840014610
:105930009145EFF05FF008440546A545EFF0BFEF55
:1059400048440946C945EFF01FEF85471CCCB240DB
:10595000224441018280828041119387C18126C205
:1059600084434AC006C69C4C22C42A8981E7268506
:10597000EFF0DFF7938484048044DC40FD1763D6A6
:1059800007009C40B9CF8440C5BF0317C40039E766
:10599000C177850723220406232004002322040064
:1059A000232404005CC423280400232A0400232C9D
:1059B0000400214681451305C405EFA09FA5232AB5
:1059C0000402232C04022324040423260404228535
:1059D000B240224492440249410182801304840669
:1059E00071BF91454A85EFF01FEC88C049FDB14772
:1059F0002320F9000144E1BF797122D44AD052CC6E
:105A000056CA5AC85EC606D626D24ECE2A8AAE8A54
:105A1000130485040149054BFD5B09ECB250225487
:105A20004A8592540259F249624AD24A424BB24BD9
:105A300045618280044483294400FD1963D4090030
:105A40000040E1BFDE24637BFB008397E4006387B3
:105A50007701A6855285829A3369A90093848406CA
:105A6000E9BF0325C50E82801971A6DAAE8483953D
:105A7000E500A2DC86DE328463DB0500DE2423A0A1
:105A8000060093F7070885E7930700401DA030083C
:105A900036C6EF00F026B246E34205FE7247BD6708
:105AA000F98F7977BA9793B717009CC2F1BF930724
:105AB00000041CC0F6506654D6540145096182802A
:105AC000DE25011122CC06CE26CA4AC8898B2E8437
:105AD00089CF930774041CC01CC885475CC8F2407A
