:100000006F60702813000000130000001300000050
:100010001300000013000000130000001300000094
:100020001300000013000000130000001300000084
:08003000130000007300100032
:1000380000000000000000003C5400005C54000078
:1000480000000000CC690000000000000000000073
:10005800CE690000D0690000000000000000000028
:10006800C82F000000000000D002000000000000BF
:10007800D6690000D8690000DA690000DC69000070
:10008800DE690000E0690000BE330000E6330000CE
:100098000E340000363400005E340000EC690000C5
:1000A800EE690000F0690000F2690000F4690000E0
:1000B800F6690000F8690000FA690000FC690000B0
:1000C800FE690000006A0000026A00008634000031
:1000D800066A0000086A00000A6A00000C6A00004C
:1000E8000E6A0000106A0000126A0000146A00001C
:1000F800166A0000186A00001A6A00001C6A0000EC
:100108001E6A0000B4370000226A0000DC4D0000BF
:10011800FE340000286A00002A6A00002C6A0000E9
:100128002E6A0000306A0000326A0000346A00005B
:10013800366A0000386A00003A6A00003C6A00002B
:100148003E6A0000406A0000426A0000446A0000FB
:10015800466A0000486A00004A6A00004C6A0000CB
:100168004E6A0000506A0000526A0000546A00009B
:10017800566A0000586A00005A6A00005C6A00006B
:100188005E6A0000606A0000626A0000646A00003B
:10019800666A0000686A00006A6A00006C6A00000B
:1001A8006E6A0000706A0000726A0000746A0000DB
:1001B800766A0000786A00007A6A00007C6A0000AB
:1001C8007E6A0000806A0000826A0000846A00007B
:1001D8000000000000000000000000000000000017
:1001E8000000000000000000000000000000000007
:0801F8000000000000000000FF
:1002000097020120938202E0938202E0739002340D
:1002100003210500224573100530B1A81971232070
:10022000250006C006C216CAF322003093F28200EF
:10023000638402009302000816C412C81ACC1ECEB2
:1002400022D026D22AD42ED632D836DA3ADC3EDE76
:10025000C2C0C6C2CAC4CEC6D2C8D6CADACCDECEE6
:10026000E2D0E6D2EAD4EED6F2D8F6DAFADCFEDE56
:1002700003A1050009A0024573101534924037858B
:1002800000001305058073200530224573200530DA
:100290004242D2426243F243025492542255B25532
:1002A0004256D2566257F257064896482649B649F2
:1002B000464AD64A664BF64B065C965C265DB65DB2
:1002C000465ED65E665FF65F09617300203000000F
:1002D000197116CA9302000816C49302000273A093
:1002E000428006C212C81ACC1ECE22D026D22AD4F0
:1002F0002ED632D836DA3ADC3EDEC2C0C6C2CAC416
:10030000CEC6D2C8D6CADACCDECEE2D0E6D2EAD4A5
:10031000EED6F2D8F6DAFADCFEDE73110134EF0025
:100320008061EF103009EF00C06373110134138452
:10033000818D03290400630409022320040073252E
:1003400010342AC01384018D044023A02400138498
:10035000418D044003A104000245731015349240FE
:10036000B78200009382028073A00230A24273A081
:1003700002304242D2426243F24302549254225526
:10038000B2554256D2566257F25706489648264909
:10039000B649464AD64A664BF64B065C965C265DE5
:1003A000B65D465ED65E665FF65F0961730020301B
:1003B0000000397101436EC619A0397141536AC8F2
:1003C00066CA62CC5ECE19A0397101535AD056D29A
:1003D00052D44ED64AD826DA22DC06DE33016140FA
:1003E000828241114AC026C222C406C68282B24D10
:1003F0004101024D924C224CB24B4101024B924AB8
:10040000224AB2494101024992442244B240410188
:1004100082803D432A876373C3029377F700BDEF61
:10042000ADE5937606FF3D8ABA960CC34CC30CC764
:100430004CC74107E36BD7FE11E28280B306C3408D
:100440008A069702000096966780A6002307B700E9
:10045000A306B7002306B700A305B7002305B7001E
:10046000A304B7002304B700A303B7002303B70016
:10047000A302B7002302B700A301B7002301B7000E
:10048000A300B7002300B700828093F5F50F939681
:100490008500D58D93960501D58D61B7939627007C
:1004A0009702000096968682E78086FA9680C117AA
:1004B0001D8F3E96E374C3F8A5B703A5818482809F
:1004C000EFF23FF2938781849843050798C3EF10BA
:1004D000C0313C45FD173CC589E77C413CC5EF1068
:1004E0008035EF10806005B7634205029307803EB8
:1004F0003347F5023365F5023305F5021305753E02
:100500003345F5023307F7023A9582807D558280A4
:1005100001458280014582800145828001458280BB
:10052000EFF23FEC3564B564130404109384C410F7
:1005300063639400C9BD1C4011048297D5BFEFF2DC
:100540005FEA3564B5641304C41093844411636393
:10055000940055BD1C4011048297D5BFEFF27FE88F
:10056000F93FEF60802C45B5EFF2BFE7B70500001B
:1005700037A50000D1471547930600200146938513
:10058000C555130585E7EF10A026EF10203EA5BD49
:10059000EFF23FE5EF10E062EF20F01BEF00B02B31
:1005A000EF10205CEF005078C137EF10205C012C79
:1005B000EF00707A014581BDEFF2BFE2D13F014506
:1005C00099B5EFF27FE0AA89EF10202219C1EF1050
:1005D000800A2545EF00F06044411304450063960E
:1005E0008400EF108020014911A8138944FF21469F
:1005F000CE854A851D2D01E9EF10201F19C1EF108E
:10060000E0084A85E5BB8440D9BF09E57D55828075
:100610007D55D5BBEFF2FFDC2A842E853289AE846E
:100620004D377DF522852686A545EF00305E0145D4
:10063000231C2401230E0400231D0400D9BFEFF264
:100640005FDA1E2D41112A84C18B9DE71C558DC395
:100650002EC68297AA84B24501CD2A8637A500000E
:10066000A285130505E8EF0090182685410161BBBE
:100670001E2C93E707011EAC1E2CA18B89C73E2CB4
:10068000E554A18BFDF35C5489CF22858297AA841F
:1006900005E13E2C93E787003EAC5C2C85075CAC03
:1006A000E9B785679387F7F0FD8D2EAC8144D5B708
:1006B000E957E31CF5FAF1BF5C2D85CBEFF27FD251
:1006C000FD1793F7F70F5CAD2A84014789EF1C599A
:1006D00089E70147231D040039A082972A8775D92D
:1006E000E957E309F5FE3A8539BB7D573A858280A3
:1006F000EFF23FCF582D09E77D552129014521A073
:100700005C5999C3829701B36955C5BFEFF27FCD9C
:10071000582D09E77D55F52E014521A01C5D99C393
:100720008297D5B16955C5BF0CD101458280EFF2E2
:10073000BFC99389418A854A83A7418A6386370561
:10074000EF10204883A7418A2A8A638D370303A4C8
:10075000418A5C4018401309C4FE5CC398C340C082
:1007600000C0EF0050717C5099C34A8582974A853A
:10077000EF00105B631B55014A85EF00104FEF003F
:10078000F0705285EF10A04495B9EF00307052859B
:10079000EF10E0434848EF00303A4A85EF0030550B
:1007A00061BFEFF21FC41384019C130904011C40B4
:1007B00091C382971104E31C24FF953FEDB7EFF23C
:1007C0005FC237060000B7A50000930800023D484D
:1007D000930700201387019D81461306267A93858F
:1007E00085EB13850194EF00307D13850194EF10A4
:1007F000E01711B9EFF2FFBE41112A842E8532C6EF
:100800002EC4EF1060083246A24519C68547630D15
:10081000F60001454101C5BE5840938745011CC300
:1008200098CD5CC0C0C9F5B71C406388870083C6FB
:10083000550303C7170263FAE600D4431387450143
:1008400098C294CDD8C3DCC9E9B79C43F9BFEFF295
:100850005FB94111B2842E8689452A8436C6EF00DD
:10086000F03AB246930744011CCC5CC846AC14B4C1
:100870000145410149BEEFF23FB583A7018941110E
:100880002EC62A8491C38297EF10A0335E2CAA89CA
:1008900089CFFD175EACEF10803383A7C188014577
:1008A00091CB22858297014531A0B24791E7EF10A5
:1008B00000327955410199B6EF00307323280502C3
:1008C0001034AA85AA84130544012D37B247635C0E
:1008D000F0001389C404700081454A85EF10601D43
:1008E0004A85EF1000124E85EF10602EEF00704920
:1008F000885845D5C1B7EFF2DFAE83A781882A8437
:1009000091C38297EF10E02BAA84484893074401D3
:10091000630EF5003115EF10A00005442685EF1099
:10092000002B19C0EF00F0450145F1BC5E2C850796
:100930005EAC0144E5B7EFF2DFAA4111EF10602889
:10094000138741851C23850793F7F70F1CA383A703
:10095000C18481C72AC682973245EF1040274101E2
:100960005DB4EFF21FA84111EF10A0251387418558
:100970001C23FD1793F7F70F1CA383A7018581C7DD
:100980002AC682973245EF1080244101ADBC03C5D1
:1009900041858280937808044111639E0800A9680C
:1009A0009388480693730801638B03001378E8FF6C
:1009B000930E000219A8A968938808FCE5B7137381
:1009C0001800930E0003E30503FE13732800630E63
:1009D0000306635806023306C0409302D0020A8E13
:1009E000814F294F6395E6073373D6023356D602FB
:1009F000469303430300850F050EA30F6EFE7DF2A1
:100A00000DA0137348009302B002631703009372A2
:100A10008800B3325000960279F2930600035480A6
:100A2000854FFE8663D3FF00BE8613781801158FAD
:100A300063130804638502006353E0007D172A8670
:100A4000B308E5001303000221A88142F1B7137334
:100A5000F600118271BF6374B600230066000506BC
:100A60003388C840E34900FF3A86635307000146D4
:100A70007D173295118F638802006374B5002300DF
:100A800055007D17050563870302AA961308000326
:100A90001DA86374B6002300D60105063388C8403C
:100AA000E34900FF3A866353070001467D173295FC
:100AB000118FE1BF2A86B308E500CDB76374B50096
:100AC0002300050105053386A640E3C9CFFEFD5688
:100AD000FD1F6383DF0099E7AA873306E50013084B
:100AE000000231A86376B5003306F101102210A18F
:100AF0000505F9BF63F4B700238007018507B30636
:100B0000F640E349D0FE6353070001473A9541019F
:100B10008280EFF21F8D2A849D3D09C523AC81841C
:100B20006FF07F8EEF00704C75D900D9D5BF0D479F
:100B3000AA876376C7009377350091C7AA873E9648
:100B40006397C706828093F7F50F13978700D98FB5
:100B5000139707015D8FB308C500AA87BD46338888
:100B6000F84063EB060393574600C156B386D7029D
:100B70009207AA970D4836963383C700BE86B308FE
:100B8000D3406362180313572600F156B306D70209
:100B90000A07BA97369665B798C3D8C398C7C107EE
:100BA00023AEE7FE6DBF910623AEE6FEC9BF850703
:100BB000A38FB7FE71B763F2A504B386C500637E49
:100BC000D5029345F6FF8147FD176393F5008280B8
:100BD0003387F600030807003387C7002A972300EE
:100BE0000701DDB73387F500830607003307F500FB
:100BF000850714A3E318F6FE82808147E5BF0DC682
:100C0000AA8785050387F5FF85079306F6FFA38F5F
:100C1000E7FE09EB3E9685076393C7008280A38FAA
:100C200007FED5BF3686F1FE828001476314E600D9
:100C3000814739A8B307E50083860700B387E5003D
:100C40009C23B387F640E207E18799E30507F9FEA5
:100C50003E858280AA870387070001E73385A74086
:100C600082808507CDBFEFF24FF52E89B30B2501AA
:100C700041112A8CB68563F5AB001349F5FFFD5B86
:100C8000C16937AA00006284930AB002130B000204
:100C9000FD19130ACA0531A8130750026389E70238
:100CA000637374011CA013051400B284138614002E
:100CB0002A8483070600EDF363060900637B742F23
:100CC000230004003305844141016FF08FF2014895
:100CD0001307D002930630021305000331A0639E70
:100CE00057011368480026868307160093041600F0
:100CF000E397E7FE13680801FDB763956701136882
:100D00008800D5B76395D70013680802E9BF6395DB
:100D1000A70013681800C1BF138707FDA54663E647
:100D2000E6040147A546294539A03307A7028504F3
:100D30003E97130707FD83870400138607FDE3F63C
:100D4000C6FE038604009306E002FD57631FD60427
:100D500083871400254693861400138507FD636579
:100D6000A60A8147254529433DA09306A0027D5749
:100D7000E399D7FC9841930426009105E35307FCBF
:100D80003307E040136808016DBFB387670285062B
:100D9000B297938707FD03860600930806FDE37666
:100DA00015FF63D307008147B684838604001306CA
:100DB0008006014593F8B6FF6395C80013F5F60F5A
:100DC000850403860400930690066303D60663C574
:100DD000C606930680056303D61C63C3C604930747
:100DE00050026307F61A63757401930750021CA042
:100DF00083870400130514006386071A6373750163
:100E00001CB0130524005DB51306A0026397C7004C
:100E10009C4193862400910569B7B684814771B7D8
:100E2000930630066302D60893064006E31DD6FA01
:100E300013682800A94699A0930630076303D60CCF
:100E400063C5C6029306F0066300D6169306000734
:100E5000E31BD6F8FD566315D70013681800214729
:100E6000938C4500C14690411DA893065007E303AB
:100E7000D6FC93088007C146E31716F71306C00691
:100E8000938C4500E301C5FE13068006E31DC5FCF7
:100E9000904193752800639B051033763601DE85FB
:100EA0002285CD3CE68519B5137808016315080243
:100EB000BA879306000229A06373740114A0050485
:100EC000FD17E34BF0FE9307F7FF6343E000054790
:100ED0003387E740050793874500637474019441A5
:100EE00014A013051400229713060002B306A740AE
:100EF0006344D000BE855DBB6373750110A1050519
:100F0000F5B783AC0500138D450063930C00D28CBC
:100F100066853EC63AC442C2353BB247AA861248ED
:100F200022476355F00063D3A700BE8613780801FB
:100F3000631E0800BA871306000231A063737401B0
:100F400010A00504BA877D17E3CAF6FE814763C186
:100F5000D702B68763D3060081473305F4002A978A
:100F600013060002B307A74063CFF600EA853DBB36
:100F70003306F40063777601B385FC0083850500B2
:100F80000CA28507E9B76373750110A10505D9BFE8
:100F90006373740110A01305140009BB13680804DF
:100FA000C146E9BDFD1419B3A146C9BD420641863B
:100FB000FDB5A38F0BFE39B303A5C1858280EFF287
:100FC0004FC203A9C185EFF0CFDF11CD1384C185D6
:100FD000AA84084019C1EFF02FEE9305300426854E
:100FE000EFF0EFE504C04A856FF0EFC18280397100
:100FF00026CA2ED232D436D62A8654109305F0074C
:10100000138501BD3EDA36C606CE22CC3AD842DC84
:1010100046DE9139AA8603A5C18509E9138501BD7C
:10102000F137F2406244D244216182802686262D27
:101030001384C18593E704043EAD9307F00763F47E
:10104000D7009306F007138601BD8145EFF00FEC42
:101050001C40A6AFF9B7EFF2CFB837A500001305D3
:1010600045FD713737A50000130505FE493737A741
:10107000000037A50000130747008D4605468D4543
:1010800013050501AD3737A50000130505038537A6
:101090006FF06FB731C5A9661377F50F938606EC2D
:1010A00009C7BA96882205058280C167938707F031
:1010B000E98F81CB21851377F50F36970823250516
:1010C0008280B707FF00E98F81CB41859377F50FC9
:1010D000B69788234505828061813695082165058C
:1010E000828003A741865C41BA976305F502B62367
:1010F00095E283A60186638FF600938681869042EF
:101100006313F60088C2D44354C1DC43B306E54000
:10111000BA9794C71045B307C700630FF500B6230D
:1011200081EE938681868C426393A5009CC25441D4
:10113000D4C35C413E9710C78280EFF28FAA83A58B
:10114000018737A5000013058507553583A5C1879D
:1011500037A500001305C508593D83A5C18637A5ED
:1011600000001305050A61356FF0EFA9EFF26FA7D4
:1011700013F7C5FFE1462E8663F1E60693073500B7
:10118000F19B930687FE63EAF6041D8F130687FE24
:1011900023A8C1868966511713844186938606EA7F
:1011A000D8C394C323A407001CC0BA9723A0F18618
:1011B000C966938606EAB7A5000094C3D8C398C74A
:1011C0008146054693858513138501C5EFF02FE809
:1011D000184023A4E1866FF00FA3AA8537A500006D
:1011E000130505142935C5BFEFF2AF9F39C503A715
:1011F0000187130435007198138901878144636660
:10120000870EB1476373F4003144FD55138501C562
:10121000EFF06FE683A7818683A5418683280900C6
:1012200026853386B740B3868840138881866368F5
:10123000D600138501C5EFF00FEC81447DA0B38487
:10124000C500BA2003AE440061E73307CE40930FD8
:1012500047FF63EF8F0A138FC187938EC1861303F5
:10126000840183260F0083A30E001389C187938214
:10127000C18663EF6F061307C4003297896E33830C
:10128000E500938E0EEA2322C3012324C30023200A
:10129000D3010546D8C0B2A003264300B1086304B9
:1012A00016012E9618C61387C60022972320E90040
:1012B00063F4E30023A0E2000967130707EA9AA09A
:1012C000639A970083A601860147B22305EE19C3EE
:1012D0002320F800138501C5EFF0EFE183A7818794
:1012E000B10481C7A2852685829726856FF0AF91CC
:1012F00005463697B2A02320EF00E3FFE3FA23A0D0
:10130000EE005DBFE385D7FCDC430547AE9775BFB4
:10131000728631BFEFF2EF8C3306B5024111328590
:1013200032C6D9352A8409C532468145EFF03F805F
:10133000228541016FF02F8D45C5EFF2EF8883A71D
:1013400041872A8491C3829783A741861389418666
:101350006366F40883A701866372F408FD5513855C
:1013600001C5EFF04FD1835764FF930944FF81CB50
:10137000035744FF8967938707EA6301F70237A59C
:1013800000001305C50EA531835644FF035664FFC4
:1013900037A50000CE85130585109139896793879D
:1013A00007EA231AF4FE938781869843231B04FEE1
:1013B00063F4E90023A037011387C1871C43832608
:1013C00084FF4E85958F83260900B386D940B69752
:1013D0001CC3013B138501C5EFF0EFD16FF00F8205
:1013E0008280B70700209386070001479387070094
:1013F00021468C426396A500131547003E958280D6
:101400000507C106E317C7FE01458280EFE2DFFB57
:101410002A842E85AE89328AE9372A89A92C832429
:101420004900930749006390F4048D2493E909F877
:10143000230434012146D2852285EFF04FFC83A797
:10144000018899C322858297EF00A077032749007E
:101450009307C4005CC358C42322F90004C8EF00FA
:1014600000776FE0BFF984407DBFEFE29FF783A76D
:1014700041882A8491C3829723040400EF0060749A
:10148000544418489307C400D8C214C31CC85CC491
:10149000EF00E0736FE03FF7EFE21FF32E89AA89B8
:1014A0008937AA84484589332A841DCDD044814593
:1014B000EFF0EFE7214623043401A3040400CA85BA
:1014C0002285EFF0CFF383A7018899C32285829705
:1014D000EF00206FD8409307C40091045CC358C448
:1014E0009CC004C8EF00A06E22856FE03FF1EFE2E0
:1014F0005FEF83A741882A8491C382972304040065
:10150000EF00206C544418489307C400D8C214C399
:101510001CC85CC4EF00A06B2285393D6FE0BFEEB4
:10152000030585007D8182802390018A938701C70E
:1015300013870708DCC39CC3A107E39DE7FE3D4773
:10154000238AE18823AC018823A6018A9387418AF4
:10155000DCC39CC38280EFE2DFE803A5C18AEFF021
:101560007FB37D1593173500138501C73E9508415C
:101570001307C5FE210523ACE188EFE07FC86FE0CB
:101580009FE8EFE21FE6EF00C0638397018A2A8994
:10159000B1E703A5C18AEFF0FFAF7D151317350042
:1015A000938701C7BA978443938781898043938542
:1015B000C4FE6305B4028CC383A7C189238AA188B2
:1015C00099C32285829783C741851305C4019385FA
:1015D000840093F7F70F81EBEFE05FC44A85EF00DB
:1015E000005F6FE05FE2EF00E05ECDBFEFE27FDF24
:1015F0002A84EF00005D8347440393064401C19BA6
:1016000093E71700230AF402834754031397370024
:10161000938701C7BA97D84314C318CCD4C35CC806
:101620009387C18A9443185C558F98C3EF00205A62
:101630006FE07FDDEFE2FFDA2A846123184C544823
:1016400093074401D8C214C35CC81CCC834754031D
:1016500013973700938701C7BA979843631AF70027
:101660001387C18A1C5C144393C7F7FFF58F1CC313
:10167000B92B6FE05FD9EFE2DFD6A1239387018A10
:101680009A2305079AA3A1236FE0FFD7EFE27FD546
:101690000D2B1387018A1E23FD17C207C1871EA3C6
:1016A000634BF000231007001D2383A7818991C39A
:1016B000C93D6FE05FD5212BEDBFEFE29FD203A4C0
:1016C00081890123AA842285B5379147230AF40230
:1016D0001305C404012E2285A1358547631BF5003F
:1016E0003C5C81EB228551332685D521593D6FE045
:1016F0009FD183A6418A1307440123A2E18AD8C25D
:101700009387418A54C81CCCC5B7EFE29FCD2A8489
:101710005105411108CC48C80CD050D014D43A8699
:1017200058D49305300236853EC642C4EFF02FC030
:10173000585410544C5008507117B71600003A9680
:101740009386A66B2D21B24722483716000048CC5D
:10175000230BF402A30AF402232C04028147232260
:1017600004052324040523280402230A0402232C4D
:101770000406232E04060147A28613068679A28555
:101780001305C4041D2483A7018B99C32285829766
:10179000014541016FE03FC7EFE2BFC45049144D1E
:1017A000795718D954C21307450190C218CD58C9AA
:1017B000353DC13B6FE03FC5EFE2BFC24111B2848E
:1017C0002E8685452A84368946C03AC63EC442C222
:1017D000EFF0DFC3024892472247B2464A86A68509
:1017E0002285253741016FE01FC203A581898280D0
:1017F000EFE29FBD41112E89AA85054532C6B68408
:10180000BA893E8AEFF05FC92A8411C92685EFF0B4
:10181000BF9D324609E92285EFF07FCD0144228544
:1018200041016FE0BFBDAA865288CE872687CA8550
:101830002285E13DEDB7EFE2DFBA612683A781891A
:101840000546AA8603C747033D8B631CC702D04BDE
:10185000984F6308E60258C210C303C65703938625
:1018600047010E06138701C794CF3297504314C225
:1018700090CF54C3D8CBA12EEFF0BFD001456FE07D
:101880009FB83685A926DDBF834745030547BD8B35
:10189000639FE702EFE2FFB42A84252683474403CF
:1018A000AA842285C19B93E72700230AF402EFF064
:1018B0007FD81305C404F1222685112E83A7818BBE
:1018C000014581C72285829701456FE0DFB37D55D1
:1018D0008280EFE21FB141112AC6E52403A4818969
:1018E0002A89228555379304C404700081452685D2
:1018F000C922268539224A85D92CEFF09FC818586D
:10190000F9576314F70023280402014541016FE0F1
:101910009FAFEFE21FADEFE03FBD653F6FE0BFAEB1
:10192000834745030947BD8B6390E704EFE27FAB34
:101930002A84412C5448184C93074401AA84D8C2E5
:1019400014C31CCC5CC81305C404252A2685412475
:101950002285EFF0BFC983A7418B014581C722854E
:10196000829701456FE03FAA7D558280EFE27FA715
:101970008346650305473317D70018DD0947A30AD7
:10198000D502230AE502693F83A7818999C3EFF055
:101990005FBF01456FE03FA75449184D93074501CC
:1019A000D8C214C31CCD5CC98280EFE29FA3411151
:1019B000B2842E86A9452A8436C63AC43EC2EFF0C8
:1019C000FFA49247B2462247F99B1CB493074401F7
:1019D00044CC14D02324040258D01CCC5CC8410150
:1019E0006FE07FA2EFE2FF9F2A84E12AAA8422858A
:1019F00065372685E92A2285EFF03FA701456FE08C
:101A00009FA0EFE21F9E2A846D2AAA84228569374F
:101A10001C342685F99B1CB45D2A83A7C18899C311
:101A200022858297EFE07FA95C503E9508D4512A29
:101A30001387818C03284700370600809387818CA9
:101A40001346E6FF98436315F8029386C18B9042D4
:101A5000050690C29306440154C358C894C31CCCD5
:101A60001C3493E717001CB49D2201456FE0BF9919
:101A7000544B0C546385B6008D8EE378D6FCBA8740
:101A8000D1B71C35858B85C7EFE2BF9583A78188C9
:101A90002A8491C382973522AA842285F53D268522
:101AA0003D221C340145F99B1CB46FE0DF957D5548
:101AB000828085476381F50263C5B70085C1014512
:101AC00082808947638FF5008D47E39AF5FE1C35C8
:101AD00093E7270009A85C511CC2D5B71C425CD112
:101AE000F9BF1C35F59B1CB5D9BFEFE21F8DEFE0A8
:101AF000DF9C2A8CF920B70900802A8A9384818C84
:101B000093C9E9FF8D4B8040631694005285C12034
:101B10006FE03F8E48481309C4FE3305AC40E3E74D
:101B2000A9FE83A7018C99C34A8582974A85EFF065
:101B3000BFE61C4448448297EFE03F9883A7418C5E
:101B40002A8C99C34A858297834754FF13F7E70F7E
:101B5000A30AE4FE8D8BE39877FB4A85EFF07FEADA
:101B60005DB79387818CDCC39CC382808280110621
:101B7000719A2A8837C7ADDE130506F8AA871307BE
:101B8000F7EE631EF600A167938707882322D6F835
:101B90002324B6FA232006F92324F6F8828098C37A
:101BA0009107C5B737F700E01C43B7060080D58F13
:101BB0001CC3828037F700E01C43860785831CC363
:101BC00082802165130505807315053082807310AE
:101BD00005308280EFE2FF801387818D1843938761
:101BE000818D19E323A8A18C23AAB18C054798C342
:101BF000553F6FE05F812A87814718436314A70030
:101C00003E8582808507D5BFB707EFBE37E700E086
:101C1000938707083CC701458280EFE28FFC37A518
:101C200000001305C517EFF08FBC01456FE0AFFD55
:101C3000EFE22FFB2A84FD5437B900007D146314B2
:101C400094006FE04FFC1305498EEFF04FBAFDB7DB
:101C5000EFE28FF70041AA8437B90000B7B900005E
:101C6000631494006FE08FF99305C4FE1305898E09
:101C7000EFF0EFB71C40638697001385C98EEFF035
:101C80000FB70040F1BFEFE2CFF52E89EFE09FFCE8
:101C90002A84EFF05F9E83240900639C2401EFF007
:101CA000FF9EA14763C3870011E0214422856FE0B6
:101CB0008FF5138544FFEFE0FFF96353A4002A84F6
:101CC0008440E1BFEFE26FEF0545EFF08FF1B7A978
:101CD0000000130945002A84CA8513850943653726
:101CE000AA85AA8437A500001386094313058543F6
:101CF000EFF0EFAF2685EFF0BFF337A50000130537
:101D0000C547EFF0CFAE4040B7A90000054A894A69
:101D100037AB0000B7AB000037AC0000B7AC000039
:101D200037AD00006315890001456FE08FEC034774
:101D300094021385C94B930644FF2146A685EFF014
:101D40000FAB8347840213858C4CBD8B638E470198
:101D500013054C4D638A570113850B4E91C71147EC
:101D60006396E7001305CB4EEFF06FA84C4C93073A
:101D70003002AE8698226306F702105093074006A1
:101D80000848B295B386D540B386F602585C5C50DD
:101D9000898D13058D4FB3D6C602EFF04FA50040D5
:101DA00051B78506C1BFEFE22FE241110945EFF0BF
:101DB0004FE39309450037A900002A84CE85130517
:101DC000093DEFF05FECAA85AA8437A50000130651
:101DD000093D1305C53DEFF08FA12685EFF05FE5C6
:101DE00037A500001305853FEFF06FA0404037AAEC
:101DF0000000B7AA000037DB0000639689000145A8
:101E000041016FE0AFDF1A281C44930644FF130919
:101E1000840036C63AC44A856306F902EFF0BFDD96
:101E20002247B246AA872146A68513850A41EFF0CC
:101E30000F9C4A85EFF0DFE113054B8AEFF02F9BF3
:101E4000004065BFEFF03FDB2247B246AA8721463C
:101E5000A68513050A42EFF08F99DDB7EFE2CFD6E2
:101E600041111145EFF0EFD79309450037A9000064
:101E70002A84CE8513054921EFF0FFE0AA85AA84C4
:101E800037A50000130649211305C521EFF02F9651
:101E90002685EFF0FFD937A5000013050524EFF0E4
:101EA0000F95404037AA0000B7AA000037DB0000BA
:101EB00063968900014541016FE04FD41C4413092A
:101EC0008400930644FF18486309F9024A8536C620
:101ED0003AC4EFF05FD22247B246AA872146A685D0
:101EE00013850A26EFF0AF904A85EFF07FD61305F1
:101EF0004B8AEFF0CF8F004065BF2146A6851305C2
:101F00008A27EFF0CF8EC5BFEFE20FCC41110D4510
:101F1000EFF02FCDB7A90000130945002A84CA8528
:101F20001385C936EFF03FD6AA85AA8437A50000ED
:101F30001386C93613054537EFF06F8B2685EFF012
:101F40003FCF37A5000013058539EFF04F8A404099
:101F5000B7A9000063168900014541016FE00FCA6F
:101F6000930644FF1305840036C6EFF0DFC803482C
:101F700034015C48B246AA8821472146A6851385CC
:101F8000893BEFF0CF860040F1B7EFE2EFC341119C
:101F90001545EFF00FC59309450037A900002A84C5
:101FA000CE851305C928EFF01FCEAA85AA8437A5D0
:101FB00000001306C92813054529EFF04F83268535
:101FC000EFF01FC737A500001305852BEFF02F8218
:101FD000404037AA0000B7AA000037DB0000639634
:101FE0008900014541016FE06FC17A285E281044E5
:101FF000930644FF1309840036C63AC43EC24A859C
:102000006307C902EFF03FBF92472247B2462A88D2
:102010002146A68513854A2DEFE07FFD4A85EFF026
:102020003FC313054B8AEFE09FFC00404DBFEFF02C
:102030009FBC92472247B2462A882146A6851305AF
:10204000CA2EEFE0DFFAD5B7EFE20FB8411119451C
:10205000EFF02FB99309450037A900002A84CE85F7
:1020600013054930EFF03FC2AA85AA8437A50000C6
:102070001306493013050531EFE07FF72685EFF0B1
:102080003FBB37A500001305C532EFE05FF64040C7
:1020900037AA0000B7AA000037DB0000639689006A
:1020A000014541016FE08FB51A2C1C44930644FF93
:1020B0001309840036C63AC44A856306F902EFF074
:1020C0009FB32247B246AA872146A68513854A3484
:1020D000EFE0FFF14A85EFF0BFB713054B8AEFE061
:1020E0001FF1004065BFEFF01FB12247B246AA873B
:1020F0002146A68513058A35EFE07FEFDDB7EFE2D5
:10210000AFAC5D712545EFF0CFADA96513060005B5
:102110002A8413094500938585E00A85EF60D00580
:10212000B7A90000CA851385C91AEFF0DFB5AA85E3
:10213000AA8437A500001386C91A1305451BEFE0D2
:102140001FEB2685EFF0DFAE37A500001305C51D98
:10215000EFE0FFE94040D14937AA0000631689004B
:10216000014561616FE08FA91C44930644FF63E061
:10217000F90298088A07BA9703A707FB1C2821468B
:10218000A68513050A20EFE09FE60040C1BF464741
:10219000F5B7EFE26FA32945EFF0AFA4B7A90000B0
:1021A000130945002A84CA8513850952EFF0BFAD93
:1021B000AA85AA8437A50000138609521305855203
:1021C000EFE0FFE22685EFF0BFA637A5000013057C
:1021D0000555EFE0DFE14040B7A9000037AA000055
:1021E000B7AA0000631E8900EFE02FADAA8537A5CE
:1021F00000001305855AEFE09FDF01456FE00FA057
:102200005C4C184C13854957930644FF2146A6851C
:10221000EFE0FFDD8347D4FF1385CA58858B99E330
:1022200013058A59EFE0BFDC00406DBFEFE2CF99A4
:1022300037A5000013054518EFE07FDB03A4018EEE
:10224000B7A9000037AA000083A7418E6365F40098
:1022500001456FE0AF9A04400946938589192685A8
:10226000EF60900419C55040A6851305CA19EFE028
:102270001FD83104D1BFEFE22F9537B50000130509
:1022800085A4EFE0DFD603A4018EB7B9000037BA0A
:10229000000083A7418E636BF40037D5000013055F
:1022A000458AEFE0DFD401456FE04F9504401946C1
:1022B000938549A62685EF60207F01E950409385EC
:1022C00064001305CAA6EFE09FD23104D9B70545D3
:1022D0008280EFE26F8F79712A84AA9593060002BB
:1022E000254783070400B38485406385D70A638349
:1022F000E70A0145638B0410014913070002A54654
:10230000B307240183870700638AE7086388D70837
:102310006314990883A9018E83AA418E37BB0000FC
:1023200063F0590903AA0900194693054BA6528583
:10233000EF60807759E54A86A28513056A00EF6051
:10234000A07641E14A9A83076A00A5EF83A9890034
:10235000638809041306800281452800EFE06F8B33
:1023600013098100CA86A2870145014713080002AC
:10237000A548294313062002130EC00583850700D4
:102380006384050163961505631F9702A9476303DC
:10239000F50469A80504B1B705099DB7E31C09F662
:1023A000A287038707001377F7FD79E737B50000A9
:1023B000130505A323800700A285EFE05FC37D55C9
:1023C000A9A0B109B1BF23800700050785077DB724
:1023D0006310650437B500001305C5A0EFE03FC1E9
:1023E0000018B7B40000832509001385C4A21109A1
:1023F000EFE0FFBFE31989FE37D500001305458ADA
:10240000EFE0FFBE29452C00829945616FD01FFF88
:10241000637E970005056392C504850705079CC286
:10242000838507006381C5026364970069FD8DBFE2
:10243000838E17006396C5016394CE008507050758
:1024400085070507F1BFE37397FE238007000507A3
:1024500085079106E36497F2D1BF9CC2838507008C
:102460006389050163871501E30297FC850705076A
:10247000F5B7E36097FE5DBF850725B7EFD2FFF3A1
:102480008307050099E781450145EFF0DFDE6FD056
:102490005FF603AA018EAA898144014937BB000077
:1024A000B7BB000083A7418E6369FA00EDD04A866E
:1024B000A6854E85EFE0AFF4D9BF03240A00194684
:1024C00093054BA62285EF60205E21E14E85EF60EB
:1024D000805C19042A86A2854E85EF60E05C15E5D4
:1024E000631709002285EF60005B2A89A284A68712
:1024F00022870386070001EE858F63D327013E897B
:10250000A28513854BA7EFE09FAE310A61BF83061A
:102510000700FDD2E312D6FE85070507D9BFEFD22B
:102520005FECEFF02FFA01456FD0FFEDEFD27FEBBC
:10253000EFE0BFC001456FD01FEDEFD29FEA03A5CA
:10254000C18DEFE04FBB01456FD0FFEBEFD27FE9CC
:10255000B7D700009387C7F723A0F18EB7D7000045
:102560009387C70F23A2F18EB7D700009387C70FB9
:1025700023A4F18EB7D700009387C70F93050021DE
:10258000054523A6F18E1384C18DEFE0BFD808C0A6
:1025900019E937B50000130585B2EFE05FA57D545A
:1025A00022856FD05FE6B725000037B50000A94748
:1025B0002D479306004001469385C56C130505B46D
:1025C000EFF00FA3AA840840B7B50000814601468A
:1025D000938585B4EFE0AFA70144F9D02685EFF0ED
:1025E000EFB87DBFEFD2FFDFEFF07FCE0DC5B7B5FF
:1025F0000000938545AF138501CFEF60C048B7B5A4
:102600000000938545B0138501CFEF60E045138549
:1026100001CF6FD05FDFB7B500009385C5AFE1BFD5
:10262000EFD23FDC2A8437B50000130545B6EFE052
:102630001F9CEFF03FFBAA8537B500001306A41BD3
:102640001305C5B6EFE0BF9A01456FD0DFDBEFD2CF
:102650005FD941112AC6EFD0DFF6B24511E937B58F
:102660000000130585B0EFE09F9841016FD0BFD9FE
:1026700083A7C18DAA841384C18D83A7C720E38655
:10268000A7FE93053014EFD09FFB65F11C4003A516
:10269000C72009C9EFE04F821C40814503A5C72030
:1026A000EFE08F8800401306000581451305A41B49
:1026B000EFD03FD6B7250000231504202326942011
:1026C0009385A5532685EFE02F8645B7EFD27FCEC1
:1026D00083A7C18D41119384C18D03C7470213673E
:1026E00017002382E70283A7C72091E7EFE0DF8C82
:1026F00019C1EFF0DFF5EFF0FFEEEFE05F8F37BBD2
:102700000000B7BB0000B7B9000037DA0000B7BA65
:10271000000037BC0000B7BC00009C408546130693
:10272000F10003A5C720FD55EFD09FFC8547631A34
:10273000F5000309F100ED4780406319F90008D066
:10274000E9BF8840FD55EFE00F93C1BF1C50639275
:10275000A7029307B0056315F90089471CD075BF20
:1027600023200402E30B09FAA5476314F912014977
:10277000D1A80947E398E7FE232004029307100439
:102780006312F9046E30D1D9FD15C205C1816EB056
:102790009307A41B13070005B385E5021306000584
:1027A0003E859385A502A295EF60001DEF60A02EE7
:1027B0001375F50F2305A420A305A4202285EFF0AF
:1027C0003FE6A1BF930720046311F90216347E305F
:1027D0001387F6FF63D8E70085077EB09307A41B35
:1027E0006E304DBF9DDA7AB0D5BF930740046310B9
:1027F000F9028347B42095D3138509B5EFE02FFF85
:1028000098408347B720FD17A305F72039B79307F2
:102810003004E319F9F48347B4200347A420E3FE0E
:10282000E7EE3E948305A41B13854AB5EFE02FFC29
:1028300098408347B7208507C1BF138509B5EFE0EE
:102840000FFB050980408347B420E348F9FE1305D8
:102850004A8AEFE0CFF9EFF09FA785471304A41B46
:102860006315F5002285EFF07FC1EFF0BFD7228618
:10287000AA851385CCB6EFE08FF780401305A41B23
:10288000EF6060211375F50F2305A420A305A42094
:1028900069B59307F0076305F900A1476315F908C7
:1028A0008347B420E38B07E60346A420FD1793F784
:1028B000F70F7D161376F60F2305C420A305F42029
:1028C00063F8C7049385B71B1385A71B1D8EA295BC
:1028D0002295EFE04FAE9C4013858BB503C7A72030
:1028E0003E97230D071A83C5B7209385A51BBE9578
:1028F000EFE0EFEF9C4003C4B7209C4083C7A720C4
:10290000E3CD87E0138509B5EFE06FEE0504F5B779
:1029100013050BB6EFE0AFED9C4003C7A720BA97B5
:10292000238D071ADDBB35478347A4206305E900E3
:102930002947631EE90EB9CB035984029147130D51
:10294000A41B63FB2709930DA41613060005EA8553
:102950006E85EF6020001DC91309A4024A85130982
:10296000090513060005CA85EF600001E3982DFFF5
:102970001306000581456E85EFD0BFA90346A4204C
:10298000EA856E85EF50507F95471EB41E347EB0A9
:10299000EFF0FF9385476312F5029C4083C747021F
:1029A000858B89C713054A8AEFE06FE48840834529
:1029B000A5201305A51BEFF0DF91EFF0BFC2EFE0FC
:1029C0000FE380401306000581451305A41BEFD0DB
:1029D0005FA42315042091B3630109021305F9FFD5
:1029E000930700053305F50213060005EA85130574
:1029F000A5022295EF50107651D9930D00053305AD
:102A0000B9031306000581451305A5022295EFD0F1
:102A10005FA00A340346A420EA853305B5031305F5
:102A2000A5022295EF5050751E348507B9BF1307D4
:102A3000F0046374F700230504200346B4208347A1
:102A4000A4206370F6089305A61B1305B61BA29578
:102A50003386C7402295EFE00F968C4083C7B520A0
:102A60003387F500230D271B03C74502058B01CBD8
:102A70009387A71BBE9513058C8EEFE04FD79C4024
:102A800003C4B7209C4083C7A7206346F402984044
:102A90008347A7208346B7208507850693F7F70F5E
:102AA000A305D7202305F7209306F004E3F7F6C625
:102AB000231507209DB1138509B5EFE04FD3050419
:102AC000D1B7A297238D271B83474402858BE1D37F
:102AD000CA8513854AB5EFE08FD155BF7C412328C5
:102AE0000504232A05049C4381CBEFD29F8F9305D5
:102AF000850482976FD03F9101458280EFD2DF8CB1
:102B000036899DCAAA843284B309D600294A1C207A
:102B1000639B4701BE2C93F7070491C7FC40B54562
:102B200026859C478297FC408305040026859C47A8
:102B300005048297E31D34FD4A856FD03F8CEFD2A8
:102B40005F8A93F705102A8491C71A2D6155137770
:102B5000071035CF13F7054011C71A2C61551377AD
:102B6000074035C713F705049304000401E7262C3A
:102B700093F40404384893F5F50F2EAC39EBA1C754
:102B800068442981420541813105EFE0EFE5704459
:102B90002A89310529824206418281452320A900E4
:102BA000EFD0FFF8232209003E2C2324090023281C
:102BB000240593E707103EAC7C4013060010C14586
:102BC000DC43228582973E2C0145DD8C26AC6FD0FC
:102BD0009F83F5DB93E505102EACF5B70948AA876E
:102BE00063810503EFD2EFFF0D48638205030547BC
:102BF0006399E5041A2D1377F7FD1AAD01456FD0DF
:102C00009F801A2D136707021AAD01458280328713
:102C100075D6504274454C2D2982A9824206C206BF
:102C20004182C1826304D6001D45F1F91443B4C743
:102C30005443F4C7E1D5F443BA853E859442829665
:102C400075BF7C41DC4382975DBFEFD2EFF73684DE
:102C5000B1CA3E2DAA89328993F70710B6849DE345
:102C60007D5AA94A83A749044E85DC4782976309A8
:102C700045012300A900FD14050963035501FDF07A
:102C8000058C0DA02449368A854AEFE09FF3FE208B
:102C9000DA202A869444631AF70081EAEFE03FF3D2
:102CA0003304444122856FD06FF598403E97034B23
:102CB000070003A7C9048507C2072983C183420708
:102CC000FEA0418363E4E70023930400639456016C
:102CD00023A404003285EFE09FEF7D1A23006901F1
:102CE0000509E3140AFA6DBF582D854763ECE70226
:102CF0003E2D93F707109DC7EFD2AFEE2A842849E7
:102D0000EFE08FE33E2C232804041306001093F712
:102D1000F7EF3EAC7C40C5452285DC4382970145F8
:102D20006FD06FEE01458280EFD2AFEB37370000F6
:102D30001307C7AD18D5373700001307E7B358D5C9
:102D400037370000130787CE18D93737000013072D
:102D5000A7C458D9373700001307C7AF18DD373776
:102D600000001307C7BD420658DD34C14182232A43
:102D700005002320050223220502EFD01F896FD012
:102D80008FE893F5F50F85476391F50AEFD2CFE30E
:102D900020494111AA847D598549FC402685DC479C
:102DA00082972A8A63072505EFE0BFE15A201C407D
:102DB000BA97238047015E20F8448507C20729831C
:102DC000C18342075EA0418363E4E700231204004D
:102DD00076205E20639CD7008507C207C1837EA052
:102DE0002324340163E4E70023130400EFE03FDE13
:102DF0006DB79C5085C3EFE0DFDC5A206E20636E18
:102E0000B700B305B7402EC6EFE07FDC9C50B2455B
:102E10002685829741016FD06FDEFC44998DA9838E
:102E2000C207C183B385B740F9BF828001CEEFD21C
:102E30004FDB7841B2878E23184332220297014537
:102E40006FD06FDC7D558280EFD2AFD9138741D729
:102E500078432E86AA851843138541D702976FD0F1
:102E60008FDAEFD20FD8138741D778432E86AA8501
:102E70005843138541D702976FD0EFD8EFD26FD662
:102E8000138741D77843AA85138541D718470297FE
:102E90006FD06FD705C611476392E602EFD26FD4A9
:102EA0007C410E2241119C4736C632C4829722468D
:102EB000B2462AA2368541016FD0EFD481463685CD
:102EC00082801DC2B28711466390C602EFD26FD1D5
:102ED0007841B2238E235843411136C60297B24639
:102EE000410136856FD02FD2814636858280EFD260
:102EF0004FCF938741D74947D8CB373700001307C7
:102F000047E9D8DB37370000130727EC98DF37375E
:102F100000001307C7E2ECC3B0C3AA850D461385B2
:102F200041D723A0070223A2070223A4070223A656
:102F3000070223A80702D8DFEFD02FED01456FD09D
:102F40008FCC371500201305C58D828037250020D2
:102F50001305C58D8280EFD2CFC803A7C181930727
:102F6000803EC1563357F702B7E700E02386D740CB
:102F70002387D740856623A0D710916623A0D7105A
:102F8000B7F700E023A0070023A20700014690C77F
:102F90008146D4C781461306F7FF90CBD4CB3D477B
:102FA00098C3EFD0EFD7EFF0DFF92A84EFF01FFAE4
:102FB000AA852285EFE08F9B37B50000130545BE3B
:102FC000EFD0FFFF6FD02FC473110134EFD0BF9645
:102FD000B7F700E023A20700EFD08FCEEFD07F98A5
:102FE00073110134730020308147854613070002B6
:102FF0003396F6006306A6008507E39BE7FEFD57C0
:103000003E858280EFD2EFBD854513050002EF407B
:1030100020176FD04FBFEFD2CFBC85452145EF4081
:1030200020166FD04FBEEFD2CFBB85451145EF4084
:1030300020156FD04FBDEFD2CFBA85454145EF4047
:1030400020146FD04FBCEFD2CFB9854513050004D3
:10305000EF4000136FD02FBBEFD2AFB8AD6537B5DF
:10306000000001469385C5BE1305452DEFF03FE8EE
:103070006FD06FB99307400663ECA7009317450024
:103080002D65130545C83E951841FD576313F7009C
:1030900001458280EFD2EFB4411113F5F50F32C62E
:1030A000EFF05FFD11C54E2532460845EF30B06D9B
:1030B00041016FD04FB5EFD2CFB213F5F50FEFF05E
:1030C0007FFBAA87014589C7CE278847EF30906AE2
:1030D0006FD06FB3EFD2EFB0011113F5F50F32845B
:1030E000EFF05FF905C55C412AC6829732455C4521
:1030F000FC82C1473ECE8D473ECC09C41547631ABA
:10310000E40002CE08454C08EF30D05A05616FD07C
:103110008FAF05476315E40091473ECEE5B76315D1
:10312000F40093078002D5BF89476315F400930725
:103130008004E5B791476314F400D147F9BF99477C
:103140006314F400F147D1BF9D47E31DF4FAE14752
:10315000E9B7EFD26FA713F5F50FAE84B289368ABF
:103160003A89EFF03FF1994731CD4845EFF0DFE77D
:103170003D472A8499476367A704EFE09FA4B146BF
:10318000B306D402B7070020138707082A8693875F
:103190000708369783160700639F96004C43639C8D
:1031A00045012E2363993501184763162701EFE087
:1031B0001FA2814701A87D576389E6003285EFE0B1
:1031C0001FA19D473E856FD06FA331453305A402F3
:1031D0003E9506A123224501231135012324250113
:1031E0003285F1B7EFD2EF9F13F5F50FEFF09FE8BF
:1031F00019471DC94845EFF03FDFBD472A841947ED
:1032000063E4A702EFE0FF9BB1473304F402B70782
:103210000020938707087D57A2978396070063983D
:10322000E600EFE0DF9A01473A856FD0CF9D416716
:103230007D1798C323A2070023A40700DDB7EFD2B0
:10324000AF98011113F5F50F328AEFF0BFE29947FD
:1032500021C185442A8463159A104845EFF0DFD8D0
:103260003D47AA8499476365A702EFE09F95B14A5D
:10327000B38754033709002013090908AA893E9926
:1032800003170900FD576319F700EFE05F949947B2
:103290003E8505616FD08F965C40829785450545D8
:1032A000EF30106E5C440D473AC47C823EC88357B1
:1032B000290002CA52CE638C4709C1C70947638DF2
:1032C000E70808444C00EF30F03E1844B7170140BF
:1032D000938607C005456302D7020945630FF700CF
:1032E000938707400D45630AF700B727014093878E
:1032F000078001456313F700114593F5F40FEF3094
:1033000030490808EF30F031AD67938747C08E042D
:10331000BE94D04037E700E093060005B307C7002E
:103320002380D740935756009387070485468A0722
:10333000B396C600BA9794C34E85EFE05F89814784
:1033400081BF930780023EC6A1473ECC9DBF930735
:1033500080043EC656CCB5B791473EC6C147F5B7C7
:103360009947E3170AF24845EFF01FC83D479947D0
:10337000E360A7F2931735002D65130545C03E9510
:1033800058419357570093870706B394E4008A0780
:1033900037E700E0BA9784C35DB7EFD28F84EFF0D0
:1033A000BFC4B1473305F502B7070020938707086C
:1033B0003E955C4199C3084582976FD0CF847311C5
:1033C0000134EFD04FD70545EF30502C19C50545D6
:1033D000EFF0BFFC0545EF30502DEFD08FD87311C3
:1033E00001347300203073110134EFD0CFD409457C
:1033F000EF30D02919C50945EFF03FFA0945EF3004
:10340000D02AEFD00FD6731101347300203073111E
:103410000134EFD04FD21145EF30502719C5114577
:10342000EFF0BFF71145EF305028EFD08FD3731175
:1034300001347300203073110134EFD0CFCF214518
:10344000EF30D02419C52145EFF03FF52145EF308D
:10345000D025EFD00FD173110134730020307311D8
:103460000134EFD04FCD4145EF30502219C54145D1
:10347000EFF0BFF24145EF305023EFD08FCE731104
:1034800001347300203073110134EFD0CFCA13051B
:103490000002EF30B01F1DCD13050002EFF0FFEF6B
:1034A00013050004EFF07FEF13050008EFF0FFEEC7
:1034B00013050010EFF07FEE13050020EFF0FFED95
:1034C0001305003EEF30701EEFD0AFC97311013409
:1034D0007300203013050004EF30501B55FD130519
:1034E0000008EF30B01A4DF913050010EF30101A34
:1034F00045F513050020EF30701959FDF1B7731130
:103500000134EFD04FC313050040EF30301829C10C
:1035100013050040EFF07FE8056513050580EFF027
:10352000DFE70565EFF07FE70965EFF01FE711655D
:10353000EFF0BFE62165EFF05FE64165130505C0DA
:10354000EF30B016EFD0EFC17311013473002030AB
:10355000056513050580EF3070135DF90565EF30E3
:10356000F0125DF50965EF3070125DF11165EF3015
:10357000F01159FD2165EF30701159F9E1B701459E
:103580008280EFC21FE69C412041A14641111CC030
:10359000B1473EA4DC412316040013F7F700630192
:1035A000D702A546631ED70005675AA013D7470068
:1035B0000D8B01C785466308D7002313040031A093
:1035C00023120400E5B709677AA099838D8B05471C
:1035D0006389E70081C709476389E706231404006C
:1035E00021A0930700601EA41848B74701409387A5
:1035F00007806318F704116585451105EF305038D1
:1036000093070020B71401407C820D49E1474C002C
:10361000138504803EC64AC4EF30D00993070040AA
:103620007C824C009147138504803EC64AC4EF302B
:1036300070080848A285EF30B04008488545EF3053
:10364000F04B014541016FC01FDC9307004061BF93
:10365000EFC29FD7B72400201384449393075003ED
:103660005CC837290020B74701401306C98D9387EE
:10367000078074461CC8AD679387872D7CC2B70747
:1036800000C0F58FC166A106716713070720D58FAB
:103690001165411138C67CC68545B7070C00110578
:1036A00018C01CC42322040023160400EF30502D40
:1036B000B7190140930700207C820D4AE1474C0076
:1036C0001385098052C43EC6EF30C07E9307004088
:1036D0007C824C009147138509803EC652C4EF306E
:1036E000607D084893854493EF30903508488545C0
:1036F000EF30D040B7B500009386449313063010E6
:10370000938545BE1305C98DEFF00FE201454101D8
:103710006FC0DFCEEFC2FFCC204193050002084806
:10372000EF30904319C51C48CA231375F50F6FC0BD
:103730009FCD7D55EDBFEFC2DFCA24412E8488485E
:1037400093050004EF3050417DD99C4842044180EC
:10375000C2A305456FC03FCBEFC2BFC8C1473841C8
:10376000638BF502C5476395F502544B054693D725
:103770005600938707063316D6008A07B7E600E09F
:10378000B69790C30146084B93055052EF307038FE
:1037900001456FC05FC7544B054693D756009387CA
:1037A00007043316D6008A07B7E600E0B69790C341
:1037B0000546D1BF411122C626C473110134B72476
:1037C0000020EFD04F979387C48DA04393055052AC
:1037D0000848EF30103919C985451385C48DEFF0BD
:1037E0004FDA084893055052EF30703BEFD06F9797
:1037F000731101343244A244410173002030930715
:1038000040023305F502814701008507E31EF5FEFE
:103810008280EFC21FBD4111854513050004372981
:10382000014002C202C402C6EF30901541448944EF
:1038300085474C00130509807C8226C422C6EF30E0
:103840006067854513050004EF3090134C001305A5
:103850000980648226C422C6EF30C0658545130501
:103860000004EF30F01191474C00130509807C8271
:1038700026C422C6EF300064854513050004EF30EE
:103880003010A1474C00130509807C8226C422C653
:10389000EF304062854513050004EF30700E4C0098
:1038A00013050980608226C422C6EF30A060410162
:1038B0006FC07FB5EFC25FB1AE84AA8AB685268598
:1038C000328A36891D44EF30C06BFD5933D68A40A9
:1038D000058AD2852685EF30006BCA852685EF30B4
:1038E000006ACA8526857D14EF30A069E31034FF95
:1038F0006FC0DFB0EFC2FFAE2A84AE84EF306068E5
:103900000545EFE00F81A6852285EF3040676FC047
:103910009FAFEFC27FABAA8A2E8B3285BE85BE8455
:10392000BA89428A32843689EF306065D285228531
:10393000EF302065CE864A86A2855A85EFF09FF744
:10394000A6852285EF30E0634145EFF05FEBA68569
:103950002285EF30C0624145EFF07FEAD2852285B3
:10396000EF30E061CE864A86A2855685EFF09FF45F
:10397000A6852285EF30E0601145EFF05FE8A6856F
:103980002285EF30C05F1305C005EFF05FE76FC021
:10399000FFA69377F50F21476389E7001307D00B44
:1039A00009456385E7000145828005458280EFC2B5
:1039B0005FA3EFF01FFE9387018F3E9508216FC034
:1039C0009FA4A547B3F5F5028D47B385F50293078C
:1039D000000B6308F5009307000C6308F5002E85C3
:1039E0008280850593F5F50FDDBF8905E5BFEFC240
:1039F0005F9FEFF01FFDB7270020938787963E95C6
:103A000008216FC05FA0A547B3F5F502A947058A55
:103A1000B385F50295473306F602930700062E9606
:103A2000630AF50263EDA70013070004930716006D
:103A30006305E50093170601C1873E858280130761
:103A4000000893073600E30AE5FE1307000E93070C
:103A50004600F9BF93072600CDB7EFC29F98EFF05D
:103A60009FFAB72700209387C7993E9508216FC01A
:103A70009F99EFC21F97AE8837260140AA8521483B
:103A8000914709478546130606804685EFF07FE893
:103A90006FC07F97EFC2FF9441112A842EC6EFF0CA
:103AA0005FEFB2459387018F3E950CA11375F40F1C
:103AB000EFF03FFC41016FC01F95EFC29F9205459B
:103AC000EFF0FFEE9365050293F5F50F0545EFF076
:103AD0007FFC6FC05F93EFC2DF9041112A84AE84F8
:103AE00032C6EFF01FEE3246B72700209387879645
:103AF0003E9510A1254533F5A402B2852295137594
:103B0000F50FEFF01FF741016FC0FF8FEFC27F8D00
:103B100041113284AA842E8936C6EFF0DFEEA54526
:103B20003379B9020588B246B72700209387C79931
:103B30003E9514A13304B402AD6593858532A295F8
:103B4000CA958821B68526951375F50FEFF07FF29B
:103B500041016FC05F8BEFC2DF8801114C006D46E1
:103B600002C202C402C602C802CA02CC231E01005D
:103B7000230F0100EF40506005616FC0DF88EFC286
:103B80005F8639712A8448102EC6EFF0DFFCB245FB
:103B900081472D473386F50010223408BE9690A247
:103BA0008507E399E7FE834791014C106D4613D7D3
:103BB00077002302E10213D76740058BA302E102DD
:103BC00013D75740058B2303E10213D74740BD8B22
:103BD0002304F1028347A101058BA303E10213D75C
:103BE000670093F7F7032305F1028347B101A304AC
:103BF000E102228513D74700BD8B2306F1028347DC
:103C0000C101A305E10213D74700BD8B2307F102D1
:103C10008347E101A306E10213D777002308E102FD
:103C200013D76740058BA308E10213D75740058BD4
:103C30002309E10213D74740BD8B230AF1028347D2
:103C4000F101058BA309E10213D7670093F7F7038E
:103C5000230BF10283470102A30AE10213D74700B5
:103C6000BD8B230CF10283471102A30BE10213D792
:103C70004700BD8B230DF10283472102A30CE10213
:103C800013F777009187A307E1029D8BA30DF10243
:103C90008347D1018346810113D717401D8B858B44
:103CA000230EE102A30EF102230FD102EF40D04C0C
:103CB000228521616FC02FF5EFC22FF0AA84AE8953
:103CC000328593050000328BEF40806D6347051409
:103CD000B7B7000003A4C7335A85A285EF40E0635D
:103CE0006340A014EFF07FDDB7B7000003AA0734EC
:103CF00083AA47344E840149930BF003054D682095
:103D00003104EF40D021EF40702E2A86AE865285D6
:103D1000D685EF30103C2A8C5A85AE8CEF40102DA2
:103D20002A86AE866285E685EF30206FEF40402E12
:103D3000834664FF034644FF034754FF834584FFE3
:103D4000B337D0003336C000834674FFBD891E06EA
:103D50003337E0002E961A0732979607B336D00015
:103D6000BA979206BE963385AB40137CF50F93F657
:103D7000F60F4A86A68513050002EFF03FD9834669
:103D800094FF137CFC034A869A06E29693F6F60F9C
:103D9000A68513050004EFF07FD78346B4FF834761
:103DA000C4FF4A869206BD8BBE9693F6F60FA68593
:103DB00013050006EFF09FD58346D4FF8347E4FF49
:103DC0004A869206BD8BBE9693F6F60FA68513051E
:103DD0000008EFF0BFD38346F4FF4A86A6859D8A8C
:103DE0001305000EEFF09FD2631EA903A6851305ED
:103DF000000CEFF0DFBF03C689014199A6850606D6
:103E0000398A498E03C599012A961376F60F130550
:103E1000000CEFF05FCC6FC0CFDD130B0000D9B505
:103E2000228BC9B50549E1BDEFC20FDA0111EFF0F0
:103E30005F9E37250140C14513050580EFF09FAB1C
:103E4000AD659385C52E0A85EFF07FD3B72400209A
:103E50006D468A851385C494EF401032B7B70000D1
:103E600083AAC733B729002037290020014493894A
:103E7000099913094998254AB387890023800700C7
:103E8000B3078900238007006D469385C4940A8593
:103E9000EF40902E1375F40F56868A850504EFF0D7
:103EA000BFE1E31B44FD05616FC04FD5EFC26FD387
:103EB0002E86AA8513050002EFF03FBA1375F50FA1
:103EC0001D816FC04FD4EFC2CFD13284AA842E8916
:103ED0002E86AA8513050002EFF03FB83336800026
:103EE0001375F5071E06B306A60093F6F60F4A866D
:103EF000A68513050002EFF07FC16FC0CFD0EFC2DF
:103F00004FCE2E86AA8513050002EFF01FB519814A
:103F100005896FC04FCFEFC2CFCC3284AA842E89DF
:103F20002E86AA8513050002EFF03FB333368000DA
:103F30001375F50B1A06B306A60093F6F60F4A861C
:103F4000A68513050002EFF07FBC6FC0CFCBEFC298
:103F50004FC92E86AA8513050002EFF01FB0158108
:103F600005896FC04FCAEFC2CFC73284AA842E8999
:103F70002E86AA8513050002EFF03FAE333680008F
:103F80001375F50D1606B306A60093F6F60F4A86CE
:103F9000A68513050002EFF07FB76FC0CFC6EFC252
:103FA0004FC42E86AA8513050002EFF01FAB1181C6
:103FB00005896FC04FC5EFC2CFC23284AA842E8953
:103FC0002E86AA8513050002EFF03FA93336800044
:103FD0001375F50E1206B306A60093F6F60F4A8681
:103FE000A68513050002EFF07FB26FC0CFC1EFC20C
:103FF0004FBF2E86AA8513050002EFF01FA63D894C
:104000006FC06FC0EFC2EFBDAA842E8932842E86A6
:10401000AA8513050002EFF05FA43D889376050F93
:10402000C18E4A86A68513050002EFF03FAE6FC031
:104030008FBDEFC20FBB2E86AA8513050004EFF0DB
:10404000DFA119851375F50F6FC0EFBBEFC26FB914
:10405000AA842E8932842E86AA8513050004EFF0E7
:10406000DF9F1375F5031A042A949376F40F4A869A
:10407000A68513050004EFF07FA96FC0CFB8EFC28B
:104080004FB62E86AA8513050006EFF01F9D1185F9
:104090001375F50F6FC02FB7EFC2AFB4AA842E8986
:1040A00032842E86AA8513050006EFF01F9B3D89FA
:1040B00012042A949376F40F4A86A6851305000607
:1040C000EFF0DFA46FC02FB4EFC2AFB12E86AA8588
:1040D00013050006EFF07F983D896FC0CFB2EFC2A5
:1040E0004FB0AA842E8932842E86AA851305000635
:1040F000EFF0BF963D889376050FC18E4A86A68560
:1041000013050006EFF09FA06FC0EFAFEFC26FADD9
:104110002E86AA8513050008EFF03F9411851375CC
:10412000F50F6FC04FAEEFC2CFABAA842E89328499
:104130002E86AA8513050008EFF03F923D891204F0
:104140002A949376F40F4A86A68513050008EFF0AB
:10415000FF9B6FC04FABEFC2CFA82E86AA85130579
:104160000008EFF09F8F3D896FC0EFA9EFC26FA7E6
:10417000AA842E8932842E86AA8513050008EFF0C2
:10418000DF8D3D889376050FC18E4A86A68513057F
:104190000008EFF0BF976FC00FA7EFC28FA42A846B
:1041A000AE84AA851305000BEFF07F8493D78400BB
:1041B0008D8B1376C50F5D8EA2851305000BEFF076
:1041C0009F9113F6F40FA2851305000AEFF0BF903C
:1041D0006FC06FA3EFC2EFA0AA842E84AA85130537
:1041E000000BEFF0DF800A0471881376350E418EE4
:1041F000A6851305000BEFF01F8E6FC0CFA0EFC296
:104200004F9EAA851305000BEFF06FFE15810589FF
:104210006FC06F9FEFC2EF9C2E84AA84AA851305FE
:10422000000BEFF0CFFCB33580001375F50D96054C
:104230003386A5001376F60FA6851305000BEFF065
:104240009F896FC04F9CEFC2CF99AA842E89328478
:10425000EFF0FFFA09C581452685EFF0BFFB9D47CA
:104260009375F90F63F327019D452685EFF09FF6BF
:1042700031463374C4022D661306862F26850A0440
:10428000229683150600EFF05FF185452685EFF055
:104290007FF86FC04F97EFC2CF94AA851305000C2B
:1042A000EFF0EFF405851D896FC0EF95EFC26F93B6
:1042B000AA842E84AA851305000CEFF04FF30604A0
:1042C00039881376150F418EA6851305000CEFF083
:1042D0009F806FC04F93EFC2CF90AA851305000C4B
:1042E000EFF0EFF005896FC00F92EFC28F8FAA84B5
:1042F0002E84AA851305000CEFF06FEF0588137666
:10430000E50F418EA6851305000CEFF0CFFC6FC0C2
:104310008F8FEFC20F8D1305D00BEFF04FE91375A0
:10432000F50F1D816FC02F8EEFC2AF8B2A8413054E
:10433000D00BEFF0CFE7B33580001375F5079E057E
:10434000AA9593F5F50F1305D00BEFF0AFF46FC0FE
:104350008F8BEFC20F891305D00BEFF04FE519815A
:1043600005896FC04F8AEFC2CF872A841305D00B0F
:10437000EFF0EFE3B33580001375F50B9A05AA95BE
:1043800093F5F50F1305D00BEFF0CFF06FC0AF87AB
:10439000EFC22F852E86AA851305000EEFF0EFEBF6
:1043A0001D896FC04F86EFC2CF83AA842E893284C5
:1043B0002E86AA851305000EEFF02FEA1D8893764E
:1043C000850FC18E4A86A6851305000EEFF00FF407
:1043D0006FC06F83EFC2EF80C84141112EC6EF401E
:1043E0008052B2452A848845EF40E0519375F50F1D
:1043F0001375F40FEFF0EFE741016FC0CF80EFB21C
:104400005FFE37250140C14513050580EFF08FCED3
:10441000854513050002EFF0CFE5C1451305000403
:10442000EFF02FE59305000F13050006EFF06FE4A2
:104430009305700713050008EFF0AFE393058009BB
:104440001305000AEFF0EFE2854513053002EFF0A7
:104450004FE2814513053004EFF0AFE19305000F03
:1044600013053006EFF0EFE09305700713053008F1
:10447000EFF02FE0930510031305000BEFF06FDF53
:104480006FB07FF837270020B72600202A868147A3
:104490001307479893860699A548B305F70003C804
:1044A000050013F5F70F631F08023388F600034376
:1044B000080063190302EFB2DFF285479CA19387DE
:1044C000318F98232300C800050798A3B147B3553F
:1044D000F6023376F602F91593F5F50FEFF0BFD635
:1044E0006FB07FF28507E39A17FB8280EFB27FEF10
:1044F00037270020B7260020A14713074798938647
:1045000006993306F7000C2295C5B385F60003C85B
:1045100005006311A8023E85238005008145230024
:104520000600EFF03FCF9387318F98237D1798A334
:104530006FB07FEDFD1793F7F70FE1B7EFB27FEAAA
:1045400037150140A14513050580EF2090236FB07A
:104550009FEBEFB21FE9411185451145371401402A
:1045600002C202C402C6EF20B0418D444149930704
:1045700000104C00130504807C8226C44AC6EF203C
:104580007013A1474C00130504807C8226C44AC6E0
:10459000EF2050124C00130504802312210126C481
:1045A0004AC6EF20301191474C00130504807C82ED
:1045B00026C44AC6EF2010109307000261494C0040
:1045C000130504807C824AC626C4EF20B00E9307F0
:1045D00000047C824C009147130504803EC6EF2006
:1045E000700D930700084C00130504807C824AC6B6
:1045F00026C4EF20300C41016FB0FFE0EFB27FDE48
:1046000001118545056502C602C802CA02CC231EF7
:104610000100EF20F036B70704013EC6B7070002DD
:104620003ECAC1473ECC6C009D4737350140FC86F1
:1046300002C8EF20903A854537350140EF20D03D44
:1046400005616FB05FDCEFB2DFD92E89B28401441F
:1046500093170401C18363E497006FB0DFDA8945E3
:1046600037350140EF20303D7DD9B30789008C23D9
:1046700037350140EF20F03BA9470100FD17C20785
:10468000C183E5FF0504E9B7EFB2BFD54111C88783
:1046900037150140C14513050580EF20900E83D6E4
:1046A000418F9305F10005461385618FEFF0BFF947
:1046B00041016FB05FD5EFB2DFD241112A843715C7
:1046C00001402EC613050580C145EF20500B324630
:1046D00083D6418FA2851385618FEFF0DFF641010C
:1046E0006FB07FD2EFB2FFCF0111AA841305A002F1
:1046F00036C42E8432C6EFF03FF9324693978400D9
:10470000A180DD8C9317860021825D8E914568081B
:10471000F087E486EFF03FFA1305B002EFF0DFF622
:10472000A2469317840021805D8C93978600A18216
:10473000DD8E91456808F487E086EFF0DFF713051A
:10474000C002EFF07FF405616FB0FFCBEFB27FC91D
:1047500037150140A14513050580EF2050026FB0C9
:104760009FCAEFB27FC6368493070014B306C50014
:104770000111B28463D7D70093040014898CC2045A
:10478000C180B38785009306000F63D7F60013043A
:10479000000F0D8C420441803AC62EC42AC2EFF0AD
:1047A000FFD9A24512459386F5FF1306F5FFA296A1
:1047B0002696C2064206C1824182EFF0BFF232471E
:1047C00037150140C1459317870021835D8F13057D
:1047D0000580F886EF20A07A05E8EFF03FF7056145
:1047E0006FB0DFC183D6418F7D1909466C081385F0
:1047F000618F4209EFF03FE513590901E31409FE07
:104800007D1442044180C9BF2689CDBFEFB27FBD70
:1048100037150140914513050580EF2080766FB074
:104820009FBEEFB21FBC37150140914513050580AF
:10483000EF20E0746FB03FBDEFB2BFBA4111EFF0AF
:10484000FFCF371401409305001013050480EF20BB
:1048500040731545EFD0EF8B9305001013050480CE
:10486000EF20E0710545EFF03FE21305803EEFD009
:104870004F8A1305F00CEFF03FE103D701839387D4
:104880000183BC238D450A8578805C81EFF0BFE20F
:104890001305D00EEFF05FDF83A7418391450A85B2
:1048A0003EC0EFF05FE11305800EEFF0FFDD03D7B0
:1048B000818393878183BC238D450A8578805C81C1
:1048C000EFF07FDF1305B00CEFF01FDC03A7C1830F
:1048D0009387C183DC2395450A853AC05C82EFF05B
:1048E0009FDD1305700FEFF03FDA93070002854557
:1048F0000A855C80EFF03FDC1305A00EEFF0DFD8F7
:1049000089450A8523100100EFF0FFDA1305000C3A
:10491000EFF09FD7C54785450A855C80EFF0BFD98A
:104920001305100CEFF05FD6054485450A854080DD
:10493000EFF07FD81305500CEFF01FD58D679387EC
:10494000070389450A857C80EFF0FFD61305700CBC
:10495000EFF09FD3930770FB85450A855C80EFF0ED
:104960009FD513056003EFF03FD293078004854580
:104970000A855C80EFF03FD41305A003EFF0DFD091
:104980009307500585450A855C80EFF0DFD213055B
:10499000100BEFF07FCF89679387078089450A85E1
:1049A0007C80EFF05FD11305600BEFF0FFCD03D7F4
:1049B000418493874184BC238D450A8578805C813E
:1049C000EFF07FCF1305200FEFF01FCC85450A8550
:1049D00023000100EFF03FCE13056002EFF0DFCAC5
:1049E00085450A854080EFF01FCD1305000EEFF0DE
:1049F000BFC9A965138485E53D46938585E50A858C
:104A0000EF309077BD450A85EFF0FFCA1305100E11
:104A1000EFF09FC73D46930504010A85EF30D0753E
:104A2000BD450A85EFF03FC94545EFF0FFC51305C9
:104A30008007EFC01FEE13059002EFF0FFC41305CF
:104A40006003EFF07FC4930780020A8585455C8090
:104A5000EFF07FC6EFF09FCF41016FB0DF9AEFB26A
:104A6000DF95328493D4860093F4F40F011401117E
:104A700013FAF60F3304940236C41306FAFF938632
:104A8000F4FFAE962A96C2064206C18241823EC219
:104A900042C03AC6EFF01FC5024892470604931A77
:104AA0008800139B870013588800A1838149B3EACB
:104AB0000A01336BFB0063E5990005616FB07F93DA
:104AC000B2470149A29783DB070063654901850965
:104AD0000904D5B7B3972B0113970701635A070051
:104AE000231E610189456808EFF0FFBC0509F1BF8D
:104AF000231E5101C5BFEFB25F8C411193D98600CF
:104B00002A892E84B28436C43AC6BE8A428B13FAEE
:104B1000F60F93F9F90FEFF07FA2A94B130CF013E6
:104B2000930CF00E130D00028387040091E7EFF061
:104B3000FFC141016FB0FF8B639777014E94420430
:104B40004180850401490386040075D2B3074901F9
:104B5000635EFC004E9442044180B3073401E3C815
:104B6000FCFC01496314A60185047DBF23044101B7
:104B7000A3043101A24632474A8552995A88D68702
:104B8000A2854209EFF0BFED13590901F1BFEFB261
:104B9000DF824111AE8A93D986002A84328936C4D5
:104BA0003AC63E8BC28B13FAF60F93F9F90FEFF06A
:104BB000FF98D684A94C130CF00E130D0002830746
:104BC000090091E7EFF09FB841016FB09F826397B2
:104BD00097015294420441800509D68403060900D6
:104BE00075D2B3873441635EFC0052944204418025
:104BF000B3074401E348FCFCD6846314A60105090D
:104C00007DBF23044101A3043101A2463247A6859A
:104C1000B38434415E88DA872285C204EFF03FE432
:104C2000C180F1BF9307F01363ECA7009307F00E68
:104C300063E8B700EFB2EFFAEFF0BFB26FB0AFFCCE
:104C40008280EFB20FFA2A879306000F1306001432
:104C500081450145EFF0FFB06FB0EFFAEFB26FF8AA
:104C60002E86AA8537D5000013050582EFC02FB820
:104C70006FB06FF9EFB2EFF6AA8537D500001305D4
:104C80000581EFC0CFB66FB00FF8EFB28FF5797135
:104C900085453705040002C602C802CA02CC02CE0E
:104CA00002D002D202D402D6EF20604F85452145C2
:104CB000EF20004D93070040FC82371401408D47E0
:104CC0003ECC4C08E147130504C03ECEEF20801EC9
:104CD000856793870780FC824C089307800413053F
:104CE00004C03ECEEF20001DA167375400409387DB
:104CF00027A105463ED093055052B7070C00130577
:104D000004803ED402D223160102EF208060930774
:104D100070237C8689475C87680085473EC8EF2002
:104D2000402A0C1013050480EF208051854513059F
:104D30000480EF20A05CB75700009387C7C523AE5F
:104D4000F18EB7570000938747C723ACF18E4561BA
:104D50006FB06FEB1316850161861387018193870E
:104D6000019093863190635C060413060009630A80
:104D7000C5001306000D6302C50413060008631482
:104D8000C5000D4610A3054688A390A294221823BF
:104D900063E5E604EFB2EFE49823930600086309A5
:104DA000D702930600096318D700AC23883389CD56
:104DB00083A7C18F82976FB00FE50946E1B79022B4
:104DC0003E96A30FA6FED9B783A7818F8297E5B73A
:104DD00003A7818F88330297F9BF8280411122C6D1
:104DE000375400409305000213050480EF20C0569D
:104DF00011CD13050480EF20A0551375F50FEFF0CA
:104E00007FF5938731909823050798A33244410199
:104E100073002030EFB2EFDC797113060002814598
:104E20000808EFB00FDF8545114502C202C402C673
:104E3000EF200035854513050020EF2060343165F3
:104E4000EF2080223715014089474C00130505806B
:104E5000372401407C8202C6EF20C00513050440C0
:104E6000EF10904BB7070E003ECE0C088547130598
:104E700004402302F10202C802CA02CC02D0EF10A1
:104E8000B04D9D460546854513050440EF1010586A
:104E9000854513050440EF10505685451305044021
:104EA000EF10F050814513050440EF10D062130558
:104EB0000440EF10D050930404402685EF10D050EA
:104EC0006DFD1305044037240140EF10705093042A
:104ED00004402685EF1070506DFD13050440EF105F
:104EE00010612392A190854513050440EF10B05E38
:104EF00045616FB04FD183974190AA9763CD07006A
:104F000085661387F6FF63DAD7006309E50013951A
:104F1000070141818280014582803A858280EFB21B
:104F20004FCC37240140AA859D4605461305044011
:104F3000EF10D04D854513050440EF10904A9304BF
:104F4000044089452685EF10705865DD130504403F
:104F5000EF105057EFF03FFA6FB0EFCAEFB26FC8E3
:104F6000411132C42EC6EF30807BB2452A842E8593
:104F7000EF30E07AAA852285EF30400F22462A845E
:104F80003285EF30C079AA852285EF30204AEF3094
:104F9000E07241016FB02FC7EFB2AFC437D5000048
:104FA00013050584EFC0AF846FB0EFC5EFB26FC3D8
:104FB00013844181084093050002EF10507C0840A3
:104FC000A145EF10107C0840C145EF10907B0545CE
:104FD000EFF0FFF42391A1920840A145EF10707A01
:104FE0000840C145EF10B0790545EFF05FF323931A
:104FF000A1920840A145EF1090780840C145EF10FC
:1050000010780545EFF0BFF12395A1920840A14526
:10501000EF10F0760840C145EF10B0760545EFF08F
:105020001FF02397A1926FB00FBEEFB28FBB41115B
:105030008545130500021384418102C202C402C6E1
:10504000EF20001408408944A14741494C007C826C
:1050500026C44AC6EF101066854513050002EF20EE
:10506000201208404C002312210126C44AC6EF102A
:105070007064854513050002EF20801008409307F7
:1050800000024C007C8226C44AC6EF10B0628545FF
:1050900013050002EF20C00E0840130980044C00E5
:1050A000648226C44AC6EF10F060854513050002ED
:1050B000EF20000D08404C0091477C8226C44AC670
:1050C000EF10505FB7570000938787F923A8F1903E
:1050D00023AAF19023ACF19023AEF19023A4F19098
:1050E00023A6F190EFF09FEC03D721922390E19259
:1050F00003D761922392E19203D7A1922394E19284
:1051000003D7E1922396E19241016FB0CFAFEFB2A6
:105110004FAD1384418108408945EF10B065238C61
:10512000A18008409145EF10F064238DA1806FB0FD
:105130008FADEFB26FA9EFF07FE783D5219283D6D1
:1051400001926546938421923385D5401384019260
:105150006345A6008D8E6357D60083A70191829781
:105160009E201EA083D5619283D64192654693848A
:1051700061923385D540138441926345A6008D8E9C
:105180006357D60083A7419182979E201EA083D5A6
:10519000A19283D6819265469384A1923385D540AE
:1051A000138481926345A6008D8E6357D60083A732
:1051B000819182979E201EA083D5E19283D6C192D1
:1051C00065469384E1923385D5401384C19263454B
:1051D000A6008D8E6357D60083A7C19182979E202B
:1051E0001EA0EFF0DFF283C691810547938991817C
:1051F000138981816398E6008347090081E783A7CB
:105200008190829783C6B18105471384B1819384CD
:10521000A1816397E6009C2081E783A7C1908297D4
:10522000834709002380F9009C201CA06FB00F9DCC
:10523000EFB22F9BEFF09FD783D5219237D5000097
:1052400013050589EF30607E83D5619237D5000064
:105250001305858AEF30607D83D5A19237D5000094
:105260001305058CEF30607C83D5E19237D50000C3
:105270001305858DEF30607B6FB0EF98EFB26F96BE
:1052800083C5818137D500001305C585EF30E079EE
:1052900083C5A18137D5000013054587EF30E0783D
:1052A0006FB06F968280EFB24F910111AA892E8A5A
:1052B0003285B6854146B684EFF05FCA7800AA8B86
:1052C0009375F50F8147BA8A13068007C146850793
:1052D00010A393F7F70F6385D7000507E3F9F5FEF1
:1052E000370400201810BA9713078432103323862E
:1052F00007FE83478432C546B306D6020D46338582
:10530000F9404205D2854181014713098432338631
:10531000C702EFF03F918947034584328345190066
:105320006383F40C3385A940131B050113F5FB0FB0
:105330009394450029462C000505EF306061D29416
:10534000C2048326843203274900135B0B01C1800A
:105350002A86130800408147A6855A85EFF0AFF9E9
:1053600083451900BD4403458432B38595028326E5
:105370008432032749003385A940420556860148F7
:10538000930700404181D295C205C181EFF03F8073
:10539000834519008326843203274900B38595028B
:1053A00056864E85014893070040D295C205C181BB
:1053B000EFF0EFFD834519000345843283268432E4
:1053C000B38595024E95032749004205014893078E
:1053D000004056864181D295C205C181EFF02FFB76
:1053E00005616FB00F819205D2953385A94037D6FC
:1053F0000000C2054205130800408147832684321D
:10540000032749001306068FC181418181BFB72759
:1054100000209387879F375700009386070E130756
:10542000472A98C3D8C398C7D8C798CBD8CB98CFAA
:10543000D8CF93870702E396D7FE82807311013499
:10544000EFB06FCF37D5000013054590EFB03FBAEE
:10545000EFB02FD173110134730020307311013478
:10546000EFB06FCD37D500001305858FEFB03FB893
:10547000EFB02FCF7311013473002030EFA27FF60D
:105480003709002013048932043081450145EFE0DB
:105490001FBF9384240313160501A685C1464182CC
:1054A00013058002EFF03FE01C30930520038326B4
:1054B00089329D8D584037D60000C20501489307B8
:1054C000007E13064694C1810145EFF0CFE26FA044
:1054D0009FF3EFA21FF13709002013048932043033
:1054E00085450145EFE0BFB99384240313160501F8
:1054F000A685C146418213058002EFF0DFDA1C3039
:1055000093052003832689329D8D584037D60000AD
:10551000C20501489307007E1306869CC1810145A0
:10552000EFF06FDD6FA03FEEEFA2BFEB03D521924E
:1055300041468565EFF09FA21379F50F0144A5441C
:10554000228505044A8681451374F40FEFE0DFB429
:10555000E31894FEEFF09FF26FA0FFEAEFA27FE85E
:1055600003D5219241468565EFF05F9F1379F50FD2
:105570000144A544228505044A8685451374F40F29
:10558000EFE09FB1E31894FEEFF0BFF46FA0BFE728
:10559000EFA23FE53709002013048932043081452A
:1055A0000145EFE07FB29384240313160501A6851D
:1055B000C146418213058007EFF0FFCE1C309305F2
:1055C0002003832689329D8D584037D60000C205BE
:1055D00001489307007E13060695C1811305000557
:1055E000EFF06FD16FA03FE2EFA2BFDF37090020DD
:1055F00013048932043085450145EFE0FFAC938404
:10560000240313160501A685C146418213058007B0
:10561000EFF07FC91C3093052003832689329D8DCE
:10562000584037D60000C20501489307007E130694
:10563000469DC18113050005EFF0EFCB6FA0BFDCE5
:10564000EFA23FDA03D5619241468565EFF01F91E5
:105650001379F50F0144A544228505044A86814546
:105660001374F40FEFE0BFA7E31894FEEFF05FF2BE
:105670006FA07FD9EFA2FFD603D561924146856521
:10568000EFF0DF8D1379F50F0144A5442285050461
:105690004A8685451374F40FEFE07FA4E31894FE67
:1056A000EFF09FF46FA03FD6EFA2BFD337090020E1
:1056B00013048932043081450145EFE03FA593840E
:1056C000240313160501A685C14641821305800CEB
:1056D000EFF07FBD1C3093052003832689329D8D1A
:1056E000584037D60000C20501489307007E1306D4
:1056F0008699C1811305000AEFF0EFBF6FA0BFD0FC
:10570000EFA23FCE370900201304893204308545CB
:105710000145EFE0BF9F9384240313160501A6857E
:10572000C14641821305800CEFF0FFB71C30930592
:105730002003832689329D8D584037D60000C2054C
:1057400001489307007E1306C6A1C1811305000A14
:10575000EFF06FBA6FA03FCBEFA2BFC803D5A19205
:1057600041468565EFF08FFF1379F50F0144A5449D
:10577000228505044A8681451374F40FEFE0BF9A31
:10578000E31894FEEFF05FF26FA0FFC7EFA27FC5B2
:1057900003D5A19241468565EFF04FFC1379F50FD3
:1057A0000144A544228505044A8685451374F40FF7
:1057B000EFE07F97E31894FEEFF09FF46FA0BFC473
:1057C000EFA23FC23709002013048932043081451B
:1057D0000145EFE05F989384240313160501A68525
:1057E000C146418213058011EFF0FFAB1C309305D9
:1057F0002003832689329D8D584037D60000C2058C
:1058000001489307007E13060698C1811305000F17
:10581000EFF06FAE6FA03FBFEFA2BFBCEFF05FFA3B
:105820006FA07FBEEFA2FFBB3709002013048932AF
:10583000043085450145EFE01F929384240313163D
:105840000501A685C146418213058011EFF0BFA571
:105850001C3093052003832689329D8D584037D60E
:105860000000C20501489307007E130646A0C181CF
:105870001305000FEFF02FA86FA0FFB8EFA27FB6BF
:10588000EFF05FFA6FA03FB8EFA2BFB503D5E1928A
:1058900041468565EFF08FEC1379F50F0144A5447F
:1058A000228505044A8681451374F40FEFE01F8CAE
:1058B000E31894FEEFF0DFF06FA0FFB4EFA27FB229
:1058C00003D5E19241468565EFF04FE91379F50F75
:1058D0000144A544228505044A8685451374F40FC6
:1058E000EFE0DF88E31894FEEFF0DFF36FA0BFB1C5
:1058F000EFA23FAF370900201304893204308145FD
:105900000145EFE0CFEE9384240313160501A6852D
:10591000C146418213058002EFF0FF981C309305C9
:105920002003832689329D8D584037D60000C2055A
:1059300001489307007E13064697C1810145EFF0A9
:105940008F9B6FA05FACEFA2DFA937090020130483
:105950008932043085450145EFE06FE993842403E3
:1059600013160501A685C146418213058002EFF09A
:105970009F931C3093052003832689329D8D5840C8
:1059800037D60000C20501489307007E1306869FA4
:10599000C1810145EFF02F966FA0FFA6EFA27FA473
:1059A00003D5219241468565EFF04FDB1379F50F62
:1059B0000144A544228505044A8681451374F40FE9
:1059C000EFE04FE4E31894FEEFF09FF26FA0BFA367
:1059D000EFA23FA103D5219241468565EFF00FD894
:1059E0001379F50F0144A544228505044A868545AF
:1059F0001374F40FEFE00FE1E31894FEEFF0BFF43F
:105A00006FA07FA0EFA2FF9D370900201304893209
:105A1000043081450145EFE0CFE193842403131660
:105A20000501A685C146418213058007EFF0BF87B7
:105A30001C3093052003832689329D8D584037D62C
:105A40000000C20501489307007E1306C698C18175
:105A500013050005EFF02F8A6FA0FF9AEFA27F9841
:105A60003709002013048932043085450145EFE0F1
:105A70004FDC9384240313160501A685C146418299
:105A800013058007EFF03F821C3093052003832627
:105A900089329D8D584037D60000C20501489307D2
:105AA000007E130606A1C18113050005EFF0AF8447
:105AB0006FA07F95EFA2FF9203D561921146856595
:105AC000EFF0CFC91379F50F0144A54422850504F1
:105AD0004A8681451374F40FEFE04FD7E31894FE24
